{"contracts/SimpleVoting.sol":{"SimpleVoting":{"abi":[{"inputs":[],"stateMutability":"nonpayable","type":"constructor"},{"inputs":[{"internalType":"address","name":"owner","type":"address"}],"name":"OwnableInvalidOwner","type":"error"},{"inputs":[{"internalType":"address","name":"account","type":"address"}],"name":"OwnableUnauthorizedAccount","type":"error"},{"inputs":[],"name":"ReentrancyGuardReentrantCall","type":"error"},{"anonymous":false,"inputs":[{"indexed":true,"internalType":"address","name":"previousOwner","type":"address"},{"indexed":true,"internalType":"address","name":"newOwner","type":"address"}],"name":"OwnershipTransferred","type":"event"},{"anonymous":false,"inputs":[{"indexed":true,"internalType":"bytes32","name":"submissionId","type":"bytes32"},{"indexed":true,"internalType":"uint256","name":"contestId","type":"uint256"},{"indexed":true,"internalType":"address","name":"submitter","type":"address"},{"indexed":false,"internalType":"string","name":"metadataURI","type":"string"}],"name":"SubmissionCreated","type":"event"},{"anonymous":false,"inputs":[{"indexed":true,"internalType":"bytes32","name":"submissionId","type":"bytes32"},{"indexed":true,"internalType":"uint256","name":"contestId","type":"uint256"},{"indexed":true,"internalType":"address","name":"voter","type":"address"}],"name":"VoteCast","type":"event"},{"anonymous":false,"inputs":[{"indexed":true,"internalType":"bytes32","name":"submissionId","type":"bytes32"},{"indexed":true,"internalType":"uint256","name":"contestId","type":"uint256"},{"indexed":true,"internalType":"address","name":"voter","type":"address"}],"name":"VoteRemoved","type":"event"},{"inputs":[{"internalType":"uint256","name":"_contestId","type":"uint256"},{"internalType":"address","name":"_submitter","type":"address"}],"name":"computeSubmissionId","outputs":[{"internalType":"bytes32","name":"","type":"bytes32"}],"stateMutability":"pure","type":"function"},{"inputs":[{"internalType":"uint256","name":"","type":"uint256"},{"internalType":"uint256","name":"","type":"uint256"}],"name":"contestSubmissions","outputs":[{"internalType":"bytes32","name":"","type":"bytes32"}],"stateMutability":"view","type":"function"},{"inputs":[{"internalType":"uint256","name":"_contestId","type":"uint256"}],"name":"getContestSubmissions","outputs":[{"internalType":"bytes32[]","name":"","type":"bytes32[]"}],"stateMutability":"view","type":"function"},{"inputs":[{"internalType":"bytes32","name":"_submissionId","type":"bytes32"}],"name":"getSubmission","outputs":[{"components":[{"internalType":"bytes32","name":"id","type":"bytes32"},{"internalType":"uint256","name":"contestId","type":"uint256"},{"internalType":"address","name":"submitter","type":"address"},{"internalType":"string","name":"metadataURI","type":"string"},{"internalType":"uint256","name":"voteCount","type":"uint256"},{"internalType":"uint256","name":"timestamp","type":"uint256"},{"internalType":"bool","name":"exists","type":"bool"}],"internalType":"struct SimpleVoting.Submission","name":"","type":"tuple"}],"stateMutability":"view","type":"function"},{"inputs":[{"internalType":"uint256","name":"_contestId","type":"uint256"},{"internalType":"address","name":"_user","type":"address"}],"name":"getUserSubmission","outputs":[{"internalType":"bytes32","name":"","type":"bytes32"}],"stateMutability":"view","type":"function"},{"inputs":[{"internalType":"uint256","name":"_contestId","type":"uint256"},{"internalType":"address","name":"_user","type":"address"}],"name":"getUserVoteInContest","outputs":[{"internalType":"bytes32","name":"","type":"bytes32"}],"stateMutability":"view","type":"function"},{"inputs":[{"internalType":"bytes32","name":"_submissionId","type":"bytes32"},{"internalType":"address","name":"_user","type":"address"}],"name":"hasUserVoted","outputs":[{"internalType":"bool","name":"","type":"bool"}],"stateMutability":"view","type":"function"},{"inputs":[{"internalType":"bytes32","name":"","type":"bytes32"},{"internalType":"address","name":"","type":"address"}],"name":"hasVoted","outputs":[{"internalType":"bool","name":"","type":"bool"}],"stateMutability":"view","type":"function"},{"inputs":[],"name":"owner","outputs":[{"internalType":"address","name":"","type":"address"}],"stateMutability":"view","type":"function"},{"inputs":[{"internalType":"bytes32","name":"_submissionId","type":"bytes32"}],"name":"removeVote","outputs":[],"stateMutability":"nonpayable","type":"function"},{"inputs":[],"name":"renounceOwnership","outputs":[],"stateMutability":"nonpayable","type":"function"},{"inputs":[{"internalType":"bytes32","name":"","type":"bytes32"},{"internalType":"uint256","name":"","type":"uint256"}],"name":"submissionVoters","outputs":[{"internalType":"address","name":"","type":"address"}],"stateMutability":"view","type":"function"},{"inputs":[{"internalType":"bytes32","name":"","type":"bytes32"}],"name":"submissions","outputs":[{"internalType":"bytes32","name":"id","type":"bytes32"},{"internalType":"uint256","name":"contestId","type":"uint256"},{"internalType":"address","name":"submitter","type":"address"},{"internalType":"string","name":"metadataURI","type":"string"},{"internalType":"uint256","name":"voteCount","type":"uint256"},{"internalType":"uint256","name":"timestamp","type":"uint256"},{"internalType":"bool","name":"exists","type":"bool"}],"stateMutability":"view","type":"function"},{"inputs":[{"internalType":"uint256","name":"_contestId","type":"uint256"},{"internalType":"string","name":"_metadataURI","type":"string"}],"name":"submitEntry","outputs":[{"internalType":"bytes32","name":"","type":"bytes32"}],"stateMutability":"nonpayable","type":"function"},{"inputs":[{"internalType":"address","name":"newOwner","type":"address"}],"name":"transferOwnership","outputs":[],"stateMutability":"nonpayable","type":"function"},{"inputs":[{"internalType":"uint256","name":"","type":"uint256"},{"internalType":"address","name":"","type":"address"}],"name":"userSubmission","outputs":[{"internalType":"bytes32","name":"","type":"bytes32"}],"stateMutability":"view","type":"function"},{"inputs":[{"internalType":"uint256","name":"","type":"uint256"},{"internalType":"address","name":"","type":"address"}],"name":"userVote","outputs":[{"internalType":"bytes32","name":"","type":"bytes32"}],"stateMutability":"view","type":"function"},{"inputs":[{"internalType":"bytes32","name":"_submissionId","type":"bytes32"}],"name":"vote","outputs":[],"stateMutability":"nonpayable","type":"function"}],"devdoc":{"details":"Simple voting contract - no contest factory bullshit","errors":{"OwnableInvalidOwner(address)":[{"details":"The owner is not a valid owner account. (eg. `address(0)`)"}],"OwnableUnauthorizedAccount(address)":[{"details":"The caller account is not authorized to perform an operation."}],"ReentrancyGuardReentrantCall()":[{"details":"Unauthorized reentrant call."}]},"kind":"dev","methods":{"computeSubmissionId(uint256,address)":{"details":"Helper to compute submission ID for a given contest and submitter"},"getContestSubmissions(uint256)":{"details":"Get all submissions for a contest"},"getSubmission(bytes32)":{"details":"Get submission details"},"getUserSubmission(uint256,address)":{"details":"Get user's submission for a contest"},"getUserVoteInContest(uint256,address)":{"details":"Get which submission a user voted for in a contest (bytes32(0) if no vote)"},"hasUserVoted(bytes32,address)":{"details":"Check if user has voted for a submission"},"owner()":{"details":"Returns the address of the current owner."},"removeVote(bytes32)":{"details":"Remove a vote"},"renounceOwnership()":{"details":"Leaves the contract without owner. It will not be possible to call `onlyOwner` functions. Can only be called by the current owner. NOTE: Renouncing ownership will leave the contract without an owner, thereby disabling any functionality that is only available to the owner."},"submitEntry(uint256,string)":{"details":"Submit an entry to a contestUses deterministic hash: keccak256(contestId, submitter) for ID"},"transferOwnership(address)":{"details":"Transfers ownership of the contract to a new account (`newOwner`). Can only be called by the current owner."},"vote(bytes32)":{"details":"Cast a vote for a submission"}},"title":"SimpleVoting","version":1},"evm":{"bytecode":{"linkReferences":{},"object":"6080806040523461007e5733156100685760008054336001600160a01b03198216811783556040519290916001600160a01b0316907f8be0079c531659141344cd1fd0a4f28419497f9722a3daafe3b4186f6b6457e09080a36001805561114d90816100848239f35b631e4fbdf760e01b815260006004820152602490fd5b600080fdfe6080604052600436101561001257600080fd5b60003560e01c806324a4836114610cd45780633687f7bf146102a65780634bc34df514610c7b5780634c406c0114610bd557806356ce45b614610826578063715018a6146107cd578063756dd3a4146106bb5780638da5cb5b14610692578063a69beaba14610381578063aadc3b7214610211578063c5c9c0a2146102ee578063d17bd67c146102a6578063dc37596d1461025e578063dfa63e6c1461025e578063f25c583e14610211578063f2fde38b14610181578063f43499471461012f5763fadfa4dc146100e257600080fd5b3461012a57604036600319011261012a5760243560043560005260036020526040600020805482101561012a5760209161011b91610fef565b90549060031b1c604051908152f35b600080fd5b3461012a57604036600319011261012a5760243560043560005260066020526040600020805482101561012a5760209161016891610fef565b905460405160039290921b1c6001600160a01b03168152f35b3461012a57602036600319011261012a576004356001600160a01b038181169182900361012a576101b061101d565b81156101f857600054826bffffffffffffffffffffffff60a01b821617600055167f8be0079c531659141344cd1fd0a4f28419497f9722a3daafe3b4186f6b6457e0600080a3005b604051631e4fbdf760e01b815260006004820152602490fd5b3461012a57604036600319011261012a5761022a610e7b565b600435600052600560205260406000209060018060a01b0316600052602052602060ff604060002054166040519015158152f35b3461012a57604036600319011261012a57610277610e7b565b600435600052600760205260406000209060018060a01b03166000526020526020604060002054604051908152f35b3461012a57604036600319011261012a576102bf610e7b565b600435600052600460205260406000209060018060a01b03166000526020526020604060002054604051908152f35b3461012a57602036600319011261012a5760043560005260026020526040600020805460018201549160018060a01b0360028201541661033060038301610f49565b9161036b60048201549360ff60066005850154940154169360405197889788526020880152604087015260e0606087015260e0860190610ecf565b92608085015260a0840152151560c08301520390f35b3461012a5760208060031936011261012a5760043561039e611049565b80600052600282526040600020906103bc60ff60068401541661106c565b60028201546001600160a01b03908116331461064d576001938385809501549283600052600783526040600020336000528352604060002054908115158061062b575b6104e3575b5050836004929394955060005260058352604060002033600052835260406000208660ff198254161790550161043a81546110c5565b905582600052600681526040600020805490600160401b8210156104cd578161046a918761048894018155610fef565b81546001600160a01b0360039290921b91821b19163390911b179055565b816000526007815260406000209033600052528160406000205533917fd4c5c7fc81e7d9f03f54fab208e2f87ff01d711ba66f32541018082d77751405600080a48055005b634e487b7160e01b600052604160045260246000fd5b816000526002845260046040600020600586526040600020336000528652604060002060ff1981541690550161051981546110b8565b90558160005260068452604060002090876000905b610570575b505050836004939495965033917f54f12d5a1343ebbb37773b3eed82a7b190d43aca4992cfd3f56efd6b362184f5600080a4859493929187610404565b825480821015610625576105848285610fef565b9054600391821b1c841633146105a557505061059f906110c5565b8861052e565b91909697989950600093929319870196871161060f576105df610603946105fe936105d260049a87610fef565b9054911b1c169184610fef565b90919082549060031b9160018060a01b03809116831b921b1916179055565b6110d4565b86959493928880610533565b634e487b7160e01b600052601160045260246000fd5b50610533565b508160005260058452604060002033600052845260ff604060002054166103ff565b60405162461bcd60e51b815260048101859052601e60248201527f43616e6e6f7420766f746520666f72206f776e207375626d697373696f6e00006044820152606490fd5b3461012a57600036600319011261012a576000546040516001600160a01b039091168152602090f35b3461012a5760208060031936011261012a57600060c06040516106dd81610e91565b82815282848201528260408201526060808201528260808201528260a082015201526004356000526002815260406000206040519061071b82610e91565b80548252600181015483830190815260028201546001600160a01b039081166040850190815292906107b49061075360038401610f49565b90606087019182526004840154956080880196875260ff600660058701549660a08b019788520154169560c089019615158752604051998a99818b5251908a0152516040890152511660608701525160e06080870152610100860190610ecf565b925160a08501525160c084015251151560e08301520390f35b3461012a57600036600319011261012a576107e661101d565b600080546001600160a01b0319811682556001600160a01b03167f8be0079c531659141344cd1fd0a4f28419497f9722a3daafe3b4186f6b6457e08280a3005b3461012a57604036600319011261012a5760243567ffffffffffffffff811161012a573660238201121561012a57806004013567ffffffffffffffff81116104cd5760405191610880601f8301601f191660200184610ead565b818352366024838301011161012a578160009260246020930183860137830101526108a9611049565b6004356000526004602052604060002033600052602052604060002054610b865760408051600435602082019081523360601b6bffffffffffffffffffffffff19169282019290925261090981605481015b03601f198101835282610ead565b51902060405161091881610e91565b8181526004356020820152336040820152826060820152600060808201524260a0820152600160c0820152816000526002602052604060002081518155602082015160018201556002810160018060a01b036040840151166bffffffffffffffffffffffff60a01b825416179055606082015180519067ffffffffffffffff82116104cd576109aa6003840154610f0f565b601f8111610b3f575b50602090601f8311600114610aca57918060c09492600694600092610abf575b50508160011b916000199060031b1c19161760038201555b6080840151600482015560a0840151600582015501910151151560ff801983541691161790556004356000526003602052604060002091825492600160401b8410156104cd5783610a43916001602096018155610fef565b81549060031b9084821b91600019901b19161790556004356000526004835260406000203360005283528160406000205560405190838252827f3763f6545af225cd151004629a7926d782c5fe0731806f119267ff97c38ded06339380610ab06004359589830190610ecf565b0390a460018055604051908152f35b0151905088806109d3565b906003840160005260206000209160005b601f1985168110610b2757509260c0949260019260069583601f19811610610b0e575b505050811b0160038201556109eb565b015160001960f88460031b161c19169055888080610afe565b91926020600181928685015181550194019201610adb565b600384016000526020600020601f840160051c810160208510610b7f575b601f830160051c82018110610b735750506109b3565b60008155600101610b5d565b5080610b5d565b60405162461bcd60e51b815260206004820152602160248201527f416c7265616479207375626d697474656420746f207468697320636f6e7465736044820152601d60fa1b6064820152608490fd5b3461012a5760208060031936011261012a5760043560005260038152604060002060405190818382549182815201908192600052846000209060005b86828210610c67578686610c2782880383610ead565b604051928392818401908285525180915260408401929160005b828110610c5057505050500390f35b835185528695509381019392810192600101610c41565b835485529093019260019283019201610c11565b3461012a57604036600319011261012a576020610c96610e7b565b60405160043583820190815260609290921b6bffffffffffffffffffffffff19166020830152610cc981603484016108fb565b519020604051908152f35b3461012a5760208060031936011261012a5760043590610cf2611049565b8160005260028152604060002091610d1060ff60068501541661106c565b8060005260058252604060002033600052825260ff6040600020541615610e425760069260019384936004858401549385600052600583526040600020336000528352604060002060ff19815416905501610d6b81546110b8565b9055826000526007815260406000203360005281526000604081205583600052526040600020836000905b610dc8575b505033917f54f12d5a1343ebbb37773b3eed82a7b190d43aca4992cfd3f56efd6b362184f5600080a48055005b815480821015610e3c57610ddc8284610fef565b90546001600160a01b0392600392909190831b1c83163314610e0a57505050610e04906110c5565b84610d96565b90929194959650600019810190811161060f57610e32946105fe936105d26105df9387610fef565b9082918480610d9b565b50610d9b565b60405162461bcd60e51b815260048101839052601160248201527012185d995b89dd081d9bdd1959081e595d607a1b6044820152606490fd5b602435906001600160a01b038216820361012a57565b60e0810190811067ffffffffffffffff8211176104cd57604052565b90601f8019910116810190811067ffffffffffffffff8211176104cd57604052565b919082519283825260005b848110610efb575050826000602080949584010152601f8019910116010190565b602081830181015184830182015201610eda565b90600182811c92168015610f3f575b6020831014610f2957565b634e487b7160e01b600052602260045260246000fd5b91607f1691610f1e565b9060405191826000825492610f5d84610f0f565b908184526001948581169081600014610fcc5750600114610f89575b5050610f8792500383610ead565b565b9093915060005260209081600020936000915b818310610fb4575050610f8793508201013880610f79565b85548884018501529485019487945091830191610f9c565b915050610f8794506020925060ff191682840152151560051b8201013880610f79565b80548210156110075760005260206000200190600090565b634e487b7160e01b600052603260045260246000fd5b6000546001600160a01b0316330361103157565b60405163118cdaa760e01b8152336004820152602490fd5b60026001541461105a576002600155565b604051633ee5aeb560e01b8152600490fd5b1561107357565b60405162461bcd60e51b815260206004820152601960248201527f5375626d697373696f6e20646f6573206e6f74206578697374000000000000006044820152606490fd5b801561060f576000190190565b600019811461060f5760010190565b805480156111015760001901906110eb8282610fef565b81549060018060a01b039060031b1b1916905555565b634e487b7160e01b600052603160045260246000fdfea2646970667358221220123bcfe831101024cc5674465eabf6e2d43c82c36222007201c29c971a7d63ad64736f6c63430008140033","opcodes":"PUSH1 0x80 DUP1 PUSH1 0x40 MSTORE CALLVALUE PUSH2 0x7E JUMPI CALLER ISZERO PUSH2 0x68 JUMPI PUSH1 0x0 DUP1 SLOAD CALLER PUSH1 0x1 PUSH1 0x1 PUSH1 0xA0 SHL SUB NOT DUP3 AND DUP2 OR DUP4 SSTORE PUSH1 0x40 MLOAD SWAP3 SWAP1 SWAP2 PUSH1 0x1 PUSH1 0x1 PUSH1 0xA0 SHL SUB AND SWAP1 PUSH32 0x8BE0079C531659141344CD1FD0A4F28419497F9722A3DAAFE3B4186F6B6457E0 SWAP1 DUP1 LOG3 PUSH1 0x1 DUP1 SSTORE PUSH2 0x114D SWAP1 DUP2 PUSH2 0x84 DUP3 CODECOPY RETURN JUMPDEST PUSH4 0x1E4FBDF7 PUSH1 0xE0 SHL DUP2 MSTORE PUSH1 0x0 PUSH1 0x4 DUP3 ADD MSTORE PUSH1 0x24 SWAP1 REVERT JUMPDEST PUSH1 0x0 DUP1 REVERT INVALID PUSH1 0x80 PUSH1 0x40 MSTORE PUSH1 0x4 CALLDATASIZE LT ISZERO PUSH2 0x12 JUMPI PUSH1 0x0 DUP1 REVERT JUMPDEST PUSH1 0x0 CALLDATALOAD PUSH1 0xE0 SHR DUP1 PUSH4 0x24A48361 EQ PUSH2 0xCD4 JUMPI DUP1 PUSH4 0x3687F7BF EQ PUSH2 0x2A6 JUMPI DUP1 PUSH4 0x4BC34DF5 EQ PUSH2 0xC7B JUMPI DUP1 PUSH4 0x4C406C01 EQ PUSH2 0xBD5 JUMPI DUP1 PUSH4 0x56CE45B6 EQ PUSH2 0x826 JUMPI DUP1 PUSH4 0x715018A6 EQ PUSH2 0x7CD JUMPI DUP1 PUSH4 0x756DD3A4 EQ PUSH2 0x6BB JUMPI DUP1 PUSH4 0x8DA5CB5B EQ PUSH2 0x692 JUMPI DUP1 PUSH4 0xA69BEABA EQ PUSH2 0x381 JUMPI DUP1 PUSH4 0xAADC3B72 EQ PUSH2 0x211 JUMPI DUP1 PUSH4 0xC5C9C0A2 EQ PUSH2 0x2EE JUMPI DUP1 PUSH4 0xD17BD67C EQ PUSH2 0x2A6 JUMPI DUP1 PUSH4 0xDC37596D EQ PUSH2 0x25E JUMPI DUP1 PUSH4 0xDFA63E6C EQ PUSH2 0x25E JUMPI DUP1 PUSH4 0xF25C583E EQ PUSH2 0x211 JUMPI DUP1 PUSH4 0xF2FDE38B EQ PUSH2 0x181 JUMPI DUP1 PUSH4 0xF4349947 EQ PUSH2 0x12F JUMPI PUSH4 0xFADFA4DC EQ PUSH2 0xE2 JUMPI PUSH1 0x0 DUP1 REVERT JUMPDEST CALLVALUE PUSH2 0x12A JUMPI PUSH1 0x40 CALLDATASIZE PUSH1 0x3 NOT ADD SLT PUSH2 0x12A JUMPI PUSH1 0x24 CALLDATALOAD PUSH1 0x4 CALLDATALOAD PUSH1 0x0 MSTORE PUSH1 0x3 PUSH1 0x20 MSTORE PUSH1 0x40 PUSH1 0x0 KECCAK256 DUP1 SLOAD DUP3 LT ISZERO PUSH2 0x12A JUMPI PUSH1 0x20 SWAP2 PUSH2 0x11B SWAP2 PUSH2 0xFEF JUMP JUMPDEST SWAP1 SLOAD SWAP1 PUSH1 0x3 SHL SHR PUSH1 0x40 MLOAD SWAP1 DUP2 MSTORE RETURN JUMPDEST PUSH1 0x0 DUP1 REVERT JUMPDEST CALLVALUE PUSH2 0x12A JUMPI PUSH1 0x40 CALLDATASIZE PUSH1 0x3 NOT ADD SLT PUSH2 0x12A JUMPI PUSH1 0x24 CALLDATALOAD PUSH1 0x4 CALLDATALOAD PUSH1 0x0 MSTORE PUSH1 0x6 PUSH1 0x20 MSTORE PUSH1 0x40 PUSH1 0x0 KECCAK256 DUP1 SLOAD DUP3 LT ISZERO PUSH2 0x12A JUMPI PUSH1 0x20 SWAP2 PUSH2 0x168 SWAP2 PUSH2 0xFEF JUMP JUMPDEST SWAP1 SLOAD PUSH1 0x40 MLOAD PUSH1 0x3 SWAP3 SWAP1 SWAP3 SHL SHR PUSH1 0x1 PUSH1 0x1 PUSH1 0xA0 SHL SUB AND DUP2 MSTORE RETURN JUMPDEST CALLVALUE PUSH2 0x12A JUMPI PUSH1 0x20 CALLDATASIZE PUSH1 0x3 NOT ADD SLT PUSH2 0x12A JUMPI PUSH1 0x4 CALLDATALOAD PUSH1 0x1 PUSH1 0x1 PUSH1 0xA0 SHL SUB DUP2 DUP2 AND SWAP2 DUP3 SWAP1 SUB PUSH2 0x12A JUMPI PUSH2 0x1B0 PUSH2 0x101D JUMP JUMPDEST DUP2 ISZERO PUSH2 0x1F8 JUMPI PUSH1 0x0 SLOAD DUP3 PUSH12 0xFFFFFFFFFFFFFFFFFFFFFFFF PUSH1 0xA0 SHL DUP3 AND OR PUSH1 0x0 SSTORE AND PUSH32 0x8BE0079C531659141344CD1FD0A4F28419497F9722A3DAAFE3B4186F6B6457E0 PUSH1 0x0 DUP1 LOG3 STOP JUMPDEST PUSH1 0x40 MLOAD PUSH4 0x1E4FBDF7 PUSH1 0xE0 SHL DUP2 MSTORE PUSH1 0x0 PUSH1 0x4 DUP3 ADD MSTORE PUSH1 0x24 SWAP1 REVERT JUMPDEST CALLVALUE PUSH2 0x12A JUMPI PUSH1 0x40 CALLDATASIZE PUSH1 0x3 NOT ADD SLT PUSH2 0x12A JUMPI PUSH2 0x22A PUSH2 0xE7B JUMP JUMPDEST PUSH1 0x4 CALLDATALOAD PUSH1 0x0 MSTORE PUSH1 0x5 PUSH1 0x20 MSTORE PUSH1 0x40 PUSH1 0x0 KECCAK256 SWAP1 PUSH1 0x1 DUP1 PUSH1 0xA0 SHL SUB AND PUSH1 0x0 MSTORE PUSH1 0x20 MSTORE PUSH1 0x20 PUSH1 0xFF PUSH1 0x40 PUSH1 0x0 KECCAK256 SLOAD AND PUSH1 0x40 MLOAD SWAP1 ISZERO ISZERO DUP2 MSTORE RETURN JUMPDEST CALLVALUE PUSH2 0x12A JUMPI PUSH1 0x40 CALLDATASIZE PUSH1 0x3 NOT ADD SLT PUSH2 0x12A JUMPI PUSH2 0x277 PUSH2 0xE7B JUMP JUMPDEST PUSH1 0x4 CALLDATALOAD PUSH1 0x0 MSTORE PUSH1 0x7 PUSH1 0x20 MSTORE PUSH1 0x40 PUSH1 0x0 KECCAK256 SWAP1 PUSH1 0x1 DUP1 PUSH1 0xA0 SHL SUB AND PUSH1 0x0 MSTORE PUSH1 0x20 MSTORE PUSH1 0x20 PUSH1 0x40 PUSH1 0x0 KECCAK256 SLOAD PUSH1 0x40 MLOAD SWAP1 DUP2 MSTORE RETURN JUMPDEST CALLVALUE PUSH2 0x12A JUMPI PUSH1 0x40 CALLDATASIZE PUSH1 0x3 NOT ADD SLT PUSH2 0x12A JUMPI PUSH2 0x2BF PUSH2 0xE7B JUMP JUMPDEST PUSH1 0x4 CALLDATALOAD PUSH1 0x0 MSTORE PUSH1 0x4 PUSH1 0x20 MSTORE PUSH1 0x40 PUSH1 0x0 KECCAK256 SWAP1 PUSH1 0x1 DUP1 PUSH1 0xA0 SHL SUB AND PUSH1 0x0 MSTORE PUSH1 0x20 MSTORE PUSH1 0x20 PUSH1 0x40 PUSH1 0x0 KECCAK256 SLOAD PUSH1 0x40 MLOAD SWAP1 DUP2 MSTORE RETURN JUMPDEST CALLVALUE PUSH2 0x12A JUMPI PUSH1 0x20 CALLDATASIZE PUSH1 0x3 NOT ADD SLT PUSH2 0x12A JUMPI PUSH1 0x4 CALLDATALOAD PUSH1 0x0 MSTORE PUSH1 0x2 PUSH1 0x20 MSTORE PUSH1 0x40 PUSH1 0x0 KECCAK256 DUP1 SLOAD PUSH1 0x1 DUP3 ADD SLOAD SWAP2 PUSH1 0x1 DUP1 PUSH1 0xA0 SHL SUB PUSH1 0x2 DUP3 ADD SLOAD AND PUSH2 0x330 PUSH1 0x3 DUP4 ADD PUSH2 0xF49 JUMP JUMPDEST SWAP2 PUSH2 0x36B PUSH1 0x4 DUP3 ADD SLOAD SWAP4 PUSH1 0xFF PUSH1 0x6 PUSH1 0x5 DUP6 ADD SLOAD SWAP5 ADD SLOAD AND SWAP4 PUSH1 0x40 MLOAD SWAP8 DUP9 SWAP8 DUP9 MSTORE PUSH1 0x20 DUP9 ADD MSTORE PUSH1 0x40 DUP8 ADD MSTORE PUSH1 0xE0 PUSH1 0x60 DUP8 ADD MSTORE PUSH1 0xE0 DUP7 ADD SWAP1 PUSH2 0xECF JUMP JUMPDEST SWAP3 PUSH1 0x80 DUP6 ADD MSTORE PUSH1 0xA0 DUP5 ADD MSTORE ISZERO ISZERO PUSH1 0xC0 DUP4 ADD MSTORE SUB SWAP1 RETURN JUMPDEST CALLVALUE PUSH2 0x12A JUMPI PUSH1 0x20 DUP1 PUSH1 0x3 NOT CALLDATASIZE ADD SLT PUSH2 0x12A JUMPI PUSH1 0x4 CALLDATALOAD PUSH2 0x39E PUSH2 0x1049 JUMP JUMPDEST DUP1 PUSH1 0x0 MSTORE PUSH1 0x2 DUP3 MSTORE PUSH1 0x40 PUSH1 0x0 KECCAK256 SWAP1 PUSH2 0x3BC PUSH1 0xFF PUSH1 0x6 DUP5 ADD SLOAD AND PUSH2 0x106C JUMP JUMPDEST PUSH1 0x2 DUP3 ADD SLOAD PUSH1 0x1 PUSH1 0x1 PUSH1 0xA0 SHL SUB SWAP1 DUP2 AND CALLER EQ PUSH2 0x64D JUMPI PUSH1 0x1 SWAP4 DUP4 DUP6 DUP1 SWAP6 ADD SLOAD SWAP3 DUP4 PUSH1 0x0 MSTORE PUSH1 0x7 DUP4 MSTORE PUSH1 0x40 PUSH1 0x0 KECCAK256 CALLER PUSH1 0x0 MSTORE DUP4 MSTORE PUSH1 0x40 PUSH1 0x0 KECCAK256 SLOAD SWAP1 DUP2 ISZERO ISZERO DUP1 PUSH2 0x62B JUMPI JUMPDEST PUSH2 0x4E3 JUMPI JUMPDEST POP POP DUP4 PUSH1 0x4 SWAP3 SWAP4 SWAP5 SWAP6 POP PUSH1 0x0 MSTORE PUSH1 0x5 DUP4 MSTORE PUSH1 0x40 PUSH1 0x0 KECCAK256 CALLER PUSH1 0x0 MSTORE DUP4 MSTORE PUSH1 0x40 PUSH1 0x0 KECCAK256 DUP7 PUSH1 0xFF NOT DUP3 SLOAD AND OR SWAP1 SSTORE ADD PUSH2 0x43A DUP2 SLOAD PUSH2 0x10C5 JUMP JUMPDEST SWAP1 SSTORE DUP3 PUSH1 0x0 MSTORE PUSH1 0x6 DUP2 MSTORE PUSH1 0x40 PUSH1 0x0 KECCAK256 DUP1 SLOAD SWAP1 PUSH1 0x1 PUSH1 0x40 SHL DUP3 LT ISZERO PUSH2 0x4CD JUMPI DUP2 PUSH2 0x46A SWAP2 DUP8 PUSH2 0x488 SWAP5 ADD DUP2 SSTORE PUSH2 0xFEF JUMP JUMPDEST DUP2 SLOAD PUSH1 0x1 PUSH1 0x1 PUSH1 0xA0 SHL SUB PUSH1 0x3 SWAP3 SWAP1 SWAP3 SHL SWAP2 DUP3 SHL NOT AND CALLER SWAP1 SWAP2 SHL OR SWAP1 SSTORE JUMP JUMPDEST DUP2 PUSH1 0x0 MSTORE PUSH1 0x7 DUP2 MSTORE PUSH1 0x40 PUSH1 0x0 KECCAK256 SWAP1 CALLER PUSH1 0x0 MSTORE MSTORE DUP2 PUSH1 0x40 PUSH1 0x0 KECCAK256 SSTORE CALLER SWAP2 PUSH32 0xD4C5C7FC81E7D9F03F54FAB208E2F87FF01D711BA66F32541018082D77751405 PUSH1 0x0 DUP1 LOG4 DUP1 SSTORE STOP JUMPDEST PUSH4 0x4E487B71 PUSH1 0xE0 SHL PUSH1 0x0 MSTORE PUSH1 0x41 PUSH1 0x4 MSTORE PUSH1 0x24 PUSH1 0x0 REVERT JUMPDEST DUP2 PUSH1 0x0 MSTORE PUSH1 0x2 DUP5 MSTORE PUSH1 0x4 PUSH1 0x40 PUSH1 0x0 KECCAK256 PUSH1 0x5 DUP7 MSTORE PUSH1 0x40 PUSH1 0x0 KECCAK256 CALLER PUSH1 0x0 MSTORE DUP7 MSTORE PUSH1 0x40 PUSH1 0x0 KECCAK256 PUSH1 0xFF NOT DUP2 SLOAD AND SWAP1 SSTORE ADD PUSH2 0x519 DUP2 SLOAD PUSH2 0x10B8 JUMP JUMPDEST SWAP1 SSTORE DUP2 PUSH1 0x0 MSTORE PUSH1 0x6 DUP5 MSTORE PUSH1 0x40 PUSH1 0x0 KECCAK256 SWAP1 DUP8 PUSH1 0x0 SWAP1 JUMPDEST PUSH2 0x570 JUMPI JUMPDEST POP POP POP DUP4 PUSH1 0x4 SWAP4 SWAP5 SWAP6 SWAP7 POP CALLER SWAP2 PUSH32 0x54F12D5A1343EBBB37773B3EED82A7B190D43ACA4992CFD3F56EFD6B362184F5 PUSH1 0x0 DUP1 LOG4 DUP6 SWAP5 SWAP4 SWAP3 SWAP2 DUP8 PUSH2 0x404 JUMP JUMPDEST DUP3 SLOAD DUP1 DUP3 LT ISZERO PUSH2 0x625 JUMPI PUSH2 0x584 DUP3 DUP6 PUSH2 0xFEF JUMP JUMPDEST SWAP1 SLOAD PUSH1 0x3 SWAP2 DUP3 SHL SHR DUP5 AND CALLER EQ PUSH2 0x5A5 JUMPI POP POP PUSH2 0x59F SWAP1 PUSH2 0x10C5 JUMP JUMPDEST DUP9 PUSH2 0x52E JUMP JUMPDEST SWAP2 SWAP1 SWAP7 SWAP8 SWAP9 SWAP10 POP PUSH1 0x0 SWAP4 SWAP3 SWAP4 NOT DUP8 ADD SWAP7 DUP8 GT PUSH2 0x60F JUMPI PUSH2 0x5DF PUSH2 0x603 SWAP5 PUSH2 0x5FE SWAP4 PUSH2 0x5D2 PUSH1 0x4 SWAP11 DUP8 PUSH2 0xFEF JUMP JUMPDEST SWAP1 SLOAD SWAP2 SHL SHR AND SWAP2 DUP5 PUSH2 0xFEF JUMP JUMPDEST SWAP1 SWAP2 SWAP1 DUP3 SLOAD SWAP1 PUSH1 0x3 SHL SWAP2 PUSH1 0x1 DUP1 PUSH1 0xA0 SHL SUB DUP1 SWAP2 AND DUP4 SHL SWAP3 SHL NOT AND OR SWAP1 SSTORE JUMP JUMPDEST PUSH2 0x10D4 JUMP JUMPDEST DUP7 SWAP6 SWAP5 SWAP4 SWAP3 DUP9 DUP1 PUSH2 0x533 JUMP JUMPDEST PUSH4 0x4E487B71 PUSH1 0xE0 SHL PUSH1 0x0 MSTORE PUSH1 0x11 PUSH1 0x4 MSTORE PUSH1 0x24 PUSH1 0x0 REVERT JUMPDEST POP PUSH2 0x533 JUMP JUMPDEST POP DUP2 PUSH1 0x0 MSTORE PUSH1 0x5 DUP5 MSTORE PUSH1 0x40 PUSH1 0x0 KECCAK256 CALLER PUSH1 0x0 MSTORE DUP5 MSTORE PUSH1 0xFF PUSH1 0x40 PUSH1 0x0 KECCAK256 SLOAD AND PUSH2 0x3FF JUMP JUMPDEST PUSH1 0x40 MLOAD PUSH3 0x461BCD PUSH1 0xE5 SHL DUP2 MSTORE PUSH1 0x4 DUP2 ADD DUP6 SWAP1 MSTORE PUSH1 0x1E PUSH1 0x24 DUP3 ADD MSTORE PUSH32 0x43616E6E6F7420766F746520666F72206F776E207375626D697373696F6E0000 PUSH1 0x44 DUP3 ADD MSTORE PUSH1 0x64 SWAP1 REVERT JUMPDEST CALLVALUE PUSH2 0x12A JUMPI PUSH1 0x0 CALLDATASIZE PUSH1 0x3 NOT ADD SLT PUSH2 0x12A JUMPI PUSH1 0x0 SLOAD PUSH1 0x40 MLOAD PUSH1 0x1 PUSH1 0x1 PUSH1 0xA0 SHL SUB SWAP1 SWAP2 AND DUP2 MSTORE PUSH1 0x20 SWAP1 RETURN JUMPDEST CALLVALUE PUSH2 0x12A JUMPI PUSH1 0x20 DUP1 PUSH1 0x3 NOT CALLDATASIZE ADD SLT PUSH2 0x12A JUMPI PUSH1 0x0 PUSH1 0xC0 PUSH1 0x40 MLOAD PUSH2 0x6DD DUP2 PUSH2 0xE91 JUMP JUMPDEST DUP3 DUP2 MSTORE DUP3 DUP5 DUP3 ADD MSTORE DUP3 PUSH1 0x40 DUP3 ADD MSTORE PUSH1 0x60 DUP1 DUP3 ADD MSTORE DUP3 PUSH1 0x80 DUP3 ADD MSTORE DUP3 PUSH1 0xA0 DUP3 ADD MSTORE ADD MSTORE PUSH1 0x4 CALLDATALOAD PUSH1 0x0 MSTORE PUSH1 0x2 DUP2 MSTORE PUSH1 0x40 PUSH1 0x0 KECCAK256 PUSH1 0x40 MLOAD SWAP1 PUSH2 0x71B DUP3 PUSH2 0xE91 JUMP JUMPDEST DUP1 SLOAD DUP3 MSTORE PUSH1 0x1 DUP2 ADD SLOAD DUP4 DUP4 ADD SWAP1 DUP2 MSTORE PUSH1 0x2 DUP3 ADD SLOAD PUSH1 0x1 PUSH1 0x1 PUSH1 0xA0 SHL SUB SWAP1 DUP2 AND PUSH1 0x40 DUP6 ADD SWAP1 DUP2 MSTORE SWAP3 SWAP1 PUSH2 0x7B4 SWAP1 PUSH2 0x753 PUSH1 0x3 DUP5 ADD PUSH2 0xF49 JUMP JUMPDEST SWAP1 PUSH1 0x60 DUP8 ADD SWAP2 DUP3 MSTORE PUSH1 0x4 DUP5 ADD SLOAD SWAP6 PUSH1 0x80 DUP9 ADD SWAP7 DUP8 MSTORE PUSH1 0xFF PUSH1 0x6 PUSH1 0x5 DUP8 ADD SLOAD SWAP7 PUSH1 0xA0 DUP12 ADD SWAP8 DUP9 MSTORE ADD SLOAD AND SWAP6 PUSH1 0xC0 DUP10 ADD SWAP7 ISZERO ISZERO DUP8 MSTORE PUSH1 0x40 MLOAD SWAP10 DUP11 SWAP10 DUP2 DUP12 MSTORE MLOAD SWAP1 DUP11 ADD MSTORE MLOAD PUSH1 0x40 DUP10 ADD MSTORE MLOAD AND PUSH1 0x60 DUP8 ADD MSTORE MLOAD PUSH1 0xE0 PUSH1 0x80 DUP8 ADD MSTORE PUSH2 0x100 DUP7 ADD SWAP1 PUSH2 0xECF JUMP JUMPDEST SWAP3 MLOAD PUSH1 0xA0 DUP6 ADD MSTORE MLOAD PUSH1 0xC0 DUP5 ADD MSTORE MLOAD ISZERO ISZERO PUSH1 0xE0 DUP4 ADD MSTORE SUB SWAP1 RETURN JUMPDEST CALLVALUE PUSH2 0x12A JUMPI PUSH1 0x0 CALLDATASIZE PUSH1 0x3 NOT ADD SLT PUSH2 0x12A JUMPI PUSH2 0x7E6 PUSH2 0x101D JUMP JUMPDEST PUSH1 0x0 DUP1 SLOAD PUSH1 0x1 PUSH1 0x1 PUSH1 0xA0 SHL SUB NOT DUP2 AND DUP3 SSTORE PUSH1 0x1 PUSH1 0x1 PUSH1 0xA0 SHL SUB AND PUSH32 0x8BE0079C531659141344CD1FD0A4F28419497F9722A3DAAFE3B4186F6B6457E0 DUP3 DUP1 LOG3 STOP JUMPDEST CALLVALUE PUSH2 0x12A JUMPI PUSH1 0x40 CALLDATASIZE PUSH1 0x3 NOT ADD SLT PUSH2 0x12A JUMPI PUSH1 0x24 CALLDATALOAD PUSH8 0xFFFFFFFFFFFFFFFF DUP2 GT PUSH2 0x12A JUMPI CALLDATASIZE PUSH1 0x23 DUP3 ADD SLT ISZERO PUSH2 0x12A JUMPI DUP1 PUSH1 0x4 ADD CALLDATALOAD PUSH8 0xFFFFFFFFFFFFFFFF DUP2 GT PUSH2 0x4CD JUMPI PUSH1 0x40 MLOAD SWAP2 PUSH2 0x880 PUSH1 0x1F DUP4 ADD PUSH1 0x1F NOT AND PUSH1 0x20 ADD DUP5 PUSH2 0xEAD JUMP JUMPDEST DUP2 DUP4 MSTORE CALLDATASIZE PUSH1 0x24 DUP4 DUP4 ADD ADD GT PUSH2 0x12A JUMPI DUP2 PUSH1 0x0 SWAP3 PUSH1 0x24 PUSH1 0x20 SWAP4 ADD DUP4 DUP7 ADD CALLDATACOPY DUP4 ADD ADD MSTORE PUSH2 0x8A9 PUSH2 0x1049 JUMP JUMPDEST PUSH1 0x4 CALLDATALOAD PUSH1 0x0 MSTORE PUSH1 0x4 PUSH1 0x20 MSTORE PUSH1 0x40 PUSH1 0x0 KECCAK256 CALLER PUSH1 0x0 MSTORE PUSH1 0x20 MSTORE PUSH1 0x40 PUSH1 0x0 KECCAK256 SLOAD PUSH2 0xB86 JUMPI PUSH1 0x40 DUP1 MLOAD PUSH1 0x4 CALLDATALOAD PUSH1 0x20 DUP3 ADD SWAP1 DUP2 MSTORE CALLER PUSH1 0x60 SHL PUSH12 0xFFFFFFFFFFFFFFFFFFFFFFFF NOT AND SWAP3 DUP3 ADD SWAP3 SWAP1 SWAP3 MSTORE PUSH2 0x909 DUP2 PUSH1 0x54 DUP2 ADD JUMPDEST SUB PUSH1 0x1F NOT DUP2 ADD DUP4 MSTORE DUP3 PUSH2 0xEAD JUMP JUMPDEST MLOAD SWAP1 KECCAK256 PUSH1 0x40 MLOAD PUSH2 0x918 DUP2 PUSH2 0xE91 JUMP JUMPDEST DUP2 DUP2 MSTORE PUSH1 0x4 CALLDATALOAD PUSH1 0x20 DUP3 ADD MSTORE CALLER PUSH1 0x40 DUP3 ADD MSTORE DUP3 PUSH1 0x60 DUP3 ADD MSTORE PUSH1 0x0 PUSH1 0x80 DUP3 ADD MSTORE TIMESTAMP PUSH1 0xA0 DUP3 ADD MSTORE PUSH1 0x1 PUSH1 0xC0 DUP3 ADD MSTORE DUP2 PUSH1 0x0 MSTORE PUSH1 0x2 PUSH1 0x20 MSTORE PUSH1 0x40 PUSH1 0x0 KECCAK256 DUP2 MLOAD DUP2 SSTORE PUSH1 0x20 DUP3 ADD MLOAD PUSH1 0x1 DUP3 ADD SSTORE PUSH1 0x2 DUP2 ADD PUSH1 0x1 DUP1 PUSH1 0xA0 SHL SUB PUSH1 0x40 DUP5 ADD MLOAD AND PUSH12 0xFFFFFFFFFFFFFFFFFFFFFFFF PUSH1 0xA0 SHL DUP3 SLOAD AND OR SWAP1 SSTORE PUSH1 0x60 DUP3 ADD MLOAD DUP1 MLOAD SWAP1 PUSH8 0xFFFFFFFFFFFFFFFF DUP3 GT PUSH2 0x4CD JUMPI PUSH2 0x9AA PUSH1 0x3 DUP5 ADD SLOAD PUSH2 0xF0F JUMP JUMPDEST PUSH1 0x1F DUP2 GT PUSH2 0xB3F JUMPI JUMPDEST POP PUSH1 0x20 SWAP1 PUSH1 0x1F DUP4 GT PUSH1 0x1 EQ PUSH2 0xACA JUMPI SWAP2 DUP1 PUSH1 0xC0 SWAP5 SWAP3 PUSH1 0x6 SWAP5 PUSH1 0x0 SWAP3 PUSH2 0xABF JUMPI JUMPDEST POP POP DUP2 PUSH1 0x1 SHL SWAP2 PUSH1 0x0 NOT SWAP1 PUSH1 0x3 SHL SHR NOT AND OR PUSH1 0x3 DUP3 ADD SSTORE JUMPDEST PUSH1 0x80 DUP5 ADD MLOAD PUSH1 0x4 DUP3 ADD SSTORE PUSH1 0xA0 DUP5 ADD MLOAD PUSH1 0x5 DUP3 ADD SSTORE ADD SWAP2 ADD MLOAD ISZERO ISZERO PUSH1 0xFF DUP1 NOT DUP4 SLOAD AND SWAP2 AND OR SWAP1 SSTORE PUSH1 0x4 CALLDATALOAD PUSH1 0x0 MSTORE PUSH1 0x3 PUSH1 0x20 MSTORE PUSH1 0x40 PUSH1 0x0 KECCAK256 SWAP2 DUP3 SLOAD SWAP3 PUSH1 0x1 PUSH1 0x40 SHL DUP5 LT ISZERO PUSH2 0x4CD JUMPI DUP4 PUSH2 0xA43 SWAP2 PUSH1 0x1 PUSH1 0x20 SWAP7 ADD DUP2 SSTORE PUSH2 0xFEF JUMP JUMPDEST DUP2 SLOAD SWAP1 PUSH1 0x3 SHL SWAP1 DUP5 DUP3 SHL SWAP2 PUSH1 0x0 NOT SWAP1 SHL NOT AND OR SWAP1 SSTORE PUSH1 0x4 CALLDATALOAD PUSH1 0x0 MSTORE PUSH1 0x4 DUP4 MSTORE PUSH1 0x40 PUSH1 0x0 KECCAK256 CALLER PUSH1 0x0 MSTORE DUP4 MSTORE DUP2 PUSH1 0x40 PUSH1 0x0 KECCAK256 SSTORE PUSH1 0x40 MLOAD SWAP1 DUP4 DUP3 MSTORE DUP3 PUSH32 0x3763F6545AF225CD151004629A7926D782C5FE0731806F119267FF97C38DED06 CALLER SWAP4 DUP1 PUSH2 0xAB0 PUSH1 0x4 CALLDATALOAD SWAP6 DUP10 DUP4 ADD SWAP1 PUSH2 0xECF JUMP JUMPDEST SUB SWAP1 LOG4 PUSH1 0x1 DUP1 SSTORE PUSH1 0x40 MLOAD SWAP1 DUP2 MSTORE RETURN JUMPDEST ADD MLOAD SWAP1 POP DUP9 DUP1 PUSH2 0x9D3 JUMP JUMPDEST SWAP1 PUSH1 0x3 DUP5 ADD PUSH1 0x0 MSTORE PUSH1 0x20 PUSH1 0x0 KECCAK256 SWAP2 PUSH1 0x0 JUMPDEST PUSH1 0x1F NOT DUP6 AND DUP2 LT PUSH2 0xB27 JUMPI POP SWAP3 PUSH1 0xC0 SWAP5 SWAP3 PUSH1 0x1 SWAP3 PUSH1 0x6 SWAP6 DUP4 PUSH1 0x1F NOT DUP2 AND LT PUSH2 0xB0E JUMPI JUMPDEST POP POP POP DUP2 SHL ADD PUSH1 0x3 DUP3 ADD SSTORE PUSH2 0x9EB JUMP JUMPDEST ADD MLOAD PUSH1 0x0 NOT PUSH1 0xF8 DUP5 PUSH1 0x3 SHL AND SHR NOT AND SWAP1 SSTORE DUP9 DUP1 DUP1 PUSH2 0xAFE JUMP JUMPDEST SWAP2 SWAP3 PUSH1 0x20 PUSH1 0x1 DUP2 SWAP3 DUP7 DUP6 ADD MLOAD DUP2 SSTORE ADD SWAP5 ADD SWAP3 ADD PUSH2 0xADB JUMP JUMPDEST PUSH1 0x3 DUP5 ADD PUSH1 0x0 MSTORE PUSH1 0x20 PUSH1 0x0 KECCAK256 PUSH1 0x1F DUP5 ADD PUSH1 0x5 SHR DUP2 ADD PUSH1 0x20 DUP6 LT PUSH2 0xB7F JUMPI JUMPDEST PUSH1 0x1F DUP4 ADD PUSH1 0x5 SHR DUP3 ADD DUP2 LT PUSH2 0xB73 JUMPI POP POP PUSH2 0x9B3 JUMP JUMPDEST PUSH1 0x0 DUP2 SSTORE PUSH1 0x1 ADD PUSH2 0xB5D JUMP JUMPDEST POP DUP1 PUSH2 0xB5D JUMP JUMPDEST PUSH1 0x40 MLOAD PUSH3 0x461BCD PUSH1 0xE5 SHL DUP2 MSTORE PUSH1 0x20 PUSH1 0x4 DUP3 ADD MSTORE PUSH1 0x21 PUSH1 0x24 DUP3 ADD MSTORE PUSH32 0x416C7265616479207375626D697474656420746F207468697320636F6E746573 PUSH1 0x44 DUP3 ADD MSTORE PUSH1 0x1D PUSH1 0xFA SHL PUSH1 0x64 DUP3 ADD MSTORE PUSH1 0x84 SWAP1 REVERT JUMPDEST CALLVALUE PUSH2 0x12A JUMPI PUSH1 0x20 DUP1 PUSH1 0x3 NOT CALLDATASIZE ADD SLT PUSH2 0x12A JUMPI PUSH1 0x4 CALLDATALOAD PUSH1 0x0 MSTORE PUSH1 0x3 DUP2 MSTORE PUSH1 0x40 PUSH1 0x0 KECCAK256 PUSH1 0x40 MLOAD SWAP1 DUP2 DUP4 DUP3 SLOAD SWAP2 DUP3 DUP2 MSTORE ADD SWAP1 DUP2 SWAP3 PUSH1 0x0 MSTORE DUP5 PUSH1 0x0 KECCAK256 SWAP1 PUSH1 0x0 JUMPDEST DUP7 DUP3 DUP3 LT PUSH2 0xC67 JUMPI DUP7 DUP7 PUSH2 0xC27 DUP3 DUP9 SUB DUP4 PUSH2 0xEAD JUMP JUMPDEST PUSH1 0x40 MLOAD SWAP3 DUP4 SWAP3 DUP2 DUP5 ADD SWAP1 DUP3 DUP6 MSTORE MLOAD DUP1 SWAP2 MSTORE PUSH1 0x40 DUP5 ADD SWAP3 SWAP2 PUSH1 0x0 JUMPDEST DUP3 DUP2 LT PUSH2 0xC50 JUMPI POP POP POP POP SUB SWAP1 RETURN JUMPDEST DUP4 MLOAD DUP6 MSTORE DUP7 SWAP6 POP SWAP4 DUP2 ADD SWAP4 SWAP3 DUP2 ADD SWAP3 PUSH1 0x1 ADD PUSH2 0xC41 JUMP JUMPDEST DUP4 SLOAD DUP6 MSTORE SWAP1 SWAP4 ADD SWAP3 PUSH1 0x1 SWAP3 DUP4 ADD SWAP3 ADD PUSH2 0xC11 JUMP JUMPDEST CALLVALUE PUSH2 0x12A JUMPI PUSH1 0x40 CALLDATASIZE PUSH1 0x3 NOT ADD SLT PUSH2 0x12A JUMPI PUSH1 0x20 PUSH2 0xC96 PUSH2 0xE7B JUMP JUMPDEST PUSH1 0x40 MLOAD PUSH1 0x4 CALLDATALOAD DUP4 DUP3 ADD SWAP1 DUP2 MSTORE PUSH1 0x60 SWAP3 SWAP1 SWAP3 SHL PUSH12 0xFFFFFFFFFFFFFFFFFFFFFFFF NOT AND PUSH1 0x20 DUP4 ADD MSTORE PUSH2 0xCC9 DUP2 PUSH1 0x34 DUP5 ADD PUSH2 0x8FB JUMP JUMPDEST MLOAD SWAP1 KECCAK256 PUSH1 0x40 MLOAD SWAP1 DUP2 MSTORE RETURN JUMPDEST CALLVALUE PUSH2 0x12A JUMPI PUSH1 0x20 DUP1 PUSH1 0x3 NOT CALLDATASIZE ADD SLT PUSH2 0x12A JUMPI PUSH1 0x4 CALLDATALOAD SWAP1 PUSH2 0xCF2 PUSH2 0x1049 JUMP JUMPDEST DUP2 PUSH1 0x0 MSTORE PUSH1 0x2 DUP2 MSTORE PUSH1 0x40 PUSH1 0x0 KECCAK256 SWAP2 PUSH2 0xD10 PUSH1 0xFF PUSH1 0x6 DUP6 ADD SLOAD AND PUSH2 0x106C JUMP JUMPDEST DUP1 PUSH1 0x0 MSTORE PUSH1 0x5 DUP3 MSTORE PUSH1 0x40 PUSH1 0x0 KECCAK256 CALLER PUSH1 0x0 MSTORE DUP3 MSTORE PUSH1 0xFF PUSH1 0x40 PUSH1 0x0 KECCAK256 SLOAD AND ISZERO PUSH2 0xE42 JUMPI PUSH1 0x6 SWAP3 PUSH1 0x1 SWAP4 DUP5 SWAP4 PUSH1 0x4 DUP6 DUP5 ADD SLOAD SWAP4 DUP6 PUSH1 0x0 MSTORE PUSH1 0x5 DUP4 MSTORE PUSH1 0x40 PUSH1 0x0 KECCAK256 CALLER PUSH1 0x0 MSTORE DUP4 MSTORE PUSH1 0x40 PUSH1 0x0 KECCAK256 PUSH1 0xFF NOT DUP2 SLOAD AND SWAP1 SSTORE ADD PUSH2 0xD6B DUP2 SLOAD PUSH2 0x10B8 JUMP JUMPDEST SWAP1 SSTORE DUP3 PUSH1 0x0 MSTORE PUSH1 0x7 DUP2 MSTORE PUSH1 0x40 PUSH1 0x0 KECCAK256 CALLER PUSH1 0x0 MSTORE DUP2 MSTORE PUSH1 0x0 PUSH1 0x40 DUP2 KECCAK256 SSTORE DUP4 PUSH1 0x0 MSTORE MSTORE PUSH1 0x40 PUSH1 0x0 KECCAK256 DUP4 PUSH1 0x0 SWAP1 JUMPDEST PUSH2 0xDC8 JUMPI JUMPDEST POP POP CALLER SWAP2 PUSH32 0x54F12D5A1343EBBB37773B3EED82A7B190D43ACA4992CFD3F56EFD6B362184F5 PUSH1 0x0 DUP1 LOG4 DUP1 SSTORE STOP JUMPDEST DUP2 SLOAD DUP1 DUP3 LT ISZERO PUSH2 0xE3C JUMPI PUSH2 0xDDC DUP3 DUP5 PUSH2 0xFEF JUMP JUMPDEST SWAP1 SLOAD PUSH1 0x1 PUSH1 0x1 PUSH1 0xA0 SHL SUB SWAP3 PUSH1 0x3 SWAP3 SWAP1 SWAP2 SWAP1 DUP4 SHL SHR DUP4 AND CALLER EQ PUSH2 0xE0A JUMPI POP POP POP PUSH2 0xE04 SWAP1 PUSH2 0x10C5 JUMP JUMPDEST DUP5 PUSH2 0xD96 JUMP JUMPDEST SWAP1 SWAP3 SWAP2 SWAP5 SWAP6 SWAP7 POP PUSH1 0x0 NOT DUP2 ADD SWAP1 DUP2 GT PUSH2 0x60F JUMPI PUSH2 0xE32 SWAP5 PUSH2 0x5FE SWAP4 PUSH2 0x5D2 PUSH2 0x5DF SWAP4 DUP8 PUSH2 0xFEF JUMP JUMPDEST SWAP1 DUP3 SWAP2 DUP5 DUP1 PUSH2 0xD9B JUMP JUMPDEST POP PUSH2 0xD9B JUMP JUMPDEST PUSH1 0x40 MLOAD PUSH3 0x461BCD PUSH1 0xE5 SHL DUP2 MSTORE PUSH1 0x4 DUP2 ADD DUP4 SWAP1 MSTORE PUSH1 0x11 PUSH1 0x24 DUP3 ADD MSTORE PUSH17 0x12185D995B89DD081D9BDD1959081E595D PUSH1 0x7A SHL PUSH1 0x44 DUP3 ADD MSTORE PUSH1 0x64 SWAP1 REVERT JUMPDEST PUSH1 0x24 CALLDATALOAD SWAP1 PUSH1 0x1 PUSH1 0x1 PUSH1 0xA0 SHL SUB DUP3 AND DUP3 SUB PUSH2 0x12A JUMPI JUMP JUMPDEST PUSH1 0xE0 DUP2 ADD SWAP1 DUP2 LT PUSH8 0xFFFFFFFFFFFFFFFF DUP3 GT OR PUSH2 0x4CD JUMPI PUSH1 0x40 MSTORE JUMP JUMPDEST SWAP1 PUSH1 0x1F DUP1 NOT SWAP2 ADD AND DUP2 ADD SWAP1 DUP2 LT PUSH8 0xFFFFFFFFFFFFFFFF DUP3 GT OR PUSH2 0x4CD JUMPI PUSH1 0x40 MSTORE JUMP JUMPDEST SWAP2 SWAP1 DUP3 MLOAD SWAP3 DUP4 DUP3 MSTORE PUSH1 0x0 JUMPDEST DUP5 DUP2 LT PUSH2 0xEFB JUMPI POP POP DUP3 PUSH1 0x0 PUSH1 0x20 DUP1 SWAP5 SWAP6 DUP5 ADD ADD MSTORE PUSH1 0x1F DUP1 NOT SWAP2 ADD AND ADD ADD SWAP1 JUMP JUMPDEST PUSH1 0x20 DUP2 DUP4 ADD DUP2 ADD MLOAD DUP5 DUP4 ADD DUP3 ADD MSTORE ADD PUSH2 0xEDA JUMP JUMPDEST SWAP1 PUSH1 0x1 DUP3 DUP2 SHR SWAP3 AND DUP1 ISZERO PUSH2 0xF3F JUMPI JUMPDEST PUSH1 0x20 DUP4 LT EQ PUSH2 0xF29 JUMPI JUMP JUMPDEST PUSH4 0x4E487B71 PUSH1 0xE0 SHL PUSH1 0x0 MSTORE PUSH1 0x22 PUSH1 0x4 MSTORE PUSH1 0x24 PUSH1 0x0 REVERT JUMPDEST SWAP2 PUSH1 0x7F AND SWAP2 PUSH2 0xF1E JUMP JUMPDEST SWAP1 PUSH1 0x40 MLOAD SWAP2 DUP3 PUSH1 0x0 DUP3 SLOAD SWAP3 PUSH2 0xF5D DUP5 PUSH2 0xF0F JUMP JUMPDEST SWAP1 DUP2 DUP5 MSTORE PUSH1 0x1 SWAP5 DUP6 DUP2 AND SWAP1 DUP2 PUSH1 0x0 EQ PUSH2 0xFCC JUMPI POP PUSH1 0x1 EQ PUSH2 0xF89 JUMPI JUMPDEST POP POP PUSH2 0xF87 SWAP3 POP SUB DUP4 PUSH2 0xEAD JUMP JUMPDEST JUMP JUMPDEST SWAP1 SWAP4 SWAP2 POP PUSH1 0x0 MSTORE PUSH1 0x20 SWAP1 DUP2 PUSH1 0x0 KECCAK256 SWAP4 PUSH1 0x0 SWAP2 JUMPDEST DUP2 DUP4 LT PUSH2 0xFB4 JUMPI POP POP PUSH2 0xF87 SWAP4 POP DUP3 ADD ADD CODESIZE DUP1 PUSH2 0xF79 JUMP JUMPDEST DUP6 SLOAD DUP9 DUP5 ADD DUP6 ADD MSTORE SWAP5 DUP6 ADD SWAP5 DUP8 SWAP5 POP SWAP2 DUP4 ADD SWAP2 PUSH2 0xF9C JUMP JUMPDEST SWAP2 POP POP PUSH2 0xF87 SWAP5 POP PUSH1 0x20 SWAP3 POP PUSH1 0xFF NOT AND DUP3 DUP5 ADD MSTORE ISZERO ISZERO PUSH1 0x5 SHL DUP3 ADD ADD CODESIZE DUP1 PUSH2 0xF79 JUMP JUMPDEST DUP1 SLOAD DUP3 LT ISZERO PUSH2 0x1007 JUMPI PUSH1 0x0 MSTORE PUSH1 0x20 PUSH1 0x0 KECCAK256 ADD SWAP1 PUSH1 0x0 SWAP1 JUMP JUMPDEST PUSH4 0x4E487B71 PUSH1 0xE0 SHL PUSH1 0x0 MSTORE PUSH1 0x32 PUSH1 0x4 MSTORE PUSH1 0x24 PUSH1 0x0 REVERT JUMPDEST PUSH1 0x0 SLOAD PUSH1 0x1 PUSH1 0x1 PUSH1 0xA0 SHL SUB AND CALLER SUB PUSH2 0x1031 JUMPI JUMP JUMPDEST PUSH1 0x40 MLOAD PUSH4 0x118CDAA7 PUSH1 0xE0 SHL DUP2 MSTORE CALLER PUSH1 0x4 DUP3 ADD MSTORE PUSH1 0x24 SWAP1 REVERT JUMPDEST PUSH1 0x2 PUSH1 0x1 SLOAD EQ PUSH2 0x105A JUMPI PUSH1 0x2 PUSH1 0x1 SSTORE JUMP JUMPDEST PUSH1 0x40 MLOAD PUSH4 0x3EE5AEB5 PUSH1 0xE0 SHL DUP2 MSTORE PUSH1 0x4 SWAP1 REVERT JUMPDEST ISZERO PUSH2 0x1073 JUMPI JUMP JUMPDEST PUSH1 0x40 MLOAD PUSH3 0x461BCD PUSH1 0xE5 SHL DUP2 MSTORE PUSH1 0x20 PUSH1 0x4 DUP3 ADD MSTORE PUSH1 0x19 PUSH1 0x24 DUP3 ADD MSTORE PUSH32 0x5375626D697373696F6E20646F6573206E6F7420657869737400000000000000 PUSH1 0x44 DUP3 ADD MSTORE PUSH1 0x64 SWAP1 REVERT JUMPDEST DUP1 ISZERO PUSH2 0x60F JUMPI PUSH1 0x0 NOT ADD SWAP1 JUMP JUMPDEST PUSH1 0x0 NOT DUP2 EQ PUSH2 0x60F JUMPI PUSH1 0x1 ADD SWAP1 JUMP JUMPDEST DUP1 SLOAD DUP1 ISZERO PUSH2 0x1101 JUMPI PUSH1 0x0 NOT ADD SWAP1 PUSH2 0x10EB DUP3 DUP3 PUSH2 0xFEF JUMP JUMPDEST DUP2 SLOAD SWAP1 PUSH1 0x1 DUP1 PUSH1 0xA0 SHL SUB SWAP1 PUSH1 0x3 SHL SHL NOT AND SWAP1 SSTORE SSTORE JUMP JUMPDEST PUSH4 0x4E487B71 PUSH1 0xE0 SHL PUSH1 0x0 MSTORE PUSH1 0x31 PUSH1 0x4 MSTORE PUSH1 0x24 PUSH1 0x0 REVERT INVALID LOG2 PUSH5 0x6970667358 0x22 SLT KECCAK256 SLT EXTCODESIZE 0xCF 0xE8 BALANCE LT LT 0x24 0xCC JUMP PUSH21 0x465EABF6E2D43C82C36222007201C29C971A7D63AD PUSH5 0x736F6C6343 STOP ADDMOD EQ STOP CALLER "},"gasEstimates":{"creation":{"codeDepositCost":"885800","executionCost":"48840","totalCost":"934640"},"external":{"computeSubmissionId(uint256,address)":"526","contestSubmissions(uint256,uint256)":"7048","getContestSubmissions(uint256)":"infinite","getSubmission(bytes32)":"infinite","getUserSubmission(uint256,address)":"2492","getUserVoteInContest(uint256,address)":"2756","hasUserVoted(bytes32,address)":"2790","hasVoted(bytes32,address)":"2680","owner()":"2428","removeVote(bytes32)":"infinite","renounceOwnership()":"28156","submissionVoters(bytes32,uint256)":"7050","submissions(bytes32)":"infinite","submitEntry(uint256,string)":"infinite","transferOwnership(address)":"28429","userSubmission(uint256,address)":"2712","userVote(uint256,address)":"2734","vote(bytes32)":"infinite"}},"methodIdentifiers":{"computeSubmissionId(uint256,address)":"4bc34df5","contestSubmissions(uint256,uint256)":"fadfa4dc","getContestSubmissions(uint256)":"4c406c01","getSubmission(bytes32)":"756dd3a4","getUserSubmission(uint256,address)":"3687f7bf","getUserVoteInContest(uint256,address)":"dfa63e6c","hasUserVoted(bytes32,address)":"f25c583e","hasVoted(bytes32,address)":"aadc3b72","owner()":"8da5cb5b","removeVote(bytes32)":"24a48361","renounceOwnership()":"715018a6","submissionVoters(bytes32,uint256)":"f4349947","submissions(bytes32)":"c5c9c0a2","submitEntry(uint256,string)":"56ce45b6","transferOwnership(address)":"f2fde38b","userSubmission(uint256,address)":"d17bd67c","userVote(uint256,address)":"dc37596d","vote(bytes32)":"a69beaba"}},"storageLayout":{"storage":[{"astId":8,"contract":"contracts/SimpleVoting.sol:SimpleVoting","label":"_owner","offset":0,"slot":"0","type":"t_address"},{"astId":188,"contract":"contracts/SimpleVoting.sol:SimpleVoting","label":"_status","offset":0,"slot":"1","type":"t_uint256"},{"astId":275,"contract":"contracts/SimpleVoting.sol:SimpleVoting","label":"submissions","offset":0,"slot":"2","type":"t_mapping(t_bytes32,t_struct(Submission)270_storage)"},{"astId":280,"contract":"contracts/SimpleVoting.sol:SimpleVoting","label":"contestSubmissions","offset":0,"slot":"3","type":"t_mapping(t_uint256,t_array(t_bytes32)dyn_storage)"},{"astId":286,"contract":"contracts/SimpleVoting.sol:SimpleVoting","label":"userSubmission","offset":0,"slot":"4","type":"t_mapping(t_uint256,t_mapping(t_address,t_bytes32))"},{"astId":292,"contract":"contracts/SimpleVoting.sol:SimpleVoting","label":"hasVoted","offset":0,"slot":"5","type":"t_mapping(t_bytes32,t_mapping(t_address,t_bool))"},{"astId":297,"contract":"contracts/SimpleVoting.sol:SimpleVoting","label":"submissionVoters","offset":0,"slot":"6","type":"t_mapping(t_bytes32,t_array(t_address)dyn_storage)"},{"astId":303,"contract":"contracts/SimpleVoting.sol:SimpleVoting","label":"userVote","offset":0,"slot":"7","type":"t_mapping(t_uint256,t_mapping(t_address,t_bytes32))"}],"types":{"t_address":{"encoding":"inplace","label":"address","numberOfBytes":"20"},"t_array(t_address)dyn_storage":{"base":"t_address","encoding":"dynamic_array","label":"address[]","numberOfBytes":"32"},"t_array(t_bytes32)dyn_storage":{"base":"t_bytes32","encoding":"dynamic_array","label":"bytes32[]","numberOfBytes":"32"},"t_bool":{"encoding":"inplace","label":"bool","numberOfBytes":"1"},"t_bytes32":{"encoding":"inplace","label":"bytes32","numberOfBytes":"32"},"t_mapping(t_address,t_bool)":{"encoding":"mapping","key":"t_address","label":"mapping(address => bool)","numberOfBytes":"32","value":"t_bool"},"t_mapping(t_address,t_bytes32)":{"encoding":"mapping","key":"t_address","label":"mapping(address => bytes32)","numberOfBytes":"32","value":"t_bytes32"},"t_mapping(t_bytes32,t_array(t_address)dyn_storage)":{"encoding":"mapping","key":"t_bytes32","label":"mapping(bytes32 => address[])","numberOfBytes":"32","value":"t_array(t_address)dyn_storage"},"t_mapping(t_bytes32,t_mapping(t_address,t_bool))":{"encoding":"mapping","key":"t_bytes32","label":"mapping(bytes32 => mapping(address => bool))","numberOfBytes":"32","value":"t_mapping(t_address,t_bool)"},"t_mapping(t_bytes32,t_struct(Submission)270_storage)":{"encoding":"mapping","key":"t_bytes32","label":"mapping(bytes32 => struct SimpleVoting.Submission)","numberOfBytes":"32","value":"t_struct(Submission)270_storage"},"t_mapping(t_uint256,t_array(t_bytes32)dyn_storage)":{"encoding":"mapping","key":"t_uint256","label":"mapping(uint256 => bytes32[])","numberOfBytes":"32","value":"t_array(t_bytes32)dyn_storage"},"t_mapping(t_uint256,t_mapping(t_address,t_bytes32))":{"encoding":"mapping","key":"t_uint256","label":"mapping(uint256 => mapping(address => bytes32))","numberOfBytes":"32","value":"t_mapping(t_address,t_bytes32)"},"t_string_storage":{"encoding":"bytes","label":"string","numberOfBytes":"32"},"t_struct(Submission)270_storage":{"encoding":"inplace","label":"struct SimpleVoting.Submission","members":[{"astId":257,"contract":"contracts/SimpleVoting.sol:SimpleVoting","label":"id","offset":0,"slot":"0","type":"t_bytes32"},{"astId":259,"contract":"contracts/SimpleVoting.sol:SimpleVoting","label":"contestId","offset":0,"slot":"1","type":"t_uint256"},{"astId":261,"contract":"contracts/SimpleVoting.sol:SimpleVoting","label":"submitter","offset":0,"slot":"2","type":"t_address"},{"astId":263,"contract":"contracts/SimpleVoting.sol:SimpleVoting","label":"metadataURI","offset":0,"slot":"3","type":"t_string_storage"},{"astId":265,"contract":"contracts/SimpleVoting.sol:SimpleVoting","label":"voteCount","offset":0,"slot":"4","type":"t_uint256"},{"astId":267,"contract":"contracts/SimpleVoting.sol:SimpleVoting","label":"timestamp","offset":0,"slot":"5","type":"t_uint256"},{"astId":269,"contract":"contracts/SimpleVoting.sol:SimpleVoting","label":"exists","offset":0,"slot":"6","type":"t_bool"}],"numberOfBytes":"224"},"t_uint256":{"encoding":"inplace","label":"uint256","numberOfBytes":"32"}}},"userdoc":{"kind":"user","methods":{},"version":1}}}}