{"contracts/SimpleVoting.sol":{"SimpleVoting":{"abi":[{"inputs":[],"stateMutability":"nonpayable","type":"constructor"},{"inputs":[{"internalType":"address","name":"owner","type":"address"}],"name":"OwnableInvalidOwner","type":"error"},{"inputs":[{"internalType":"address","name":"account","type":"address"}],"name":"OwnableUnauthorizedAccount","type":"error"},{"inputs":[],"name":"ReentrancyGuardReentrantCall","type":"error"},{"anonymous":false,"inputs":[{"indexed":true,"internalType":"address","name":"previousOwner","type":"address"},{"indexed":true,"internalType":"address","name":"newOwner","type":"address"}],"name":"OwnershipTransferred","type":"event"},{"anonymous":false,"inputs":[{"indexed":true,"internalType":"uint256","name":"submissionId","type":"uint256"},{"indexed":true,"internalType":"uint256","name":"contestId","type":"uint256"},{"indexed":true,"internalType":"address","name":"submitter","type":"address"},{"indexed":false,"internalType":"string","name":"metadataURI","type":"string"}],"name":"SubmissionCreated","type":"event"},{"anonymous":false,"inputs":[{"indexed":true,"internalType":"uint256","name":"submissionId","type":"uint256"},{"indexed":true,"internalType":"uint256","name":"contestId","type":"uint256"},{"indexed":true,"internalType":"address","name":"voter","type":"address"}],"name":"VoteCast","type":"event"},{"anonymous":false,"inputs":[{"indexed":true,"internalType":"uint256","name":"submissionId","type":"uint256"},{"indexed":true,"internalType":"uint256","name":"contestId","type":"uint256"},{"indexed":true,"internalType":"address","name":"voter","type":"address"}],"name":"VoteRemoved","type":"event"},{"inputs":[{"internalType":"uint256","name":"","type":"uint256"},{"internalType":"uint256","name":"","type":"uint256"}],"name":"contestSubmissions","outputs":[{"internalType":"uint256","name":"","type":"uint256"}],"stateMutability":"view","type":"function"},{"inputs":[{"internalType":"uint256","name":"_contestId","type":"uint256"}],"name":"getContestSubmissions","outputs":[{"internalType":"uint256[]","name":"","type":"uint256[]"}],"stateMutability":"view","type":"function"},{"inputs":[{"internalType":"uint256","name":"_submissionId","type":"uint256"}],"name":"getSubmission","outputs":[{"components":[{"internalType":"uint256","name":"id","type":"uint256"},{"internalType":"uint256","name":"contestId","type":"uint256"},{"internalType":"address","name":"submitter","type":"address"},{"internalType":"string","name":"metadataURI","type":"string"},{"internalType":"uint256","name":"voteCount","type":"uint256"},{"internalType":"uint256","name":"timestamp","type":"uint256"},{"internalType":"bool","name":"exists","type":"bool"}],"internalType":"struct SimpleVoting.Submission","name":"","type":"tuple"}],"stateMutability":"view","type":"function"},{"inputs":[],"name":"getTotalSubmissions","outputs":[{"internalType":"uint256","name":"","type":"uint256"}],"stateMutability":"view","type":"function"},{"inputs":[{"internalType":"uint256","name":"_contestId","type":"uint256"},{"internalType":"address","name":"_user","type":"address"}],"name":"getUserSubmission","outputs":[{"internalType":"uint256","name":"","type":"uint256"}],"stateMutability":"view","type":"function"},{"inputs":[{"internalType":"uint256","name":"_contestId","type":"uint256"},{"internalType":"address","name":"_user","type":"address"}],"name":"getUserVoteInContest","outputs":[{"internalType":"uint256","name":"","type":"uint256"}],"stateMutability":"view","type":"function"},{"inputs":[{"internalType":"uint256","name":"_submissionId","type":"uint256"},{"internalType":"address","name":"_user","type":"address"}],"name":"hasUserVoted","outputs":[{"internalType":"bool","name":"","type":"bool"}],"stateMutability":"view","type":"function"},{"inputs":[{"internalType":"uint256","name":"","type":"uint256"},{"internalType":"address","name":"","type":"address"}],"name":"hasVoted","outputs":[{"internalType":"bool","name":"","type":"bool"}],"stateMutability":"view","type":"function"},{"inputs":[],"name":"owner","outputs":[{"internalType":"address","name":"","type":"address"}],"stateMutability":"view","type":"function"},{"inputs":[{"internalType":"uint256","name":"_submissionId","type":"uint256"}],"name":"removeVote","outputs":[],"stateMutability":"nonpayable","type":"function"},{"inputs":[],"name":"renounceOwnership","outputs":[],"stateMutability":"nonpayable","type":"function"},{"inputs":[{"internalType":"uint256","name":"","type":"uint256"},{"internalType":"uint256","name":"","type":"uint256"}],"name":"submissionVoters","outputs":[{"internalType":"address","name":"","type":"address"}],"stateMutability":"view","type":"function"},{"inputs":[{"internalType":"uint256","name":"","type":"uint256"}],"name":"submissions","outputs":[{"internalType":"uint256","name":"id","type":"uint256"},{"internalType":"uint256","name":"contestId","type":"uint256"},{"internalType":"address","name":"submitter","type":"address"},{"internalType":"string","name":"metadataURI","type":"string"},{"internalType":"uint256","name":"voteCount","type":"uint256"},{"internalType":"uint256","name":"timestamp","type":"uint256"},{"internalType":"bool","name":"exists","type":"bool"}],"stateMutability":"view","type":"function"},{"inputs":[{"internalType":"uint256","name":"_contestId","type":"uint256"},{"internalType":"string","name":"_metadataURI","type":"string"}],"name":"submitEntry","outputs":[{"internalType":"uint256","name":"","type":"uint256"}],"stateMutability":"nonpayable","type":"function"},{"inputs":[{"internalType":"address","name":"newOwner","type":"address"}],"name":"transferOwnership","outputs":[],"stateMutability":"nonpayable","type":"function"},{"inputs":[{"internalType":"uint256","name":"","type":"uint256"},{"internalType":"address","name":"","type":"address"}],"name":"userSubmission","outputs":[{"internalType":"uint256","name":"","type":"uint256"}],"stateMutability":"view","type":"function"},{"inputs":[{"internalType":"uint256","name":"","type":"uint256"},{"internalType":"address","name":"","type":"address"}],"name":"userVote","outputs":[{"internalType":"uint256","name":"","type":"uint256"}],"stateMutability":"view","type":"function"},{"inputs":[{"internalType":"uint256","name":"_submissionId","type":"uint256"}],"name":"vote","outputs":[],"stateMutability":"nonpayable","type":"function"}],"devdoc":{"details":"Simple voting contract - no contest factory bullshit","errors":{"OwnableInvalidOwner(address)":[{"details":"The owner is not a valid owner account. (eg. `address(0)`)"}],"OwnableUnauthorizedAccount(address)":[{"details":"The caller account is not authorized to perform an operation."}],"ReentrancyGuardReentrantCall()":[{"details":"Unauthorized reentrant call."}]},"kind":"dev","methods":{"getContestSubmissions(uint256)":{"details":"Get all submissions for a contest"},"getSubmission(uint256)":{"details":"Get submission details"},"getTotalSubmissions()":{"details":"Get total submissions count"},"getUserSubmission(uint256,address)":{"details":"Get user's submission for a contest"},"getUserVoteInContest(uint256,address)":{"details":"Get which submission a user voted for in a contest (0 if no vote)"},"hasUserVoted(uint256,address)":{"details":"Check if user has voted for a submission"},"owner()":{"details":"Returns the address of the current owner."},"removeVote(uint256)":{"details":"Remove a vote"},"renounceOwnership()":{"details":"Leaves the contract without owner. It will not be possible to call `onlyOwner` functions. Can only be called by the current owner. NOTE: Renouncing ownership will leave the contract without an owner, thereby disabling any functionality that is only available to the owner."},"submitEntry(uint256,string)":{"details":"Submit an entry to a contest"},"transferOwnership(address)":{"details":"Transfers ownership of the contract to a new account (`newOwner`). Can only be called by the current owner."},"vote(uint256)":{"details":"Cast a vote for a submission"}},"title":"SimpleVoting","version":1},"evm":{"bytecode":{"linkReferences":{},"object":"6080806040523461008357331561006d5760008054336001600160a01b03198216811783556040519290916001600160a01b0316907f8be0079c531659141344cd1fd0a4f28419497f9722a3daafe3b4186f6b6457e09080a36001805560016002556110e390816100898239f35b631e4fbdf760e01b815260006004820152602490fd5b600080fdfe6080604052600436101561001257600080fd5b60003560e01c80630121b93f14610b465780633687f7bf1461024b5780633e8686cc14610a345780633f68fde41461084857806343859632146101fe5780634c406c01146107a257806354554d461461078457806356ce45b6146103f25780636c811686146103a8578063715018a61461034f5780638da5cb5b14610326578063ad73349e14610293578063d17bd67c1461024b578063dc296ae1146101fe578063dc37596d146101b6578063dfa63e6c146101b6578063f2fde38b146101265763fadfa4dc146100e257600080fd5b34610121576100f036610e8f565b906000526004602052604060002080548210156101215760209161011391610ea5565b90546040519160031b1c8152f35b600080fd5b34610121576020366003190112610121576004356001600160a01b038181169182900361012157610155610fb3565b811561019d57600054826bffffffffffffffffffffffff60a01b821617600055167f8be0079c531659141344cd1fd0a4f28419497f9722a3daafe3b4186f6b6457e0600080a3005b604051631e4fbdf760e01b815260006004820152602490fd5b34610121576040366003190112610121576101cf610dfb565b600435600052600860205260406000209060018060a01b03166000526020526020604060002054604051908152f35b3461012157604036600319011261012157610217610dfb565b600435600052600660205260406000209060018060a01b0316600052602052602060ff604060002054166040519015158152f35b3461012157604036600319011261012157610264610dfb565b600435600052600560205260406000209060018060a01b03166000526020526020604060002054604051908152f35b346101215760203660031901126101215760043560005260036020526040600020805460018201549160018060a01b036002820154166102d560038301610f0d565b9161031060048201549360ff60066005850154940154169360405197889788526020880152604087015260e0606087015260e0860190610e11565b92608085015260a0840152151560c08301520390f35b34610121576000366003190112610121576000546040516001600160a01b039091168152602090f35b3461012157600036600319011261012157610368610fb3565b600080546001600160a01b0319811682556001600160a01b03167f8be0079c531659141344cd1fd0a4f28419497f9722a3daafe3b4186f6b6457e08280a3005b34610121576103b636610e8f565b90600052600760205260406000208054821015610121576020916103d991610ea5565b905460405160039290921b1c6001600160a01b03168152f35b346101215760403660031901126101215760243567ffffffffffffffff8111610121573660238201121561012157806004013567ffffffffffffffff8111610658576040519161044c601f8301601f191660200184610e6d565b818352366024838301011161012157816000926024602093018386013783010152610475610fee565b6004356000526005602052604060002033600052602052604060002054610735576002546104a281610fdf565b6002556040516104b181610e51565b8181526004356020820152336040820152826060820152600060808201524260a0820152600160c0820152816000526003602052604060002081518155602082015160018201556002810160018060a01b036040840151166bffffffffffffffffffffffff60a01b825416179055606082015180519067ffffffffffffffff8211610658576105436003840154610ed3565b601f81116106ee575b50602090601f831160011461067957918060c0949260069460009261066e575b50508160011b916000199060031b1c19161760038201555b6080840151600482015560a0840151600582015501910151151560ff801983541691161790556004356000526004602052604060002091825492600160401b84101561065857836105dc916001602096018155610ea5565b81549060031b9084821b91600019901b19161790556004356000526005835260406000203360005283528160406000205560405190838252827f9d9ec53e54f6385ec09428208c029bd27eb96263fc7b5da62db98ecc7d3f015c3393806106496004359589830190610e11565b0390a460018055604051908152f35b634e487b7160e01b600052604160045260246000fd5b01519050888061056c565b906003840160005260206000209160005b601f19851681106106d657509260c0949260019260069583601f198116106106bd575b505050811b016003820155610584565b015160001960f88460031b161c191690558880806106ad565b9192602060018192868501518155019401920161068a565b600384016000526020600020601f840160051c81016020851061072e575b601f830160051c8201811061072257505061054c565b6000815560010161070c565b508061070c565b60405162461bcd60e51b815260206004820152602160248201527f416c7265616479207375626d697474656420746f207468697320636f6e7465736044820152601d60fa1b6064820152608490fd5b34610121576000366003190112610121576020600254604051908152f35b34610121576020806003193601126101215760043560005260048152604060002060405190818382549182815201908192600052846000209060005b868282106108345786866107f482880383610e6d565b604051928392818401908285525180915260408401929160005b82811061081d57505050500390f35b83518552869550938101939281019260010161080e565b8354855290930192600192830192016107de565b34610121576020806003193601126101215760043590610866610fee565b81600052600391828252604060002061088560ff600683015416611011565b8160005260068352604060002033600052835260ff60406000205416156109fb5760079360019485946004868501549486600052600683526040600020336000528352604060002060ff198154169055016108e0815461105d565b9055836000526008815260406000203360005281526000604081205584600052526040600020846000905b61093e575b50505033917fc6d38efeed0d17048786612d20fac3647ee276a58b750899aecb7e7440117586600080a48055005b8154808210156109f5576109528284610ea5565b90546001600160a01b039291861b1c8216331461097a57505061097490610fdf565b8561090b565b959650939491929160001981019081116109df576109d4946109cf936109a36109b09387610ea5565b9054911b1c169184610ea5565b90919082549060031b9160018060a01b03809116831b921b1916179055565b61106a565b908291848080610910565b634e487b7160e01b600052601160045260246000fd5b50610910565b60405162461bcd60e51b815260048101849052601160248201527012185d995b89dd081d9bdd1959081e595d607a1b6044820152606490fd5b346101215760208060031936011261012157600060c0604051610a5681610e51565b82815282848201528260408201526060808201528260808201528260a0820152015260043560005260038152604060002060405190610a9482610e51565b80548252600181015483830190815260028201546001600160a01b03908116604085019081529290610b2d90610acc60038401610f0d565b90606087019182526004840154956080880196875260ff600660058701549660a08b019788520154169560c089019615158752604051998a99818b5251908a0152516040890152511660608701525160e06080870152610100860190610e11565b925160a08501525160c084015251151560e08301520390f35b34610121576020806003193601126101215760043590610b64610fee565b81600052600391828252604060002092610b8460ff600686015416611011565b60028401546001600160a01b03939084163314610db75760019485948582015493846000526008845260406000203360005284526040600020549182151580610d95575b610c97575b505050836004929394955060005260068352604060002033600052835260406000208660ff1982541617905501610c048154610fdf565b905582600052600781526040600020805490600160401b8210156106585781610c349187610c5294018155610ea5565b81546001600160a01b0360039290921b91821b19163390911b179055565b816000526008815260406000209033600052528160406000205533917f7fe1d4e6b34e228b5dc059fcdc037c71b216fb2417f47c171e505144a5e4f5fc600080a48055005b8260005281855260046040600020600687526040600020336000528752604060002060ff19815416905501610ccc815461105d565b905582600052600785526040600020886000905b610d24575b50505050836004939495965033917fc6d38efeed0d17048786612d20fac3647ee276a58b750899aecb7e7440117586600080a485949392918780610bcd565b815480821015610d8f5783610d398385610ea5565b905490871b1c163314610d565750610d5090610fdf565b89610ce0565b96979899506000939192931987019687116109df576109b0610d82946109cf936109a360049a87610ea5565b8695949392888080610ce5565b50610ce5565b508260005260068552604060002033600052855260ff60406000205416610bc8565b6064906040519062461bcd60e51b82526004820152601e60248201527f43616e6e6f7420766f746520666f72206f776e207375626d697373696f6e00006044820152fd5b602435906001600160a01b038216820361012157565b919082519283825260005b848110610e3d575050826000602080949584010152601f8019910116010190565b602081830181015184830182015201610e1c565b60e0810190811067ffffffffffffffff82111761065857604052565b90601f8019910116810190811067ffffffffffffffff82111761065857604052565b6040906003190112610121576004359060243590565b8054821015610ebd5760005260206000200190600090565b634e487b7160e01b600052603260045260246000fd5b90600182811c92168015610f03575b6020831014610eed57565b634e487b7160e01b600052602260045260246000fd5b91607f1691610ee2565b9060405191826000825492610f2184610ed3565b908184526001948581169081600014610f905750600114610f4d575b5050610f4b92500383610e6d565b565b9093915060005260209081600020936000915b818310610f78575050610f4b93508201013880610f3d565b85548884018501529485019487945091830191610f60565b915050610f4b94506020925060ff191682840152151560051b8201013880610f3d565b6000546001600160a01b03163303610fc757565b60405163118cdaa760e01b8152336004820152602490fd5b60001981146109df5760010190565b600260015414610fff576002600155565b604051633ee5aeb560e01b8152600490fd5b1561101857565b60405162461bcd60e51b815260206004820152601960248201527f5375626d697373696f6e20646f6573206e6f74206578697374000000000000006044820152606490fd5b80156109df576000190190565b805480156110975760001901906110818282610ea5565b81549060018060a01b039060031b1b1916905555565b634e487b7160e01b600052603160045260246000fdfea26469706673582212208bbdafba70089dc5ab6b0910f4035f47c4d677d08aa291ad8ee34eba184842ee64736f6c63430008140033","opcodes":"PUSH1 0x80 DUP1 PUSH1 0x40 MSTORE CALLVALUE PUSH2 0x83 JUMPI CALLER ISZERO PUSH2 0x6D JUMPI PUSH1 0x0 DUP1 SLOAD CALLER PUSH1 0x1 PUSH1 0x1 PUSH1 0xA0 SHL SUB NOT DUP3 AND DUP2 OR DUP4 SSTORE PUSH1 0x40 MLOAD SWAP3 SWAP1 SWAP2 PUSH1 0x1 PUSH1 0x1 PUSH1 0xA0 SHL SUB AND SWAP1 PUSH32 0x8BE0079C531659141344CD1FD0A4F28419497F9722A3DAAFE3B4186F6B6457E0 SWAP1 DUP1 LOG3 PUSH1 0x1 DUP1 SSTORE PUSH1 0x1 PUSH1 0x2 SSTORE PUSH2 0x10E3 SWAP1 DUP2 PUSH2 0x89 DUP3 CODECOPY RETURN JUMPDEST PUSH4 0x1E4FBDF7 PUSH1 0xE0 SHL DUP2 MSTORE PUSH1 0x0 PUSH1 0x4 DUP3 ADD MSTORE PUSH1 0x24 SWAP1 REVERT JUMPDEST PUSH1 0x0 DUP1 REVERT INVALID PUSH1 0x80 PUSH1 0x40 MSTORE PUSH1 0x4 CALLDATASIZE LT ISZERO PUSH2 0x12 JUMPI PUSH1 0x0 DUP1 REVERT JUMPDEST PUSH1 0x0 CALLDATALOAD PUSH1 0xE0 SHR DUP1 PUSH4 0x121B93F EQ PUSH2 0xB46 JUMPI DUP1 PUSH4 0x3687F7BF EQ PUSH2 0x24B JUMPI DUP1 PUSH4 0x3E8686CC EQ PUSH2 0xA34 JUMPI DUP1 PUSH4 0x3F68FDE4 EQ PUSH2 0x848 JUMPI DUP1 PUSH4 0x43859632 EQ PUSH2 0x1FE JUMPI DUP1 PUSH4 0x4C406C01 EQ PUSH2 0x7A2 JUMPI DUP1 PUSH4 0x54554D46 EQ PUSH2 0x784 JUMPI DUP1 PUSH4 0x56CE45B6 EQ PUSH2 0x3F2 JUMPI DUP1 PUSH4 0x6C811686 EQ PUSH2 0x3A8 JUMPI DUP1 PUSH4 0x715018A6 EQ PUSH2 0x34F JUMPI DUP1 PUSH4 0x8DA5CB5B EQ PUSH2 0x326 JUMPI DUP1 PUSH4 0xAD73349E EQ PUSH2 0x293 JUMPI DUP1 PUSH4 0xD17BD67C EQ PUSH2 0x24B JUMPI DUP1 PUSH4 0xDC296AE1 EQ PUSH2 0x1FE JUMPI DUP1 PUSH4 0xDC37596D EQ PUSH2 0x1B6 JUMPI DUP1 PUSH4 0xDFA63E6C EQ PUSH2 0x1B6 JUMPI DUP1 PUSH4 0xF2FDE38B EQ PUSH2 0x126 JUMPI PUSH4 0xFADFA4DC EQ PUSH2 0xE2 JUMPI PUSH1 0x0 DUP1 REVERT JUMPDEST CALLVALUE PUSH2 0x121 JUMPI PUSH2 0xF0 CALLDATASIZE PUSH2 0xE8F JUMP JUMPDEST SWAP1 PUSH1 0x0 MSTORE PUSH1 0x4 PUSH1 0x20 MSTORE PUSH1 0x40 PUSH1 0x0 KECCAK256 DUP1 SLOAD DUP3 LT ISZERO PUSH2 0x121 JUMPI PUSH1 0x20 SWAP2 PUSH2 0x113 SWAP2 PUSH2 0xEA5 JUMP JUMPDEST SWAP1 SLOAD PUSH1 0x40 MLOAD SWAP2 PUSH1 0x3 SHL SHR DUP2 MSTORE RETURN JUMPDEST PUSH1 0x0 DUP1 REVERT JUMPDEST CALLVALUE PUSH2 0x121 JUMPI PUSH1 0x20 CALLDATASIZE PUSH1 0x3 NOT ADD SLT PUSH2 0x121 JUMPI PUSH1 0x4 CALLDATALOAD PUSH1 0x1 PUSH1 0x1 PUSH1 0xA0 SHL SUB DUP2 DUP2 AND SWAP2 DUP3 SWAP1 SUB PUSH2 0x121 JUMPI PUSH2 0x155 PUSH2 0xFB3 JUMP JUMPDEST DUP2 ISZERO PUSH2 0x19D JUMPI PUSH1 0x0 SLOAD DUP3 PUSH12 0xFFFFFFFFFFFFFFFFFFFFFFFF PUSH1 0xA0 SHL DUP3 AND OR PUSH1 0x0 SSTORE AND PUSH32 0x8BE0079C531659141344CD1FD0A4F28419497F9722A3DAAFE3B4186F6B6457E0 PUSH1 0x0 DUP1 LOG3 STOP JUMPDEST PUSH1 0x40 MLOAD PUSH4 0x1E4FBDF7 PUSH1 0xE0 SHL DUP2 MSTORE PUSH1 0x0 PUSH1 0x4 DUP3 ADD MSTORE PUSH1 0x24 SWAP1 REVERT JUMPDEST CALLVALUE PUSH2 0x121 JUMPI PUSH1 0x40 CALLDATASIZE PUSH1 0x3 NOT ADD SLT PUSH2 0x121 JUMPI PUSH2 0x1CF PUSH2 0xDFB JUMP JUMPDEST PUSH1 0x4 CALLDATALOAD PUSH1 0x0 MSTORE PUSH1 0x8 PUSH1 0x20 MSTORE PUSH1 0x40 PUSH1 0x0 KECCAK256 SWAP1 PUSH1 0x1 DUP1 PUSH1 0xA0 SHL SUB AND PUSH1 0x0 MSTORE PUSH1 0x20 MSTORE PUSH1 0x20 PUSH1 0x40 PUSH1 0x0 KECCAK256 SLOAD PUSH1 0x40 MLOAD SWAP1 DUP2 MSTORE RETURN JUMPDEST CALLVALUE PUSH2 0x121 JUMPI PUSH1 0x40 CALLDATASIZE PUSH1 0x3 NOT ADD SLT PUSH2 0x121 JUMPI PUSH2 0x217 PUSH2 0xDFB JUMP JUMPDEST PUSH1 0x4 CALLDATALOAD PUSH1 0x0 MSTORE PUSH1 0x6 PUSH1 0x20 MSTORE PUSH1 0x40 PUSH1 0x0 KECCAK256 SWAP1 PUSH1 0x1 DUP1 PUSH1 0xA0 SHL SUB AND PUSH1 0x0 MSTORE PUSH1 0x20 MSTORE PUSH1 0x20 PUSH1 0xFF PUSH1 0x40 PUSH1 0x0 KECCAK256 SLOAD AND PUSH1 0x40 MLOAD SWAP1 ISZERO ISZERO DUP2 MSTORE RETURN JUMPDEST CALLVALUE PUSH2 0x121 JUMPI PUSH1 0x40 CALLDATASIZE PUSH1 0x3 NOT ADD SLT PUSH2 0x121 JUMPI PUSH2 0x264 PUSH2 0xDFB JUMP JUMPDEST PUSH1 0x4 CALLDATALOAD PUSH1 0x0 MSTORE PUSH1 0x5 PUSH1 0x20 MSTORE PUSH1 0x40 PUSH1 0x0 KECCAK256 SWAP1 PUSH1 0x1 DUP1 PUSH1 0xA0 SHL SUB AND PUSH1 0x0 MSTORE PUSH1 0x20 MSTORE PUSH1 0x20 PUSH1 0x40 PUSH1 0x0 KECCAK256 SLOAD PUSH1 0x40 MLOAD SWAP1 DUP2 MSTORE RETURN JUMPDEST CALLVALUE PUSH2 0x121 JUMPI PUSH1 0x20 CALLDATASIZE PUSH1 0x3 NOT ADD SLT PUSH2 0x121 JUMPI PUSH1 0x4 CALLDATALOAD PUSH1 0x0 MSTORE PUSH1 0x3 PUSH1 0x20 MSTORE PUSH1 0x40 PUSH1 0x0 KECCAK256 DUP1 SLOAD PUSH1 0x1 DUP3 ADD SLOAD SWAP2 PUSH1 0x1 DUP1 PUSH1 0xA0 SHL SUB PUSH1 0x2 DUP3 ADD SLOAD AND PUSH2 0x2D5 PUSH1 0x3 DUP4 ADD PUSH2 0xF0D JUMP JUMPDEST SWAP2 PUSH2 0x310 PUSH1 0x4 DUP3 ADD SLOAD SWAP4 PUSH1 0xFF PUSH1 0x6 PUSH1 0x5 DUP6 ADD SLOAD SWAP5 ADD SLOAD AND SWAP4 PUSH1 0x40 MLOAD SWAP8 DUP9 SWAP8 DUP9 MSTORE PUSH1 0x20 DUP9 ADD MSTORE PUSH1 0x40 DUP8 ADD MSTORE PUSH1 0xE0 PUSH1 0x60 DUP8 ADD MSTORE PUSH1 0xE0 DUP7 ADD SWAP1 PUSH2 0xE11 JUMP JUMPDEST SWAP3 PUSH1 0x80 DUP6 ADD MSTORE PUSH1 0xA0 DUP5 ADD MSTORE ISZERO ISZERO PUSH1 0xC0 DUP4 ADD MSTORE SUB SWAP1 RETURN JUMPDEST CALLVALUE PUSH2 0x121 JUMPI PUSH1 0x0 CALLDATASIZE PUSH1 0x3 NOT ADD SLT PUSH2 0x121 JUMPI PUSH1 0x0 SLOAD PUSH1 0x40 MLOAD PUSH1 0x1 PUSH1 0x1 PUSH1 0xA0 SHL SUB SWAP1 SWAP2 AND DUP2 MSTORE PUSH1 0x20 SWAP1 RETURN JUMPDEST CALLVALUE PUSH2 0x121 JUMPI PUSH1 0x0 CALLDATASIZE PUSH1 0x3 NOT ADD SLT PUSH2 0x121 JUMPI PUSH2 0x368 PUSH2 0xFB3 JUMP JUMPDEST PUSH1 0x0 DUP1 SLOAD PUSH1 0x1 PUSH1 0x1 PUSH1 0xA0 SHL SUB NOT DUP2 AND DUP3 SSTORE PUSH1 0x1 PUSH1 0x1 PUSH1 0xA0 SHL SUB AND PUSH32 0x8BE0079C531659141344CD1FD0A4F28419497F9722A3DAAFE3B4186F6B6457E0 DUP3 DUP1 LOG3 STOP JUMPDEST CALLVALUE PUSH2 0x121 JUMPI PUSH2 0x3B6 CALLDATASIZE PUSH2 0xE8F JUMP JUMPDEST SWAP1 PUSH1 0x0 MSTORE PUSH1 0x7 PUSH1 0x20 MSTORE PUSH1 0x40 PUSH1 0x0 KECCAK256 DUP1 SLOAD DUP3 LT ISZERO PUSH2 0x121 JUMPI PUSH1 0x20 SWAP2 PUSH2 0x3D9 SWAP2 PUSH2 0xEA5 JUMP JUMPDEST SWAP1 SLOAD PUSH1 0x40 MLOAD PUSH1 0x3 SWAP3 SWAP1 SWAP3 SHL SHR PUSH1 0x1 PUSH1 0x1 PUSH1 0xA0 SHL SUB AND DUP2 MSTORE RETURN JUMPDEST CALLVALUE PUSH2 0x121 JUMPI PUSH1 0x40 CALLDATASIZE PUSH1 0x3 NOT ADD SLT PUSH2 0x121 JUMPI PUSH1 0x24 CALLDATALOAD PUSH8 0xFFFFFFFFFFFFFFFF DUP2 GT PUSH2 0x121 JUMPI CALLDATASIZE PUSH1 0x23 DUP3 ADD SLT ISZERO PUSH2 0x121 JUMPI DUP1 PUSH1 0x4 ADD CALLDATALOAD PUSH8 0xFFFFFFFFFFFFFFFF DUP2 GT PUSH2 0x658 JUMPI PUSH1 0x40 MLOAD SWAP2 PUSH2 0x44C PUSH1 0x1F DUP4 ADD PUSH1 0x1F NOT AND PUSH1 0x20 ADD DUP5 PUSH2 0xE6D JUMP JUMPDEST DUP2 DUP4 MSTORE CALLDATASIZE PUSH1 0x24 DUP4 DUP4 ADD ADD GT PUSH2 0x121 JUMPI DUP2 PUSH1 0x0 SWAP3 PUSH1 0x24 PUSH1 0x20 SWAP4 ADD DUP4 DUP7 ADD CALLDATACOPY DUP4 ADD ADD MSTORE PUSH2 0x475 PUSH2 0xFEE JUMP JUMPDEST PUSH1 0x4 CALLDATALOAD PUSH1 0x0 MSTORE PUSH1 0x5 PUSH1 0x20 MSTORE PUSH1 0x40 PUSH1 0x0 KECCAK256 CALLER PUSH1 0x0 MSTORE PUSH1 0x20 MSTORE PUSH1 0x40 PUSH1 0x0 KECCAK256 SLOAD PUSH2 0x735 JUMPI PUSH1 0x2 SLOAD PUSH2 0x4A2 DUP2 PUSH2 0xFDF JUMP JUMPDEST PUSH1 0x2 SSTORE PUSH1 0x40 MLOAD PUSH2 0x4B1 DUP2 PUSH2 0xE51 JUMP JUMPDEST DUP2 DUP2 MSTORE PUSH1 0x4 CALLDATALOAD PUSH1 0x20 DUP3 ADD MSTORE CALLER PUSH1 0x40 DUP3 ADD MSTORE DUP3 PUSH1 0x60 DUP3 ADD MSTORE PUSH1 0x0 PUSH1 0x80 DUP3 ADD MSTORE TIMESTAMP PUSH1 0xA0 DUP3 ADD MSTORE PUSH1 0x1 PUSH1 0xC0 DUP3 ADD MSTORE DUP2 PUSH1 0x0 MSTORE PUSH1 0x3 PUSH1 0x20 MSTORE PUSH1 0x40 PUSH1 0x0 KECCAK256 DUP2 MLOAD DUP2 SSTORE PUSH1 0x20 DUP3 ADD MLOAD PUSH1 0x1 DUP3 ADD SSTORE PUSH1 0x2 DUP2 ADD PUSH1 0x1 DUP1 PUSH1 0xA0 SHL SUB PUSH1 0x40 DUP5 ADD MLOAD AND PUSH12 0xFFFFFFFFFFFFFFFFFFFFFFFF PUSH1 0xA0 SHL DUP3 SLOAD AND OR SWAP1 SSTORE PUSH1 0x60 DUP3 ADD MLOAD DUP1 MLOAD SWAP1 PUSH8 0xFFFFFFFFFFFFFFFF DUP3 GT PUSH2 0x658 JUMPI PUSH2 0x543 PUSH1 0x3 DUP5 ADD SLOAD PUSH2 0xED3 JUMP JUMPDEST PUSH1 0x1F DUP2 GT PUSH2 0x6EE JUMPI JUMPDEST POP PUSH1 0x20 SWAP1 PUSH1 0x1F DUP4 GT PUSH1 0x1 EQ PUSH2 0x679 JUMPI SWAP2 DUP1 PUSH1 0xC0 SWAP5 SWAP3 PUSH1 0x6 SWAP5 PUSH1 0x0 SWAP3 PUSH2 0x66E JUMPI JUMPDEST POP POP DUP2 PUSH1 0x1 SHL SWAP2 PUSH1 0x0 NOT SWAP1 PUSH1 0x3 SHL SHR NOT AND OR PUSH1 0x3 DUP3 ADD SSTORE JUMPDEST PUSH1 0x80 DUP5 ADD MLOAD PUSH1 0x4 DUP3 ADD SSTORE PUSH1 0xA0 DUP5 ADD MLOAD PUSH1 0x5 DUP3 ADD SSTORE ADD SWAP2 ADD MLOAD ISZERO ISZERO PUSH1 0xFF DUP1 NOT DUP4 SLOAD AND SWAP2 AND OR SWAP1 SSTORE PUSH1 0x4 CALLDATALOAD PUSH1 0x0 MSTORE PUSH1 0x4 PUSH1 0x20 MSTORE PUSH1 0x40 PUSH1 0x0 KECCAK256 SWAP2 DUP3 SLOAD SWAP3 PUSH1 0x1 PUSH1 0x40 SHL DUP5 LT ISZERO PUSH2 0x658 JUMPI DUP4 PUSH2 0x5DC SWAP2 PUSH1 0x1 PUSH1 0x20 SWAP7 ADD DUP2 SSTORE PUSH2 0xEA5 JUMP JUMPDEST DUP2 SLOAD SWAP1 PUSH1 0x3 SHL SWAP1 DUP5 DUP3 SHL SWAP2 PUSH1 0x0 NOT SWAP1 SHL NOT AND OR SWAP1 SSTORE PUSH1 0x4 CALLDATALOAD PUSH1 0x0 MSTORE PUSH1 0x5 DUP4 MSTORE PUSH1 0x40 PUSH1 0x0 KECCAK256 CALLER PUSH1 0x0 MSTORE DUP4 MSTORE DUP2 PUSH1 0x40 PUSH1 0x0 KECCAK256 SSTORE PUSH1 0x40 MLOAD SWAP1 DUP4 DUP3 MSTORE DUP3 PUSH32 0x9D9EC53E54F6385EC09428208C029BD27EB96263FC7B5DA62DB98ECC7D3F015C CALLER SWAP4 DUP1 PUSH2 0x649 PUSH1 0x4 CALLDATALOAD SWAP6 DUP10 DUP4 ADD SWAP1 PUSH2 0xE11 JUMP JUMPDEST SUB SWAP1 LOG4 PUSH1 0x1 DUP1 SSTORE PUSH1 0x40 MLOAD SWAP1 DUP2 MSTORE RETURN JUMPDEST PUSH4 0x4E487B71 PUSH1 0xE0 SHL PUSH1 0x0 MSTORE PUSH1 0x41 PUSH1 0x4 MSTORE PUSH1 0x24 PUSH1 0x0 REVERT JUMPDEST ADD MLOAD SWAP1 POP DUP9 DUP1 PUSH2 0x56C JUMP JUMPDEST SWAP1 PUSH1 0x3 DUP5 ADD PUSH1 0x0 MSTORE PUSH1 0x20 PUSH1 0x0 KECCAK256 SWAP2 PUSH1 0x0 JUMPDEST PUSH1 0x1F NOT DUP6 AND DUP2 LT PUSH2 0x6D6 JUMPI POP SWAP3 PUSH1 0xC0 SWAP5 SWAP3 PUSH1 0x1 SWAP3 PUSH1 0x6 SWAP6 DUP4 PUSH1 0x1F NOT DUP2 AND LT PUSH2 0x6BD JUMPI JUMPDEST POP POP POP DUP2 SHL ADD PUSH1 0x3 DUP3 ADD SSTORE PUSH2 0x584 JUMP JUMPDEST ADD MLOAD PUSH1 0x0 NOT PUSH1 0xF8 DUP5 PUSH1 0x3 SHL AND SHR NOT AND SWAP1 SSTORE DUP9 DUP1 DUP1 PUSH2 0x6AD JUMP JUMPDEST SWAP2 SWAP3 PUSH1 0x20 PUSH1 0x1 DUP2 SWAP3 DUP7 DUP6 ADD MLOAD DUP2 SSTORE ADD SWAP5 ADD SWAP3 ADD PUSH2 0x68A JUMP JUMPDEST PUSH1 0x3 DUP5 ADD PUSH1 0x0 MSTORE PUSH1 0x20 PUSH1 0x0 KECCAK256 PUSH1 0x1F DUP5 ADD PUSH1 0x5 SHR DUP2 ADD PUSH1 0x20 DUP6 LT PUSH2 0x72E JUMPI JUMPDEST PUSH1 0x1F DUP4 ADD PUSH1 0x5 SHR DUP3 ADD DUP2 LT PUSH2 0x722 JUMPI POP POP PUSH2 0x54C JUMP JUMPDEST PUSH1 0x0 DUP2 SSTORE PUSH1 0x1 ADD PUSH2 0x70C JUMP JUMPDEST POP DUP1 PUSH2 0x70C JUMP JUMPDEST PUSH1 0x40 MLOAD PUSH3 0x461BCD PUSH1 0xE5 SHL DUP2 MSTORE PUSH1 0x20 PUSH1 0x4 DUP3 ADD MSTORE PUSH1 0x21 PUSH1 0x24 DUP3 ADD MSTORE PUSH32 0x416C7265616479207375626D697474656420746F207468697320636F6E746573 PUSH1 0x44 DUP3 ADD MSTORE PUSH1 0x1D PUSH1 0xFA SHL PUSH1 0x64 DUP3 ADD MSTORE PUSH1 0x84 SWAP1 REVERT JUMPDEST CALLVALUE PUSH2 0x121 JUMPI PUSH1 0x0 CALLDATASIZE PUSH1 0x3 NOT ADD SLT PUSH2 0x121 JUMPI PUSH1 0x20 PUSH1 0x2 SLOAD PUSH1 0x40 MLOAD SWAP1 DUP2 MSTORE RETURN JUMPDEST CALLVALUE PUSH2 0x121 JUMPI PUSH1 0x20 DUP1 PUSH1 0x3 NOT CALLDATASIZE ADD SLT PUSH2 0x121 JUMPI PUSH1 0x4 CALLDATALOAD PUSH1 0x0 MSTORE PUSH1 0x4 DUP2 MSTORE PUSH1 0x40 PUSH1 0x0 KECCAK256 PUSH1 0x40 MLOAD SWAP1 DUP2 DUP4 DUP3 SLOAD SWAP2 DUP3 DUP2 MSTORE ADD SWAP1 DUP2 SWAP3 PUSH1 0x0 MSTORE DUP5 PUSH1 0x0 KECCAK256 SWAP1 PUSH1 0x0 JUMPDEST DUP7 DUP3 DUP3 LT PUSH2 0x834 JUMPI DUP7 DUP7 PUSH2 0x7F4 DUP3 DUP9 SUB DUP4 PUSH2 0xE6D JUMP JUMPDEST PUSH1 0x40 MLOAD SWAP3 DUP4 SWAP3 DUP2 DUP5 ADD SWAP1 DUP3 DUP6 MSTORE MLOAD DUP1 SWAP2 MSTORE PUSH1 0x40 DUP5 ADD SWAP3 SWAP2 PUSH1 0x0 JUMPDEST DUP3 DUP2 LT PUSH2 0x81D JUMPI POP POP POP POP SUB SWAP1 RETURN JUMPDEST DUP4 MLOAD DUP6 MSTORE DUP7 SWAP6 POP SWAP4 DUP2 ADD SWAP4 SWAP3 DUP2 ADD SWAP3 PUSH1 0x1 ADD PUSH2 0x80E JUMP JUMPDEST DUP4 SLOAD DUP6 MSTORE SWAP1 SWAP4 ADD SWAP3 PUSH1 0x1 SWAP3 DUP4 ADD SWAP3 ADD PUSH2 0x7DE JUMP JUMPDEST CALLVALUE PUSH2 0x121 JUMPI PUSH1 0x20 DUP1 PUSH1 0x3 NOT CALLDATASIZE ADD SLT PUSH2 0x121 JUMPI PUSH1 0x4 CALLDATALOAD SWAP1 PUSH2 0x866 PUSH2 0xFEE JUMP JUMPDEST DUP2 PUSH1 0x0 MSTORE PUSH1 0x3 SWAP2 DUP3 DUP3 MSTORE PUSH1 0x40 PUSH1 0x0 KECCAK256 PUSH2 0x885 PUSH1 0xFF PUSH1 0x6 DUP4 ADD SLOAD AND PUSH2 0x1011 JUMP JUMPDEST DUP2 PUSH1 0x0 MSTORE PUSH1 0x6 DUP4 MSTORE PUSH1 0x40 PUSH1 0x0 KECCAK256 CALLER PUSH1 0x0 MSTORE DUP4 MSTORE PUSH1 0xFF PUSH1 0x40 PUSH1 0x0 KECCAK256 SLOAD AND ISZERO PUSH2 0x9FB JUMPI PUSH1 0x7 SWAP4 PUSH1 0x1 SWAP5 DUP6 SWAP5 PUSH1 0x4 DUP7 DUP6 ADD SLOAD SWAP5 DUP7 PUSH1 0x0 MSTORE PUSH1 0x6 DUP4 MSTORE PUSH1 0x40 PUSH1 0x0 KECCAK256 CALLER PUSH1 0x0 MSTORE DUP4 MSTORE PUSH1 0x40 PUSH1 0x0 KECCAK256 PUSH1 0xFF NOT DUP2 SLOAD AND SWAP1 SSTORE ADD PUSH2 0x8E0 DUP2 SLOAD PUSH2 0x105D JUMP JUMPDEST SWAP1 SSTORE DUP4 PUSH1 0x0 MSTORE PUSH1 0x8 DUP2 MSTORE PUSH1 0x40 PUSH1 0x0 KECCAK256 CALLER PUSH1 0x0 MSTORE DUP2 MSTORE PUSH1 0x0 PUSH1 0x40 DUP2 KECCAK256 SSTORE DUP5 PUSH1 0x0 MSTORE MSTORE PUSH1 0x40 PUSH1 0x0 KECCAK256 DUP5 PUSH1 0x0 SWAP1 JUMPDEST PUSH2 0x93E JUMPI JUMPDEST POP POP POP CALLER SWAP2 PUSH32 0xC6D38EFEED0D17048786612D20FAC3647EE276A58B750899AECB7E7440117586 PUSH1 0x0 DUP1 LOG4 DUP1 SSTORE STOP JUMPDEST DUP2 SLOAD DUP1 DUP3 LT ISZERO PUSH2 0x9F5 JUMPI PUSH2 0x952 DUP3 DUP5 PUSH2 0xEA5 JUMP JUMPDEST SWAP1 SLOAD PUSH1 0x1 PUSH1 0x1 PUSH1 0xA0 SHL SUB SWAP3 SWAP2 DUP7 SHL SHR DUP3 AND CALLER EQ PUSH2 0x97A JUMPI POP POP PUSH2 0x974 SWAP1 PUSH2 0xFDF JUMP JUMPDEST DUP6 PUSH2 0x90B JUMP JUMPDEST SWAP6 SWAP7 POP SWAP4 SWAP5 SWAP2 SWAP3 SWAP2 PUSH1 0x0 NOT DUP2 ADD SWAP1 DUP2 GT PUSH2 0x9DF JUMPI PUSH2 0x9D4 SWAP5 PUSH2 0x9CF SWAP4 PUSH2 0x9A3 PUSH2 0x9B0 SWAP4 DUP8 PUSH2 0xEA5 JUMP JUMPDEST SWAP1 SLOAD SWAP2 SHL SHR AND SWAP2 DUP5 PUSH2 0xEA5 JUMP JUMPDEST SWAP1 SWAP2 SWAP1 DUP3 SLOAD SWAP1 PUSH1 0x3 SHL SWAP2 PUSH1 0x1 DUP1 PUSH1 0xA0 SHL SUB DUP1 SWAP2 AND DUP4 SHL SWAP3 SHL NOT AND OR SWAP1 SSTORE JUMP JUMPDEST PUSH2 0x106A JUMP JUMPDEST SWAP1 DUP3 SWAP2 DUP5 DUP1 DUP1 PUSH2 0x910 JUMP JUMPDEST PUSH4 0x4E487B71 PUSH1 0xE0 SHL PUSH1 0x0 MSTORE PUSH1 0x11 PUSH1 0x4 MSTORE PUSH1 0x24 PUSH1 0x0 REVERT JUMPDEST POP PUSH2 0x910 JUMP JUMPDEST PUSH1 0x40 MLOAD PUSH3 0x461BCD PUSH1 0xE5 SHL DUP2 MSTORE PUSH1 0x4 DUP2 ADD DUP5 SWAP1 MSTORE PUSH1 0x11 PUSH1 0x24 DUP3 ADD MSTORE PUSH17 0x12185D995B89DD081D9BDD1959081E595D PUSH1 0x7A SHL PUSH1 0x44 DUP3 ADD MSTORE PUSH1 0x64 SWAP1 REVERT JUMPDEST CALLVALUE PUSH2 0x121 JUMPI PUSH1 0x20 DUP1 PUSH1 0x3 NOT CALLDATASIZE ADD SLT PUSH2 0x121 JUMPI PUSH1 0x0 PUSH1 0xC0 PUSH1 0x40 MLOAD PUSH2 0xA56 DUP2 PUSH2 0xE51 JUMP JUMPDEST DUP3 DUP2 MSTORE DUP3 DUP5 DUP3 ADD MSTORE DUP3 PUSH1 0x40 DUP3 ADD MSTORE PUSH1 0x60 DUP1 DUP3 ADD MSTORE DUP3 PUSH1 0x80 DUP3 ADD MSTORE DUP3 PUSH1 0xA0 DUP3 ADD MSTORE ADD MSTORE PUSH1 0x4 CALLDATALOAD PUSH1 0x0 MSTORE PUSH1 0x3 DUP2 MSTORE PUSH1 0x40 PUSH1 0x0 KECCAK256 PUSH1 0x40 MLOAD SWAP1 PUSH2 0xA94 DUP3 PUSH2 0xE51 JUMP JUMPDEST DUP1 SLOAD DUP3 MSTORE PUSH1 0x1 DUP2 ADD SLOAD DUP4 DUP4 ADD SWAP1 DUP2 MSTORE PUSH1 0x2 DUP3 ADD SLOAD PUSH1 0x1 PUSH1 0x1 PUSH1 0xA0 SHL SUB SWAP1 DUP2 AND PUSH1 0x40 DUP6 ADD SWAP1 DUP2 MSTORE SWAP3 SWAP1 PUSH2 0xB2D SWAP1 PUSH2 0xACC PUSH1 0x3 DUP5 ADD PUSH2 0xF0D JUMP JUMPDEST SWAP1 PUSH1 0x60 DUP8 ADD SWAP2 DUP3 MSTORE PUSH1 0x4 DUP5 ADD SLOAD SWAP6 PUSH1 0x80 DUP9 ADD SWAP7 DUP8 MSTORE PUSH1 0xFF PUSH1 0x6 PUSH1 0x5 DUP8 ADD SLOAD SWAP7 PUSH1 0xA0 DUP12 ADD SWAP8 DUP9 MSTORE ADD SLOAD AND SWAP6 PUSH1 0xC0 DUP10 ADD SWAP7 ISZERO ISZERO DUP8 MSTORE PUSH1 0x40 MLOAD SWAP10 DUP11 SWAP10 DUP2 DUP12 MSTORE MLOAD SWAP1 DUP11 ADD MSTORE MLOAD PUSH1 0x40 DUP10 ADD MSTORE MLOAD AND PUSH1 0x60 DUP8 ADD MSTORE MLOAD PUSH1 0xE0 PUSH1 0x80 DUP8 ADD MSTORE PUSH2 0x100 DUP7 ADD SWAP1 PUSH2 0xE11 JUMP JUMPDEST SWAP3 MLOAD PUSH1 0xA0 DUP6 ADD MSTORE MLOAD PUSH1 0xC0 DUP5 ADD MSTORE MLOAD ISZERO ISZERO PUSH1 0xE0 DUP4 ADD MSTORE SUB SWAP1 RETURN JUMPDEST CALLVALUE PUSH2 0x121 JUMPI PUSH1 0x20 DUP1 PUSH1 0x3 NOT CALLDATASIZE ADD SLT PUSH2 0x121 JUMPI PUSH1 0x4 CALLDATALOAD SWAP1 PUSH2 0xB64 PUSH2 0xFEE JUMP JUMPDEST DUP2 PUSH1 0x0 MSTORE PUSH1 0x3 SWAP2 DUP3 DUP3 MSTORE PUSH1 0x40 PUSH1 0x0 KECCAK256 SWAP3 PUSH2 0xB84 PUSH1 0xFF PUSH1 0x6 DUP7 ADD SLOAD AND PUSH2 0x1011 JUMP JUMPDEST PUSH1 0x2 DUP5 ADD SLOAD PUSH1 0x1 PUSH1 0x1 PUSH1 0xA0 SHL SUB SWAP4 SWAP1 DUP5 AND CALLER EQ PUSH2 0xDB7 JUMPI PUSH1 0x1 SWAP5 DUP6 SWAP5 DUP6 DUP3 ADD SLOAD SWAP4 DUP5 PUSH1 0x0 MSTORE PUSH1 0x8 DUP5 MSTORE PUSH1 0x40 PUSH1 0x0 KECCAK256 CALLER PUSH1 0x0 MSTORE DUP5 MSTORE PUSH1 0x40 PUSH1 0x0 KECCAK256 SLOAD SWAP2 DUP3 ISZERO ISZERO DUP1 PUSH2 0xD95 JUMPI JUMPDEST PUSH2 0xC97 JUMPI JUMPDEST POP POP POP DUP4 PUSH1 0x4 SWAP3 SWAP4 SWAP5 SWAP6 POP PUSH1 0x0 MSTORE PUSH1 0x6 DUP4 MSTORE PUSH1 0x40 PUSH1 0x0 KECCAK256 CALLER PUSH1 0x0 MSTORE DUP4 MSTORE PUSH1 0x40 PUSH1 0x0 KECCAK256 DUP7 PUSH1 0xFF NOT DUP3 SLOAD AND OR SWAP1 SSTORE ADD PUSH2 0xC04 DUP2 SLOAD PUSH2 0xFDF JUMP JUMPDEST SWAP1 SSTORE DUP3 PUSH1 0x0 MSTORE PUSH1 0x7 DUP2 MSTORE PUSH1 0x40 PUSH1 0x0 KECCAK256 DUP1 SLOAD SWAP1 PUSH1 0x1 PUSH1 0x40 SHL DUP3 LT ISZERO PUSH2 0x658 JUMPI DUP2 PUSH2 0xC34 SWAP2 DUP8 PUSH2 0xC52 SWAP5 ADD DUP2 SSTORE PUSH2 0xEA5 JUMP JUMPDEST DUP2 SLOAD PUSH1 0x1 PUSH1 0x1 PUSH1 0xA0 SHL SUB PUSH1 0x3 SWAP3 SWAP1 SWAP3 SHL SWAP2 DUP3 SHL NOT AND CALLER SWAP1 SWAP2 SHL OR SWAP1 SSTORE JUMP JUMPDEST DUP2 PUSH1 0x0 MSTORE PUSH1 0x8 DUP2 MSTORE PUSH1 0x40 PUSH1 0x0 KECCAK256 SWAP1 CALLER PUSH1 0x0 MSTORE MSTORE DUP2 PUSH1 0x40 PUSH1 0x0 KECCAK256 SSTORE CALLER SWAP2 PUSH32 0x7FE1D4E6B34E228B5DC059FCDC037C71B216FB2417F47C171E505144A5E4F5FC PUSH1 0x0 DUP1 LOG4 DUP1 SSTORE STOP JUMPDEST DUP3 PUSH1 0x0 MSTORE DUP2 DUP6 MSTORE PUSH1 0x4 PUSH1 0x40 PUSH1 0x0 KECCAK256 PUSH1 0x6 DUP8 MSTORE PUSH1 0x40 PUSH1 0x0 KECCAK256 CALLER PUSH1 0x0 MSTORE DUP8 MSTORE PUSH1 0x40 PUSH1 0x0 KECCAK256 PUSH1 0xFF NOT DUP2 SLOAD AND SWAP1 SSTORE ADD PUSH2 0xCCC DUP2 SLOAD PUSH2 0x105D JUMP JUMPDEST SWAP1 SSTORE DUP3 PUSH1 0x0 MSTORE PUSH1 0x7 DUP6 MSTORE PUSH1 0x40 PUSH1 0x0 KECCAK256 DUP9 PUSH1 0x0 SWAP1 JUMPDEST PUSH2 0xD24 JUMPI JUMPDEST POP POP POP POP DUP4 PUSH1 0x4 SWAP4 SWAP5 SWAP6 SWAP7 POP CALLER SWAP2 PUSH32 0xC6D38EFEED0D17048786612D20FAC3647EE276A58B750899AECB7E7440117586 PUSH1 0x0 DUP1 LOG4 DUP6 SWAP5 SWAP4 SWAP3 SWAP2 DUP8 DUP1 PUSH2 0xBCD JUMP JUMPDEST DUP2 SLOAD DUP1 DUP3 LT ISZERO PUSH2 0xD8F JUMPI DUP4 PUSH2 0xD39 DUP4 DUP6 PUSH2 0xEA5 JUMP JUMPDEST SWAP1 SLOAD SWAP1 DUP8 SHL SHR AND CALLER EQ PUSH2 0xD56 JUMPI POP PUSH2 0xD50 SWAP1 PUSH2 0xFDF JUMP JUMPDEST DUP10 PUSH2 0xCE0 JUMP JUMPDEST SWAP7 SWAP8 SWAP9 SWAP10 POP PUSH1 0x0 SWAP4 SWAP2 SWAP3 SWAP4 NOT DUP8 ADD SWAP7 DUP8 GT PUSH2 0x9DF JUMPI PUSH2 0x9B0 PUSH2 0xD82 SWAP5 PUSH2 0x9CF SWAP4 PUSH2 0x9A3 PUSH1 0x4 SWAP11 DUP8 PUSH2 0xEA5 JUMP JUMPDEST DUP7 SWAP6 SWAP5 SWAP4 SWAP3 DUP9 DUP1 DUP1 PUSH2 0xCE5 JUMP JUMPDEST POP PUSH2 0xCE5 JUMP JUMPDEST POP DUP3 PUSH1 0x0 MSTORE PUSH1 0x6 DUP6 MSTORE PUSH1 0x40 PUSH1 0x0 KECCAK256 CALLER PUSH1 0x0 MSTORE DUP6 MSTORE PUSH1 0xFF PUSH1 0x40 PUSH1 0x0 KECCAK256 SLOAD AND PUSH2 0xBC8 JUMP JUMPDEST PUSH1 0x64 SWAP1 PUSH1 0x40 MLOAD SWAP1 PUSH3 0x461BCD PUSH1 0xE5 SHL DUP3 MSTORE PUSH1 0x4 DUP3 ADD MSTORE PUSH1 0x1E PUSH1 0x24 DUP3 ADD MSTORE PUSH32 0x43616E6E6F7420766F746520666F72206F776E207375626D697373696F6E0000 PUSH1 0x44 DUP3 ADD MSTORE REVERT JUMPDEST PUSH1 0x24 CALLDATALOAD SWAP1 PUSH1 0x1 PUSH1 0x1 PUSH1 0xA0 SHL SUB DUP3 AND DUP3 SUB PUSH2 0x121 JUMPI JUMP JUMPDEST SWAP2 SWAP1 DUP3 MLOAD SWAP3 DUP4 DUP3 MSTORE PUSH1 0x0 JUMPDEST DUP5 DUP2 LT PUSH2 0xE3D JUMPI POP POP DUP3 PUSH1 0x0 PUSH1 0x20 DUP1 SWAP5 SWAP6 DUP5 ADD ADD MSTORE PUSH1 0x1F DUP1 NOT SWAP2 ADD AND ADD ADD SWAP1 JUMP JUMPDEST PUSH1 0x20 DUP2 DUP4 ADD DUP2 ADD MLOAD DUP5 DUP4 ADD DUP3 ADD MSTORE ADD PUSH2 0xE1C JUMP JUMPDEST PUSH1 0xE0 DUP2 ADD SWAP1 DUP2 LT PUSH8 0xFFFFFFFFFFFFFFFF DUP3 GT OR PUSH2 0x658 JUMPI PUSH1 0x40 MSTORE JUMP JUMPDEST SWAP1 PUSH1 0x1F DUP1 NOT SWAP2 ADD AND DUP2 ADD SWAP1 DUP2 LT PUSH8 0xFFFFFFFFFFFFFFFF DUP3 GT OR PUSH2 0x658 JUMPI PUSH1 0x40 MSTORE JUMP JUMPDEST PUSH1 0x40 SWAP1 PUSH1 0x3 NOT ADD SLT PUSH2 0x121 JUMPI PUSH1 0x4 CALLDATALOAD SWAP1 PUSH1 0x24 CALLDATALOAD SWAP1 JUMP JUMPDEST DUP1 SLOAD DUP3 LT ISZERO PUSH2 0xEBD JUMPI PUSH1 0x0 MSTORE PUSH1 0x20 PUSH1 0x0 KECCAK256 ADD SWAP1 PUSH1 0x0 SWAP1 JUMP JUMPDEST PUSH4 0x4E487B71 PUSH1 0xE0 SHL PUSH1 0x0 MSTORE PUSH1 0x32 PUSH1 0x4 MSTORE PUSH1 0x24 PUSH1 0x0 REVERT JUMPDEST SWAP1 PUSH1 0x1 DUP3 DUP2 SHR SWAP3 AND DUP1 ISZERO PUSH2 0xF03 JUMPI JUMPDEST PUSH1 0x20 DUP4 LT EQ PUSH2 0xEED JUMPI JUMP JUMPDEST PUSH4 0x4E487B71 PUSH1 0xE0 SHL PUSH1 0x0 MSTORE PUSH1 0x22 PUSH1 0x4 MSTORE PUSH1 0x24 PUSH1 0x0 REVERT JUMPDEST SWAP2 PUSH1 0x7F AND SWAP2 PUSH2 0xEE2 JUMP JUMPDEST SWAP1 PUSH1 0x40 MLOAD SWAP2 DUP3 PUSH1 0x0 DUP3 SLOAD SWAP3 PUSH2 0xF21 DUP5 PUSH2 0xED3 JUMP JUMPDEST SWAP1 DUP2 DUP5 MSTORE PUSH1 0x1 SWAP5 DUP6 DUP2 AND SWAP1 DUP2 PUSH1 0x0 EQ PUSH2 0xF90 JUMPI POP PUSH1 0x1 EQ PUSH2 0xF4D JUMPI JUMPDEST POP POP PUSH2 0xF4B SWAP3 POP SUB DUP4 PUSH2 0xE6D JUMP JUMPDEST JUMP JUMPDEST SWAP1 SWAP4 SWAP2 POP PUSH1 0x0 MSTORE PUSH1 0x20 SWAP1 DUP2 PUSH1 0x0 KECCAK256 SWAP4 PUSH1 0x0 SWAP2 JUMPDEST DUP2 DUP4 LT PUSH2 0xF78 JUMPI POP POP PUSH2 0xF4B SWAP4 POP DUP3 ADD ADD CODESIZE DUP1 PUSH2 0xF3D JUMP JUMPDEST DUP6 SLOAD DUP9 DUP5 ADD DUP6 ADD MSTORE SWAP5 DUP6 ADD SWAP5 DUP8 SWAP5 POP SWAP2 DUP4 ADD SWAP2 PUSH2 0xF60 JUMP JUMPDEST SWAP2 POP POP PUSH2 0xF4B SWAP5 POP PUSH1 0x20 SWAP3 POP PUSH1 0xFF NOT AND DUP3 DUP5 ADD MSTORE ISZERO ISZERO PUSH1 0x5 SHL DUP3 ADD ADD CODESIZE DUP1 PUSH2 0xF3D JUMP JUMPDEST PUSH1 0x0 SLOAD PUSH1 0x1 PUSH1 0x1 PUSH1 0xA0 SHL SUB AND CALLER SUB PUSH2 0xFC7 JUMPI JUMP JUMPDEST PUSH1 0x40 MLOAD PUSH4 0x118CDAA7 PUSH1 0xE0 SHL DUP2 MSTORE CALLER PUSH1 0x4 DUP3 ADD MSTORE PUSH1 0x24 SWAP1 REVERT JUMPDEST PUSH1 0x0 NOT DUP2 EQ PUSH2 0x9DF JUMPI PUSH1 0x1 ADD SWAP1 JUMP JUMPDEST PUSH1 0x2 PUSH1 0x1 SLOAD EQ PUSH2 0xFFF JUMPI PUSH1 0x2 PUSH1 0x1 SSTORE JUMP JUMPDEST PUSH1 0x40 MLOAD PUSH4 0x3EE5AEB5 PUSH1 0xE0 SHL DUP2 MSTORE PUSH1 0x4 SWAP1 REVERT JUMPDEST ISZERO PUSH2 0x1018 JUMPI JUMP JUMPDEST PUSH1 0x40 MLOAD PUSH3 0x461BCD PUSH1 0xE5 SHL DUP2 MSTORE PUSH1 0x20 PUSH1 0x4 DUP3 ADD MSTORE PUSH1 0x19 PUSH1 0x24 DUP3 ADD MSTORE PUSH32 0x5375626D697373696F6E20646F6573206E6F7420657869737400000000000000 PUSH1 0x44 DUP3 ADD MSTORE PUSH1 0x64 SWAP1 REVERT JUMPDEST DUP1 ISZERO PUSH2 0x9DF JUMPI PUSH1 0x0 NOT ADD SWAP1 JUMP JUMPDEST DUP1 SLOAD DUP1 ISZERO PUSH2 0x1097 JUMPI PUSH1 0x0 NOT ADD SWAP1 PUSH2 0x1081 DUP3 DUP3 PUSH2 0xEA5 JUMP JUMPDEST DUP2 SLOAD SWAP1 PUSH1 0x1 DUP1 PUSH1 0xA0 SHL SUB SWAP1 PUSH1 0x3 SHL SHL NOT AND SWAP1 SSTORE SSTORE JUMP JUMPDEST PUSH4 0x4E487B71 PUSH1 0xE0 SHL PUSH1 0x0 MSTORE PUSH1 0x31 PUSH1 0x4 MSTORE PUSH1 0x24 PUSH1 0x0 REVERT INVALID LOG2 PUSH5 0x6970667358 0x22 SLT KECCAK256 DUP12 0xBD 0xAF 0xBA PUSH17 0x89DC5AB6B0910F4035F47C4D677D08AA2 SWAP2 0xAD DUP15 0xE3 0x4E 0xBA XOR BASEFEE TIMESTAMP 0xEE PUSH5 0x736F6C6343 STOP ADDMOD EQ STOP CALLER "},"gasEstimates":{"creation":{"codeDepositCost":"864600","executionCost":"70927","totalCost":"935527"},"external":{"contestSubmissions(uint256,uint256)":"7081","getContestSubmissions(uint256)":"infinite","getSubmission(uint256)":"infinite","getTotalSubmissions()":"2382","getUserSubmission(uint256,address)":"2492","getUserVoteInContest(uint256,address)":"2800","hasUserVoted(uint256,address)":"2768","hasVoted(uint256,address)":"2570","owner()":"2494","removeVote(uint256)":"infinite","renounceOwnership()":"28244","submissionVoters(uint256,uint256)":"6910","submissions(uint256)":"infinite","submitEntry(uint256,string)":"infinite","transferOwnership(address)":"28451","userSubmission(uint256,address)":"2734","userVote(uint256,address)":"2778","vote(uint256)":"infinite"}},"methodIdentifiers":{"contestSubmissions(uint256,uint256)":"fadfa4dc","getContestSubmissions(uint256)":"4c406c01","getSubmission(uint256)":"3e8686cc","getTotalSubmissions()":"54554d46","getUserSubmission(uint256,address)":"3687f7bf","getUserVoteInContest(uint256,address)":"dfa63e6c","hasUserVoted(uint256,address)":"dc296ae1","hasVoted(uint256,address)":"43859632","owner()":"8da5cb5b","removeVote(uint256)":"3f68fde4","renounceOwnership()":"715018a6","submissionVoters(uint256,uint256)":"6c811686","submissions(uint256)":"ad73349e","submitEntry(uint256,string)":"56ce45b6","transferOwnership(address)":"f2fde38b","userSubmission(uint256,address)":"d17bd67c","userVote(uint256,address)":"dc37596d","vote(uint256)":"0121b93f"}},"storageLayout":{"storage":[{"astId":8,"contract":"contracts/SimpleVoting.sol:SimpleVoting","label":"_owner","offset":0,"slot":"0","type":"t_address"},{"astId":188,"contract":"contracts/SimpleVoting.sol:SimpleVoting","label":"_status","offset":0,"slot":"1","type":"t_uint256"},{"astId":273,"contract":"contracts/SimpleVoting.sol:SimpleVoting","label":"_submissionIdCounter","offset":0,"slot":"2","type":"t_uint256"},{"astId":278,"contract":"contracts/SimpleVoting.sol:SimpleVoting","label":"submissions","offset":0,"slot":"3","type":"t_mapping(t_uint256,t_struct(Submission)270_storage)"},{"astId":283,"contract":"contracts/SimpleVoting.sol:SimpleVoting","label":"contestSubmissions","offset":0,"slot":"4","type":"t_mapping(t_uint256,t_array(t_uint256)dyn_storage)"},{"astId":289,"contract":"contracts/SimpleVoting.sol:SimpleVoting","label":"userSubmission","offset":0,"slot":"5","type":"t_mapping(t_uint256,t_mapping(t_address,t_uint256))"},{"astId":295,"contract":"contracts/SimpleVoting.sol:SimpleVoting","label":"hasVoted","offset":0,"slot":"6","type":"t_mapping(t_uint256,t_mapping(t_address,t_bool))"},{"astId":300,"contract":"contracts/SimpleVoting.sol:SimpleVoting","label":"submissionVoters","offset":0,"slot":"7","type":"t_mapping(t_uint256,t_array(t_address)dyn_storage)"},{"astId":306,"contract":"contracts/SimpleVoting.sol:SimpleVoting","label":"userVote","offset":0,"slot":"8","type":"t_mapping(t_uint256,t_mapping(t_address,t_uint256))"}],"types":{"t_address":{"encoding":"inplace","label":"address","numberOfBytes":"20"},"t_array(t_address)dyn_storage":{"base":"t_address","encoding":"dynamic_array","label":"address[]","numberOfBytes":"32"},"t_array(t_uint256)dyn_storage":{"base":"t_uint256","encoding":"dynamic_array","label":"uint256[]","numberOfBytes":"32"},"t_bool":{"encoding":"inplace","label":"bool","numberOfBytes":"1"},"t_mapping(t_address,t_bool)":{"encoding":"mapping","key":"t_address","label":"mapping(address => bool)","numberOfBytes":"32","value":"t_bool"},"t_mapping(t_address,t_uint256)":{"encoding":"mapping","key":"t_address","label":"mapping(address => uint256)","numberOfBytes":"32","value":"t_uint256"},"t_mapping(t_uint256,t_array(t_address)dyn_storage)":{"encoding":"mapping","key":"t_uint256","label":"mapping(uint256 => address[])","numberOfBytes":"32","value":"t_array(t_address)dyn_storage"},"t_mapping(t_uint256,t_array(t_uint256)dyn_storage)":{"encoding":"mapping","key":"t_uint256","label":"mapping(uint256 => uint256[])","numberOfBytes":"32","value":"t_array(t_uint256)dyn_storage"},"t_mapping(t_uint256,t_mapping(t_address,t_bool))":{"encoding":"mapping","key":"t_uint256","label":"mapping(uint256 => mapping(address => bool))","numberOfBytes":"32","value":"t_mapping(t_address,t_bool)"},"t_mapping(t_uint256,t_mapping(t_address,t_uint256))":{"encoding":"mapping","key":"t_uint256","label":"mapping(uint256 => mapping(address => uint256))","numberOfBytes":"32","value":"t_mapping(t_address,t_uint256)"},"t_mapping(t_uint256,t_struct(Submission)270_storage)":{"encoding":"mapping","key":"t_uint256","label":"mapping(uint256 => struct SimpleVoting.Submission)","numberOfBytes":"32","value":"t_struct(Submission)270_storage"},"t_string_storage":{"encoding":"bytes","label":"string","numberOfBytes":"32"},"t_struct(Submission)270_storage":{"encoding":"inplace","label":"struct SimpleVoting.Submission","members":[{"astId":257,"contract":"contracts/SimpleVoting.sol:SimpleVoting","label":"id","offset":0,"slot":"0","type":"t_uint256"},{"astId":259,"contract":"contracts/SimpleVoting.sol:SimpleVoting","label":"contestId","offset":0,"slot":"1","type":"t_uint256"},{"astId":261,"contract":"contracts/SimpleVoting.sol:SimpleVoting","label":"submitter","offset":0,"slot":"2","type":"t_address"},{"astId":263,"contract":"contracts/SimpleVoting.sol:SimpleVoting","label":"metadataURI","offset":0,"slot":"3","type":"t_string_storage"},{"astId":265,"contract":"contracts/SimpleVoting.sol:SimpleVoting","label":"voteCount","offset":0,"slot":"4","type":"t_uint256"},{"astId":267,"contract":"contracts/SimpleVoting.sol:SimpleVoting","label":"timestamp","offset":0,"slot":"5","type":"t_uint256"},{"astId":269,"contract":"contracts/SimpleVoting.sol:SimpleVoting","label":"exists","offset":0,"slot":"6","type":"t_bool"}],"numberOfBytes":"224"},"t_uint256":{"encoding":"inplace","label":"uint256","numberOfBytes":"32"}}},"userdoc":{"kind":"user","methods":{},"version":1}}}}