{"contracts/ContestFactory.sol":{"ContestFactory":{"abi":[{"inputs":[{"internalType":"address","name":"_feeCollector","type":"address"}],"stateMutability":"nonpayable","type":"constructor"},{"inputs":[{"internalType":"address","name":"owner","type":"address"}],"name":"OwnableInvalidOwner","type":"error"},{"inputs":[{"internalType":"address","name":"account","type":"address"}],"name":"OwnableUnauthorizedAccount","type":"error"},{"inputs":[],"name":"ReentrancyGuardReentrantCall","type":"error"},{"anonymous":false,"inputs":[{"indexed":true,"internalType":"uint256","name":"contestId","type":"uint256"},{"indexed":true,"internalType":"address","name":"creator","type":"address"},{"indexed":false,"internalType":"string","name":"title","type":"string"},{"indexed":false,"internalType":"uint256","name":"prizePool","type":"uint256"},{"indexed":false,"internalType":"uint256","name":"startTime","type":"uint256"},{"indexed":false,"internalType":"uint256","name":"endTime","type":"uint256"}],"name":"ContestCreated","type":"event"},{"anonymous":false,"inputs":[{"indexed":true,"internalType":"uint256","name":"contestId","type":"uint256"},{"indexed":false,"internalType":"enum ContestFactory.ContestStatus","name":"oldStatus","type":"uint8"},{"indexed":false,"internalType":"enum ContestFactory.ContestStatus","name":"newStatus","type":"uint8"}],"name":"ContestStatusChanged","type":"event"},{"anonymous":false,"inputs":[{"indexed":true,"internalType":"address","name":"previousOwner","type":"address"},{"indexed":true,"internalType":"address","name":"newOwner","type":"address"}],"name":"OwnershipTransferred","type":"event"},{"anonymous":false,"inputs":[{"indexed":false,"internalType":"uint256","name":"oldFee","type":"uint256"},{"indexed":false,"internalType":"uint256","name":"newFee","type":"uint256"}],"name":"PlatformFeeUpdated","type":"event"},{"anonymous":false,"inputs":[{"indexed":true,"internalType":"uint256","name":"contestId","type":"uint256"},{"indexed":true,"internalType":"address","name":"contributor","type":"address"},{"indexed":false,"internalType":"uint256","name":"amount","type":"uint256"},{"indexed":false,"internalType":"uint256","name":"newTotal","type":"uint256"}],"name":"PrizePoolIncreased","type":"event"},{"inputs":[{"internalType":"uint256","name":"","type":"uint256"}],"name":"contests","outputs":[{"internalType":"uint256","name":"id","type":"uint256"},{"internalType":"address","name":"creator","type":"address"},{"internalType":"string","name":"title","type":"string"},{"internalType":"string","name":"metadataURI","type":"string"},{"internalType":"uint256","name":"prizePool","type":"uint256"},{"internalType":"address","name":"prizeToken","type":"address"},{"internalType":"uint256","name":"startTime","type":"uint256"},{"internalType":"uint256","name":"endTime","type":"uint256"},{"internalType":"uint256","name":"votingEndTime","type":"uint256"},{"internalType":"enum ContestFactory.ContestStatus","name":"status","type":"uint8"},{"internalType":"uint256","name":"submissionCount","type":"uint256"},{"internalType":"uint256","name":"totalVotes","type":"uint256"}],"stateMutability":"view","type":"function"},{"inputs":[{"internalType":"string","name":"_title","type":"string"},{"internalType":"string","name":"_metadataURI","type":"string"},{"internalType":"uint256","name":"_prizePool","type":"uint256"},{"internalType":"address","name":"_prizeToken","type":"address"},{"internalType":"uint256","name":"_startTime","type":"uint256"},{"internalType":"uint256","name":"_endTime","type":"uint256"},{"internalType":"uint256","name":"_votingEndTime","type":"uint256"}],"name":"createContest","outputs":[{"internalType":"uint256","name":"","type":"uint256"}],"stateMutability":"payable","type":"function"},{"inputs":[{"internalType":"address","name":"","type":"address"},{"internalType":"uint256","name":"","type":"uint256"}],"name":"creatorContests","outputs":[{"internalType":"uint256","name":"","type":"uint256"}],"stateMutability":"view","type":"function"},{"inputs":[],"name":"feeCollector","outputs":[{"internalType":"address","name":"","type":"address"}],"stateMutability":"view","type":"function"},{"inputs":[{"internalType":"uint256","name":"_contestId","type":"uint256"}],"name":"getContest","outputs":[{"components":[{"internalType":"uint256","name":"id","type":"uint256"},{"internalType":"address","name":"creator","type":"address"},{"internalType":"string","name":"title","type":"string"},{"internalType":"string","name":"metadataURI","type":"string"},{"internalType":"uint256","name":"prizePool","type":"uint256"},{"internalType":"address","name":"prizeToken","type":"address"},{"internalType":"uint256","name":"startTime","type":"uint256"},{"internalType":"uint256","name":"endTime","type":"uint256"},{"internalType":"uint256","name":"votingEndTime","type":"uint256"},{"internalType":"enum ContestFactory.ContestStatus","name":"status","type":"uint8"},{"internalType":"uint256","name":"submissionCount","type":"uint256"},{"internalType":"uint256","name":"totalVotes","type":"uint256"}],"internalType":"struct ContestFactory.Contest","name":"","type":"tuple"}],"stateMutability":"view","type":"function"},{"inputs":[{"internalType":"address","name":"_creator","type":"address"}],"name":"getCreatorContests","outputs":[{"internalType":"uint256[]","name":"","type":"uint256[]"}],"stateMutability":"view","type":"function"},{"inputs":[],"name":"getTotalContests","outputs":[{"internalType":"uint256","name":"","type":"uint256"}],"stateMutability":"view","type":"function"},{"inputs":[{"internalType":"uint256","name":"_contestId","type":"uint256"}],"name":"increasePrizePool","outputs":[],"stateMutability":"payable","type":"function"},{"inputs":[{"internalType":"uint256","name":"_contestId","type":"uint256"}],"name":"incrementSubmissionCount","outputs":[],"stateMutability":"nonpayable","type":"function"},{"inputs":[{"internalType":"uint256","name":"_contestId","type":"uint256"}],"name":"incrementVoteCount","outputs":[],"stateMutability":"nonpayable","type":"function"},{"inputs":[{"internalType":"uint256","name":"_contestId","type":"uint256"}],"name":"isContestActive","outputs":[{"internalType":"bool","name":"","type":"bool"}],"stateMutability":"view","type":"function"},{"inputs":[{"internalType":"uint256","name":"_contestId","type":"uint256"}],"name":"isVotingActive","outputs":[{"internalType":"bool","name":"","type":"bool"}],"stateMutability":"view","type":"function"},{"inputs":[],"name":"owner","outputs":[{"internalType":"address","name":"","type":"address"}],"stateMutability":"view","type":"function"},{"inputs":[],"name":"platformFeeBps","outputs":[{"internalType":"uint256","name":"","type":"uint256"}],"stateMutability":"view","type":"function"},{"inputs":[],"name":"renounceOwnership","outputs":[],"stateMutability":"nonpayable","type":"function"},{"inputs":[{"internalType":"address","name":"newOwner","type":"address"}],"name":"transferOwnership","outputs":[],"stateMutability":"nonpayable","type":"function"},{"inputs":[{"internalType":"uint256","name":"_contestId","type":"uint256"},{"internalType":"enum ContestFactory.ContestStatus","name":"_newStatus","type":"uint8"}],"name":"updateContestStatus","outputs":[],"stateMutability":"nonpayable","type":"function"},{"inputs":[{"internalType":"address","name":"_newCollector","type":"address"}],"name":"updateFeeCollector","outputs":[],"stateMutability":"nonpayable","type":"function"},{"inputs":[{"internalType":"uint256","name":"_newFeeBps","type":"uint256"}],"name":"updatePlatformFee","outputs":[],"stateMutability":"nonpayable","type":"function"},{"inputs":[],"name":"withdrawFees","outputs":[],"stateMutability":"nonpayable","type":"function"},{"stateMutability":"payable","type":"receive"}],"devdoc":{"details":"Creates and manages Halloween contest competitions on Celo","errors":{"OwnableInvalidOwner(address)":[{"details":"The owner is not a valid owner account. (eg. `address(0)`)"}],"OwnableUnauthorizedAccount(address)":[{"details":"The caller account is not authorized to perform an operation."}],"ReentrancyGuardReentrantCall()":[{"details":"Unauthorized reentrant call."}]},"kind":"dev","methods":{"createContest(string,string,uint256,address,uint256,uint256,uint256)":{"details":"Create a new contest"},"getContest(uint256)":{"details":"Get contest details"},"getCreatorContests(address)":{"details":"Get contests created by an address"},"getTotalContests()":{"details":"Get total contest count"},"increasePrizePool(uint256)":{"details":"Increase prize pool"},"incrementSubmissionCount(uint256)":{"details":"Update submission count (called by VotingContract)"},"incrementVoteCount(uint256)":{"details":"Update vote count (called by VotingContract)"},"isContestActive(uint256)":{"details":"Check if contest is active"},"isVotingActive(uint256)":{"details":"Check if voting is active"},"owner()":{"details":"Returns the address of the current owner."},"renounceOwnership()":{"details":"Leaves the contract without owner. It will not be possible to call `onlyOwner` functions. Can only be called by the current owner. NOTE: Renouncing ownership will leave the contract without an owner, thereby disabling any functionality that is only available to the owner."},"transferOwnership(address)":{"details":"Transfers ownership of the contract to a new account (`newOwner`). Can only be called by the current owner."},"updateContestStatus(uint256,uint8)":{"details":"Update contest status"},"updateFeeCollector(address)":{"details":"Update fee collector (owner only)"},"updatePlatformFee(uint256)":{"details":"Update platform fee (owner only)"},"withdrawFees()":{"details":"Withdraw platform fees (owner only)"}},"title":"ContestFactory","version":1},"evm":{"bytecode":{"linkReferences":{},"object":"6080346100cf57601f61170c38819003918201601f19168301916001600160401b038311848410176100d4578084926020946040528339810103126100cf57516001600160a01b0390818116908190036100cf5733156100b65760005460018060a01b0319903382821617600055604051933391167f8be0079c531659141344cd1fd0a4f28419497f9722a3daafe3b4186f6b6457e0600080a36001805560fa600555600654161760065561162190816100eb8239f35b604051631e4fbdf760e01b815260006004820152602490fd5b600080fd5b634e487b7160e01b600052604160045260246000fdfe608080604052600436101561001d575b50361561001b57600080fd5b005b60003560e01c90816322dcd13e1461134757508063476343ee146112c25780636d436fa31461120e578063715018a6146111b557806373d53dd21461119757806374828bbb146110b1578063772744b514610fae5780638da5cb5b14610f85578063904b9f7214610da05780639d7ed73814610cb6578063a490a21b1461065d578063aa0b5988146105c1578063af1087e91461041c578063bf5e253f146102f4578063c415b95c146102cb578063cda6d0021461029d578063d2c35ce81461021e578063e6bf74c9146101c6578063f2fde38b1461013d5763f3b9e61c14610106573861000f565b34610138576020366003190112610138576004356000526003602052600b6040600020016101348154611595565b9055005b600080fd5b3461013857602036600319011261013857610156611362565b61015e611569565b6001600160a01b039081169081156101ad57600054826001600160601b0360a01b821617600055167f8be0079c531659141344cd1fd0a4f28419497f9722a3daafe3b4186f6b6457e0600080a3005b604051631e4fbdf760e01b815260006004820152602490fd5b34610138576040366003190112610138576101df611362565b6001600160a01b0316600090815260046020526040902080546024359190821015610138576020916102109161153b565b90546040519160031b1c8152f35b3461013857602036600319011261013857610237611362565b61023f611569565b6001600160a01b03168015610266576001600160601b0360a01b6006541617600655600080f35b60405162461bcd60e51b815260206004820152600f60248201526e496e76616c6964206164647265737360881b6044820152606490fd5b34610138576020366003190112610138576004356000526003602052600a6040600020016101348154611595565b34610138576000366003190112610138576006546040516001600160a01b039091168152602090f35b34610138576020366003190112610138576004356000526003602052604060002060405190610322826113ff565b8054825260018101546001600160a01b0390811660208401526103476002830161143e565b60408401526103586003830161143e565b60608401526004820154608084015260058201541660a083015260068101549060c0830191825260078101549260e081019384526008820154610100820152610160600b60ff600985015416936103b4610120850195866115a4565b600a8101546101408501520154910152519160058310156104065760016020931491826103fa575b50816103ee575b506040519015158152f35b905051421115826103e3565b514210159150836103dc565b634e487b7160e01b600052602160045260246000fd5b602080600319360112610138576004356104346115c8565b341561058b576000818152600383526040902060058101546001600160a01b03166105465760ff60098201541660058110156104065760038114610511576004146104d8576004018054903482018092116104c257819055604051923484528301527f8fb82f92fbac15f0a9edc91d47d33edcfce30f6805c6a005f56e95e4f9fd9bb460403393a360018055005b634e487b7160e01b600052601160045260246000fd5b60405162461bcd60e51b815260048101849052601160248201527010dbdb9d195cdd0818d85b98d95b1b1959607a1b6044820152606490fd5b60405162461bcd60e51b815260048101859052600d60248201526c10dbdb9d195cdd08195b991959609a1b6044820152606490fd5b60405162461bcd60e51b815260048101849052601c60248201527f436f6e74657374207573657320746f6b656e2c206e6f742043454c4f000000006044820152606490fd5b60405162461bcd60e51b815260048101839052600e60248201526d4d7573742073656e642043454c4f60901b6044820152606490fd5b34610138576020366003190112610138576004356105dd611569565b6103e8811161061f5760407fd347e206f25a89b917fc9482f1a2d294d749baa4dc9bde7fb495ee11fe49164391600554908060055582519182526020820152a1005b60405162461bcd60e51b815260206004820152601660248201527546656520746f6f206869676820286d6178203130252960501b6044820152606490fd5b60e03660031901126101385760043567ffffffffffffffff8111610138576106899036906004016114e4565b60243567ffffffffffffffff8111610138576106a99036906004016114e4565b6064803591906001600160a01b0383168303610138576106c76115c8565b426084351115610c745760843560a4351115610c325760a43560c4351115610be25760443515610b94576001600160a01b03831615610b48575b506002549161070f83611595565b6002556040519161071f836113ff565b8383523360208401528460408401526060830152604435608083015260018060a01b031660a082015260843560c082015260a43560e082015260c435610100820152600061012082015260006101408201526000610160820152816000526003602052604060002090805182556001820160018060a01b036020830151166001600160601b0360a01b825416179055604081015180519067ffffffffffffffff82116109925781906107d460028601546113c5565b601f8111610af5575b50602090601f8311600114610a8357600092610a78575b50508160011b916000199060031b1c19161760028301555b606081015180519067ffffffffffffffff821161099257819061083260038601546113c5565b601f8111610a25575b50602090601f83116001146109b3576000926109a8575b50508160011b916000199060031b1c19161760038301555b608081015160048301556005820160018060a01b0360a0830151166001600160601b0360a01b82541617905560c0810151600683015560e081015160078301556101008101516008830155610120810151600581101561040657600b916108d761016092600986016115b0565b610140810151600a850155015191015533600052600460205260406000209182549268010000000000000000841015610992578361091c91600160209601815561153b565b81549060031b9084821b91600019901b1916179055817f4aaaf0ce6b66893efbe13b0c3adb4a8b2077c1e3e57b0432fdeffda2eca9df0661096860405193608085526080850190611378565b9260443586820152608435604082015260a43560608201528033940390a360018055604051908152f35b634e487b7160e01b600052604160045260246000fd5b015190508680610852565b9250600385016000526020600020906000935b601f1984168510610a0a576001945083601f198116106109f1575b505050811b01600383015561086a565b015160001960f88460031b161c191690558680806109e1565b818101518355602094850194600190930192909101906109c6565b909150600385016000526020600020601f840160051c810160208510610a71575b90849392915b601f830160051c82018110610a6257505061083b565b60008155859450600101610a4c565b5080610a46565b0151905086806107f4565b9250600285016000526020600020906000935b601f1984168510610ada576001945083601f19811610610ac1575b505050811b01600283015561080c565b015160001960f88460031b161c19169055868080610ab1565b81810151835560209485019460019093019290910190610a96565b909150600285016000526020600020601f840160051c810160208510610b41575b90849392915b601f830160051c82018110610b325750506107dd565b60008155859450600101610b1c565b5080610b16565b6044353410156107015760405162461bcd60e51b815260206004820181905260248201527f496e73756666696369656e742043454c4f20666f72207072697a6520706f6f6c6044820152fd5b608490600360fc1b6040519162461bcd60e51b835260206004840152602160248401527f5072697a6520706f6f6c206d7573742062652067726561746572207468616e206044840152820152fd5b6084906308195b9960e21b6040519162461bcd60e51b8352602060048401526024808401527f566f74696e6720656e64206d75737420626520616674657220636f6e746573746044840152820152fd5b60405162461bcd60e51b815260206004820152601c60248201527f456e642074696d65206d757374206265206166746572207374617274000000006044820152fd5b60405162461bcd60e51b815260206004820152601c60248201527f53746172742074696d65206d75737420626520696e20667574757265000000006044820152fd5b34610138576020366003190112610138576004356000908152600360205260409020805460018201546001600160a01b0390811692610cf76002820161143e565b90610d046003820161143e565b6004820154936005830154166006830154600784015490600885015492600986015460ff1694600a87015496600b0154976040519b8c9b8c5260208c01526101808060408d01528b01610d5691611378565b8a810360608c0152610d6791611378565b9760808a015260a089015260c088015260e08701526101008601526101208501610d90916113b8565b6101408401526101608301520390f35b34610138576020366003190112610138576000610160604051610dc2816113ff565b828152826020820152606060408201526060808201528260808201528260a08201528260c08201528260e0820152826101008201528261012082015282610140820152015260043560005260036020526040600020600b60405191610e26836113ff565b8054835260018101546001600160a01b03166020840152610e496002820161143e565b6040840152610e5a6003820161143e565b60608401526004810154608084015260058101546001600160a01b031660a0840152600681015460c0840152600781015460e084015260088101546101008401526009810154610eb19060ff1661012085016115a4565b600a81015461014084015201546101608201526040518091602082528051602083015260018060a01b036020820151166040830152610160610f1d610f07604084015161018060608701526101a0860190611378565b6060840151858203601f19016080870152611378565b91608081015160a085015260018060a01b0360a08201511660c085015260c081015160e085015260e0810151610100850152610100810151610120850152610f6f6101208201516101408601906113b8565b6101408101518285015201516101808301520390f35b34610138576000366003190112610138576000546040516001600160a01b039091168152602090f35b34610138576020366003190112610138576004356000526003602052604060002060405190610fdc826113ff565b8054825260018101546001600160a01b0390811660208401526110016002830161143e565b60408401526110126003830161143e565b60608401526004820154608084015260058201541660a0830152600681015460c083015260078101549060e083019182526008810154926101008101938452610160600b60ff6009850154169361106e610120850195866115a4565b600a8101546101408501520154910152519160058310156104065760026020931491826110a65750816103ee57506040519015158152f35b5142119150836103dc565b346101385760403660031901126101385760043560243560058110156101385760008281526003602052604090206001810154336001600160a01b0391821614908115611189575b5015611153577f2049bae7871bc32e098ec2b73ebfa495ed2496dc8a5dc7bf9d4714eb4e09d2bb916111506009604093019161113a8160ff855416946115b0565b611146845180946113b8565b60208301906113b8565ba2005b60405162461bcd60e51b815260206004820152600e60248201526d139bdd08185d5d1a1bdc9a5e995960921b6044820152606490fd5b9050600054163314846110f9565b34610138576000366003190112610138576020600254604051908152f35b34610138576000366003190112610138576111ce611569565b600080546001600160a01b0319811682556001600160a01b03167f8be0079c531659141344cd1fd0a4f28419497f9722a3daafe3b4186f6b6457e08280a3005b3461013857602080600319360112610138576001600160a01b03611230611362565b1660005260048152604060002060405190818382549182815201908192600052846000209060005b868282106112ae57868661126e8288038361141c565b604051928392818401908285525180915260408401929160005b82811061129757505050500390f35b835185528695509381019392810192600101611288565b835485529093019260019283019201611258565b34610138576000366003190112610138576112db611569565b47801561130c576006546000918291829182916001600160a01b031682f11561130057005b6040513d6000823e3d90fd5b60405162461bcd60e51b81526020600482015260136024820152724e6f206665657320746f20776974686472617760681b6044820152606490fd5b34610138576000366003190112610138576020906005548152f35b600435906001600160a01b038216820361013857565b919082519283825260005b8481106113a4575050826000602080949584010152601f8019910116010190565b602081830181015184830182015201611383565b9060058210156104065752565b90600182811c921680156113f5575b60208310146113df57565b634e487b7160e01b600052602260045260246000fd5b91607f16916113d4565b610180810190811067ffffffffffffffff82111761099257604052565b90601f8019910116810190811067ffffffffffffffff82111761099257604052565b9060405191826000825492611452846113c5565b9081845260019485811690816000146114c1575060011461147e575b505061147c9250038361141c565b565b9093915060005260209081600020936000915b8183106114a957505061147c9350820101388061146e565b85548884018501529485019487945091830191611491565b91505061147c94506020925060ff191682840152151560051b820101388061146e565b81601f820112156101385780359067ffffffffffffffff82116109925760405192611519601f8401601f19166020018561141c565b8284526020838301011161013857816000926020809301838601378301015290565b80548210156115535760005260206000200190600090565b634e487b7160e01b600052603260045260246000fd5b6000546001600160a01b0316330361157d57565b60405163118cdaa760e01b8152336004820152602490fd5b60001981146104c25760010190565b60058210156104065752565b9060058110156104065760ff80198354169116179055565b6002600154146115d9576002600155565b604051633ee5aeb560e01b8152600490fdfea2646970667358221220f2c30d4bfee6638c4a3b1093b5c6ea15e38a3e564ebb482ceae413fc5436bb4b64736f6c63430008140033","opcodes":"PUSH1 0x80 CALLVALUE PUSH2 0xCF JUMPI PUSH1 0x1F PUSH2 0x170C CODESIZE DUP2 SWAP1 SUB SWAP2 DUP3 ADD PUSH1 0x1F NOT AND DUP4 ADD SWAP2 PUSH1 0x1 PUSH1 0x1 PUSH1 0x40 SHL SUB DUP4 GT DUP5 DUP5 LT OR PUSH2 0xD4 JUMPI DUP1 DUP5 SWAP3 PUSH1 0x20 SWAP5 PUSH1 0x40 MSTORE DUP4 CODECOPY DUP2 ADD SUB SLT PUSH2 0xCF JUMPI MLOAD PUSH1 0x1 PUSH1 0x1 PUSH1 0xA0 SHL SUB SWAP1 DUP2 DUP2 AND SWAP1 DUP2 SWAP1 SUB PUSH2 0xCF JUMPI CALLER ISZERO PUSH2 0xB6 JUMPI PUSH1 0x0 SLOAD PUSH1 0x1 DUP1 PUSH1 0xA0 SHL SUB NOT SWAP1 CALLER DUP3 DUP3 AND OR PUSH1 0x0 SSTORE PUSH1 0x40 MLOAD SWAP4 CALLER SWAP2 AND PUSH32 0x8BE0079C531659141344CD1FD0A4F28419497F9722A3DAAFE3B4186F6B6457E0 PUSH1 0x0 DUP1 LOG3 PUSH1 0x1 DUP1 SSTORE PUSH1 0xFA PUSH1 0x5 SSTORE PUSH1 0x6 SLOAD AND OR PUSH1 0x6 SSTORE PUSH2 0x1621 SWAP1 DUP2 PUSH2 0xEB DUP3 CODECOPY RETURN JUMPDEST PUSH1 0x40 MLOAD PUSH4 0x1E4FBDF7 PUSH1 0xE0 SHL DUP2 MSTORE PUSH1 0x0 PUSH1 0x4 DUP3 ADD MSTORE PUSH1 0x24 SWAP1 REVERT JUMPDEST PUSH1 0x0 DUP1 REVERT JUMPDEST PUSH4 0x4E487B71 PUSH1 0xE0 SHL PUSH1 0x0 MSTORE PUSH1 0x41 PUSH1 0x4 MSTORE PUSH1 0x24 PUSH1 0x0 REVERT INVALID PUSH1 0x80 DUP1 PUSH1 0x40 MSTORE PUSH1 0x4 CALLDATASIZE LT ISZERO PUSH2 0x1D JUMPI JUMPDEST POP CALLDATASIZE ISZERO PUSH2 0x1B JUMPI PUSH1 0x0 DUP1 REVERT JUMPDEST STOP JUMPDEST PUSH1 0x0 CALLDATALOAD PUSH1 0xE0 SHR SWAP1 DUP2 PUSH4 0x22DCD13E EQ PUSH2 0x1347 JUMPI POP DUP1 PUSH4 0x476343EE EQ PUSH2 0x12C2 JUMPI DUP1 PUSH4 0x6D436FA3 EQ PUSH2 0x120E JUMPI DUP1 PUSH4 0x715018A6 EQ PUSH2 0x11B5 JUMPI DUP1 PUSH4 0x73D53DD2 EQ PUSH2 0x1197 JUMPI DUP1 PUSH4 0x74828BBB EQ PUSH2 0x10B1 JUMPI DUP1 PUSH4 0x772744B5 EQ PUSH2 0xFAE JUMPI DUP1 PUSH4 0x8DA5CB5B EQ PUSH2 0xF85 JUMPI DUP1 PUSH4 0x904B9F72 EQ PUSH2 0xDA0 JUMPI DUP1 PUSH4 0x9D7ED738 EQ PUSH2 0xCB6 JUMPI DUP1 PUSH4 0xA490A21B EQ PUSH2 0x65D JUMPI DUP1 PUSH4 0xAA0B5988 EQ PUSH2 0x5C1 JUMPI DUP1 PUSH4 0xAF1087E9 EQ PUSH2 0x41C JUMPI DUP1 PUSH4 0xBF5E253F EQ PUSH2 0x2F4 JUMPI DUP1 PUSH4 0xC415B95C EQ PUSH2 0x2CB JUMPI DUP1 PUSH4 0xCDA6D002 EQ PUSH2 0x29D JUMPI DUP1 PUSH4 0xD2C35CE8 EQ PUSH2 0x21E JUMPI DUP1 PUSH4 0xE6BF74C9 EQ PUSH2 0x1C6 JUMPI DUP1 PUSH4 0xF2FDE38B EQ PUSH2 0x13D JUMPI PUSH4 0xF3B9E61C EQ PUSH2 0x106 JUMPI CODESIZE PUSH2 0xF JUMP JUMPDEST CALLVALUE PUSH2 0x138 JUMPI PUSH1 0x20 CALLDATASIZE PUSH1 0x3 NOT ADD SLT PUSH2 0x138 JUMPI PUSH1 0x4 CALLDATALOAD PUSH1 0x0 MSTORE PUSH1 0x3 PUSH1 0x20 MSTORE PUSH1 0xB PUSH1 0x40 PUSH1 0x0 KECCAK256 ADD PUSH2 0x134 DUP2 SLOAD PUSH2 0x1595 JUMP JUMPDEST SWAP1 SSTORE STOP JUMPDEST PUSH1 0x0 DUP1 REVERT JUMPDEST CALLVALUE PUSH2 0x138 JUMPI PUSH1 0x20 CALLDATASIZE PUSH1 0x3 NOT ADD SLT PUSH2 0x138 JUMPI PUSH2 0x156 PUSH2 0x1362 JUMP JUMPDEST PUSH2 0x15E PUSH2 0x1569 JUMP JUMPDEST PUSH1 0x1 PUSH1 0x1 PUSH1 0xA0 SHL SUB SWAP1 DUP2 AND SWAP1 DUP2 ISZERO PUSH2 0x1AD JUMPI PUSH1 0x0 SLOAD DUP3 PUSH1 0x1 PUSH1 0x1 PUSH1 0x60 SHL SUB PUSH1 0xA0 SHL DUP3 AND OR PUSH1 0x0 SSTORE AND PUSH32 0x8BE0079C531659141344CD1FD0A4F28419497F9722A3DAAFE3B4186F6B6457E0 PUSH1 0x0 DUP1 LOG3 STOP JUMPDEST PUSH1 0x40 MLOAD PUSH4 0x1E4FBDF7 PUSH1 0xE0 SHL DUP2 MSTORE PUSH1 0x0 PUSH1 0x4 DUP3 ADD MSTORE PUSH1 0x24 SWAP1 REVERT JUMPDEST CALLVALUE PUSH2 0x138 JUMPI PUSH1 0x40 CALLDATASIZE PUSH1 0x3 NOT ADD SLT PUSH2 0x138 JUMPI PUSH2 0x1DF PUSH2 0x1362 JUMP JUMPDEST PUSH1 0x1 PUSH1 0x1 PUSH1 0xA0 SHL SUB AND PUSH1 0x0 SWAP1 DUP2 MSTORE PUSH1 0x4 PUSH1 0x20 MSTORE PUSH1 0x40 SWAP1 KECCAK256 DUP1 SLOAD PUSH1 0x24 CALLDATALOAD SWAP2 SWAP1 DUP3 LT ISZERO PUSH2 0x138 JUMPI PUSH1 0x20 SWAP2 PUSH2 0x210 SWAP2 PUSH2 0x153B JUMP JUMPDEST SWAP1 SLOAD PUSH1 0x40 MLOAD SWAP2 PUSH1 0x3 SHL SHR DUP2 MSTORE RETURN JUMPDEST CALLVALUE PUSH2 0x138 JUMPI PUSH1 0x20 CALLDATASIZE PUSH1 0x3 NOT ADD SLT PUSH2 0x138 JUMPI PUSH2 0x237 PUSH2 0x1362 JUMP JUMPDEST PUSH2 0x23F PUSH2 0x1569 JUMP JUMPDEST PUSH1 0x1 PUSH1 0x1 PUSH1 0xA0 SHL SUB AND DUP1 ISZERO PUSH2 0x266 JUMPI PUSH1 0x1 PUSH1 0x1 PUSH1 0x60 SHL SUB PUSH1 0xA0 SHL PUSH1 0x6 SLOAD AND OR PUSH1 0x6 SSTORE PUSH1 0x0 DUP1 RETURN JUMPDEST PUSH1 0x40 MLOAD PUSH3 0x461BCD PUSH1 0xE5 SHL DUP2 MSTORE PUSH1 0x20 PUSH1 0x4 DUP3 ADD MSTORE PUSH1 0xF PUSH1 0x24 DUP3 ADD MSTORE PUSH15 0x496E76616C69642061646472657373 PUSH1 0x88 SHL PUSH1 0x44 DUP3 ADD MSTORE PUSH1 0x64 SWAP1 REVERT JUMPDEST CALLVALUE PUSH2 0x138 JUMPI PUSH1 0x20 CALLDATASIZE PUSH1 0x3 NOT ADD SLT PUSH2 0x138 JUMPI PUSH1 0x4 CALLDATALOAD PUSH1 0x0 MSTORE PUSH1 0x3 PUSH1 0x20 MSTORE PUSH1 0xA PUSH1 0x40 PUSH1 0x0 KECCAK256 ADD PUSH2 0x134 DUP2 SLOAD PUSH2 0x1595 JUMP JUMPDEST CALLVALUE PUSH2 0x138 JUMPI PUSH1 0x0 CALLDATASIZE PUSH1 0x3 NOT ADD SLT PUSH2 0x138 JUMPI PUSH1 0x6 SLOAD PUSH1 0x40 MLOAD PUSH1 0x1 PUSH1 0x1 PUSH1 0xA0 SHL SUB SWAP1 SWAP2 AND DUP2 MSTORE PUSH1 0x20 SWAP1 RETURN JUMPDEST CALLVALUE PUSH2 0x138 JUMPI PUSH1 0x20 CALLDATASIZE PUSH1 0x3 NOT ADD SLT PUSH2 0x138 JUMPI PUSH1 0x4 CALLDATALOAD PUSH1 0x0 MSTORE PUSH1 0x3 PUSH1 0x20 MSTORE PUSH1 0x40 PUSH1 0x0 KECCAK256 PUSH1 0x40 MLOAD SWAP1 PUSH2 0x322 DUP3 PUSH2 0x13FF JUMP JUMPDEST DUP1 SLOAD DUP3 MSTORE PUSH1 0x1 DUP2 ADD SLOAD PUSH1 0x1 PUSH1 0x1 PUSH1 0xA0 SHL SUB SWAP1 DUP2 AND PUSH1 0x20 DUP5 ADD MSTORE PUSH2 0x347 PUSH1 0x2 DUP4 ADD PUSH2 0x143E JUMP JUMPDEST PUSH1 0x40 DUP5 ADD MSTORE PUSH2 0x358 PUSH1 0x3 DUP4 ADD PUSH2 0x143E JUMP JUMPDEST PUSH1 0x60 DUP5 ADD MSTORE PUSH1 0x4 DUP3 ADD SLOAD PUSH1 0x80 DUP5 ADD MSTORE PUSH1 0x5 DUP3 ADD SLOAD AND PUSH1 0xA0 DUP4 ADD MSTORE PUSH1 0x6 DUP2 ADD SLOAD SWAP1 PUSH1 0xC0 DUP4 ADD SWAP2 DUP3 MSTORE PUSH1 0x7 DUP2 ADD SLOAD SWAP3 PUSH1 0xE0 DUP2 ADD SWAP4 DUP5 MSTORE PUSH1 0x8 DUP3 ADD SLOAD PUSH2 0x100 DUP3 ADD MSTORE PUSH2 0x160 PUSH1 0xB PUSH1 0xFF PUSH1 0x9 DUP6 ADD SLOAD AND SWAP4 PUSH2 0x3B4 PUSH2 0x120 DUP6 ADD SWAP6 DUP7 PUSH2 0x15A4 JUMP JUMPDEST PUSH1 0xA DUP2 ADD SLOAD PUSH2 0x140 DUP6 ADD MSTORE ADD SLOAD SWAP2 ADD MSTORE MLOAD SWAP2 PUSH1 0x5 DUP4 LT ISZERO PUSH2 0x406 JUMPI PUSH1 0x1 PUSH1 0x20 SWAP4 EQ SWAP2 DUP3 PUSH2 0x3FA JUMPI JUMPDEST POP DUP2 PUSH2 0x3EE JUMPI JUMPDEST POP PUSH1 0x40 MLOAD SWAP1 ISZERO ISZERO DUP2 MSTORE RETURN JUMPDEST SWAP1 POP MLOAD TIMESTAMP GT ISZERO DUP3 PUSH2 0x3E3 JUMP JUMPDEST MLOAD TIMESTAMP LT ISZERO SWAP2 POP DUP4 PUSH2 0x3DC JUMP JUMPDEST PUSH4 0x4E487B71 PUSH1 0xE0 SHL PUSH1 0x0 MSTORE PUSH1 0x21 PUSH1 0x4 MSTORE PUSH1 0x24 PUSH1 0x0 REVERT JUMPDEST PUSH1 0x20 DUP1 PUSH1 0x3 NOT CALLDATASIZE ADD SLT PUSH2 0x138 JUMPI PUSH1 0x4 CALLDATALOAD PUSH2 0x434 PUSH2 0x15C8 JUMP JUMPDEST CALLVALUE ISZERO PUSH2 0x58B JUMPI PUSH1 0x0 DUP2 DUP2 MSTORE PUSH1 0x3 DUP4 MSTORE PUSH1 0x40 SWAP1 KECCAK256 PUSH1 0x5 DUP2 ADD SLOAD PUSH1 0x1 PUSH1 0x1 PUSH1 0xA0 SHL SUB AND PUSH2 0x546 JUMPI PUSH1 0xFF PUSH1 0x9 DUP3 ADD SLOAD AND PUSH1 0x5 DUP2 LT ISZERO PUSH2 0x406 JUMPI PUSH1 0x3 DUP2 EQ PUSH2 0x511 JUMPI PUSH1 0x4 EQ PUSH2 0x4D8 JUMPI PUSH1 0x4 ADD DUP1 SLOAD SWAP1 CALLVALUE DUP3 ADD DUP1 SWAP3 GT PUSH2 0x4C2 JUMPI DUP2 SWAP1 SSTORE PUSH1 0x40 MLOAD SWAP3 CALLVALUE DUP5 MSTORE DUP4 ADD MSTORE PUSH32 0x8FB82F92FBAC15F0A9EDC91D47D33EDCFCE30F6805C6A005F56E95E4F9FD9BB4 PUSH1 0x40 CALLER SWAP4 LOG3 PUSH1 0x1 DUP1 SSTORE STOP JUMPDEST PUSH4 0x4E487B71 PUSH1 0xE0 SHL PUSH1 0x0 MSTORE PUSH1 0x11 PUSH1 0x4 MSTORE PUSH1 0x24 PUSH1 0x0 REVERT JUMPDEST PUSH1 0x40 MLOAD PUSH3 0x461BCD PUSH1 0xE5 SHL DUP2 MSTORE PUSH1 0x4 DUP2 ADD DUP5 SWAP1 MSTORE PUSH1 0x11 PUSH1 0x24 DUP3 ADD MSTORE PUSH17 0x10DBDB9D195CDD0818D85B98D95B1B1959 PUSH1 0x7A SHL PUSH1 0x44 DUP3 ADD MSTORE PUSH1 0x64 SWAP1 REVERT JUMPDEST PUSH1 0x40 MLOAD PUSH3 0x461BCD PUSH1 0xE5 SHL DUP2 MSTORE PUSH1 0x4 DUP2 ADD DUP6 SWAP1 MSTORE PUSH1 0xD PUSH1 0x24 DUP3 ADD MSTORE PUSH13 0x10DBDB9D195CDD08195B991959 PUSH1 0x9A SHL PUSH1 0x44 DUP3 ADD MSTORE PUSH1 0x64 SWAP1 REVERT JUMPDEST PUSH1 0x40 MLOAD PUSH3 0x461BCD PUSH1 0xE5 SHL DUP2 MSTORE PUSH1 0x4 DUP2 ADD DUP5 SWAP1 MSTORE PUSH1 0x1C PUSH1 0x24 DUP3 ADD MSTORE PUSH32 0x436F6E74657374207573657320746F6B656E2C206E6F742043454C4F00000000 PUSH1 0x44 DUP3 ADD MSTORE PUSH1 0x64 SWAP1 REVERT JUMPDEST PUSH1 0x40 MLOAD PUSH3 0x461BCD PUSH1 0xE5 SHL DUP2 MSTORE PUSH1 0x4 DUP2 ADD DUP4 SWAP1 MSTORE PUSH1 0xE PUSH1 0x24 DUP3 ADD MSTORE PUSH14 0x4D7573742073656E642043454C4F PUSH1 0x90 SHL PUSH1 0x44 DUP3 ADD MSTORE PUSH1 0x64 SWAP1 REVERT JUMPDEST CALLVALUE PUSH2 0x138 JUMPI PUSH1 0x20 CALLDATASIZE PUSH1 0x3 NOT ADD SLT PUSH2 0x138 JUMPI PUSH1 0x4 CALLDATALOAD PUSH2 0x5DD PUSH2 0x1569 JUMP JUMPDEST PUSH2 0x3E8 DUP2 GT PUSH2 0x61F JUMPI PUSH1 0x40 PUSH32 0xD347E206F25A89B917FC9482F1A2D294D749BAA4DC9BDE7FB495EE11FE491643 SWAP2 PUSH1 0x5 SLOAD SWAP1 DUP1 PUSH1 0x5 SSTORE DUP3 MLOAD SWAP2 DUP3 MSTORE PUSH1 0x20 DUP3 ADD MSTORE LOG1 STOP JUMPDEST PUSH1 0x40 MLOAD PUSH3 0x461BCD PUSH1 0xE5 SHL DUP2 MSTORE PUSH1 0x20 PUSH1 0x4 DUP3 ADD MSTORE PUSH1 0x16 PUSH1 0x24 DUP3 ADD MSTORE PUSH22 0x46656520746F6F206869676820286D61782031302529 PUSH1 0x50 SHL PUSH1 0x44 DUP3 ADD MSTORE PUSH1 0x64 SWAP1 REVERT JUMPDEST PUSH1 0xE0 CALLDATASIZE PUSH1 0x3 NOT ADD SLT PUSH2 0x138 JUMPI PUSH1 0x4 CALLDATALOAD PUSH8 0xFFFFFFFFFFFFFFFF DUP2 GT PUSH2 0x138 JUMPI PUSH2 0x689 SWAP1 CALLDATASIZE SWAP1 PUSH1 0x4 ADD PUSH2 0x14E4 JUMP JUMPDEST PUSH1 0x24 CALLDATALOAD PUSH8 0xFFFFFFFFFFFFFFFF DUP2 GT PUSH2 0x138 JUMPI PUSH2 0x6A9 SWAP1 CALLDATASIZE SWAP1 PUSH1 0x4 ADD PUSH2 0x14E4 JUMP JUMPDEST PUSH1 0x64 DUP1 CALLDATALOAD SWAP2 SWAP1 PUSH1 0x1 PUSH1 0x1 PUSH1 0xA0 SHL SUB DUP4 AND DUP4 SUB PUSH2 0x138 JUMPI PUSH2 0x6C7 PUSH2 0x15C8 JUMP JUMPDEST TIMESTAMP PUSH1 0x84 CALLDATALOAD GT ISZERO PUSH2 0xC74 JUMPI PUSH1 0x84 CALLDATALOAD PUSH1 0xA4 CALLDATALOAD GT ISZERO PUSH2 0xC32 JUMPI PUSH1 0xA4 CALLDATALOAD PUSH1 0xC4 CALLDATALOAD GT ISZERO PUSH2 0xBE2 JUMPI PUSH1 0x44 CALLDATALOAD ISZERO PUSH2 0xB94 JUMPI PUSH1 0x1 PUSH1 0x1 PUSH1 0xA0 SHL SUB DUP4 AND ISZERO PUSH2 0xB48 JUMPI JUMPDEST POP PUSH1 0x2 SLOAD SWAP2 PUSH2 0x70F DUP4 PUSH2 0x1595 JUMP JUMPDEST PUSH1 0x2 SSTORE PUSH1 0x40 MLOAD SWAP2 PUSH2 0x71F DUP4 PUSH2 0x13FF JUMP JUMPDEST DUP4 DUP4 MSTORE CALLER PUSH1 0x20 DUP5 ADD MSTORE DUP5 PUSH1 0x40 DUP5 ADD MSTORE PUSH1 0x60 DUP4 ADD MSTORE PUSH1 0x44 CALLDATALOAD PUSH1 0x80 DUP4 ADD MSTORE PUSH1 0x1 DUP1 PUSH1 0xA0 SHL SUB AND PUSH1 0xA0 DUP3 ADD MSTORE PUSH1 0x84 CALLDATALOAD PUSH1 0xC0 DUP3 ADD MSTORE PUSH1 0xA4 CALLDATALOAD PUSH1 0xE0 DUP3 ADD MSTORE PUSH1 0xC4 CALLDATALOAD PUSH2 0x100 DUP3 ADD MSTORE PUSH1 0x0 PUSH2 0x120 DUP3 ADD MSTORE PUSH1 0x0 PUSH2 0x140 DUP3 ADD MSTORE PUSH1 0x0 PUSH2 0x160 DUP3 ADD MSTORE DUP2 PUSH1 0x0 MSTORE PUSH1 0x3 PUSH1 0x20 MSTORE PUSH1 0x40 PUSH1 0x0 KECCAK256 SWAP1 DUP1 MLOAD DUP3 SSTORE PUSH1 0x1 DUP3 ADD PUSH1 0x1 DUP1 PUSH1 0xA0 SHL SUB PUSH1 0x20 DUP4 ADD MLOAD AND PUSH1 0x1 PUSH1 0x1 PUSH1 0x60 SHL SUB PUSH1 0xA0 SHL DUP3 SLOAD AND OR SWAP1 SSTORE PUSH1 0x40 DUP2 ADD MLOAD DUP1 MLOAD SWAP1 PUSH8 0xFFFFFFFFFFFFFFFF DUP3 GT PUSH2 0x992 JUMPI DUP2 SWAP1 PUSH2 0x7D4 PUSH1 0x2 DUP7 ADD SLOAD PUSH2 0x13C5 JUMP JUMPDEST PUSH1 0x1F DUP2 GT PUSH2 0xAF5 JUMPI JUMPDEST POP PUSH1 0x20 SWAP1 PUSH1 0x1F DUP4 GT PUSH1 0x1 EQ PUSH2 0xA83 JUMPI PUSH1 0x0 SWAP3 PUSH2 0xA78 JUMPI JUMPDEST POP POP DUP2 PUSH1 0x1 SHL SWAP2 PUSH1 0x0 NOT SWAP1 PUSH1 0x3 SHL SHR NOT AND OR PUSH1 0x2 DUP4 ADD SSTORE JUMPDEST PUSH1 0x60 DUP2 ADD MLOAD DUP1 MLOAD SWAP1 PUSH8 0xFFFFFFFFFFFFFFFF DUP3 GT PUSH2 0x992 JUMPI DUP2 SWAP1 PUSH2 0x832 PUSH1 0x3 DUP7 ADD SLOAD PUSH2 0x13C5 JUMP JUMPDEST PUSH1 0x1F DUP2 GT PUSH2 0xA25 JUMPI JUMPDEST POP PUSH1 0x20 SWAP1 PUSH1 0x1F DUP4 GT PUSH1 0x1 EQ PUSH2 0x9B3 JUMPI PUSH1 0x0 SWAP3 PUSH2 0x9A8 JUMPI JUMPDEST POP POP DUP2 PUSH1 0x1 SHL SWAP2 PUSH1 0x0 NOT SWAP1 PUSH1 0x3 SHL SHR NOT AND OR PUSH1 0x3 DUP4 ADD SSTORE JUMPDEST PUSH1 0x80 DUP2 ADD MLOAD PUSH1 0x4 DUP4 ADD SSTORE PUSH1 0x5 DUP3 ADD PUSH1 0x1 DUP1 PUSH1 0xA0 SHL SUB PUSH1 0xA0 DUP4 ADD MLOAD AND PUSH1 0x1 PUSH1 0x1 PUSH1 0x60 SHL SUB PUSH1 0xA0 SHL DUP3 SLOAD AND OR SWAP1 SSTORE PUSH1 0xC0 DUP2 ADD MLOAD PUSH1 0x6 DUP4 ADD SSTORE PUSH1 0xE0 DUP2 ADD MLOAD PUSH1 0x7 DUP4 ADD SSTORE PUSH2 0x100 DUP2 ADD MLOAD PUSH1 0x8 DUP4 ADD SSTORE PUSH2 0x120 DUP2 ADD MLOAD PUSH1 0x5 DUP2 LT ISZERO PUSH2 0x406 JUMPI PUSH1 0xB SWAP2 PUSH2 0x8D7 PUSH2 0x160 SWAP3 PUSH1 0x9 DUP7 ADD PUSH2 0x15B0 JUMP JUMPDEST PUSH2 0x140 DUP2 ADD MLOAD PUSH1 0xA DUP6 ADD SSTORE ADD MLOAD SWAP2 ADD SSTORE CALLER PUSH1 0x0 MSTORE PUSH1 0x4 PUSH1 0x20 MSTORE PUSH1 0x40 PUSH1 0x0 KECCAK256 SWAP2 DUP3 SLOAD SWAP3 PUSH9 0x10000000000000000 DUP5 LT ISZERO PUSH2 0x992 JUMPI DUP4 PUSH2 0x91C SWAP2 PUSH1 0x1 PUSH1 0x20 SWAP7 ADD DUP2 SSTORE PUSH2 0x153B JUMP JUMPDEST DUP2 SLOAD SWAP1 PUSH1 0x3 SHL SWAP1 DUP5 DUP3 SHL SWAP2 PUSH1 0x0 NOT SWAP1 SHL NOT AND OR SWAP1 SSTORE DUP2 PUSH32 0x4AAAF0CE6B66893EFBE13B0C3ADB4A8B2077C1E3E57B0432FDEFFDA2ECA9DF06 PUSH2 0x968 PUSH1 0x40 MLOAD SWAP4 PUSH1 0x80 DUP6 MSTORE PUSH1 0x80 DUP6 ADD SWAP1 PUSH2 0x1378 JUMP JUMPDEST SWAP3 PUSH1 0x44 CALLDATALOAD DUP7 DUP3 ADD MSTORE PUSH1 0x84 CALLDATALOAD PUSH1 0x40 DUP3 ADD MSTORE PUSH1 0xA4 CALLDATALOAD PUSH1 0x60 DUP3 ADD MSTORE DUP1 CALLER SWAP5 SUB SWAP1 LOG3 PUSH1 0x1 DUP1 SSTORE PUSH1 0x40 MLOAD SWAP1 DUP2 MSTORE RETURN JUMPDEST PUSH4 0x4E487B71 PUSH1 0xE0 SHL PUSH1 0x0 MSTORE PUSH1 0x41 PUSH1 0x4 MSTORE PUSH1 0x24 PUSH1 0x0 REVERT JUMPDEST ADD MLOAD SWAP1 POP DUP7 DUP1 PUSH2 0x852 JUMP JUMPDEST SWAP3 POP PUSH1 0x3 DUP6 ADD PUSH1 0x0 MSTORE PUSH1 0x20 PUSH1 0x0 KECCAK256 SWAP1 PUSH1 0x0 SWAP4 JUMPDEST PUSH1 0x1F NOT DUP5 AND DUP6 LT PUSH2 0xA0A JUMPI PUSH1 0x1 SWAP5 POP DUP4 PUSH1 0x1F NOT DUP2 AND LT PUSH2 0x9F1 JUMPI JUMPDEST POP POP POP DUP2 SHL ADD PUSH1 0x3 DUP4 ADD SSTORE PUSH2 0x86A JUMP JUMPDEST ADD MLOAD PUSH1 0x0 NOT PUSH1 0xF8 DUP5 PUSH1 0x3 SHL AND SHR NOT AND SWAP1 SSTORE DUP7 DUP1 DUP1 PUSH2 0x9E1 JUMP JUMPDEST DUP2 DUP2 ADD MLOAD DUP4 SSTORE PUSH1 0x20 SWAP5 DUP6 ADD SWAP5 PUSH1 0x1 SWAP1 SWAP4 ADD SWAP3 SWAP1 SWAP2 ADD SWAP1 PUSH2 0x9C6 JUMP JUMPDEST SWAP1 SWAP2 POP PUSH1 0x3 DUP6 ADD PUSH1 0x0 MSTORE PUSH1 0x20 PUSH1 0x0 KECCAK256 PUSH1 0x1F DUP5 ADD PUSH1 0x5 SHR DUP2 ADD PUSH1 0x20 DUP6 LT PUSH2 0xA71 JUMPI JUMPDEST SWAP1 DUP5 SWAP4 SWAP3 SWAP2 JUMPDEST PUSH1 0x1F DUP4 ADD PUSH1 0x5 SHR DUP3 ADD DUP2 LT PUSH2 0xA62 JUMPI POP POP PUSH2 0x83B JUMP JUMPDEST PUSH1 0x0 DUP2 SSTORE DUP6 SWAP5 POP PUSH1 0x1 ADD PUSH2 0xA4C JUMP JUMPDEST POP DUP1 PUSH2 0xA46 JUMP JUMPDEST ADD MLOAD SWAP1 POP DUP7 DUP1 PUSH2 0x7F4 JUMP JUMPDEST SWAP3 POP PUSH1 0x2 DUP6 ADD PUSH1 0x0 MSTORE PUSH1 0x20 PUSH1 0x0 KECCAK256 SWAP1 PUSH1 0x0 SWAP4 JUMPDEST PUSH1 0x1F NOT DUP5 AND DUP6 LT PUSH2 0xADA JUMPI PUSH1 0x1 SWAP5 POP DUP4 PUSH1 0x1F NOT DUP2 AND LT PUSH2 0xAC1 JUMPI JUMPDEST POP POP POP DUP2 SHL ADD PUSH1 0x2 DUP4 ADD SSTORE PUSH2 0x80C JUMP JUMPDEST ADD MLOAD PUSH1 0x0 NOT PUSH1 0xF8 DUP5 PUSH1 0x3 SHL AND SHR NOT AND SWAP1 SSTORE DUP7 DUP1 DUP1 PUSH2 0xAB1 JUMP JUMPDEST DUP2 DUP2 ADD MLOAD DUP4 SSTORE PUSH1 0x20 SWAP5 DUP6 ADD SWAP5 PUSH1 0x1 SWAP1 SWAP4 ADD SWAP3 SWAP1 SWAP2 ADD SWAP1 PUSH2 0xA96 JUMP JUMPDEST SWAP1 SWAP2 POP PUSH1 0x2 DUP6 ADD PUSH1 0x0 MSTORE PUSH1 0x20 PUSH1 0x0 KECCAK256 PUSH1 0x1F DUP5 ADD PUSH1 0x5 SHR DUP2 ADD PUSH1 0x20 DUP6 LT PUSH2 0xB41 JUMPI JUMPDEST SWAP1 DUP5 SWAP4 SWAP3 SWAP2 JUMPDEST PUSH1 0x1F DUP4 ADD PUSH1 0x5 SHR DUP3 ADD DUP2 LT PUSH2 0xB32 JUMPI POP POP PUSH2 0x7DD JUMP JUMPDEST PUSH1 0x0 DUP2 SSTORE DUP6 SWAP5 POP PUSH1 0x1 ADD PUSH2 0xB1C JUMP JUMPDEST POP DUP1 PUSH2 0xB16 JUMP JUMPDEST PUSH1 0x44 CALLDATALOAD CALLVALUE LT ISZERO PUSH2 0x701 JUMPI PUSH1 0x40 MLOAD PUSH3 0x461BCD PUSH1 0xE5 SHL DUP2 MSTORE PUSH1 0x20 PUSH1 0x4 DUP3 ADD DUP2 SWAP1 MSTORE PUSH1 0x24 DUP3 ADD MSTORE PUSH32 0x496E73756666696369656E742043454C4F20666F72207072697A6520706F6F6C PUSH1 0x44 DUP3 ADD MSTORE REVERT JUMPDEST PUSH1 0x84 SWAP1 PUSH1 0x3 PUSH1 0xFC SHL PUSH1 0x40 MLOAD SWAP2 PUSH3 0x461BCD PUSH1 0xE5 SHL DUP4 MSTORE PUSH1 0x20 PUSH1 0x4 DUP5 ADD MSTORE PUSH1 0x21 PUSH1 0x24 DUP5 ADD MSTORE PUSH32 0x5072697A6520706F6F6C206D7573742062652067726561746572207468616E20 PUSH1 0x44 DUP5 ADD MSTORE DUP3 ADD MSTORE REVERT JUMPDEST PUSH1 0x84 SWAP1 PUSH4 0x8195B99 PUSH1 0xE2 SHL PUSH1 0x40 MLOAD SWAP2 PUSH3 0x461BCD PUSH1 0xE5 SHL DUP4 MSTORE PUSH1 0x20 PUSH1 0x4 DUP5 ADD MSTORE PUSH1 0x24 DUP1 DUP5 ADD MSTORE PUSH32 0x566F74696E6720656E64206D75737420626520616674657220636F6E74657374 PUSH1 0x44 DUP5 ADD MSTORE DUP3 ADD MSTORE REVERT JUMPDEST PUSH1 0x40 MLOAD PUSH3 0x461BCD PUSH1 0xE5 SHL DUP2 MSTORE PUSH1 0x20 PUSH1 0x4 DUP3 ADD MSTORE PUSH1 0x1C PUSH1 0x24 DUP3 ADD MSTORE PUSH32 0x456E642074696D65206D75737420626520616674657220737461727400000000 PUSH1 0x44 DUP3 ADD MSTORE REVERT JUMPDEST PUSH1 0x40 MLOAD PUSH3 0x461BCD PUSH1 0xE5 SHL DUP2 MSTORE PUSH1 0x20 PUSH1 0x4 DUP3 ADD MSTORE PUSH1 0x1C PUSH1 0x24 DUP3 ADD MSTORE PUSH32 0x53746172742074696D65206D75737420626520696E2066757475726500000000 PUSH1 0x44 DUP3 ADD MSTORE REVERT JUMPDEST CALLVALUE PUSH2 0x138 JUMPI PUSH1 0x20 CALLDATASIZE PUSH1 0x3 NOT ADD SLT PUSH2 0x138 JUMPI PUSH1 0x4 CALLDATALOAD PUSH1 0x0 SWAP1 DUP2 MSTORE PUSH1 0x3 PUSH1 0x20 MSTORE PUSH1 0x40 SWAP1 KECCAK256 DUP1 SLOAD PUSH1 0x1 DUP3 ADD SLOAD PUSH1 0x1 PUSH1 0x1 PUSH1 0xA0 SHL SUB SWAP1 DUP2 AND SWAP3 PUSH2 0xCF7 PUSH1 0x2 DUP3 ADD PUSH2 0x143E JUMP JUMPDEST SWAP1 PUSH2 0xD04 PUSH1 0x3 DUP3 ADD PUSH2 0x143E JUMP JUMPDEST PUSH1 0x4 DUP3 ADD SLOAD SWAP4 PUSH1 0x5 DUP4 ADD SLOAD AND PUSH1 0x6 DUP4 ADD SLOAD PUSH1 0x7 DUP5 ADD SLOAD SWAP1 PUSH1 0x8 DUP6 ADD SLOAD SWAP3 PUSH1 0x9 DUP7 ADD SLOAD PUSH1 0xFF AND SWAP5 PUSH1 0xA DUP8 ADD SLOAD SWAP7 PUSH1 0xB ADD SLOAD SWAP8 PUSH1 0x40 MLOAD SWAP12 DUP13 SWAP12 DUP13 MSTORE PUSH1 0x20 DUP13 ADD MSTORE PUSH2 0x180 DUP1 PUSH1 0x40 DUP14 ADD MSTORE DUP12 ADD PUSH2 0xD56 SWAP2 PUSH2 0x1378 JUMP JUMPDEST DUP11 DUP2 SUB PUSH1 0x60 DUP13 ADD MSTORE PUSH2 0xD67 SWAP2 PUSH2 0x1378 JUMP JUMPDEST SWAP8 PUSH1 0x80 DUP11 ADD MSTORE PUSH1 0xA0 DUP10 ADD MSTORE PUSH1 0xC0 DUP9 ADD MSTORE PUSH1 0xE0 DUP8 ADD MSTORE PUSH2 0x100 DUP7 ADD MSTORE PUSH2 0x120 DUP6 ADD PUSH2 0xD90 SWAP2 PUSH2 0x13B8 JUMP JUMPDEST PUSH2 0x140 DUP5 ADD MSTORE PUSH2 0x160 DUP4 ADD MSTORE SUB SWAP1 RETURN JUMPDEST CALLVALUE PUSH2 0x138 JUMPI PUSH1 0x20 CALLDATASIZE PUSH1 0x3 NOT ADD SLT PUSH2 0x138 JUMPI PUSH1 0x0 PUSH2 0x160 PUSH1 0x40 MLOAD PUSH2 0xDC2 DUP2 PUSH2 0x13FF JUMP JUMPDEST DUP3 DUP2 MSTORE DUP3 PUSH1 0x20 DUP3 ADD MSTORE PUSH1 0x60 PUSH1 0x40 DUP3 ADD MSTORE PUSH1 0x60 DUP1 DUP3 ADD MSTORE DUP3 PUSH1 0x80 DUP3 ADD MSTORE DUP3 PUSH1 0xA0 DUP3 ADD MSTORE DUP3 PUSH1 0xC0 DUP3 ADD MSTORE DUP3 PUSH1 0xE0 DUP3 ADD MSTORE DUP3 PUSH2 0x100 DUP3 ADD MSTORE DUP3 PUSH2 0x120 DUP3 ADD MSTORE DUP3 PUSH2 0x140 DUP3 ADD MSTORE ADD MSTORE PUSH1 0x4 CALLDATALOAD PUSH1 0x0 MSTORE PUSH1 0x3 PUSH1 0x20 MSTORE PUSH1 0x40 PUSH1 0x0 KECCAK256 PUSH1 0xB PUSH1 0x40 MLOAD SWAP2 PUSH2 0xE26 DUP4 PUSH2 0x13FF JUMP JUMPDEST DUP1 SLOAD DUP4 MSTORE PUSH1 0x1 DUP2 ADD SLOAD PUSH1 0x1 PUSH1 0x1 PUSH1 0xA0 SHL SUB AND PUSH1 0x20 DUP5 ADD MSTORE PUSH2 0xE49 PUSH1 0x2 DUP3 ADD PUSH2 0x143E JUMP JUMPDEST PUSH1 0x40 DUP5 ADD MSTORE PUSH2 0xE5A PUSH1 0x3 DUP3 ADD PUSH2 0x143E JUMP JUMPDEST PUSH1 0x60 DUP5 ADD MSTORE PUSH1 0x4 DUP2 ADD SLOAD PUSH1 0x80 DUP5 ADD MSTORE PUSH1 0x5 DUP2 ADD SLOAD PUSH1 0x1 PUSH1 0x1 PUSH1 0xA0 SHL SUB AND PUSH1 0xA0 DUP5 ADD MSTORE PUSH1 0x6 DUP2 ADD SLOAD PUSH1 0xC0 DUP5 ADD MSTORE PUSH1 0x7 DUP2 ADD SLOAD PUSH1 0xE0 DUP5 ADD MSTORE PUSH1 0x8 DUP2 ADD SLOAD PUSH2 0x100 DUP5 ADD MSTORE PUSH1 0x9 DUP2 ADD SLOAD PUSH2 0xEB1 SWAP1 PUSH1 0xFF AND PUSH2 0x120 DUP6 ADD PUSH2 0x15A4 JUMP JUMPDEST PUSH1 0xA DUP2 ADD SLOAD PUSH2 0x140 DUP5 ADD MSTORE ADD SLOAD PUSH2 0x160 DUP3 ADD MSTORE PUSH1 0x40 MLOAD DUP1 SWAP2 PUSH1 0x20 DUP3 MSTORE DUP1 MLOAD PUSH1 0x20 DUP4 ADD MSTORE PUSH1 0x1 DUP1 PUSH1 0xA0 SHL SUB PUSH1 0x20 DUP3 ADD MLOAD AND PUSH1 0x40 DUP4 ADD MSTORE PUSH2 0x160 PUSH2 0xF1D PUSH2 0xF07 PUSH1 0x40 DUP5 ADD MLOAD PUSH2 0x180 PUSH1 0x60 DUP8 ADD MSTORE PUSH2 0x1A0 DUP7 ADD SWAP1 PUSH2 0x1378 JUMP JUMPDEST PUSH1 0x60 DUP5 ADD MLOAD DUP6 DUP3 SUB PUSH1 0x1F NOT ADD PUSH1 0x80 DUP8 ADD MSTORE PUSH2 0x1378 JUMP JUMPDEST SWAP2 PUSH1 0x80 DUP2 ADD MLOAD PUSH1 0xA0 DUP6 ADD MSTORE PUSH1 0x1 DUP1 PUSH1 0xA0 SHL SUB PUSH1 0xA0 DUP3 ADD MLOAD AND PUSH1 0xC0 DUP6 ADD MSTORE PUSH1 0xC0 DUP2 ADD MLOAD PUSH1 0xE0 DUP6 ADD MSTORE PUSH1 0xE0 DUP2 ADD MLOAD PUSH2 0x100 DUP6 ADD MSTORE PUSH2 0x100 DUP2 ADD MLOAD PUSH2 0x120 DUP6 ADD MSTORE PUSH2 0xF6F PUSH2 0x120 DUP3 ADD MLOAD PUSH2 0x140 DUP7 ADD SWAP1 PUSH2 0x13B8 JUMP JUMPDEST PUSH2 0x140 DUP2 ADD MLOAD DUP3 DUP6 ADD MSTORE ADD MLOAD PUSH2 0x180 DUP4 ADD MSTORE SUB SWAP1 RETURN JUMPDEST CALLVALUE PUSH2 0x138 JUMPI PUSH1 0x0 CALLDATASIZE PUSH1 0x3 NOT ADD SLT PUSH2 0x138 JUMPI PUSH1 0x0 SLOAD PUSH1 0x40 MLOAD PUSH1 0x1 PUSH1 0x1 PUSH1 0xA0 SHL SUB SWAP1 SWAP2 AND DUP2 MSTORE PUSH1 0x20 SWAP1 RETURN JUMPDEST CALLVALUE PUSH2 0x138 JUMPI PUSH1 0x20 CALLDATASIZE PUSH1 0x3 NOT ADD SLT PUSH2 0x138 JUMPI PUSH1 0x4 CALLDATALOAD PUSH1 0x0 MSTORE PUSH1 0x3 PUSH1 0x20 MSTORE PUSH1 0x40 PUSH1 0x0 KECCAK256 PUSH1 0x40 MLOAD SWAP1 PUSH2 0xFDC DUP3 PUSH2 0x13FF JUMP JUMPDEST DUP1 SLOAD DUP3 MSTORE PUSH1 0x1 DUP2 ADD SLOAD PUSH1 0x1 PUSH1 0x1 PUSH1 0xA0 SHL SUB SWAP1 DUP2 AND PUSH1 0x20 DUP5 ADD MSTORE PUSH2 0x1001 PUSH1 0x2 DUP4 ADD PUSH2 0x143E JUMP JUMPDEST PUSH1 0x40 DUP5 ADD MSTORE PUSH2 0x1012 PUSH1 0x3 DUP4 ADD PUSH2 0x143E JUMP JUMPDEST PUSH1 0x60 DUP5 ADD MSTORE PUSH1 0x4 DUP3 ADD SLOAD PUSH1 0x80 DUP5 ADD MSTORE PUSH1 0x5 DUP3 ADD SLOAD AND PUSH1 0xA0 DUP4 ADD MSTORE PUSH1 0x6 DUP2 ADD SLOAD PUSH1 0xC0 DUP4 ADD MSTORE PUSH1 0x7 DUP2 ADD SLOAD SWAP1 PUSH1 0xE0 DUP4 ADD SWAP2 DUP3 MSTORE PUSH1 0x8 DUP2 ADD SLOAD SWAP3 PUSH2 0x100 DUP2 ADD SWAP4 DUP5 MSTORE PUSH2 0x160 PUSH1 0xB PUSH1 0xFF PUSH1 0x9 DUP6 ADD SLOAD AND SWAP4 PUSH2 0x106E PUSH2 0x120 DUP6 ADD SWAP6 DUP7 PUSH2 0x15A4 JUMP JUMPDEST PUSH1 0xA DUP2 ADD SLOAD PUSH2 0x140 DUP6 ADD MSTORE ADD SLOAD SWAP2 ADD MSTORE MLOAD SWAP2 PUSH1 0x5 DUP4 LT ISZERO PUSH2 0x406 JUMPI PUSH1 0x2 PUSH1 0x20 SWAP4 EQ SWAP2 DUP3 PUSH2 0x10A6 JUMPI POP DUP2 PUSH2 0x3EE JUMPI POP PUSH1 0x40 MLOAD SWAP1 ISZERO ISZERO DUP2 MSTORE RETURN JUMPDEST MLOAD TIMESTAMP GT SWAP2 POP DUP4 PUSH2 0x3DC JUMP JUMPDEST CALLVALUE PUSH2 0x138 JUMPI PUSH1 0x40 CALLDATASIZE PUSH1 0x3 NOT ADD SLT PUSH2 0x138 JUMPI PUSH1 0x4 CALLDATALOAD PUSH1 0x24 CALLDATALOAD PUSH1 0x5 DUP2 LT ISZERO PUSH2 0x138 JUMPI PUSH1 0x0 DUP3 DUP2 MSTORE PUSH1 0x3 PUSH1 0x20 MSTORE PUSH1 0x40 SWAP1 KECCAK256 PUSH1 0x1 DUP2 ADD SLOAD CALLER PUSH1 0x1 PUSH1 0x1 PUSH1 0xA0 SHL SUB SWAP2 DUP3 AND EQ SWAP1 DUP2 ISZERO PUSH2 0x1189 JUMPI JUMPDEST POP ISZERO PUSH2 0x1153 JUMPI PUSH32 0x2049BAE7871BC32E098EC2B73EBFA495ED2496DC8A5DC7BF9D4714EB4E09D2BB SWAP2 PUSH2 0x1150 PUSH1 0x9 PUSH1 0x40 SWAP4 ADD SWAP2 PUSH2 0x113A DUP2 PUSH1 0xFF DUP6 SLOAD AND SWAP5 PUSH2 0x15B0 JUMP JUMPDEST PUSH2 0x1146 DUP5 MLOAD DUP1 SWAP5 PUSH2 0x13B8 JUMP JUMPDEST PUSH1 0x20 DUP4 ADD SWAP1 PUSH2 0x13B8 JUMP JUMPDEST LOG2 STOP JUMPDEST PUSH1 0x40 MLOAD PUSH3 0x461BCD PUSH1 0xE5 SHL DUP2 MSTORE PUSH1 0x20 PUSH1 0x4 DUP3 ADD MSTORE PUSH1 0xE PUSH1 0x24 DUP3 ADD MSTORE PUSH14 0x139BDD08185D5D1A1BDC9A5E9959 PUSH1 0x92 SHL PUSH1 0x44 DUP3 ADD MSTORE PUSH1 0x64 SWAP1 REVERT JUMPDEST SWAP1 POP PUSH1 0x0 SLOAD AND CALLER EQ DUP5 PUSH2 0x10F9 JUMP JUMPDEST CALLVALUE PUSH2 0x138 JUMPI PUSH1 0x0 CALLDATASIZE PUSH1 0x3 NOT ADD SLT PUSH2 0x138 JUMPI PUSH1 0x20 PUSH1 0x2 SLOAD PUSH1 0x40 MLOAD SWAP1 DUP2 MSTORE RETURN JUMPDEST CALLVALUE PUSH2 0x138 JUMPI PUSH1 0x0 CALLDATASIZE PUSH1 0x3 NOT ADD SLT PUSH2 0x138 JUMPI PUSH2 0x11CE PUSH2 0x1569 JUMP JUMPDEST PUSH1 0x0 DUP1 SLOAD PUSH1 0x1 PUSH1 0x1 PUSH1 0xA0 SHL SUB NOT DUP2 AND DUP3 SSTORE PUSH1 0x1 PUSH1 0x1 PUSH1 0xA0 SHL SUB AND PUSH32 0x8BE0079C531659141344CD1FD0A4F28419497F9722A3DAAFE3B4186F6B6457E0 DUP3 DUP1 LOG3 STOP JUMPDEST CALLVALUE PUSH2 0x138 JUMPI PUSH1 0x20 DUP1 PUSH1 0x3 NOT CALLDATASIZE ADD SLT PUSH2 0x138 JUMPI PUSH1 0x1 PUSH1 0x1 PUSH1 0xA0 SHL SUB PUSH2 0x1230 PUSH2 0x1362 JUMP JUMPDEST AND PUSH1 0x0 MSTORE PUSH1 0x4 DUP2 MSTORE PUSH1 0x40 PUSH1 0x0 KECCAK256 PUSH1 0x40 MLOAD SWAP1 DUP2 DUP4 DUP3 SLOAD SWAP2 DUP3 DUP2 MSTORE ADD SWAP1 DUP2 SWAP3 PUSH1 0x0 MSTORE DUP5 PUSH1 0x0 KECCAK256 SWAP1 PUSH1 0x0 JUMPDEST DUP7 DUP3 DUP3 LT PUSH2 0x12AE JUMPI DUP7 DUP7 PUSH2 0x126E DUP3 DUP9 SUB DUP4 PUSH2 0x141C JUMP JUMPDEST PUSH1 0x40 MLOAD SWAP3 DUP4 SWAP3 DUP2 DUP5 ADD SWAP1 DUP3 DUP6 MSTORE MLOAD DUP1 SWAP2 MSTORE PUSH1 0x40 DUP5 ADD SWAP3 SWAP2 PUSH1 0x0 JUMPDEST DUP3 DUP2 LT PUSH2 0x1297 JUMPI POP POP POP POP SUB SWAP1 RETURN JUMPDEST DUP4 MLOAD DUP6 MSTORE DUP7 SWAP6 POP SWAP4 DUP2 ADD SWAP4 SWAP3 DUP2 ADD SWAP3 PUSH1 0x1 ADD PUSH2 0x1288 JUMP JUMPDEST DUP4 SLOAD DUP6 MSTORE SWAP1 SWAP4 ADD SWAP3 PUSH1 0x1 SWAP3 DUP4 ADD SWAP3 ADD PUSH2 0x1258 JUMP JUMPDEST CALLVALUE PUSH2 0x138 JUMPI PUSH1 0x0 CALLDATASIZE PUSH1 0x3 NOT ADD SLT PUSH2 0x138 JUMPI PUSH2 0x12DB PUSH2 0x1569 JUMP JUMPDEST SELFBALANCE DUP1 ISZERO PUSH2 0x130C JUMPI PUSH1 0x6 SLOAD PUSH1 0x0 SWAP2 DUP3 SWAP2 DUP3 SWAP2 DUP3 SWAP2 PUSH1 0x1 PUSH1 0x1 PUSH1 0xA0 SHL SUB AND DUP3 CALL ISZERO PUSH2 0x1300 JUMPI STOP JUMPDEST PUSH1 0x40 MLOAD RETURNDATASIZE PUSH1 0x0 DUP3 RETURNDATACOPY RETURNDATASIZE SWAP1 REVERT JUMPDEST PUSH1 0x40 MLOAD PUSH3 0x461BCD PUSH1 0xE5 SHL DUP2 MSTORE PUSH1 0x20 PUSH1 0x4 DUP3 ADD MSTORE PUSH1 0x13 PUSH1 0x24 DUP3 ADD MSTORE PUSH19 0x4E6F206665657320746F207769746864726177 PUSH1 0x68 SHL PUSH1 0x44 DUP3 ADD MSTORE PUSH1 0x64 SWAP1 REVERT JUMPDEST CALLVALUE PUSH2 0x138 JUMPI PUSH1 0x0 CALLDATASIZE PUSH1 0x3 NOT ADD SLT PUSH2 0x138 JUMPI PUSH1 0x20 SWAP1 PUSH1 0x5 SLOAD DUP2 MSTORE RETURN JUMPDEST PUSH1 0x4 CALLDATALOAD SWAP1 PUSH1 0x1 PUSH1 0x1 PUSH1 0xA0 SHL SUB DUP3 AND DUP3 SUB PUSH2 0x138 JUMPI JUMP JUMPDEST SWAP2 SWAP1 DUP3 MLOAD SWAP3 DUP4 DUP3 MSTORE PUSH1 0x0 JUMPDEST DUP5 DUP2 LT PUSH2 0x13A4 JUMPI POP POP DUP3 PUSH1 0x0 PUSH1 0x20 DUP1 SWAP5 SWAP6 DUP5 ADD ADD MSTORE PUSH1 0x1F DUP1 NOT SWAP2 ADD AND ADD ADD SWAP1 JUMP JUMPDEST PUSH1 0x20 DUP2 DUP4 ADD DUP2 ADD MLOAD DUP5 DUP4 ADD DUP3 ADD MSTORE ADD PUSH2 0x1383 JUMP JUMPDEST SWAP1 PUSH1 0x5 DUP3 LT ISZERO PUSH2 0x406 JUMPI MSTORE JUMP JUMPDEST SWAP1 PUSH1 0x1 DUP3 DUP2 SHR SWAP3 AND DUP1 ISZERO PUSH2 0x13F5 JUMPI JUMPDEST PUSH1 0x20 DUP4 LT EQ PUSH2 0x13DF JUMPI JUMP JUMPDEST PUSH4 0x4E487B71 PUSH1 0xE0 SHL PUSH1 0x0 MSTORE PUSH1 0x22 PUSH1 0x4 MSTORE PUSH1 0x24 PUSH1 0x0 REVERT JUMPDEST SWAP2 PUSH1 0x7F AND SWAP2 PUSH2 0x13D4 JUMP JUMPDEST PUSH2 0x180 DUP2 ADD SWAP1 DUP2 LT PUSH8 0xFFFFFFFFFFFFFFFF DUP3 GT OR PUSH2 0x992 JUMPI PUSH1 0x40 MSTORE JUMP JUMPDEST SWAP1 PUSH1 0x1F DUP1 NOT SWAP2 ADD AND DUP2 ADD SWAP1 DUP2 LT PUSH8 0xFFFFFFFFFFFFFFFF DUP3 GT OR PUSH2 0x992 JUMPI PUSH1 0x40 MSTORE JUMP JUMPDEST SWAP1 PUSH1 0x40 MLOAD SWAP2 DUP3 PUSH1 0x0 DUP3 SLOAD SWAP3 PUSH2 0x1452 DUP5 PUSH2 0x13C5 JUMP JUMPDEST SWAP1 DUP2 DUP5 MSTORE PUSH1 0x1 SWAP5 DUP6 DUP2 AND SWAP1 DUP2 PUSH1 0x0 EQ PUSH2 0x14C1 JUMPI POP PUSH1 0x1 EQ PUSH2 0x147E JUMPI JUMPDEST POP POP PUSH2 0x147C SWAP3 POP SUB DUP4 PUSH2 0x141C JUMP JUMPDEST JUMP JUMPDEST SWAP1 SWAP4 SWAP2 POP PUSH1 0x0 MSTORE PUSH1 0x20 SWAP1 DUP2 PUSH1 0x0 KECCAK256 SWAP4 PUSH1 0x0 SWAP2 JUMPDEST DUP2 DUP4 LT PUSH2 0x14A9 JUMPI POP POP PUSH2 0x147C SWAP4 POP DUP3 ADD ADD CODESIZE DUP1 PUSH2 0x146E JUMP JUMPDEST DUP6 SLOAD DUP9 DUP5 ADD DUP6 ADD MSTORE SWAP5 DUP6 ADD SWAP5 DUP8 SWAP5 POP SWAP2 DUP4 ADD SWAP2 PUSH2 0x1491 JUMP JUMPDEST SWAP2 POP POP PUSH2 0x147C SWAP5 POP PUSH1 0x20 SWAP3 POP PUSH1 0xFF NOT AND DUP3 DUP5 ADD MSTORE ISZERO ISZERO PUSH1 0x5 SHL DUP3 ADD ADD CODESIZE DUP1 PUSH2 0x146E JUMP JUMPDEST DUP2 PUSH1 0x1F DUP3 ADD SLT ISZERO PUSH2 0x138 JUMPI DUP1 CALLDATALOAD SWAP1 PUSH8 0xFFFFFFFFFFFFFFFF DUP3 GT PUSH2 0x992 JUMPI PUSH1 0x40 MLOAD SWAP3 PUSH2 0x1519 PUSH1 0x1F DUP5 ADD PUSH1 0x1F NOT AND PUSH1 0x20 ADD DUP6 PUSH2 0x141C JUMP JUMPDEST DUP3 DUP5 MSTORE PUSH1 0x20 DUP4 DUP4 ADD ADD GT PUSH2 0x138 JUMPI DUP2 PUSH1 0x0 SWAP3 PUSH1 0x20 DUP1 SWAP4 ADD DUP4 DUP7 ADD CALLDATACOPY DUP4 ADD ADD MSTORE SWAP1 JUMP JUMPDEST DUP1 SLOAD DUP3 LT ISZERO PUSH2 0x1553 JUMPI PUSH1 0x0 MSTORE PUSH1 0x20 PUSH1 0x0 KECCAK256 ADD SWAP1 PUSH1 0x0 SWAP1 JUMP JUMPDEST PUSH4 0x4E487B71 PUSH1 0xE0 SHL PUSH1 0x0 MSTORE PUSH1 0x32 PUSH1 0x4 MSTORE PUSH1 0x24 PUSH1 0x0 REVERT JUMPDEST PUSH1 0x0 SLOAD PUSH1 0x1 PUSH1 0x1 PUSH1 0xA0 SHL SUB AND CALLER SUB PUSH2 0x157D JUMPI JUMP JUMPDEST PUSH1 0x40 MLOAD PUSH4 0x118CDAA7 PUSH1 0xE0 SHL DUP2 MSTORE CALLER PUSH1 0x4 DUP3 ADD MSTORE PUSH1 0x24 SWAP1 REVERT JUMPDEST PUSH1 0x0 NOT DUP2 EQ PUSH2 0x4C2 JUMPI PUSH1 0x1 ADD SWAP1 JUMP JUMPDEST PUSH1 0x5 DUP3 LT ISZERO PUSH2 0x406 JUMPI MSTORE JUMP JUMPDEST SWAP1 PUSH1 0x5 DUP2 LT ISZERO PUSH2 0x406 JUMPI PUSH1 0xFF DUP1 NOT DUP4 SLOAD AND SWAP2 AND OR SWAP1 SSTORE JUMP JUMPDEST PUSH1 0x2 PUSH1 0x1 SLOAD EQ PUSH2 0x15D9 JUMPI PUSH1 0x2 PUSH1 0x1 SSTORE JUMP JUMPDEST PUSH1 0x40 MLOAD PUSH4 0x3EE5AEB5 PUSH1 0xE0 SHL DUP2 MSTORE PUSH1 0x4 SWAP1 REVERT INVALID LOG2 PUSH5 0x6970667358 0x22 SLT KECCAK256 CALLCODE 0xC3 0xD 0x4B INVALID 0xE6 PUSH4 0x8C4A3B10 SWAP4 0xB5 0xC6 0xEA ISZERO 0xE3 DUP11 RETURNDATACOPY JUMP 0x4E 0xBB BASEFEE 0x2C 0xEA 0xE4 SGT 0xFC SLOAD CALLDATASIZE 0xBB 0x4B PUSH5 0x736F6C6343 STOP ADDMOD EQ STOP CALLER "},"gasEstimates":{"creation":{"codeDepositCost":"1133000","executionCost":"infinite","totalCost":"infinite"},"external":{"contests(uint256)":"infinite","createContest(string,string,uint256,address,uint256,uint256,uint256)":"infinite","creatorContests(address,uint256)":"7153","feeCollector()":"2590","getContest(uint256)":"infinite","getCreatorContests(address)":"infinite","getTotalContests()":"2346","increasePrizePool(uint256)":"77461","incrementSubmissionCount(uint256)":"24800","incrementVoteCount(uint256)":"24885","isContestActive(uint256)":"infinite","isVotingActive(uint256)":"infinite","owner()":"2436","platformFeeBps()":"2250","renounceOwnership()":"28120","transferOwnership(address)":"28560","updateContestStatus(uint256,uint8)":"infinite","updateFeeCollector(address)":"26995","updatePlatformFee(uint256)":"28083","withdrawFees()":"infinite"}},"methodIdentifiers":{"contests(uint256)":"9d7ed738","createContest(string,string,uint256,address,uint256,uint256,uint256)":"a490a21b","creatorContests(address,uint256)":"e6bf74c9","feeCollector()":"c415b95c","getContest(uint256)":"904b9f72","getCreatorContests(address)":"6d436fa3","getTotalContests()":"73d53dd2","increasePrizePool(uint256)":"af1087e9","incrementSubmissionCount(uint256)":"cda6d002","incrementVoteCount(uint256)":"f3b9e61c","isContestActive(uint256)":"bf5e253f","isVotingActive(uint256)":"772744b5","owner()":"8da5cb5b","platformFeeBps()":"22dcd13e","renounceOwnership()":"715018a6","transferOwnership(address)":"f2fde38b","updateContestStatus(uint256,uint8)":"74828bbb","updateFeeCollector(address)":"d2c35ce8","updatePlatformFee(uint256)":"aa0b5988","withdrawFees()":"476343ee"}},"storageLayout":{"storage":[{"astId":8,"contract":"contracts/ContestFactory.sol:ContestFactory","label":"_owner","offset":0,"slot":"0","type":"t_address"},{"astId":188,"contract":"contracts/ContestFactory.sol:ContestFactory","label":"_status","offset":0,"slot":"1","type":"t_uint256"},{"astId":289,"contract":"contracts/ContestFactory.sol:ContestFactory","label":"_contestIdCounter","offset":0,"slot":"2","type":"t_uint256"},{"astId":294,"contract":"contracts/ContestFactory.sol:ContestFactory","label":"contests","offset":0,"slot":"3","type":"t_mapping(t_uint256,t_struct(Contest)281_storage)"},{"astId":299,"contract":"contracts/ContestFactory.sol:ContestFactory","label":"creatorContests","offset":0,"slot":"4","type":"t_mapping(t_address,t_array(t_uint256)dyn_storage)"},{"astId":302,"contract":"contracts/ContestFactory.sol:ContestFactory","label":"platformFeeBps","offset":0,"slot":"5","type":"t_uint256"},{"astId":304,"contract":"contracts/ContestFactory.sol:ContestFactory","label":"feeCollector","offset":0,"slot":"6","type":"t_address"}],"types":{"t_address":{"encoding":"inplace","label":"address","numberOfBytes":"20"},"t_array(t_uint256)dyn_storage":{"base":"t_uint256","encoding":"dynamic_array","label":"uint256[]","numberOfBytes":"32"},"t_enum(ContestStatus)287":{"encoding":"inplace","label":"enum ContestFactory.ContestStatus","numberOfBytes":"1"},"t_mapping(t_address,t_array(t_uint256)dyn_storage)":{"encoding":"mapping","key":"t_address","label":"mapping(address => uint256[])","numberOfBytes":"32","value":"t_array(t_uint256)dyn_storage"},"t_mapping(t_uint256,t_struct(Contest)281_storage)":{"encoding":"mapping","key":"t_uint256","label":"mapping(uint256 => struct ContestFactory.Contest)","numberOfBytes":"32","value":"t_struct(Contest)281_storage"},"t_string_storage":{"encoding":"bytes","label":"string","numberOfBytes":"32"},"t_struct(Contest)281_storage":{"encoding":"inplace","label":"struct ContestFactory.Contest","members":[{"astId":257,"contract":"contracts/ContestFactory.sol:ContestFactory","label":"id","offset":0,"slot":"0","type":"t_uint256"},{"astId":259,"contract":"contracts/ContestFactory.sol:ContestFactory","label":"creator","offset":0,"slot":"1","type":"t_address"},{"astId":261,"contract":"contracts/ContestFactory.sol:ContestFactory","label":"title","offset":0,"slot":"2","type":"t_string_storage"},{"astId":263,"contract":"contracts/ContestFactory.sol:ContestFactory","label":"metadataURI","offset":0,"slot":"3","type":"t_string_storage"},{"astId":265,"contract":"contracts/ContestFactory.sol:ContestFactory","label":"prizePool","offset":0,"slot":"4","type":"t_uint256"},{"astId":267,"contract":"contracts/ContestFactory.sol:ContestFactory","label":"prizeToken","offset":0,"slot":"5","type":"t_address"},{"astId":269,"contract":"contracts/ContestFactory.sol:ContestFactory","label":"startTime","offset":0,"slot":"6","type":"t_uint256"},{"astId":271,"contract":"contracts/ContestFactory.sol:ContestFactory","label":"endTime","offset":0,"slot":"7","type":"t_uint256"},{"astId":273,"contract":"contracts/ContestFactory.sol:ContestFactory","label":"votingEndTime","offset":0,"slot":"8","type":"t_uint256"},{"astId":276,"contract":"contracts/ContestFactory.sol:ContestFactory","label":"status","offset":0,"slot":"9","type":"t_enum(ContestStatus)287"},{"astId":278,"contract":"contracts/ContestFactory.sol:ContestFactory","label":"submissionCount","offset":0,"slot":"10","type":"t_uint256"},{"astId":280,"contract":"contracts/ContestFactory.sol:ContestFactory","label":"totalVotes","offset":0,"slot":"11","type":"t_uint256"}],"numberOfBytes":"384"},"t_uint256":{"encoding":"inplace","label":"uint256","numberOfBytes":"32"}}},"userdoc":{"kind":"user","methods":{},"version":1}}}}