{"contracts/VotingContract.sol":{"VotingContract":{"abi":[{"inputs":[{"internalType":"address","name":"_contestFactory","type":"address"}],"stateMutability":"nonpayable","type":"constructor"},{"inputs":[{"internalType":"address","name":"owner","type":"address"}],"name":"OwnableInvalidOwner","type":"error"},{"inputs":[{"internalType":"address","name":"account","type":"address"}],"name":"OwnableUnauthorizedAccount","type":"error"},{"inputs":[],"name":"ReentrancyGuardReentrantCall","type":"error"},{"anonymous":false,"inputs":[{"indexed":true,"internalType":"address","name":"previousOwner","type":"address"},{"indexed":true,"internalType":"address","name":"newOwner","type":"address"}],"name":"OwnershipTransferred","type":"event"},{"anonymous":false,"inputs":[{"indexed":true,"internalType":"uint256","name":"submissionId","type":"uint256"},{"indexed":true,"internalType":"uint256","name":"contestId","type":"uint256"},{"indexed":true,"internalType":"address","name":"submitter","type":"address"},{"indexed":false,"internalType":"string","name":"metadataURI","type":"string"}],"name":"SubmissionCreated","type":"event"},{"anonymous":false,"inputs":[{"indexed":true,"internalType":"uint256","name":"submissionId","type":"uint256"},{"indexed":true,"internalType":"uint256","name":"contestId","type":"uint256"},{"indexed":true,"internalType":"address","name":"voter","type":"address"}],"name":"VoteCast","type":"event"},{"anonymous":false,"inputs":[{"indexed":true,"internalType":"uint256","name":"submissionId","type":"uint256"},{"indexed":true,"internalType":"uint256","name":"contestId","type":"uint256"},{"indexed":true,"internalType":"address","name":"voter","type":"address"}],"name":"VoteRemoved","type":"event"},{"inputs":[],"name":"contestFactory","outputs":[{"internalType":"contract IContestFactory","name":"","type":"address"}],"stateMutability":"view","type":"function"},{"inputs":[{"internalType":"uint256","name":"","type":"uint256"},{"internalType":"uint256","name":"","type":"uint256"}],"name":"contestSubmissions","outputs":[{"internalType":"uint256","name":"","type":"uint256"}],"stateMutability":"view","type":"function"},{"inputs":[{"internalType":"uint256","name":"_contestId","type":"uint256"}],"name":"getContestSubmissions","outputs":[{"internalType":"uint256[]","name":"","type":"uint256[]"}],"stateMutability":"view","type":"function"},{"inputs":[{"internalType":"uint256","name":"_submissionId","type":"uint256"}],"name":"getSubmission","outputs":[{"components":[{"internalType":"uint256","name":"id","type":"uint256"},{"internalType":"uint256","name":"contestId","type":"uint256"},{"internalType":"address","name":"submitter","type":"address"},{"internalType":"string","name":"metadataURI","type":"string"},{"internalType":"uint256","name":"voteCount","type":"uint256"},{"internalType":"uint256","name":"timestamp","type":"uint256"},{"internalType":"bool","name":"exists","type":"bool"}],"internalType":"struct VotingContract.Submission","name":"","type":"tuple"}],"stateMutability":"view","type":"function"},{"inputs":[{"internalType":"uint256","name":"_submissionId","type":"uint256"}],"name":"getSubmissionWithVotes","outputs":[{"components":[{"internalType":"uint256","name":"id","type":"uint256"},{"internalType":"uint256","name":"contestId","type":"uint256"},{"internalType":"address","name":"submitter","type":"address"},{"internalType":"string","name":"metadataURI","type":"string"},{"internalType":"uint256","name":"voteCount","type":"uint256"},{"internalType":"uint256","name":"timestamp","type":"uint256"},{"internalType":"bool","name":"exists","type":"bool"}],"internalType":"struct VotingContract.Submission","name":"submission","type":"tuple"},{"internalType":"address[]","name":"voters","type":"address[]"}],"stateMutability":"view","type":"function"},{"inputs":[{"internalType":"uint256","name":"_contestId","type":"uint256"},{"internalType":"uint256","name":"_limit","type":"uint256"}],"name":"getTopSubmissions","outputs":[{"components":[{"internalType":"uint256","name":"id","type":"uint256"},{"internalType":"uint256","name":"contestId","type":"uint256"},{"internalType":"address","name":"submitter","type":"address"},{"internalType":"string","name":"metadataURI","type":"string"},{"internalType":"uint256","name":"voteCount","type":"uint256"},{"internalType":"uint256","name":"timestamp","type":"uint256"},{"internalType":"bool","name":"exists","type":"bool"}],"internalType":"struct VotingContract.Submission[]","name":"","type":"tuple[]"}],"stateMutability":"view","type":"function"},{"inputs":[],"name":"getTotalSubmissions","outputs":[{"internalType":"uint256","name":"","type":"uint256"}],"stateMutability":"view","type":"function"},{"inputs":[{"internalType":"uint256","name":"_contestId","type":"uint256"},{"internalType":"address","name":"_user","type":"address"}],"name":"getUserSubmission","outputs":[{"internalType":"uint256","name":"","type":"uint256"}],"stateMutability":"view","type":"function"},{"inputs":[{"internalType":"uint256","name":"_submissionId","type":"uint256"},{"internalType":"address","name":"_user","type":"address"}],"name":"hasUserVoted","outputs":[{"internalType":"bool","name":"","type":"bool"}],"stateMutability":"view","type":"function"},{"inputs":[{"internalType":"uint256","name":"","type":"uint256"},{"internalType":"address","name":"","type":"address"}],"name":"hasVoted","outputs":[{"internalType":"bool","name":"","type":"bool"}],"stateMutability":"view","type":"function"},{"inputs":[],"name":"owner","outputs":[{"internalType":"address","name":"","type":"address"}],"stateMutability":"view","type":"function"},{"inputs":[{"internalType":"uint256","name":"_submissionId","type":"uint256"}],"name":"removeVote","outputs":[],"stateMutability":"nonpayable","type":"function"},{"inputs":[],"name":"renounceOwnership","outputs":[],"stateMutability":"nonpayable","type":"function"},{"inputs":[{"internalType":"uint256","name":"","type":"uint256"},{"internalType":"uint256","name":"","type":"uint256"}],"name":"submissionVoters","outputs":[{"internalType":"address","name":"","type":"address"}],"stateMutability":"view","type":"function"},{"inputs":[{"internalType":"uint256","name":"","type":"uint256"}],"name":"submissions","outputs":[{"internalType":"uint256","name":"id","type":"uint256"},{"internalType":"uint256","name":"contestId","type":"uint256"},{"internalType":"address","name":"submitter","type":"address"},{"internalType":"string","name":"metadataURI","type":"string"},{"internalType":"uint256","name":"voteCount","type":"uint256"},{"internalType":"uint256","name":"timestamp","type":"uint256"},{"internalType":"bool","name":"exists","type":"bool"}],"stateMutability":"view","type":"function"},{"inputs":[{"internalType":"uint256","name":"_contestId","type":"uint256"},{"internalType":"string","name":"_metadataURI","type":"string"}],"name":"submitEntry","outputs":[{"internalType":"uint256","name":"","type":"uint256"}],"stateMutability":"nonpayable","type":"function"},{"inputs":[{"internalType":"address","name":"newOwner","type":"address"}],"name":"transferOwnership","outputs":[],"stateMutability":"nonpayable","type":"function"},{"inputs":[{"internalType":"address","name":"_newFactory","type":"address"}],"name":"updateContestFactory","outputs":[],"stateMutability":"nonpayable","type":"function"},{"inputs":[{"internalType":"uint256","name":"","type":"uint256"},{"internalType":"address","name":"","type":"address"}],"name":"userSubmission","outputs":[{"internalType":"uint256","name":"","type":"uint256"}],"stateMutability":"view","type":"function"},{"inputs":[{"internalType":"uint256","name":"_submissionId","type":"uint256"}],"name":"vote","outputs":[],"stateMutability":"nonpayable","type":"function"}],"devdoc":{"details":"Handles submissions and gasless voting for contests","errors":{"OwnableInvalidOwner(address)":[{"details":"The owner is not a valid owner account. (eg. `address(0)`)"}],"OwnableUnauthorizedAccount(address)":[{"details":"The caller account is not authorized to perform an operation."}],"ReentrancyGuardReentrantCall()":[{"details":"Unauthorized reentrant call."}]},"kind":"dev","methods":{"getContestSubmissions(uint256)":{"details":"Get all submissions for a contest"},"getSubmission(uint256)":{"details":"Get submission details"},"getSubmissionWithVotes(uint256)":{"details":"Get submission with vote details"},"getTopSubmissions(uint256,uint256)":{"details":"Get top submissions for a contest (sorted by votes)"},"getTotalSubmissions()":{"details":"Get total submissions count"},"getUserSubmission(uint256,address)":{"details":"Get user's submission for a contest"},"hasUserVoted(uint256,address)":{"details":"Check if user has voted for a submission"},"owner()":{"details":"Returns the address of the current owner."},"removeVote(uint256)":{"details":"Remove a vote (allow users to change their vote)"},"renounceOwnership()":{"details":"Leaves the contract without owner. It will not be possible to call `onlyOwner` functions. Can only be called by the current owner. NOTE: Renouncing ownership will leave the contract without an owner, thereby disabling any functionality that is only available to the owner."},"submitEntry(uint256,string)":{"details":"Submit an entry to a contest"},"transferOwnership(address)":{"details":"Transfers ownership of the contract to a new account (`newOwner`). Can only be called by the current owner."},"updateContestFactory(address)":{"details":"Update ContestFactory address (owner only)"},"vote(uint256)":{"details":"Cast a vote for a submission (gasless via Biconomy)"}},"title":"VotingContract","version":1},"evm":{"bytecode":{"linkReferences":{},"object":"6080346100ca57601f61172238819003918201601f19168301916001600160401b038311848410176100cf578084926020946040528339810103126100ca57516001600160a01b0390818116908190036100ca5733156100b15760005460018060a01b0319903382821617600055604051933391167f8be0079c531659141344cd1fd0a4f28419497f9722a3daafe3b4186f6b6457e0600080a360018055600254161760025561163c90816100e68239f35b604051631e4fbdf760e01b815260006004820152602490fd5b600080fd5b634e487b7160e01b600052604160045260246000fdfe6080604052600436101561001257600080fd5b6000803560e01c80630121b93f14610d565780631448c97014610cd85780633687f7bf146102f25780633e8686cc14610c8c5780633f68fde414610a0457806343859632146102a65780634c406c011461096457806354554d461461094657806356ce45b6146105395780636c811686146104ee578063715018a6146104945780638da5cb5b1461046d578063938de8c3146103f65780639c91cb9d146103cd578063ad73349e14610339578063d17bd67c146102f2578063dc296ae1146102a6578063e2555a73146101c6578063f2fde38b1461013b5763fadfa4dc146100f957600080fd5b3461013857610107366110d3565b9190815260056020526040812090815483101561013857602061012a84846110e9565b90546040519160031b1c8152f35b80fd5b503461013857602036600319011261013857610155610f9e565b61015d6111f7565b6001600160a01b039081169081156101ad57600054826001600160601b0360a01b821617600055167f8be0079c531659141344cd1fd0a4f28419497f9722a3daafe3b4186f6b6457e0600080a380f35b604051631e4fbdf760e01b815260048101849052602490fd5b50346101385760209081600319360112610138576101e261130f565b5060043581526004825260408120600883526102016040832091611347565b916040519384908084549687815201958694845281842090845b81811061028957505050610234826102499703836110b1565b8060405196879660408852604088019061100f565b928684038288015251928381520193925b82811061026957505050500390f35b83516001600160a01b03168552869550938101939281019260010161025a565b82546001600160a01b03168952978301976001928301920161021b565b50346101385760403660031901126101385760406102c2610fb9565b9160043581526007602052209060018060a01b0316600052602052602060ff604060002054166040519015158152f35b503461013857604036600319011261013857604061030e610fb9565b9160043581526006602052209060018060a01b03166000526020526020604060002054604051908152f35b503461013857602036600319011261013857600480358252602052604090208054600182015460028301549092906001600160a01b031661037c60038301611151565b916103b760048201549360ff60066005850154940154169360405197889788526020880152604087015260e0606087015260e0860190610fcf565b92608085015260a0840152151560c08301520390f35b50346101385780600319360112610138576002546040516001600160a01b039091168152602090f35b50346101385761040e610408366110d3565b90611427565b60405190602092838301848452825180915260408401948060408360051b870101940192955b8287106104415785850386f35b90919293828061045d600193603f198a8203018652885161100f565b9601920196019592919092610434565b5034610138578060031936011261013857546040516001600160a01b039091168152602090f35b50346101385780600319360112610138576104ad6111f7565b600080546001600160a01b0319811682556001600160a01b03167f8be0079c531659141344cd1fd0a4f28419497f9722a3daafe3b4186f6b6457e08280a380f35b5034610138576104fd366110d3565b9190815260086020526040812090815483101561013857602061052084846110e9565b905460405160039290921b1c6001600160a01b03168152f35b50346101385760403660031901126101385760243567ffffffffffffffff81116107f557366023820112156107f55780600401359067ffffffffffffffff8211610932578290604051926105976020601f19601f84011601856110b1565b80845236602482840101116107e6578060246020930183860137830101526105bd611248565b6004358252600660205260408220336000526020526040600020546108e357600354906105e982611223565b6003556040516105f881611095565b82815260043560208201523360408201528160608201528360808201524260a0820152600160c082015282845260046020526040842081518155602082015160018201556002810160018060a01b036040840151166001600160601b0360a01b825416179055606082015180519067ffffffffffffffff82116108cf576106826003840154611117565b601f811161088a575b50602090601f831160011461081857918060c094926006948a9261080d575b50508160011b916000199060031b1c19161760038201555b6080840151600482015560a0840151600582015501910151151560ff801983541691161790556004358352600560205260408320805490600160401b8210156107f95790610715916001820181556110e9565b81549060031b9084821b91600019901b1916179055600435835260066020526040832033600052602052816040600020558260018060a01b0360025416803b156107f55781906024604051809481936366d3680160e11b835260043560048401525af180156107ea576107d2575b6020838360405190838252827f9d9ec53e54f6385ec09428208c029bd27eb96263fc7b5da62db98ecc7d3f015c3393806107c36004359589830190610fcf565b0390a460018055604051908152f35b6107dc849161106b565b6107e65782610783565b8280fd5b6040513d86823e3d90fd5b5080fd5b634e487b7160e01b85526041600452602485fd5b0151905038806106aa565b906003840188526020882091885b601f198516811061087257509260c0949260019260069583601f19811610610859575b505050811b0160038201556106c2565b015160001960f88460031b161c19169055388080610849565b91926020600181928685015181550194019201610826565b60038401885260208820601f840160051c8101602085106108c8575b601f830160051c820181106108bc57505061068b565b600081556001016108a6565b50806108a6565b634e487b7160e01b87526041600452602487fd5b60405162461bcd60e51b815260206004820152602160248201527f416c7265616479207375626d697474656420746f207468697320636f6e7465736044820152601d60fa1b6064820152608490fd5b634e487b7160e01b83526041600452602483fd5b50346101385780600319360112610138576020600354604051908152f35b5034610138576020806003193601126107f5576004358252600581526040822060405192838383549182815201908193835284832090835b8181106109f057505050846109b29103856110b1565b60405193838594850191818652518092526040850193925b8281106109d957505050500390f35b8351855286955093810193928101926001016109ca565b82548452928601926001928301920161099c565b5034610138576020908160031936011261013857600435610a23611248565b808252600483526040822090610a3f60ff60068401541661126b565b808352600784526040832033600052845260ff6040600020541615610c535760019184838201549160018060a01b039081600254166040519384809263772744b560e01b825287600483015260249687915afa908115610c485760049291610aae918a91610c1b575b506112cf565b8588526007895260408820336000528952604060002060ff19815416905501908154918215610c08578697986008916000198095019055868a525260408820918689905b610b25575b898833888a7fc6d38efeed0d17048786612d20fac3647ee276a58b750899aecb7e74401175868580a4805580f35b835480821015610c0257610b3982866110e9565b905460039291831b1c85163314610b5b575050610b5590611223565b87610af2565b90969798508281969394959601908111610bef5790610b8f85610b81610bae94896110e9565b9054908a1b1c1691876110e9565b90919082549060031b9160018060a01b03809116831b921b1916179055565b8354908115610bdd57500192610bc484846110e9565b81939154921b1b19169055559082913880808080610af7565b634e487b7160e01b8a52603160045289fd5b634e487b7160e01b8b526011600452828bfd5b50610af7565b634e487b7160e01b885260116004528388fd5b610c3b91508b3d8d11610c41575b610c3381836110b1565b8101906112b7565b38610aa8565b503d610c29565b6040513d8a823e3d90fd5b60405162461bcd60e51b815260048101859052601160248201527012185d995b89dd081d9bdd1959081e595d607a1b6044820152606490fd5b503461013857602036600319011261013857610cc06040610cd492610caf61130f565b506004358152600460205220611347565b60405191829160208352602083019061100f565b0390f35b503461013857602036600319011261013857610cf2610f9e565b610cfa6111f7565b6001600160a01b03168015610d1f576001600160601b0360a01b600254161760025580f35b60405162461bcd60e51b815260206004820152600f60248201526e496e76616c6964206164647265737360881b6044820152606490fd5b5034610138576020806003193601126107f55760043590610d75611248565b8183526004815260408320610d9060ff60068301541661126b565b60018101549160018060a01b039160248284600254166040519283809263772744b560e01b82528960048301525afa8015610f9357610dd5918891610f7c57506112cf565b8486526007825260408620338752825260ff604087205416610f4757338360028301541614610f02579060046008928688526007835260408820338952835260408820600160ff1982541617905501610e2e8154611223565b90558486525260408420805490600160401b821015610eee57610e5c82610e7a9260018996950181556110e9565b81546001600160a01b0360039290921b91821b19163390911b179055565b60025416803b156107f5578190602460405180948193633cee798760e21b83528760048401525af180156107ea57610edb575b5033917f7fe1d4e6b34e228b5dc059fcdc037c71b216fb2417f47c171e505144a5e4f5fc8480a46001805580f35b610ee79093919361106b565b9138610ead565b634e487b7160e01b86526041600452602486fd5b60405162461bcd60e51b815260048101839052601e60248201527f43616e6e6f7420766f746520666f72206f776e207375626d697373696f6e00006044820152606490fd5b60405162461bcd60e51b815260048101839052600d60248201526c105b1c9958591e481d9bdd1959609a1b6044820152606490fd5b610c3b9150843d8611610c4157610c3381836110b1565b6040513d89823e3d90fd5b600435906001600160a01b0382168203610fb457565b600080fd5b602435906001600160a01b0382168203610fb457565b919082519283825260005b848110610ffb575050826000602080949584010152601f8019910116010190565b602081830181015184830182015201610fda565b90815181526020820151602082015260018060a01b03604083015116604082015260c08061104c606085015160e0606086015260e0850190610fcf565b936080810151608085015260a081015160a08501520151151591015290565b67ffffffffffffffff811161107f57604052565b634e487b7160e01b600052604160045260246000fd5b60e0810190811067ffffffffffffffff82111761107f57604052565b90601f8019910116810190811067ffffffffffffffff82111761107f57604052565b6040906003190112610fb4576004359060243590565b80548210156111015760005260206000200190600090565b634e487b7160e01b600052603260045260246000fd5b90600182811c92168015611147575b602083101461113157565b634e487b7160e01b600052602260045260246000fd5b91607f1691611126565b906040519182600082549261116584611117565b9081845260019485811690816000146111d45750600114611191575b505061118f925003836110b1565b565b9093915060005260209081600020936000915b8183106111bc57505061118f93508201013880611181565b855488840185015294850194879450918301916111a4565b91505061118f94506020925060ff191682840152151560051b8201013880611181565b6000546001600160a01b0316330361120b57565b60405163118cdaa760e01b8152336004820152602490fd5b60001981146112325760010190565b634e487b7160e01b600052601160045260246000fd5b600260015414611259576002600155565b604051633ee5aeb560e01b8152600490fd5b1561127257565b60405162461bcd60e51b815260206004820152601960248201527f5375626d697373696f6e20646f6573206e6f74206578697374000000000000006044820152606490fd5b90816020910312610fb457518015158103610fb45790565b156112d657565b60405162461bcd60e51b8152602060048201526011602482015270566f74696e67206e6f742061637469766560781b6044820152606490fd5b6040519061131c82611095565b8160c06000918281528260208201528260408201526060808201528260808201528260a08201520152565b9060405161135481611095565b60c060ff60068395805485526001810154602086015260018060a01b03600282015416604086015261138860038201611151565b606086015260048101546080860152600581015460a08601520154161515910152565b67ffffffffffffffff811161107f5760051b60200190565b906113cd826113ab565b6113da60405191826110b1565b82815280926113eb601f19916113ab565b019060005b8281106113fc57505050565b60209061140761130f565b828285010152016113f0565b80518210156111015760209160051b010190565b9060009182526020906005825260408084208151808286829454938481520190885286882092885b888282106115f057505050611466925003826110b1565b80519182156115cc57611478836113c3565b94865b8481106115925750505050835b8181106114ea5750808210156114e25750905b6114a4826113c3565b925b8281106114b35750505090565b806114c16114dd9284611413565b516114cc8287611413565b526114d78186611413565b50611223565b6114a6565b90509061149b565b6001810180821161157e575b82811061150c575061150790611223565b611488565b6115389060808061151d8389611413565b5101519061152b8589611413565b5101511061153d57611223565b6114f6565b6115478387611413565b516115528288611413565b5161155d8589611413565b526115688488611413565b506115738288611413565b526114d78187611413565b634e487b7160e01b86526011600452602486fd5b806115a06115c79286611413565b518952600483526115b2848a20611347565b6115bc828a611413565b526114d78189611413565b61147b565b805195948601935091505067ffffffffffffffff8211848310176109325752815290565b855484526001958601958795509301920161144f56fea2646970667358221220c9cc13248657ac041b4a10b7afe0d53307937fac69419f7b851b25cef86f6d4264736f6c63430008140033","opcodes":"PUSH1 0x80 CALLVALUE PUSH2 0xCA JUMPI PUSH1 0x1F PUSH2 0x1722 CODESIZE DUP2 SWAP1 SUB SWAP2 DUP3 ADD PUSH1 0x1F NOT AND DUP4 ADD SWAP2 PUSH1 0x1 PUSH1 0x1 PUSH1 0x40 SHL SUB DUP4 GT DUP5 DUP5 LT OR PUSH2 0xCF JUMPI DUP1 DUP5 SWAP3 PUSH1 0x20 SWAP5 PUSH1 0x40 MSTORE DUP4 CODECOPY DUP2 ADD SUB SLT PUSH2 0xCA JUMPI MLOAD PUSH1 0x1 PUSH1 0x1 PUSH1 0xA0 SHL SUB SWAP1 DUP2 DUP2 AND SWAP1 DUP2 SWAP1 SUB PUSH2 0xCA JUMPI CALLER ISZERO PUSH2 0xB1 JUMPI PUSH1 0x0 SLOAD PUSH1 0x1 DUP1 PUSH1 0xA0 SHL SUB NOT SWAP1 CALLER DUP3 DUP3 AND OR PUSH1 0x0 SSTORE PUSH1 0x40 MLOAD SWAP4 CALLER SWAP2 AND PUSH32 0x8BE0079C531659141344CD1FD0A4F28419497F9722A3DAAFE3B4186F6B6457E0 PUSH1 0x0 DUP1 LOG3 PUSH1 0x1 DUP1 SSTORE PUSH1 0x2 SLOAD AND OR PUSH1 0x2 SSTORE PUSH2 0x163C SWAP1 DUP2 PUSH2 0xE6 DUP3 CODECOPY RETURN JUMPDEST PUSH1 0x40 MLOAD PUSH4 0x1E4FBDF7 PUSH1 0xE0 SHL DUP2 MSTORE PUSH1 0x0 PUSH1 0x4 DUP3 ADD MSTORE PUSH1 0x24 SWAP1 REVERT JUMPDEST PUSH1 0x0 DUP1 REVERT JUMPDEST PUSH4 0x4E487B71 PUSH1 0xE0 SHL PUSH1 0x0 MSTORE PUSH1 0x41 PUSH1 0x4 MSTORE PUSH1 0x24 PUSH1 0x0 REVERT INVALID PUSH1 0x80 PUSH1 0x40 MSTORE PUSH1 0x4 CALLDATASIZE LT ISZERO PUSH2 0x12 JUMPI PUSH1 0x0 DUP1 REVERT JUMPDEST PUSH1 0x0 DUP1 CALLDATALOAD PUSH1 0xE0 SHR DUP1 PUSH4 0x121B93F EQ PUSH2 0xD56 JUMPI DUP1 PUSH4 0x1448C970 EQ PUSH2 0xCD8 JUMPI DUP1 PUSH4 0x3687F7BF EQ PUSH2 0x2F2 JUMPI DUP1 PUSH4 0x3E8686CC EQ PUSH2 0xC8C JUMPI DUP1 PUSH4 0x3F68FDE4 EQ PUSH2 0xA04 JUMPI DUP1 PUSH4 0x43859632 EQ PUSH2 0x2A6 JUMPI DUP1 PUSH4 0x4C406C01 EQ PUSH2 0x964 JUMPI DUP1 PUSH4 0x54554D46 EQ PUSH2 0x946 JUMPI DUP1 PUSH4 0x56CE45B6 EQ PUSH2 0x539 JUMPI DUP1 PUSH4 0x6C811686 EQ PUSH2 0x4EE JUMPI DUP1 PUSH4 0x715018A6 EQ PUSH2 0x494 JUMPI DUP1 PUSH4 0x8DA5CB5B EQ PUSH2 0x46D JUMPI DUP1 PUSH4 0x938DE8C3 EQ PUSH2 0x3F6 JUMPI DUP1 PUSH4 0x9C91CB9D EQ PUSH2 0x3CD JUMPI DUP1 PUSH4 0xAD73349E EQ PUSH2 0x339 JUMPI DUP1 PUSH4 0xD17BD67C EQ PUSH2 0x2F2 JUMPI DUP1 PUSH4 0xDC296AE1 EQ PUSH2 0x2A6 JUMPI DUP1 PUSH4 0xE2555A73 EQ PUSH2 0x1C6 JUMPI DUP1 PUSH4 0xF2FDE38B EQ PUSH2 0x13B JUMPI PUSH4 0xFADFA4DC EQ PUSH2 0xF9 JUMPI PUSH1 0x0 DUP1 REVERT JUMPDEST CALLVALUE PUSH2 0x138 JUMPI PUSH2 0x107 CALLDATASIZE PUSH2 0x10D3 JUMP JUMPDEST SWAP2 SWAP1 DUP2 MSTORE PUSH1 0x5 PUSH1 0x20 MSTORE PUSH1 0x40 DUP2 KECCAK256 SWAP1 DUP2 SLOAD DUP4 LT ISZERO PUSH2 0x138 JUMPI PUSH1 0x20 PUSH2 0x12A DUP5 DUP5 PUSH2 0x10E9 JUMP JUMPDEST SWAP1 SLOAD PUSH1 0x40 MLOAD SWAP2 PUSH1 0x3 SHL SHR DUP2 MSTORE RETURN JUMPDEST DUP1 REVERT JUMPDEST POP CALLVALUE PUSH2 0x138 JUMPI PUSH1 0x20 CALLDATASIZE PUSH1 0x3 NOT ADD SLT PUSH2 0x138 JUMPI PUSH2 0x155 PUSH2 0xF9E JUMP JUMPDEST PUSH2 0x15D PUSH2 0x11F7 JUMP JUMPDEST PUSH1 0x1 PUSH1 0x1 PUSH1 0xA0 SHL SUB SWAP1 DUP2 AND SWAP1 DUP2 ISZERO PUSH2 0x1AD JUMPI PUSH1 0x0 SLOAD DUP3 PUSH1 0x1 PUSH1 0x1 PUSH1 0x60 SHL SUB PUSH1 0xA0 SHL DUP3 AND OR PUSH1 0x0 SSTORE AND PUSH32 0x8BE0079C531659141344CD1FD0A4F28419497F9722A3DAAFE3B4186F6B6457E0 PUSH1 0x0 DUP1 LOG3 DUP1 RETURN JUMPDEST PUSH1 0x40 MLOAD PUSH4 0x1E4FBDF7 PUSH1 0xE0 SHL DUP2 MSTORE PUSH1 0x4 DUP2 ADD DUP5 SWAP1 MSTORE PUSH1 0x24 SWAP1 REVERT JUMPDEST POP CALLVALUE PUSH2 0x138 JUMPI PUSH1 0x20 SWAP1 DUP2 PUSH1 0x3 NOT CALLDATASIZE ADD SLT PUSH2 0x138 JUMPI PUSH2 0x1E2 PUSH2 0x130F JUMP JUMPDEST POP PUSH1 0x4 CALLDATALOAD DUP2 MSTORE PUSH1 0x4 DUP3 MSTORE PUSH1 0x40 DUP2 KECCAK256 PUSH1 0x8 DUP4 MSTORE PUSH2 0x201 PUSH1 0x40 DUP4 KECCAK256 SWAP2 PUSH2 0x1347 JUMP JUMPDEST SWAP2 PUSH1 0x40 MLOAD SWAP4 DUP5 SWAP1 DUP1 DUP5 SLOAD SWAP7 DUP8 DUP2 MSTORE ADD SWAP6 DUP7 SWAP5 DUP5 MSTORE DUP2 DUP5 KECCAK256 SWAP1 DUP5 JUMPDEST DUP2 DUP2 LT PUSH2 0x289 JUMPI POP POP POP PUSH2 0x234 DUP3 PUSH2 0x249 SWAP8 SUB DUP4 PUSH2 0x10B1 JUMP JUMPDEST DUP1 PUSH1 0x40 MLOAD SWAP7 DUP8 SWAP7 PUSH1 0x40 DUP9 MSTORE PUSH1 0x40 DUP9 ADD SWAP1 PUSH2 0x100F JUMP JUMPDEST SWAP3 DUP7 DUP5 SUB DUP3 DUP9 ADD MSTORE MLOAD SWAP3 DUP4 DUP2 MSTORE ADD SWAP4 SWAP3 JUMPDEST DUP3 DUP2 LT PUSH2 0x269 JUMPI POP POP POP POP SUB SWAP1 RETURN JUMPDEST DUP4 MLOAD PUSH1 0x1 PUSH1 0x1 PUSH1 0xA0 SHL SUB AND DUP6 MSTORE DUP7 SWAP6 POP SWAP4 DUP2 ADD SWAP4 SWAP3 DUP2 ADD SWAP3 PUSH1 0x1 ADD PUSH2 0x25A JUMP JUMPDEST DUP3 SLOAD PUSH1 0x1 PUSH1 0x1 PUSH1 0xA0 SHL SUB AND DUP10 MSTORE SWAP8 DUP4 ADD SWAP8 PUSH1 0x1 SWAP3 DUP4 ADD SWAP3 ADD PUSH2 0x21B JUMP JUMPDEST POP CALLVALUE PUSH2 0x138 JUMPI PUSH1 0x40 CALLDATASIZE PUSH1 0x3 NOT ADD SLT PUSH2 0x138 JUMPI PUSH1 0x40 PUSH2 0x2C2 PUSH2 0xFB9 JUMP JUMPDEST SWAP2 PUSH1 0x4 CALLDATALOAD DUP2 MSTORE PUSH1 0x7 PUSH1 0x20 MSTORE KECCAK256 SWAP1 PUSH1 0x1 DUP1 PUSH1 0xA0 SHL SUB AND PUSH1 0x0 MSTORE PUSH1 0x20 MSTORE PUSH1 0x20 PUSH1 0xFF PUSH1 0x40 PUSH1 0x0 KECCAK256 SLOAD AND PUSH1 0x40 MLOAD SWAP1 ISZERO ISZERO DUP2 MSTORE RETURN JUMPDEST POP CALLVALUE PUSH2 0x138 JUMPI PUSH1 0x40 CALLDATASIZE PUSH1 0x3 NOT ADD SLT PUSH2 0x138 JUMPI PUSH1 0x40 PUSH2 0x30E PUSH2 0xFB9 JUMP JUMPDEST SWAP2 PUSH1 0x4 CALLDATALOAD DUP2 MSTORE PUSH1 0x6 PUSH1 0x20 MSTORE KECCAK256 SWAP1 PUSH1 0x1 DUP1 PUSH1 0xA0 SHL SUB AND PUSH1 0x0 MSTORE PUSH1 0x20 MSTORE PUSH1 0x20 PUSH1 0x40 PUSH1 0x0 KECCAK256 SLOAD PUSH1 0x40 MLOAD SWAP1 DUP2 MSTORE RETURN JUMPDEST POP CALLVALUE PUSH2 0x138 JUMPI PUSH1 0x20 CALLDATASIZE PUSH1 0x3 NOT ADD SLT PUSH2 0x138 JUMPI PUSH1 0x4 DUP1 CALLDATALOAD DUP3 MSTORE PUSH1 0x20 MSTORE PUSH1 0x40 SWAP1 KECCAK256 DUP1 SLOAD PUSH1 0x1 DUP3 ADD SLOAD PUSH1 0x2 DUP4 ADD SLOAD SWAP1 SWAP3 SWAP1 PUSH1 0x1 PUSH1 0x1 PUSH1 0xA0 SHL SUB AND PUSH2 0x37C PUSH1 0x3 DUP4 ADD PUSH2 0x1151 JUMP JUMPDEST SWAP2 PUSH2 0x3B7 PUSH1 0x4 DUP3 ADD SLOAD SWAP4 PUSH1 0xFF PUSH1 0x6 PUSH1 0x5 DUP6 ADD SLOAD SWAP5 ADD SLOAD AND SWAP4 PUSH1 0x40 MLOAD SWAP8 DUP9 SWAP8 DUP9 MSTORE PUSH1 0x20 DUP9 ADD MSTORE PUSH1 0x40 DUP8 ADD MSTORE PUSH1 0xE0 PUSH1 0x60 DUP8 ADD MSTORE PUSH1 0xE0 DUP7 ADD SWAP1 PUSH2 0xFCF JUMP JUMPDEST SWAP3 PUSH1 0x80 DUP6 ADD MSTORE PUSH1 0xA0 DUP5 ADD MSTORE ISZERO ISZERO PUSH1 0xC0 DUP4 ADD MSTORE SUB SWAP1 RETURN JUMPDEST POP CALLVALUE PUSH2 0x138 JUMPI DUP1 PUSH1 0x3 NOT CALLDATASIZE ADD SLT PUSH2 0x138 JUMPI PUSH1 0x2 SLOAD PUSH1 0x40 MLOAD PUSH1 0x1 PUSH1 0x1 PUSH1 0xA0 SHL SUB SWAP1 SWAP2 AND DUP2 MSTORE PUSH1 0x20 SWAP1 RETURN JUMPDEST POP CALLVALUE PUSH2 0x138 JUMPI PUSH2 0x40E PUSH2 0x408 CALLDATASIZE PUSH2 0x10D3 JUMP JUMPDEST SWAP1 PUSH2 0x1427 JUMP JUMPDEST PUSH1 0x40 MLOAD SWAP1 PUSH1 0x20 SWAP3 DUP4 DUP4 ADD DUP5 DUP5 MSTORE DUP3 MLOAD DUP1 SWAP2 MSTORE PUSH1 0x40 DUP5 ADD SWAP5 DUP1 PUSH1 0x40 DUP4 PUSH1 0x5 SHL DUP8 ADD ADD SWAP5 ADD SWAP3 SWAP6 JUMPDEST DUP3 DUP8 LT PUSH2 0x441 JUMPI DUP6 DUP6 SUB DUP7 RETURN JUMPDEST SWAP1 SWAP2 SWAP3 SWAP4 DUP3 DUP1 PUSH2 0x45D PUSH1 0x1 SWAP4 PUSH1 0x3F NOT DUP11 DUP3 SUB ADD DUP7 MSTORE DUP9 MLOAD PUSH2 0x100F JUMP JUMPDEST SWAP7 ADD SWAP3 ADD SWAP7 ADD SWAP6 SWAP3 SWAP2 SWAP1 SWAP3 PUSH2 0x434 JUMP JUMPDEST POP CALLVALUE PUSH2 0x138 JUMPI DUP1 PUSH1 0x3 NOT CALLDATASIZE ADD SLT PUSH2 0x138 JUMPI SLOAD PUSH1 0x40 MLOAD PUSH1 0x1 PUSH1 0x1 PUSH1 0xA0 SHL SUB SWAP1 SWAP2 AND DUP2 MSTORE PUSH1 0x20 SWAP1 RETURN JUMPDEST POP CALLVALUE PUSH2 0x138 JUMPI DUP1 PUSH1 0x3 NOT CALLDATASIZE ADD SLT PUSH2 0x138 JUMPI PUSH2 0x4AD PUSH2 0x11F7 JUMP JUMPDEST PUSH1 0x0 DUP1 SLOAD PUSH1 0x1 PUSH1 0x1 PUSH1 0xA0 SHL SUB NOT DUP2 AND DUP3 SSTORE PUSH1 0x1 PUSH1 0x1 PUSH1 0xA0 SHL SUB AND PUSH32 0x8BE0079C531659141344CD1FD0A4F28419497F9722A3DAAFE3B4186F6B6457E0 DUP3 DUP1 LOG3 DUP1 RETURN JUMPDEST POP CALLVALUE PUSH2 0x138 JUMPI PUSH2 0x4FD CALLDATASIZE PUSH2 0x10D3 JUMP JUMPDEST SWAP2 SWAP1 DUP2 MSTORE PUSH1 0x8 PUSH1 0x20 MSTORE PUSH1 0x40 DUP2 KECCAK256 SWAP1 DUP2 SLOAD DUP4 LT ISZERO PUSH2 0x138 JUMPI PUSH1 0x20 PUSH2 0x520 DUP5 DUP5 PUSH2 0x10E9 JUMP JUMPDEST SWAP1 SLOAD PUSH1 0x40 MLOAD PUSH1 0x3 SWAP3 SWAP1 SWAP3 SHL SHR PUSH1 0x1 PUSH1 0x1 PUSH1 0xA0 SHL SUB AND DUP2 MSTORE RETURN JUMPDEST POP CALLVALUE PUSH2 0x138 JUMPI PUSH1 0x40 CALLDATASIZE PUSH1 0x3 NOT ADD SLT PUSH2 0x138 JUMPI PUSH1 0x24 CALLDATALOAD PUSH8 0xFFFFFFFFFFFFFFFF DUP2 GT PUSH2 0x7F5 JUMPI CALLDATASIZE PUSH1 0x23 DUP3 ADD SLT ISZERO PUSH2 0x7F5 JUMPI DUP1 PUSH1 0x4 ADD CALLDATALOAD SWAP1 PUSH8 0xFFFFFFFFFFFFFFFF DUP3 GT PUSH2 0x932 JUMPI DUP3 SWAP1 PUSH1 0x40 MLOAD SWAP3 PUSH2 0x597 PUSH1 0x20 PUSH1 0x1F NOT PUSH1 0x1F DUP5 ADD AND ADD DUP6 PUSH2 0x10B1 JUMP JUMPDEST DUP1 DUP5 MSTORE CALLDATASIZE PUSH1 0x24 DUP3 DUP5 ADD ADD GT PUSH2 0x7E6 JUMPI DUP1 PUSH1 0x24 PUSH1 0x20 SWAP4 ADD DUP4 DUP7 ADD CALLDATACOPY DUP4 ADD ADD MSTORE PUSH2 0x5BD PUSH2 0x1248 JUMP JUMPDEST PUSH1 0x4 CALLDATALOAD DUP3 MSTORE PUSH1 0x6 PUSH1 0x20 MSTORE PUSH1 0x40 DUP3 KECCAK256 CALLER PUSH1 0x0 MSTORE PUSH1 0x20 MSTORE PUSH1 0x40 PUSH1 0x0 KECCAK256 SLOAD PUSH2 0x8E3 JUMPI PUSH1 0x3 SLOAD SWAP1 PUSH2 0x5E9 DUP3 PUSH2 0x1223 JUMP JUMPDEST PUSH1 0x3 SSTORE PUSH1 0x40 MLOAD PUSH2 0x5F8 DUP2 PUSH2 0x1095 JUMP JUMPDEST DUP3 DUP2 MSTORE PUSH1 0x4 CALLDATALOAD PUSH1 0x20 DUP3 ADD MSTORE CALLER PUSH1 0x40 DUP3 ADD MSTORE DUP2 PUSH1 0x60 DUP3 ADD MSTORE DUP4 PUSH1 0x80 DUP3 ADD MSTORE TIMESTAMP PUSH1 0xA0 DUP3 ADD MSTORE PUSH1 0x1 PUSH1 0xC0 DUP3 ADD MSTORE DUP3 DUP5 MSTORE PUSH1 0x4 PUSH1 0x20 MSTORE PUSH1 0x40 DUP5 KECCAK256 DUP2 MLOAD DUP2 SSTORE PUSH1 0x20 DUP3 ADD MLOAD PUSH1 0x1 DUP3 ADD SSTORE PUSH1 0x2 DUP2 ADD PUSH1 0x1 DUP1 PUSH1 0xA0 SHL SUB PUSH1 0x40 DUP5 ADD MLOAD AND PUSH1 0x1 PUSH1 0x1 PUSH1 0x60 SHL SUB PUSH1 0xA0 SHL DUP3 SLOAD AND OR SWAP1 SSTORE PUSH1 0x60 DUP3 ADD MLOAD DUP1 MLOAD SWAP1 PUSH8 0xFFFFFFFFFFFFFFFF DUP3 GT PUSH2 0x8CF JUMPI PUSH2 0x682 PUSH1 0x3 DUP5 ADD SLOAD PUSH2 0x1117 JUMP JUMPDEST PUSH1 0x1F DUP2 GT PUSH2 0x88A JUMPI JUMPDEST POP PUSH1 0x20 SWAP1 PUSH1 0x1F DUP4 GT PUSH1 0x1 EQ PUSH2 0x818 JUMPI SWAP2 DUP1 PUSH1 0xC0 SWAP5 SWAP3 PUSH1 0x6 SWAP5 DUP11 SWAP3 PUSH2 0x80D JUMPI JUMPDEST POP POP DUP2 PUSH1 0x1 SHL SWAP2 PUSH1 0x0 NOT SWAP1 PUSH1 0x3 SHL SHR NOT AND OR PUSH1 0x3 DUP3 ADD SSTORE JUMPDEST PUSH1 0x80 DUP5 ADD MLOAD PUSH1 0x4 DUP3 ADD SSTORE PUSH1 0xA0 DUP5 ADD MLOAD PUSH1 0x5 DUP3 ADD SSTORE ADD SWAP2 ADD MLOAD ISZERO ISZERO PUSH1 0xFF DUP1 NOT DUP4 SLOAD AND SWAP2 AND OR SWAP1 SSTORE PUSH1 0x4 CALLDATALOAD DUP4 MSTORE PUSH1 0x5 PUSH1 0x20 MSTORE PUSH1 0x40 DUP4 KECCAK256 DUP1 SLOAD SWAP1 PUSH1 0x1 PUSH1 0x40 SHL DUP3 LT ISZERO PUSH2 0x7F9 JUMPI SWAP1 PUSH2 0x715 SWAP2 PUSH1 0x1 DUP3 ADD DUP2 SSTORE PUSH2 0x10E9 JUMP JUMPDEST DUP2 SLOAD SWAP1 PUSH1 0x3 SHL SWAP1 DUP5 DUP3 SHL SWAP2 PUSH1 0x0 NOT SWAP1 SHL NOT AND OR SWAP1 SSTORE PUSH1 0x4 CALLDATALOAD DUP4 MSTORE PUSH1 0x6 PUSH1 0x20 MSTORE PUSH1 0x40 DUP4 KECCAK256 CALLER PUSH1 0x0 MSTORE PUSH1 0x20 MSTORE DUP2 PUSH1 0x40 PUSH1 0x0 KECCAK256 SSTORE DUP3 PUSH1 0x1 DUP1 PUSH1 0xA0 SHL SUB PUSH1 0x2 SLOAD AND DUP1 EXTCODESIZE ISZERO PUSH2 0x7F5 JUMPI DUP2 SWAP1 PUSH1 0x24 PUSH1 0x40 MLOAD DUP1 SWAP5 DUP2 SWAP4 PUSH4 0x66D36801 PUSH1 0xE1 SHL DUP4 MSTORE PUSH1 0x4 CALLDATALOAD PUSH1 0x4 DUP5 ADD MSTORE GAS CALL DUP1 ISZERO PUSH2 0x7EA JUMPI PUSH2 0x7D2 JUMPI JUMPDEST PUSH1 0x20 DUP4 DUP4 PUSH1 0x40 MLOAD SWAP1 DUP4 DUP3 MSTORE DUP3 PUSH32 0x9D9EC53E54F6385EC09428208C029BD27EB96263FC7B5DA62DB98ECC7D3F015C CALLER SWAP4 DUP1 PUSH2 0x7C3 PUSH1 0x4 CALLDATALOAD SWAP6 DUP10 DUP4 ADD SWAP1 PUSH2 0xFCF JUMP JUMPDEST SUB SWAP1 LOG4 PUSH1 0x1 DUP1 SSTORE PUSH1 0x40 MLOAD SWAP1 DUP2 MSTORE RETURN JUMPDEST PUSH2 0x7DC DUP5 SWAP2 PUSH2 0x106B JUMP JUMPDEST PUSH2 0x7E6 JUMPI DUP3 PUSH2 0x783 JUMP JUMPDEST DUP3 DUP1 REVERT JUMPDEST PUSH1 0x40 MLOAD RETURNDATASIZE DUP7 DUP3 RETURNDATACOPY RETURNDATASIZE SWAP1 REVERT JUMPDEST POP DUP1 REVERT JUMPDEST PUSH4 0x4E487B71 PUSH1 0xE0 SHL DUP6 MSTORE PUSH1 0x41 PUSH1 0x4 MSTORE PUSH1 0x24 DUP6 REVERT JUMPDEST ADD MLOAD SWAP1 POP CODESIZE DUP1 PUSH2 0x6AA JUMP JUMPDEST SWAP1 PUSH1 0x3 DUP5 ADD DUP9 MSTORE PUSH1 0x20 DUP9 KECCAK256 SWAP2 DUP9 JUMPDEST PUSH1 0x1F NOT DUP6 AND DUP2 LT PUSH2 0x872 JUMPI POP SWAP3 PUSH1 0xC0 SWAP5 SWAP3 PUSH1 0x1 SWAP3 PUSH1 0x6 SWAP6 DUP4 PUSH1 0x1F NOT DUP2 AND LT PUSH2 0x859 JUMPI JUMPDEST POP POP POP DUP2 SHL ADD PUSH1 0x3 DUP3 ADD SSTORE PUSH2 0x6C2 JUMP JUMPDEST ADD MLOAD PUSH1 0x0 NOT PUSH1 0xF8 DUP5 PUSH1 0x3 SHL AND SHR NOT AND SWAP1 SSTORE CODESIZE DUP1 DUP1 PUSH2 0x849 JUMP JUMPDEST SWAP2 SWAP3 PUSH1 0x20 PUSH1 0x1 DUP2 SWAP3 DUP7 DUP6 ADD MLOAD DUP2 SSTORE ADD SWAP5 ADD SWAP3 ADD PUSH2 0x826 JUMP JUMPDEST PUSH1 0x3 DUP5 ADD DUP9 MSTORE PUSH1 0x20 DUP9 KECCAK256 PUSH1 0x1F DUP5 ADD PUSH1 0x5 SHR DUP2 ADD PUSH1 0x20 DUP6 LT PUSH2 0x8C8 JUMPI JUMPDEST PUSH1 0x1F DUP4 ADD PUSH1 0x5 SHR DUP3 ADD DUP2 LT PUSH2 0x8BC JUMPI POP POP PUSH2 0x68B JUMP JUMPDEST PUSH1 0x0 DUP2 SSTORE PUSH1 0x1 ADD PUSH2 0x8A6 JUMP JUMPDEST POP DUP1 PUSH2 0x8A6 JUMP JUMPDEST PUSH4 0x4E487B71 PUSH1 0xE0 SHL DUP8 MSTORE PUSH1 0x41 PUSH1 0x4 MSTORE PUSH1 0x24 DUP8 REVERT JUMPDEST PUSH1 0x40 MLOAD PUSH3 0x461BCD PUSH1 0xE5 SHL DUP2 MSTORE PUSH1 0x20 PUSH1 0x4 DUP3 ADD MSTORE PUSH1 0x21 PUSH1 0x24 DUP3 ADD MSTORE PUSH32 0x416C7265616479207375626D697474656420746F207468697320636F6E746573 PUSH1 0x44 DUP3 ADD MSTORE PUSH1 0x1D PUSH1 0xFA SHL PUSH1 0x64 DUP3 ADD MSTORE PUSH1 0x84 SWAP1 REVERT JUMPDEST PUSH4 0x4E487B71 PUSH1 0xE0 SHL DUP4 MSTORE PUSH1 0x41 PUSH1 0x4 MSTORE PUSH1 0x24 DUP4 REVERT JUMPDEST POP CALLVALUE PUSH2 0x138 JUMPI DUP1 PUSH1 0x3 NOT CALLDATASIZE ADD SLT PUSH2 0x138 JUMPI PUSH1 0x20 PUSH1 0x3 SLOAD PUSH1 0x40 MLOAD SWAP1 DUP2 MSTORE RETURN JUMPDEST POP CALLVALUE PUSH2 0x138 JUMPI PUSH1 0x20 DUP1 PUSH1 0x3 NOT CALLDATASIZE ADD SLT PUSH2 0x7F5 JUMPI PUSH1 0x4 CALLDATALOAD DUP3 MSTORE PUSH1 0x5 DUP2 MSTORE PUSH1 0x40 DUP3 KECCAK256 PUSH1 0x40 MLOAD SWAP3 DUP4 DUP4 DUP4 SLOAD SWAP2 DUP3 DUP2 MSTORE ADD SWAP1 DUP2 SWAP4 DUP4 MSTORE DUP5 DUP4 KECCAK256 SWAP1 DUP4 JUMPDEST DUP2 DUP2 LT PUSH2 0x9F0 JUMPI POP POP POP DUP5 PUSH2 0x9B2 SWAP2 SUB DUP6 PUSH2 0x10B1 JUMP JUMPDEST PUSH1 0x40 MLOAD SWAP4 DUP4 DUP6 SWAP5 DUP6 ADD SWAP2 DUP2 DUP7 MSTORE MLOAD DUP1 SWAP3 MSTORE PUSH1 0x40 DUP6 ADD SWAP4 SWAP3 JUMPDEST DUP3 DUP2 LT PUSH2 0x9D9 JUMPI POP POP POP POP SUB SWAP1 RETURN JUMPDEST DUP4 MLOAD DUP6 MSTORE DUP7 SWAP6 POP SWAP4 DUP2 ADD SWAP4 SWAP3 DUP2 ADD SWAP3 PUSH1 0x1 ADD PUSH2 0x9CA JUMP JUMPDEST DUP3 SLOAD DUP5 MSTORE SWAP3 DUP7 ADD SWAP3 PUSH1 0x1 SWAP3 DUP4 ADD SWAP3 ADD PUSH2 0x99C JUMP JUMPDEST POP CALLVALUE PUSH2 0x138 JUMPI PUSH1 0x20 SWAP1 DUP2 PUSH1 0x3 NOT CALLDATASIZE ADD SLT PUSH2 0x138 JUMPI PUSH1 0x4 CALLDATALOAD PUSH2 0xA23 PUSH2 0x1248 JUMP JUMPDEST DUP1 DUP3 MSTORE PUSH1 0x4 DUP4 MSTORE PUSH1 0x40 DUP3 KECCAK256 SWAP1 PUSH2 0xA3F PUSH1 0xFF PUSH1 0x6 DUP5 ADD SLOAD AND PUSH2 0x126B JUMP JUMPDEST DUP1 DUP4 MSTORE PUSH1 0x7 DUP5 MSTORE PUSH1 0x40 DUP4 KECCAK256 CALLER PUSH1 0x0 MSTORE DUP5 MSTORE PUSH1 0xFF PUSH1 0x40 PUSH1 0x0 KECCAK256 SLOAD AND ISZERO PUSH2 0xC53 JUMPI PUSH1 0x1 SWAP2 DUP5 DUP4 DUP3 ADD SLOAD SWAP2 PUSH1 0x1 DUP1 PUSH1 0xA0 SHL SUB SWAP1 DUP2 PUSH1 0x2 SLOAD AND PUSH1 0x40 MLOAD SWAP4 DUP5 DUP1 SWAP3 PUSH4 0x772744B5 PUSH1 0xE0 SHL DUP3 MSTORE DUP8 PUSH1 0x4 DUP4 ADD MSTORE PUSH1 0x24 SWAP7 DUP8 SWAP2 GAS STATICCALL SWAP1 DUP2 ISZERO PUSH2 0xC48 JUMPI PUSH1 0x4 SWAP3 SWAP2 PUSH2 0xAAE SWAP2 DUP11 SWAP2 PUSH2 0xC1B JUMPI JUMPDEST POP PUSH2 0x12CF JUMP JUMPDEST DUP6 DUP9 MSTORE PUSH1 0x7 DUP10 MSTORE PUSH1 0x40 DUP9 KECCAK256 CALLER PUSH1 0x0 MSTORE DUP10 MSTORE PUSH1 0x40 PUSH1 0x0 KECCAK256 PUSH1 0xFF NOT DUP2 SLOAD AND SWAP1 SSTORE ADD SWAP1 DUP2 SLOAD SWAP2 DUP3 ISZERO PUSH2 0xC08 JUMPI DUP7 SWAP8 SWAP9 PUSH1 0x8 SWAP2 PUSH1 0x0 NOT DUP1 SWAP6 ADD SWAP1 SSTORE DUP7 DUP11 MSTORE MSTORE PUSH1 0x40 DUP9 KECCAK256 SWAP2 DUP7 DUP10 SWAP1 JUMPDEST PUSH2 0xB25 JUMPI JUMPDEST DUP10 DUP9 CALLER DUP9 DUP11 PUSH32 0xC6D38EFEED0D17048786612D20FAC3647EE276A58B750899AECB7E7440117586 DUP6 DUP1 LOG4 DUP1 SSTORE DUP1 RETURN JUMPDEST DUP4 SLOAD DUP1 DUP3 LT ISZERO PUSH2 0xC02 JUMPI PUSH2 0xB39 DUP3 DUP7 PUSH2 0x10E9 JUMP JUMPDEST SWAP1 SLOAD PUSH1 0x3 SWAP3 SWAP2 DUP4 SHL SHR DUP6 AND CALLER EQ PUSH2 0xB5B JUMPI POP POP PUSH2 0xB55 SWAP1 PUSH2 0x1223 JUMP JUMPDEST DUP8 PUSH2 0xAF2 JUMP JUMPDEST SWAP1 SWAP7 SWAP8 SWAP9 POP DUP3 DUP2 SWAP7 SWAP4 SWAP5 SWAP6 SWAP7 ADD SWAP1 DUP2 GT PUSH2 0xBEF JUMPI SWAP1 PUSH2 0xB8F DUP6 PUSH2 0xB81 PUSH2 0xBAE SWAP5 DUP10 PUSH2 0x10E9 JUMP JUMPDEST SWAP1 SLOAD SWAP1 DUP11 SHL SHR AND SWAP2 DUP8 PUSH2 0x10E9 JUMP JUMPDEST SWAP1 SWAP2 SWAP1 DUP3 SLOAD SWAP1 PUSH1 0x3 SHL SWAP2 PUSH1 0x1 DUP1 PUSH1 0xA0 SHL SUB DUP1 SWAP2 AND DUP4 SHL SWAP3 SHL NOT AND OR SWAP1 SSTORE JUMP JUMPDEST DUP4 SLOAD SWAP1 DUP2 ISZERO PUSH2 0xBDD JUMPI POP ADD SWAP3 PUSH2 0xBC4 DUP5 DUP5 PUSH2 0x10E9 JUMP JUMPDEST DUP2 SWAP4 SWAP2 SLOAD SWAP3 SHL SHL NOT AND SWAP1 SSTORE SSTORE SWAP1 DUP3 SWAP2 CODESIZE DUP1 DUP1 DUP1 DUP1 PUSH2 0xAF7 JUMP JUMPDEST PUSH4 0x4E487B71 PUSH1 0xE0 SHL DUP11 MSTORE PUSH1 0x31 PUSH1 0x4 MSTORE DUP10 REVERT JUMPDEST PUSH4 0x4E487B71 PUSH1 0xE0 SHL DUP12 MSTORE PUSH1 0x11 PUSH1 0x4 MSTORE DUP3 DUP12 REVERT JUMPDEST POP PUSH2 0xAF7 JUMP JUMPDEST PUSH4 0x4E487B71 PUSH1 0xE0 SHL DUP9 MSTORE PUSH1 0x11 PUSH1 0x4 MSTORE DUP4 DUP9 REVERT JUMPDEST PUSH2 0xC3B SWAP2 POP DUP12 RETURNDATASIZE DUP14 GT PUSH2 0xC41 JUMPI JUMPDEST PUSH2 0xC33 DUP2 DUP4 PUSH2 0x10B1 JUMP JUMPDEST DUP2 ADD SWAP1 PUSH2 0x12B7 JUMP JUMPDEST CODESIZE PUSH2 0xAA8 JUMP JUMPDEST POP RETURNDATASIZE PUSH2 0xC29 JUMP JUMPDEST PUSH1 0x40 MLOAD RETURNDATASIZE DUP11 DUP3 RETURNDATACOPY RETURNDATASIZE SWAP1 REVERT JUMPDEST PUSH1 0x40 MLOAD PUSH3 0x461BCD PUSH1 0xE5 SHL DUP2 MSTORE PUSH1 0x4 DUP2 ADD DUP6 SWAP1 MSTORE PUSH1 0x11 PUSH1 0x24 DUP3 ADD MSTORE PUSH17 0x12185D995B89DD081D9BDD1959081E595D PUSH1 0x7A SHL PUSH1 0x44 DUP3 ADD MSTORE PUSH1 0x64 SWAP1 REVERT JUMPDEST POP CALLVALUE PUSH2 0x138 JUMPI PUSH1 0x20 CALLDATASIZE PUSH1 0x3 NOT ADD SLT PUSH2 0x138 JUMPI PUSH2 0xCC0 PUSH1 0x40 PUSH2 0xCD4 SWAP3 PUSH2 0xCAF PUSH2 0x130F JUMP JUMPDEST POP PUSH1 0x4 CALLDATALOAD DUP2 MSTORE PUSH1 0x4 PUSH1 0x20 MSTORE KECCAK256 PUSH2 0x1347 JUMP JUMPDEST PUSH1 0x40 MLOAD SWAP2 DUP3 SWAP2 PUSH1 0x20 DUP4 MSTORE PUSH1 0x20 DUP4 ADD SWAP1 PUSH2 0x100F JUMP JUMPDEST SUB SWAP1 RETURN JUMPDEST POP CALLVALUE PUSH2 0x138 JUMPI PUSH1 0x20 CALLDATASIZE PUSH1 0x3 NOT ADD SLT PUSH2 0x138 JUMPI PUSH2 0xCF2 PUSH2 0xF9E JUMP JUMPDEST PUSH2 0xCFA PUSH2 0x11F7 JUMP JUMPDEST PUSH1 0x1 PUSH1 0x1 PUSH1 0xA0 SHL SUB AND DUP1 ISZERO PUSH2 0xD1F JUMPI PUSH1 0x1 PUSH1 0x1 PUSH1 0x60 SHL SUB PUSH1 0xA0 SHL PUSH1 0x2 SLOAD AND OR PUSH1 0x2 SSTORE DUP1 RETURN JUMPDEST PUSH1 0x40 MLOAD PUSH3 0x461BCD PUSH1 0xE5 SHL DUP2 MSTORE PUSH1 0x20 PUSH1 0x4 DUP3 ADD MSTORE PUSH1 0xF PUSH1 0x24 DUP3 ADD MSTORE PUSH15 0x496E76616C69642061646472657373 PUSH1 0x88 SHL PUSH1 0x44 DUP3 ADD MSTORE PUSH1 0x64 SWAP1 REVERT JUMPDEST POP CALLVALUE PUSH2 0x138 JUMPI PUSH1 0x20 DUP1 PUSH1 0x3 NOT CALLDATASIZE ADD SLT PUSH2 0x7F5 JUMPI PUSH1 0x4 CALLDATALOAD SWAP1 PUSH2 0xD75 PUSH2 0x1248 JUMP JUMPDEST DUP2 DUP4 MSTORE PUSH1 0x4 DUP2 MSTORE PUSH1 0x40 DUP4 KECCAK256 PUSH2 0xD90 PUSH1 0xFF PUSH1 0x6 DUP4 ADD SLOAD AND PUSH2 0x126B JUMP JUMPDEST PUSH1 0x1 DUP2 ADD SLOAD SWAP2 PUSH1 0x1 DUP1 PUSH1 0xA0 SHL SUB SWAP2 PUSH1 0x24 DUP3 DUP5 PUSH1 0x2 SLOAD AND PUSH1 0x40 MLOAD SWAP3 DUP4 DUP1 SWAP3 PUSH4 0x772744B5 PUSH1 0xE0 SHL DUP3 MSTORE DUP10 PUSH1 0x4 DUP4 ADD MSTORE GAS STATICCALL DUP1 ISZERO PUSH2 0xF93 JUMPI PUSH2 0xDD5 SWAP2 DUP9 SWAP2 PUSH2 0xF7C JUMPI POP PUSH2 0x12CF JUMP JUMPDEST DUP5 DUP7 MSTORE PUSH1 0x7 DUP3 MSTORE PUSH1 0x40 DUP7 KECCAK256 CALLER DUP8 MSTORE DUP3 MSTORE PUSH1 0xFF PUSH1 0x40 DUP8 KECCAK256 SLOAD AND PUSH2 0xF47 JUMPI CALLER DUP4 PUSH1 0x2 DUP4 ADD SLOAD AND EQ PUSH2 0xF02 JUMPI SWAP1 PUSH1 0x4 PUSH1 0x8 SWAP3 DUP7 DUP9 MSTORE PUSH1 0x7 DUP4 MSTORE PUSH1 0x40 DUP9 KECCAK256 CALLER DUP10 MSTORE DUP4 MSTORE PUSH1 0x40 DUP9 KECCAK256 PUSH1 0x1 PUSH1 0xFF NOT DUP3 SLOAD AND OR SWAP1 SSTORE ADD PUSH2 0xE2E DUP2 SLOAD PUSH2 0x1223 JUMP JUMPDEST SWAP1 SSTORE DUP5 DUP7 MSTORE MSTORE PUSH1 0x40 DUP5 KECCAK256 DUP1 SLOAD SWAP1 PUSH1 0x1 PUSH1 0x40 SHL DUP3 LT ISZERO PUSH2 0xEEE JUMPI PUSH2 0xE5C DUP3 PUSH2 0xE7A SWAP3 PUSH1 0x1 DUP10 SWAP7 SWAP6 ADD DUP2 SSTORE PUSH2 0x10E9 JUMP JUMPDEST DUP2 SLOAD PUSH1 0x1 PUSH1 0x1 PUSH1 0xA0 SHL SUB PUSH1 0x3 SWAP3 SWAP1 SWAP3 SHL SWAP2 DUP3 SHL NOT AND CALLER SWAP1 SWAP2 SHL OR SWAP1 SSTORE JUMP JUMPDEST PUSH1 0x2 SLOAD AND DUP1 EXTCODESIZE ISZERO PUSH2 0x7F5 JUMPI DUP2 SWAP1 PUSH1 0x24 PUSH1 0x40 MLOAD DUP1 SWAP5 DUP2 SWAP4 PUSH4 0x3CEE7987 PUSH1 0xE2 SHL DUP4 MSTORE DUP8 PUSH1 0x4 DUP5 ADD MSTORE GAS CALL DUP1 ISZERO PUSH2 0x7EA JUMPI PUSH2 0xEDB JUMPI JUMPDEST POP CALLER SWAP2 PUSH32 0x7FE1D4E6B34E228B5DC059FCDC037C71B216FB2417F47C171E505144A5E4F5FC DUP5 DUP1 LOG4 PUSH1 0x1 DUP1 SSTORE DUP1 RETURN JUMPDEST PUSH2 0xEE7 SWAP1 SWAP4 SWAP2 SWAP4 PUSH2 0x106B JUMP JUMPDEST SWAP2 CODESIZE PUSH2 0xEAD JUMP JUMPDEST PUSH4 0x4E487B71 PUSH1 0xE0 SHL DUP7 MSTORE PUSH1 0x41 PUSH1 0x4 MSTORE PUSH1 0x24 DUP7 REVERT JUMPDEST PUSH1 0x40 MLOAD PUSH3 0x461BCD PUSH1 0xE5 SHL DUP2 MSTORE PUSH1 0x4 DUP2 ADD DUP4 SWAP1 MSTORE PUSH1 0x1E PUSH1 0x24 DUP3 ADD MSTORE PUSH32 0x43616E6E6F7420766F746520666F72206F776E207375626D697373696F6E0000 PUSH1 0x44 DUP3 ADD MSTORE PUSH1 0x64 SWAP1 REVERT JUMPDEST PUSH1 0x40 MLOAD PUSH3 0x461BCD PUSH1 0xE5 SHL DUP2 MSTORE PUSH1 0x4 DUP2 ADD DUP4 SWAP1 MSTORE PUSH1 0xD PUSH1 0x24 DUP3 ADD MSTORE PUSH13 0x105B1C9958591E481D9BDD1959 PUSH1 0x9A SHL PUSH1 0x44 DUP3 ADD MSTORE PUSH1 0x64 SWAP1 REVERT JUMPDEST PUSH2 0xC3B SWAP2 POP DUP5 RETURNDATASIZE DUP7 GT PUSH2 0xC41 JUMPI PUSH2 0xC33 DUP2 DUP4 PUSH2 0x10B1 JUMP JUMPDEST PUSH1 0x40 MLOAD RETURNDATASIZE DUP10 DUP3 RETURNDATACOPY RETURNDATASIZE SWAP1 REVERT JUMPDEST PUSH1 0x4 CALLDATALOAD SWAP1 PUSH1 0x1 PUSH1 0x1 PUSH1 0xA0 SHL SUB DUP3 AND DUP3 SUB PUSH2 0xFB4 JUMPI JUMP JUMPDEST PUSH1 0x0 DUP1 REVERT JUMPDEST PUSH1 0x24 CALLDATALOAD SWAP1 PUSH1 0x1 PUSH1 0x1 PUSH1 0xA0 SHL SUB DUP3 AND DUP3 SUB PUSH2 0xFB4 JUMPI JUMP JUMPDEST SWAP2 SWAP1 DUP3 MLOAD SWAP3 DUP4 DUP3 MSTORE PUSH1 0x0 JUMPDEST DUP5 DUP2 LT PUSH2 0xFFB JUMPI POP POP DUP3 PUSH1 0x0 PUSH1 0x20 DUP1 SWAP5 SWAP6 DUP5 ADD ADD MSTORE PUSH1 0x1F DUP1 NOT SWAP2 ADD AND ADD ADD SWAP1 JUMP JUMPDEST PUSH1 0x20 DUP2 DUP4 ADD DUP2 ADD MLOAD DUP5 DUP4 ADD DUP3 ADD MSTORE ADD PUSH2 0xFDA JUMP JUMPDEST SWAP1 DUP2 MLOAD DUP2 MSTORE PUSH1 0x20 DUP3 ADD MLOAD PUSH1 0x20 DUP3 ADD MSTORE PUSH1 0x1 DUP1 PUSH1 0xA0 SHL SUB PUSH1 0x40 DUP4 ADD MLOAD AND PUSH1 0x40 DUP3 ADD MSTORE PUSH1 0xC0 DUP1 PUSH2 0x104C PUSH1 0x60 DUP6 ADD MLOAD PUSH1 0xE0 PUSH1 0x60 DUP7 ADD MSTORE PUSH1 0xE0 DUP6 ADD SWAP1 PUSH2 0xFCF JUMP JUMPDEST SWAP4 PUSH1 0x80 DUP2 ADD MLOAD PUSH1 0x80 DUP6 ADD MSTORE PUSH1 0xA0 DUP2 ADD MLOAD PUSH1 0xA0 DUP6 ADD MSTORE ADD MLOAD ISZERO ISZERO SWAP2 ADD MSTORE SWAP1 JUMP JUMPDEST PUSH8 0xFFFFFFFFFFFFFFFF DUP2 GT PUSH2 0x107F JUMPI PUSH1 0x40 MSTORE JUMP JUMPDEST PUSH4 0x4E487B71 PUSH1 0xE0 SHL PUSH1 0x0 MSTORE PUSH1 0x41 PUSH1 0x4 MSTORE PUSH1 0x24 PUSH1 0x0 REVERT JUMPDEST PUSH1 0xE0 DUP2 ADD SWAP1 DUP2 LT PUSH8 0xFFFFFFFFFFFFFFFF DUP3 GT OR PUSH2 0x107F JUMPI PUSH1 0x40 MSTORE JUMP JUMPDEST SWAP1 PUSH1 0x1F DUP1 NOT SWAP2 ADD AND DUP2 ADD SWAP1 DUP2 LT PUSH8 0xFFFFFFFFFFFFFFFF DUP3 GT OR PUSH2 0x107F JUMPI PUSH1 0x40 MSTORE JUMP JUMPDEST PUSH1 0x40 SWAP1 PUSH1 0x3 NOT ADD SLT PUSH2 0xFB4 JUMPI PUSH1 0x4 CALLDATALOAD SWAP1 PUSH1 0x24 CALLDATALOAD SWAP1 JUMP JUMPDEST DUP1 SLOAD DUP3 LT ISZERO PUSH2 0x1101 JUMPI PUSH1 0x0 MSTORE PUSH1 0x20 PUSH1 0x0 KECCAK256 ADD SWAP1 PUSH1 0x0 SWAP1 JUMP JUMPDEST PUSH4 0x4E487B71 PUSH1 0xE0 SHL PUSH1 0x0 MSTORE PUSH1 0x32 PUSH1 0x4 MSTORE PUSH1 0x24 PUSH1 0x0 REVERT JUMPDEST SWAP1 PUSH1 0x1 DUP3 DUP2 SHR SWAP3 AND DUP1 ISZERO PUSH2 0x1147 JUMPI JUMPDEST PUSH1 0x20 DUP4 LT EQ PUSH2 0x1131 JUMPI JUMP JUMPDEST PUSH4 0x4E487B71 PUSH1 0xE0 SHL PUSH1 0x0 MSTORE PUSH1 0x22 PUSH1 0x4 MSTORE PUSH1 0x24 PUSH1 0x0 REVERT JUMPDEST SWAP2 PUSH1 0x7F AND SWAP2 PUSH2 0x1126 JUMP JUMPDEST SWAP1 PUSH1 0x40 MLOAD SWAP2 DUP3 PUSH1 0x0 DUP3 SLOAD SWAP3 PUSH2 0x1165 DUP5 PUSH2 0x1117 JUMP JUMPDEST SWAP1 DUP2 DUP5 MSTORE PUSH1 0x1 SWAP5 DUP6 DUP2 AND SWAP1 DUP2 PUSH1 0x0 EQ PUSH2 0x11D4 JUMPI POP PUSH1 0x1 EQ PUSH2 0x1191 JUMPI JUMPDEST POP POP PUSH2 0x118F SWAP3 POP SUB DUP4 PUSH2 0x10B1 JUMP JUMPDEST JUMP JUMPDEST SWAP1 SWAP4 SWAP2 POP PUSH1 0x0 MSTORE PUSH1 0x20 SWAP1 DUP2 PUSH1 0x0 KECCAK256 SWAP4 PUSH1 0x0 SWAP2 JUMPDEST DUP2 DUP4 LT PUSH2 0x11BC JUMPI POP POP PUSH2 0x118F SWAP4 POP DUP3 ADD ADD CODESIZE DUP1 PUSH2 0x1181 JUMP JUMPDEST DUP6 SLOAD DUP9 DUP5 ADD DUP6 ADD MSTORE SWAP5 DUP6 ADD SWAP5 DUP8 SWAP5 POP SWAP2 DUP4 ADD SWAP2 PUSH2 0x11A4 JUMP JUMPDEST SWAP2 POP POP PUSH2 0x118F SWAP5 POP PUSH1 0x20 SWAP3 POP PUSH1 0xFF NOT AND DUP3 DUP5 ADD MSTORE ISZERO ISZERO PUSH1 0x5 SHL DUP3 ADD ADD CODESIZE DUP1 PUSH2 0x1181 JUMP JUMPDEST PUSH1 0x0 SLOAD PUSH1 0x1 PUSH1 0x1 PUSH1 0xA0 SHL SUB AND CALLER SUB PUSH2 0x120B JUMPI JUMP JUMPDEST PUSH1 0x40 MLOAD PUSH4 0x118CDAA7 PUSH1 0xE0 SHL DUP2 MSTORE CALLER PUSH1 0x4 DUP3 ADD MSTORE PUSH1 0x24 SWAP1 REVERT JUMPDEST PUSH1 0x0 NOT DUP2 EQ PUSH2 0x1232 JUMPI PUSH1 0x1 ADD SWAP1 JUMP JUMPDEST PUSH4 0x4E487B71 PUSH1 0xE0 SHL PUSH1 0x0 MSTORE PUSH1 0x11 PUSH1 0x4 MSTORE PUSH1 0x24 PUSH1 0x0 REVERT JUMPDEST PUSH1 0x2 PUSH1 0x1 SLOAD EQ PUSH2 0x1259 JUMPI PUSH1 0x2 PUSH1 0x1 SSTORE JUMP JUMPDEST PUSH1 0x40 MLOAD PUSH4 0x3EE5AEB5 PUSH1 0xE0 SHL DUP2 MSTORE PUSH1 0x4 SWAP1 REVERT JUMPDEST ISZERO PUSH2 0x1272 JUMPI JUMP JUMPDEST PUSH1 0x40 MLOAD PUSH3 0x461BCD PUSH1 0xE5 SHL DUP2 MSTORE PUSH1 0x20 PUSH1 0x4 DUP3 ADD MSTORE PUSH1 0x19 PUSH1 0x24 DUP3 ADD MSTORE PUSH32 0x5375626D697373696F6E20646F6573206E6F7420657869737400000000000000 PUSH1 0x44 DUP3 ADD MSTORE PUSH1 0x64 SWAP1 REVERT JUMPDEST SWAP1 DUP2 PUSH1 0x20 SWAP2 SUB SLT PUSH2 0xFB4 JUMPI MLOAD DUP1 ISZERO ISZERO DUP2 SUB PUSH2 0xFB4 JUMPI SWAP1 JUMP JUMPDEST ISZERO PUSH2 0x12D6 JUMPI JUMP JUMPDEST PUSH1 0x40 MLOAD PUSH3 0x461BCD PUSH1 0xE5 SHL DUP2 MSTORE PUSH1 0x20 PUSH1 0x4 DUP3 ADD MSTORE PUSH1 0x11 PUSH1 0x24 DUP3 ADD MSTORE PUSH17 0x566F74696E67206E6F7420616374697665 PUSH1 0x78 SHL PUSH1 0x44 DUP3 ADD MSTORE PUSH1 0x64 SWAP1 REVERT JUMPDEST PUSH1 0x40 MLOAD SWAP1 PUSH2 0x131C DUP3 PUSH2 0x1095 JUMP JUMPDEST DUP2 PUSH1 0xC0 PUSH1 0x0 SWAP2 DUP3 DUP2 MSTORE DUP3 PUSH1 0x20 DUP3 ADD MSTORE DUP3 PUSH1 0x40 DUP3 ADD MSTORE PUSH1 0x60 DUP1 DUP3 ADD MSTORE DUP3 PUSH1 0x80 DUP3 ADD MSTORE DUP3 PUSH1 0xA0 DUP3 ADD MSTORE ADD MSTORE JUMP JUMPDEST SWAP1 PUSH1 0x40 MLOAD PUSH2 0x1354 DUP2 PUSH2 0x1095 JUMP JUMPDEST PUSH1 0xC0 PUSH1 0xFF PUSH1 0x6 DUP4 SWAP6 DUP1 SLOAD DUP6 MSTORE PUSH1 0x1 DUP2 ADD SLOAD PUSH1 0x20 DUP7 ADD MSTORE PUSH1 0x1 DUP1 PUSH1 0xA0 SHL SUB PUSH1 0x2 DUP3 ADD SLOAD AND PUSH1 0x40 DUP7 ADD MSTORE PUSH2 0x1388 PUSH1 0x3 DUP3 ADD PUSH2 0x1151 JUMP JUMPDEST PUSH1 0x60 DUP7 ADD MSTORE PUSH1 0x4 DUP2 ADD SLOAD PUSH1 0x80 DUP7 ADD MSTORE PUSH1 0x5 DUP2 ADD SLOAD PUSH1 0xA0 DUP7 ADD MSTORE ADD SLOAD AND ISZERO ISZERO SWAP2 ADD MSTORE JUMP JUMPDEST PUSH8 0xFFFFFFFFFFFFFFFF DUP2 GT PUSH2 0x107F JUMPI PUSH1 0x5 SHL PUSH1 0x20 ADD SWAP1 JUMP JUMPDEST SWAP1 PUSH2 0x13CD DUP3 PUSH2 0x13AB JUMP JUMPDEST PUSH2 0x13DA PUSH1 0x40 MLOAD SWAP2 DUP3 PUSH2 0x10B1 JUMP JUMPDEST DUP3 DUP2 MSTORE DUP1 SWAP3 PUSH2 0x13EB PUSH1 0x1F NOT SWAP2 PUSH2 0x13AB JUMP JUMPDEST ADD SWAP1 PUSH1 0x0 JUMPDEST DUP3 DUP2 LT PUSH2 0x13FC JUMPI POP POP POP JUMP JUMPDEST PUSH1 0x20 SWAP1 PUSH2 0x1407 PUSH2 0x130F JUMP JUMPDEST DUP3 DUP3 DUP6 ADD ADD MSTORE ADD PUSH2 0x13F0 JUMP JUMPDEST DUP1 MLOAD DUP3 LT ISZERO PUSH2 0x1101 JUMPI PUSH1 0x20 SWAP2 PUSH1 0x5 SHL ADD ADD SWAP1 JUMP JUMPDEST SWAP1 PUSH1 0x0 SWAP2 DUP3 MSTORE PUSH1 0x20 SWAP1 PUSH1 0x5 DUP3 MSTORE PUSH1 0x40 DUP1 DUP5 KECCAK256 DUP2 MLOAD DUP1 DUP3 DUP7 DUP3 SWAP5 SLOAD SWAP4 DUP5 DUP2 MSTORE ADD SWAP1 DUP9 MSTORE DUP7 DUP9 KECCAK256 SWAP3 DUP9 JUMPDEST DUP9 DUP3 DUP3 LT PUSH2 0x15F0 JUMPI POP POP POP PUSH2 0x1466 SWAP3 POP SUB DUP3 PUSH2 0x10B1 JUMP JUMPDEST DUP1 MLOAD SWAP2 DUP3 ISZERO PUSH2 0x15CC JUMPI PUSH2 0x1478 DUP4 PUSH2 0x13C3 JUMP JUMPDEST SWAP5 DUP7 JUMPDEST DUP5 DUP2 LT PUSH2 0x1592 JUMPI POP POP POP POP DUP4 JUMPDEST DUP2 DUP2 LT PUSH2 0x14EA JUMPI POP DUP1 DUP3 LT ISZERO PUSH2 0x14E2 JUMPI POP SWAP1 JUMPDEST PUSH2 0x14A4 DUP3 PUSH2 0x13C3 JUMP JUMPDEST SWAP3 JUMPDEST DUP3 DUP2 LT PUSH2 0x14B3 JUMPI POP POP POP SWAP1 JUMP JUMPDEST DUP1 PUSH2 0x14C1 PUSH2 0x14DD SWAP3 DUP5 PUSH2 0x1413 JUMP JUMPDEST MLOAD PUSH2 0x14CC DUP3 DUP8 PUSH2 0x1413 JUMP JUMPDEST MSTORE PUSH2 0x14D7 DUP2 DUP7 PUSH2 0x1413 JUMP JUMPDEST POP PUSH2 0x1223 JUMP JUMPDEST PUSH2 0x14A6 JUMP JUMPDEST SWAP1 POP SWAP1 PUSH2 0x149B JUMP JUMPDEST PUSH1 0x1 DUP2 ADD DUP1 DUP3 GT PUSH2 0x157E JUMPI JUMPDEST DUP3 DUP2 LT PUSH2 0x150C JUMPI POP PUSH2 0x1507 SWAP1 PUSH2 0x1223 JUMP JUMPDEST PUSH2 0x1488 JUMP JUMPDEST PUSH2 0x1538 SWAP1 PUSH1 0x80 DUP1 PUSH2 0x151D DUP4 DUP10 PUSH2 0x1413 JUMP JUMPDEST MLOAD ADD MLOAD SWAP1 PUSH2 0x152B DUP6 DUP10 PUSH2 0x1413 JUMP JUMPDEST MLOAD ADD MLOAD LT PUSH2 0x153D JUMPI PUSH2 0x1223 JUMP JUMPDEST PUSH2 0x14F6 JUMP JUMPDEST PUSH2 0x1547 DUP4 DUP8 PUSH2 0x1413 JUMP JUMPDEST MLOAD PUSH2 0x1552 DUP3 DUP9 PUSH2 0x1413 JUMP JUMPDEST MLOAD PUSH2 0x155D DUP6 DUP10 PUSH2 0x1413 JUMP JUMPDEST MSTORE PUSH2 0x1568 DUP5 DUP9 PUSH2 0x1413 JUMP JUMPDEST POP PUSH2 0x1573 DUP3 DUP9 PUSH2 0x1413 JUMP JUMPDEST MSTORE PUSH2 0x14D7 DUP2 DUP8 PUSH2 0x1413 JUMP JUMPDEST PUSH4 0x4E487B71 PUSH1 0xE0 SHL DUP7 MSTORE PUSH1 0x11 PUSH1 0x4 MSTORE PUSH1 0x24 DUP7 REVERT JUMPDEST DUP1 PUSH2 0x15A0 PUSH2 0x15C7 SWAP3 DUP7 PUSH2 0x1413 JUMP JUMPDEST MLOAD DUP10 MSTORE PUSH1 0x4 DUP4 MSTORE PUSH2 0x15B2 DUP5 DUP11 KECCAK256 PUSH2 0x1347 JUMP JUMPDEST PUSH2 0x15BC DUP3 DUP11 PUSH2 0x1413 JUMP JUMPDEST MSTORE PUSH2 0x14D7 DUP2 DUP10 PUSH2 0x1413 JUMP JUMPDEST PUSH2 0x147B JUMP JUMPDEST DUP1 MLOAD SWAP6 SWAP5 DUP7 ADD SWAP4 POP SWAP2 POP POP PUSH8 0xFFFFFFFFFFFFFFFF DUP3 GT DUP5 DUP4 LT OR PUSH2 0x932 JUMPI MSTORE DUP2 MSTORE SWAP1 JUMP JUMPDEST DUP6 SLOAD DUP5 MSTORE PUSH1 0x1 SWAP6 DUP7 ADD SWAP6 DUP8 SWAP6 POP SWAP4 ADD SWAP3 ADD PUSH2 0x144F JUMP INVALID LOG2 PUSH5 0x6970667358 0x22 SLT KECCAK256 0xC9 0xCC SGT 0x24 DUP7 JUMPI 0xAC DIV SHL 0x4A LT 0xB7 0xAF 0xE0 0xD5 CALLER SMOD SWAP4 PUSH32 0xAC69419F7B851B25CEF86F6D4264736F6C634300081400330000000000000000 "},"gasEstimates":{"creation":{"codeDepositCost":"1138400","executionCost":"infinite","totalCost":"infinite"},"external":{"contestFactory()":"2565","contestSubmissions(uint256,uint256)":"7134","getContestSubmissions(uint256)":"infinite","getSubmission(uint256)":"infinite","getSubmissionWithVotes(uint256)":"infinite","getTopSubmissions(uint256,uint256)":"infinite","getTotalSubmissions()":"2409","getUserSubmission(uint256,address)":"2519","hasUserVoted(uint256,address)":"2839","hasVoted(uint256,address)":"2597","owner()":"2518","removeVote(uint256)":"infinite","renounceOwnership()":"28274","submissionVoters(uint256,uint256)":"6943","submissions(uint256)":"infinite","submitEntry(uint256,string)":"infinite","transferOwnership(address)":"28560","updateContestFactory(address)":"26659","userSubmission(uint256,address)":"2805","vote(uint256)":"infinite"}},"methodIdentifiers":{"contestFactory()":"9c91cb9d","contestSubmissions(uint256,uint256)":"fadfa4dc","getContestSubmissions(uint256)":"4c406c01","getSubmission(uint256)":"3e8686cc","getSubmissionWithVotes(uint256)":"e2555a73","getTopSubmissions(uint256,uint256)":"938de8c3","getTotalSubmissions()":"54554d46","getUserSubmission(uint256,address)":"3687f7bf","hasUserVoted(uint256,address)":"dc296ae1","hasVoted(uint256,address)":"43859632","owner()":"8da5cb5b","removeVote(uint256)":"3f68fde4","renounceOwnership()":"715018a6","submissionVoters(uint256,uint256)":"6c811686","submissions(uint256)":"ad73349e","submitEntry(uint256,string)":"56ce45b6","transferOwnership(address)":"f2fde38b","updateContestFactory(address)":"1448c970","userSubmission(uint256,address)":"d17bd67c","vote(uint256)":"0121b93f"}},"storageLayout":{"storage":[{"astId":8,"contract":"contracts/VotingContract.sol:VotingContract","label":"_owner","offset":0,"slot":"0","type":"t_address"},{"astId":188,"contract":"contracts/VotingContract.sol:VotingContract","label":"_status","offset":0,"slot":"1","type":"t_uint256"},{"astId":878,"contract":"contracts/VotingContract.sol:VotingContract","label":"contestFactory","offset":0,"slot":"2","type":"t_contract(IContestFactory)855"},{"astId":880,"contract":"contracts/VotingContract.sol:VotingContract","label":"_submissionIdCounter","offset":0,"slot":"3","type":"t_uint256"},{"astId":885,"contract":"contracts/VotingContract.sol:VotingContract","label":"submissions","offset":0,"slot":"4","type":"t_mapping(t_uint256,t_struct(Submission)875_storage)"},{"astId":890,"contract":"contracts/VotingContract.sol:VotingContract","label":"contestSubmissions","offset":0,"slot":"5","type":"t_mapping(t_uint256,t_array(t_uint256)dyn_storage)"},{"astId":896,"contract":"contracts/VotingContract.sol:VotingContract","label":"userSubmission","offset":0,"slot":"6","type":"t_mapping(t_uint256,t_mapping(t_address,t_uint256))"},{"astId":902,"contract":"contracts/VotingContract.sol:VotingContract","label":"hasVoted","offset":0,"slot":"7","type":"t_mapping(t_uint256,t_mapping(t_address,t_bool))"},{"astId":907,"contract":"contracts/VotingContract.sol:VotingContract","label":"submissionVoters","offset":0,"slot":"8","type":"t_mapping(t_uint256,t_array(t_address)dyn_storage)"}],"types":{"t_address":{"encoding":"inplace","label":"address","numberOfBytes":"20"},"t_array(t_address)dyn_storage":{"base":"t_address","encoding":"dynamic_array","label":"address[]","numberOfBytes":"32"},"t_array(t_uint256)dyn_storage":{"base":"t_uint256","encoding":"dynamic_array","label":"uint256[]","numberOfBytes":"32"},"t_bool":{"encoding":"inplace","label":"bool","numberOfBytes":"1"},"t_contract(IContestFactory)855":{"encoding":"inplace","label":"contract IContestFactory","numberOfBytes":"20"},"t_mapping(t_address,t_bool)":{"encoding":"mapping","key":"t_address","label":"mapping(address => bool)","numberOfBytes":"32","value":"t_bool"},"t_mapping(t_address,t_uint256)":{"encoding":"mapping","key":"t_address","label":"mapping(address => uint256)","numberOfBytes":"32","value":"t_uint256"},"t_mapping(t_uint256,t_array(t_address)dyn_storage)":{"encoding":"mapping","key":"t_uint256","label":"mapping(uint256 => address[])","numberOfBytes":"32","value":"t_array(t_address)dyn_storage"},"t_mapping(t_uint256,t_array(t_uint256)dyn_storage)":{"encoding":"mapping","key":"t_uint256","label":"mapping(uint256 => uint256[])","numberOfBytes":"32","value":"t_array(t_uint256)dyn_storage"},"t_mapping(t_uint256,t_mapping(t_address,t_bool))":{"encoding":"mapping","key":"t_uint256","label":"mapping(uint256 => mapping(address => bool))","numberOfBytes":"32","value":"t_mapping(t_address,t_bool)"},"t_mapping(t_uint256,t_mapping(t_address,t_uint256))":{"encoding":"mapping","key":"t_uint256","label":"mapping(uint256 => mapping(address => uint256))","numberOfBytes":"32","value":"t_mapping(t_address,t_uint256)"},"t_mapping(t_uint256,t_struct(Submission)875_storage)":{"encoding":"mapping","key":"t_uint256","label":"mapping(uint256 => struct VotingContract.Submission)","numberOfBytes":"32","value":"t_struct(Submission)875_storage"},"t_string_storage":{"encoding":"bytes","label":"string","numberOfBytes":"32"},"t_struct(Submission)875_storage":{"encoding":"inplace","label":"struct VotingContract.Submission","members":[{"astId":862,"contract":"contracts/VotingContract.sol:VotingContract","label":"id","offset":0,"slot":"0","type":"t_uint256"},{"astId":864,"contract":"contracts/VotingContract.sol:VotingContract","label":"contestId","offset":0,"slot":"1","type":"t_uint256"},{"astId":866,"contract":"contracts/VotingContract.sol:VotingContract","label":"submitter","offset":0,"slot":"2","type":"t_address"},{"astId":868,"contract":"contracts/VotingContract.sol:VotingContract","label":"metadataURI","offset":0,"slot":"3","type":"t_string_storage"},{"astId":870,"contract":"contracts/VotingContract.sol:VotingContract","label":"voteCount","offset":0,"slot":"4","type":"t_uint256"},{"astId":872,"contract":"contracts/VotingContract.sol:VotingContract","label":"timestamp","offset":0,"slot":"5","type":"t_uint256"},{"astId":874,"contract":"contracts/VotingContract.sol:VotingContract","label":"exists","offset":0,"slot":"6","type":"t_bool"}],"numberOfBytes":"224"},"t_uint256":{"encoding":"inplace","label":"uint256","numberOfBytes":"32"}}},"userdoc":{"kind":"user","methods":{},"version":1}}}}