{"contracts/SimpleTest.sol":{"SimpleTest":{"abi":[{"inputs":[],"stateMutability":"nonpayable","type":"constructor"},{"inputs":[],"name":"number","outputs":[{"internalType":"uint256","name":"","type":"uint256"}],"stateMutability":"view","type":"function"},{"inputs":[{"internalType":"uint256","name":"_number","type":"uint256"}],"name":"setNumber","outputs":[],"stateMutability":"nonpayable","type":"function"}],"devdoc":{"kind":"dev","methods":{},"version":1},"evm":{"bytecode":{"linkReferences":{},"object":"60808060405234601957602a600055609d908161001f8239f35b600080fdfe6080806040526004361015601257600080fd5b600090813560e01c80633fb5c1cb14604c57638381f58a14603257600080fd5b3460485781600319360112604857602091548152f35b5080fd5b82346064576020366003190112606457600435815580f35b80fdfea264697066735822122023228e25f63627d3684e387ebd8094c6a3f0696b86ad9161e2d036a14d0b42fd64736f6c63430008140033","opcodes":"PUSH1 0x80 DUP1 PUSH1 0x40 MSTORE CALLVALUE PUSH1 0x19 JUMPI PUSH1 0x2A PUSH1 0x0 SSTORE PUSH1 0x9D SWAP1 DUP2 PUSH2 0x1F DUP3 CODECOPY RETURN JUMPDEST PUSH1 0x0 DUP1 REVERT INVALID PUSH1 0x80 DUP1 PUSH1 0x40 MSTORE PUSH1 0x4 CALLDATASIZE LT ISZERO PUSH1 0x12 JUMPI PUSH1 0x0 DUP1 REVERT JUMPDEST PUSH1 0x0 SWAP1 DUP2 CALLDATALOAD PUSH1 0xE0 SHR DUP1 PUSH4 0x3FB5C1CB EQ PUSH1 0x4C JUMPI PUSH4 0x8381F58A EQ PUSH1 0x32 JUMPI PUSH1 0x0 DUP1 REVERT JUMPDEST CALLVALUE PUSH1 0x48 JUMPI DUP2 PUSH1 0x3 NOT CALLDATASIZE ADD SLT PUSH1 0x48 JUMPI PUSH1 0x20 SWAP2 SLOAD DUP2 MSTORE RETURN JUMPDEST POP DUP1 REVERT JUMPDEST DUP3 CALLVALUE PUSH1 0x64 JUMPI PUSH1 0x20 CALLDATASIZE PUSH1 0x3 NOT ADD SLT PUSH1 0x64 JUMPI PUSH1 0x4 CALLDATALOAD DUP2 SSTORE DUP1 RETURN JUMPDEST DUP1 REVERT INVALID LOG2 PUSH5 0x6970667358 0x22 SLT KECCAK256 0x23 0x22 DUP15 0x25 0xF6 CALLDATASIZE 0x27 0xD3 PUSH9 0x4E387EBD8094C6A3F0 PUSH10 0x6B86AD9161E2D036A14D SIGNEXTEND TIMESTAMP REVERT PUSH5 0x736F6C6343 STOP ADDMOD EQ STOP CALLER "},"gasEstimates":{"creation":{"codeDepositCost":"31400","executionCost":"22193","totalCost":"53593"},"external":{"number()":"2269","setNumber(uint256)":"22247"}},"methodIdentifiers":{"number()":"8381f58a","setNumber(uint256)":"3fb5c1cb"}},"storageLayout":{"storage":[{"astId":814,"contract":"contracts/SimpleTest.sol:SimpleTest","label":"number","offset":0,"slot":"0","type":"t_uint256"}],"types":{"t_uint256":{"encoding":"inplace","label":"uint256","numberOfBytes":"32"}}},"userdoc":{"kind":"user","methods":{},"version":1}}}}