{
  "_format": "hh-sol-artifact-1",
  "contractName": "ContestFactory",
  "sourceName": "contracts/ContestFactory.sol",
  "abi": [
    {
      "inputs": [
        {
          "internalType": "address",
          "name": "_feeCollector",
          "type": "address"
        }
      ],
      "stateMutability": "nonpayable",
      "type": "constructor"
    },
    {
      "inputs": [
        {
          "internalType": "address",
          "name": "owner",
          "type": "address"
        }
      ],
      "name": "OwnableInvalidOwner",
      "type": "error"
    },
    {
      "inputs": [
        {
          "internalType": "address",
          "name": "account",
          "type": "address"
        }
      ],
      "name": "OwnableUnauthorizedAccount",
      "type": "error"
    },
    {
      "inputs": [],
      "name": "ReentrancyGuardReentrantCall",
      "type": "error"
    },
    {
      "anonymous": false,
      "inputs": [
        {
          "indexed": true,
          "internalType": "uint256",
          "name": "contestId",
          "type": "uint256"
        },
        {
          "indexed": true,
          "internalType": "address",
          "name": "creator",
          "type": "address"
        },
        {
          "indexed": false,
          "internalType": "string",
          "name": "title",
          "type": "string"
        },
        {
          "indexed": false,
          "internalType": "uint256",
          "name": "prizePool",
          "type": "uint256"
        },
        {
          "indexed": false,
          "internalType": "uint256",
          "name": "startTime",
          "type": "uint256"
        },
        {
          "indexed": false,
          "internalType": "uint256",
          "name": "endTime",
          "type": "uint256"
        }
      ],
      "name": "ContestCreated",
      "type": "event"
    },
    {
      "anonymous": false,
      "inputs": [
        {
          "indexed": true,
          "internalType": "uint256",
          "name": "contestId",
          "type": "uint256"
        },
        {
          "indexed": false,
          "internalType": "enum ContestFactory.ContestStatus",
          "name": "oldStatus",
          "type": "uint8"
        },
        {
          "indexed": false,
          "internalType": "enum ContestFactory.ContestStatus",
          "name": "newStatus",
          "type": "uint8"
        }
      ],
      "name": "ContestStatusChanged",
      "type": "event"
    },
    {
      "anonymous": false,
      "inputs": [
        {
          "indexed": true,
          "internalType": "address",
          "name": "previousOwner",
          "type": "address"
        },
        {
          "indexed": true,
          "internalType": "address",
          "name": "newOwner",
          "type": "address"
        }
      ],
      "name": "OwnershipTransferred",
      "type": "event"
    },
    {
      "anonymous": false,
      "inputs": [
        {
          "indexed": false,
          "internalType": "uint256",
          "name": "oldFee",
          "type": "uint256"
        },
        {
          "indexed": false,
          "internalType": "uint256",
          "name": "newFee",
          "type": "uint256"
        }
      ],
      "name": "PlatformFeeUpdated",
      "type": "event"
    },
    {
      "anonymous": false,
      "inputs": [
        {
          "indexed": true,
          "internalType": "uint256",
          "name": "contestId",
          "type": "uint256"
        },
        {
          "indexed": true,
          "internalType": "address",
          "name": "contributor",
          "type": "address"
        },
        {
          "indexed": false,
          "internalType": "uint256",
          "name": "amount",
          "type": "uint256"
        },
        {
          "indexed": false,
          "internalType": "uint256",
          "name": "newTotal",
          "type": "uint256"
        }
      ],
      "name": "PrizePoolIncreased",
      "type": "event"
    },
    {
      "inputs": [
        {
          "internalType": "uint256",
          "name": "",
          "type": "uint256"
        }
      ],
      "name": "contests",
      "outputs": [
        {
          "internalType": "uint256",
          "name": "id",
          "type": "uint256"
        },
        {
          "internalType": "address",
          "name": "creator",
          "type": "address"
        },
        {
          "internalType": "string",
          "name": "title",
          "type": "string"
        },
        {
          "internalType": "string",
          "name": "metadataURI",
          "type": "string"
        },
        {
          "internalType": "uint256",
          "name": "prizePool",
          "type": "uint256"
        },
        {
          "internalType": "address",
          "name": "prizeToken",
          "type": "address"
        },
        {
          "internalType": "uint256",
          "name": "startTime",
          "type": "uint256"
        },
        {
          "internalType": "uint256",
          "name": "endTime",
          "type": "uint256"
        },
        {
          "internalType": "uint256",
          "name": "votingEndTime",
          "type": "uint256"
        },
        {
          "internalType": "enum ContestFactory.ContestStatus",
          "name": "status",
          "type": "uint8"
        },
        {
          "internalType": "uint256",
          "name": "submissionCount",
          "type": "uint256"
        },
        {
          "internalType": "uint256",
          "name": "totalVotes",
          "type": "uint256"
        }
      ],
      "stateMutability": "view",
      "type": "function"
    },
    {
      "inputs": [
        {
          "internalType": "string",
          "name": "_title",
          "type": "string"
        },
        {
          "internalType": "string",
          "name": "_metadataURI",
          "type": "string"
        },
        {
          "internalType": "uint256",
          "name": "_prizePool",
          "type": "uint256"
        },
        {
          "internalType": "address",
          "name": "_prizeToken",
          "type": "address"
        },
        {
          "internalType": "uint256",
          "name": "_startTime",
          "type": "uint256"
        },
        {
          "internalType": "uint256",
          "name": "_endTime",
          "type": "uint256"
        },
        {
          "internalType": "uint256",
          "name": "_votingEndTime",
          "type": "uint256"
        }
      ],
      "name": "createContest",
      "outputs": [
        {
          "internalType": "uint256",
          "name": "",
          "type": "uint256"
        }
      ],
      "stateMutability": "payable",
      "type": "function"
    },
    {
      "inputs": [
        {
          "internalType": "address",
          "name": "",
          "type": "address"
        },
        {
          "internalType": "uint256",
          "name": "",
          "type": "uint256"
        }
      ],
      "name": "creatorContests",
      "outputs": [
        {
          "internalType": "uint256",
          "name": "",
          "type": "uint256"
        }
      ],
      "stateMutability": "view",
      "type": "function"
    },
    {
      "inputs": [],
      "name": "feeCollector",
      "outputs": [
        {
          "internalType": "address",
          "name": "",
          "type": "address"
        }
      ],
      "stateMutability": "view",
      "type": "function"
    },
    {
      "inputs": [
        {
          "internalType": "uint256",
          "name": "_contestId",
          "type": "uint256"
        }
      ],
      "name": "getContest",
      "outputs": [
        {
          "components": [
            {
              "internalType": "uint256",
              "name": "id",
              "type": "uint256"
            },
            {
              "internalType": "address",
              "name": "creator",
              "type": "address"
            },
            {
              "internalType": "string",
              "name": "title",
              "type": "string"
            },
            {
              "internalType": "string",
              "name": "metadataURI",
              "type": "string"
            },
            {
              "internalType": "uint256",
              "name": "prizePool",
              "type": "uint256"
            },
            {
              "internalType": "address",
              "name": "prizeToken",
              "type": "address"
            },
            {
              "internalType": "uint256",
              "name": "startTime",
              "type": "uint256"
            },
            {
              "internalType": "uint256",
              "name": "endTime",
              "type": "uint256"
            },
            {
              "internalType": "uint256",
              "name": "votingEndTime",
              "type": "uint256"
            },
            {
              "internalType": "enum ContestFactory.ContestStatus",
              "name": "status",
              "type": "uint8"
            },
            {
              "internalType": "uint256",
              "name": "submissionCount",
              "type": "uint256"
            },
            {
              "internalType": "uint256",
              "name": "totalVotes",
              "type": "uint256"
            }
          ],
          "internalType": "struct ContestFactory.Contest",
          "name": "",
          "type": "tuple"
        }
      ],
      "stateMutability": "view",
      "type": "function"
    },
    {
      "inputs": [
        {
          "internalType": "address",
          "name": "_creator",
          "type": "address"
        }
      ],
      "name": "getCreatorContests",
      "outputs": [
        {
          "internalType": "uint256[]",
          "name": "",
          "type": "uint256[]"
        }
      ],
      "stateMutability": "view",
      "type": "function"
    },
    {
      "inputs": [],
      "name": "getTotalContests",
      "outputs": [
        {
          "internalType": "uint256",
          "name": "",
          "type": "uint256"
        }
      ],
      "stateMutability": "view",
      "type": "function"
    },
    {
      "inputs": [
        {
          "internalType": "uint256",
          "name": "_contestId",
          "type": "uint256"
        }
      ],
      "name": "increasePrizePool",
      "outputs": [],
      "stateMutability": "payable",
      "type": "function"
    },
    {
      "inputs": [
        {
          "internalType": "uint256",
          "name": "_contestId",
          "type": "uint256"
        }
      ],
      "name": "incrementSubmissionCount",
      "outputs": [],
      "stateMutability": "nonpayable",
      "type": "function"
    },
    {
      "inputs": [
        {
          "internalType": "uint256",
          "name": "_contestId",
          "type": "uint256"
        }
      ],
      "name": "incrementVoteCount",
      "outputs": [],
      "stateMutability": "nonpayable",
      "type": "function"
    },
    {
      "inputs": [
        {
          "internalType": "uint256",
          "name": "_contestId",
          "type": "uint256"
        }
      ],
      "name": "isContestActive",
      "outputs": [
        {
          "internalType": "bool",
          "name": "",
          "type": "bool"
        }
      ],
      "stateMutability": "view",
      "type": "function"
    },
    {
      "inputs": [
        {
          "internalType": "uint256",
          "name": "_contestId",
          "type": "uint256"
        }
      ],
      "name": "isVotingActive",
      "outputs": [
        {
          "internalType": "bool",
          "name": "",
          "type": "bool"
        }
      ],
      "stateMutability": "view",
      "type": "function"
    },
    {
      "inputs": [],
      "name": "owner",
      "outputs": [
        {
          "internalType": "address",
          "name": "",
          "type": "address"
        }
      ],
      "stateMutability": "view",
      "type": "function"
    },
    {
      "inputs": [],
      "name": "platformFeeBps",
      "outputs": [
        {
          "internalType": "uint256",
          "name": "",
          "type": "uint256"
        }
      ],
      "stateMutability": "view",
      "type": "function"
    },
    {
      "inputs": [],
      "name": "renounceOwnership",
      "outputs": [],
      "stateMutability": "nonpayable",
      "type": "function"
    },
    {
      "inputs": [
        {
          "internalType": "address",
          "name": "newOwner",
          "type": "address"
        }
      ],
      "name": "transferOwnership",
      "outputs": [],
      "stateMutability": "nonpayable",
      "type": "function"
    },
    {
      "inputs": [
        {
          "internalType": "uint256",
          "name": "_contestId",
          "type": "uint256"
        },
        {
          "internalType": "enum ContestFactory.ContestStatus",
          "name": "_newStatus",
          "type": "uint8"
        }
      ],
      "name": "updateContestStatus",
      "outputs": [],
      "stateMutability": "nonpayable",
      "type": "function"
    },
    {
      "inputs": [
        {
          "internalType": "address",
          "name": "_newCollector",
          "type": "address"
        }
      ],
      "name": "updateFeeCollector",
      "outputs": [],
      "stateMutability": "nonpayable",
      "type": "function"
    },
    {
      "inputs": [
        {
          "internalType": "uint256",
          "name": "_newFeeBps",
          "type": "uint256"
        }
      ],
      "name": "updatePlatformFee",
      "outputs": [],
      "stateMutability": "nonpayable",
      "type": "function"
    },
    {
      "inputs": [],
      "name": "withdrawFees",
      "outputs": [],
      "stateMutability": "nonpayable",
      "type": "function"
    },
    {
      "stateMutability": "payable",
      "type": "receive"
    }
  ],
  "bytecode": "0x6080346100cf57601f61170c38819003918201601f19168301916001600160401b038311848410176100d4578084926020946040528339810103126100cf57516001600160a01b0390818116908190036100cf5733156100b65760005460018060a01b0319903382821617600055604051933391167f8be0079c531659141344cd1fd0a4f28419497f9722a3daafe3b4186f6b6457e0600080a36001805560fa600555600654161760065561162190816100eb8239f35b604051631e4fbdf760e01b815260006004820152602490fd5b600080fd5b634e487b7160e01b600052604160045260246000fdfe608080604052600436101561001d575b50361561001b57600080fd5b005b60003560e01c90816322dcd13e1461134757508063476343ee146112c25780636d436fa31461120e578063715018a6146111b557806373d53dd21461119757806374828bbb146110b1578063772744b514610fae5780638da5cb5b14610f85578063904b9f7214610da05780639d7ed73814610cb6578063a490a21b1461065d578063aa0b5988146105c1578063af1087e91461041c578063bf5e253f146102f4578063c415b95c146102cb578063cda6d0021461029d578063d2c35ce81461021e578063e6bf74c9146101c6578063f2fde38b1461013d5763f3b9e61c14610106573861000f565b34610138576020366003190112610138576004356000526003602052600b6040600020016101348154611595565b9055005b600080fd5b3461013857602036600319011261013857610156611362565b61015e611569565b6001600160a01b039081169081156101ad57600054826001600160601b0360a01b821617600055167f8be0079c531659141344cd1fd0a4f28419497f9722a3daafe3b4186f6b6457e0600080a3005b604051631e4fbdf760e01b815260006004820152602490fd5b34610138576040366003190112610138576101df611362565b6001600160a01b0316600090815260046020526040902080546024359190821015610138576020916102109161153b565b90546040519160031b1c8152f35b3461013857602036600319011261013857610237611362565b61023f611569565b6001600160a01b03168015610266576001600160601b0360a01b6006541617600655600080f35b60405162461bcd60e51b815260206004820152600f60248201526e496e76616c6964206164647265737360881b6044820152606490fd5b34610138576020366003190112610138576004356000526003602052600a6040600020016101348154611595565b34610138576000366003190112610138576006546040516001600160a01b039091168152602090f35b34610138576020366003190112610138576004356000526003602052604060002060405190610322826113ff565b8054825260018101546001600160a01b0390811660208401526103476002830161143e565b60408401526103586003830161143e565b60608401526004820154608084015260058201541660a083015260068101549060c0830191825260078101549260e081019384526008820154610100820152610160600b60ff600985015416936103b4610120850195866115a4565b600a8101546101408501520154910152519160058310156104065760016020931491826103fa575b50816103ee575b506040519015158152f35b905051421115826103e3565b514210159150836103dc565b634e487b7160e01b600052602160045260246000fd5b602080600319360112610138576004356104346115c8565b341561058b576000818152600383526040902060058101546001600160a01b03166105465760ff60098201541660058110156104065760038114610511576004146104d8576004018054903482018092116104c257819055604051923484528301527f8fb82f92fbac15f0a9edc91d47d33edcfce30f6805c6a005f56e95e4f9fd9bb460403393a360018055005b634e487b7160e01b600052601160045260246000fd5b60405162461bcd60e51b815260048101849052601160248201527010dbdb9d195cdd0818d85b98d95b1b1959607a1b6044820152606490fd5b60405162461bcd60e51b815260048101859052600d60248201526c10dbdb9d195cdd08195b991959609a1b6044820152606490fd5b60405162461bcd60e51b815260048101849052601c60248201527f436f6e74657374207573657320746f6b656e2c206e6f742043454c4f000000006044820152606490fd5b60405162461bcd60e51b815260048101839052600e60248201526d4d7573742073656e642043454c4f60901b6044820152606490fd5b34610138576020366003190112610138576004356105dd611569565b6103e8811161061f5760407fd347e206f25a89b917fc9482f1a2d294d749baa4dc9bde7fb495ee11fe49164391600554908060055582519182526020820152a1005b60405162461bcd60e51b815260206004820152601660248201527546656520746f6f206869676820286d6178203130252960501b6044820152606490fd5b60e03660031901126101385760043567ffffffffffffffff8111610138576106899036906004016114e4565b60243567ffffffffffffffff8111610138576106a99036906004016114e4565b6064803591906001600160a01b0383168303610138576106c76115c8565b426084351115610c745760843560a4351115610c325760a43560c4351115610be25760443515610b94576001600160a01b03831615610b48575b506002549161070f83611595565b6002556040519161071f836113ff565b8383523360208401528460408401526060830152604435608083015260018060a01b031660a082015260843560c082015260a43560e082015260c435610100820152600061012082015260006101408201526000610160820152816000526003602052604060002090805182556001820160018060a01b036020830151166001600160601b0360a01b825416179055604081015180519067ffffffffffffffff82116109925781906107d460028601546113c5565b601f8111610af5575b50602090601f8311600114610a8357600092610a78575b50508160011b916000199060031b1c19161760028301555b606081015180519067ffffffffffffffff821161099257819061083260038601546113c5565b601f8111610a25575b50602090601f83116001146109b3576000926109a8575b50508160011b916000199060031b1c19161760038301555b608081015160048301556005820160018060a01b0360a0830151166001600160601b0360a01b82541617905560c0810151600683015560e081015160078301556101008101516008830155610120810151600581101561040657600b916108d761016092600986016115b0565b610140810151600a850155015191015533600052600460205260406000209182549268010000000000000000841015610992578361091c91600160209601815561153b565b81549060031b9084821b91600019901b1916179055817f4aaaf0ce6b66893efbe13b0c3adb4a8b2077c1e3e57b0432fdeffda2eca9df0661096860405193608085526080850190611378565b9260443586820152608435604082015260a43560608201528033940390a360018055604051908152f35b634e487b7160e01b600052604160045260246000fd5b015190508680610852565b9250600385016000526020600020906000935b601f1984168510610a0a576001945083601f198116106109f1575b505050811b01600383015561086a565b015160001960f88460031b161c191690558680806109e1565b818101518355602094850194600190930192909101906109c6565b909150600385016000526020600020601f840160051c810160208510610a71575b90849392915b601f830160051c82018110610a6257505061083b565b60008155859450600101610a4c565b5080610a46565b0151905086806107f4565b9250600285016000526020600020906000935b601f1984168510610ada576001945083601f19811610610ac1575b505050811b01600283015561080c565b015160001960f88460031b161c19169055868080610ab1565b81810151835560209485019460019093019290910190610a96565b909150600285016000526020600020601f840160051c810160208510610b41575b90849392915b601f830160051c82018110610b325750506107dd565b60008155859450600101610b1c565b5080610b16565b6044353410156107015760405162461bcd60e51b815260206004820181905260248201527f496e73756666696369656e742043454c4f20666f72207072697a6520706f6f6c6044820152fd5b608490600360fc1b6040519162461bcd60e51b835260206004840152602160248401527f5072697a6520706f6f6c206d7573742062652067726561746572207468616e206044840152820152fd5b6084906308195b9960e21b6040519162461bcd60e51b8352602060048401526024808401527f566f74696e6720656e64206d75737420626520616674657220636f6e746573746044840152820152fd5b60405162461bcd60e51b815260206004820152601c60248201527f456e642074696d65206d757374206265206166746572207374617274000000006044820152fd5b60405162461bcd60e51b815260206004820152601c60248201527f53746172742074696d65206d75737420626520696e20667574757265000000006044820152fd5b34610138576020366003190112610138576004356000908152600360205260409020805460018201546001600160a01b0390811692610cf76002820161143e565b90610d046003820161143e565b6004820154936005830154166006830154600784015490600885015492600986015460ff1694600a87015496600b0154976040519b8c9b8c5260208c01526101808060408d01528b01610d5691611378565b8a810360608c0152610d6791611378565b9760808a015260a089015260c088015260e08701526101008601526101208501610d90916113b8565b6101408401526101608301520390f35b34610138576020366003190112610138576000610160604051610dc2816113ff565b828152826020820152606060408201526060808201528260808201528260a08201528260c08201528260e0820152826101008201528261012082015282610140820152015260043560005260036020526040600020600b60405191610e26836113ff565b8054835260018101546001600160a01b03166020840152610e496002820161143e565b6040840152610e5a6003820161143e565b60608401526004810154608084015260058101546001600160a01b031660a0840152600681015460c0840152600781015460e084015260088101546101008401526009810154610eb19060ff1661012085016115a4565b600a81015461014084015201546101608201526040518091602082528051602083015260018060a01b036020820151166040830152610160610f1d610f07604084015161018060608701526101a0860190611378565b6060840151858203601f19016080870152611378565b91608081015160a085015260018060a01b0360a08201511660c085015260c081015160e085015260e0810151610100850152610100810151610120850152610f6f6101208201516101408601906113b8565b6101408101518285015201516101808301520390f35b34610138576000366003190112610138576000546040516001600160a01b039091168152602090f35b34610138576020366003190112610138576004356000526003602052604060002060405190610fdc826113ff565b8054825260018101546001600160a01b0390811660208401526110016002830161143e565b60408401526110126003830161143e565b60608401526004820154608084015260058201541660a0830152600681015460c083015260078101549060e083019182526008810154926101008101938452610160600b60ff6009850154169361106e610120850195866115a4565b600a8101546101408501520154910152519160058310156104065760026020931491826110a65750816103ee57506040519015158152f35b5142119150836103dc565b346101385760403660031901126101385760043560243560058110156101385760008281526003602052604090206001810154336001600160a01b0391821614908115611189575b5015611153577f2049bae7871bc32e098ec2b73ebfa495ed2496dc8a5dc7bf9d4714eb4e09d2bb916111506009604093019161113a8160ff855416946115b0565b611146845180946113b8565b60208301906113b8565ba2005b60405162461bcd60e51b815260206004820152600e60248201526d139bdd08185d5d1a1bdc9a5e995960921b6044820152606490fd5b9050600054163314846110f9565b34610138576000366003190112610138576020600254604051908152f35b34610138576000366003190112610138576111ce611569565b600080546001600160a01b0319811682556001600160a01b03167f8be0079c531659141344cd1fd0a4f28419497f9722a3daafe3b4186f6b6457e08280a3005b3461013857602080600319360112610138576001600160a01b03611230611362565b1660005260048152604060002060405190818382549182815201908192600052846000209060005b868282106112ae57868661126e8288038361141c565b604051928392818401908285525180915260408401929160005b82811061129757505050500390f35b835185528695509381019392810192600101611288565b835485529093019260019283019201611258565b34610138576000366003190112610138576112db611569565b47801561130c576006546000918291829182916001600160a01b031682f11561130057005b6040513d6000823e3d90fd5b60405162461bcd60e51b81526020600482015260136024820152724e6f206665657320746f20776974686472617760681b6044820152606490fd5b34610138576000366003190112610138576020906005548152f35b600435906001600160a01b038216820361013857565b919082519283825260005b8481106113a4575050826000602080949584010152601f8019910116010190565b602081830181015184830182015201611383565b9060058210156104065752565b90600182811c921680156113f5575b60208310146113df57565b634e487b7160e01b600052602260045260246000fd5b91607f16916113d4565b610180810190811067ffffffffffffffff82111761099257604052565b90601f8019910116810190811067ffffffffffffffff82111761099257604052565b9060405191826000825492611452846113c5565b9081845260019485811690816000146114c1575060011461147e575b505061147c9250038361141c565b565b9093915060005260209081600020936000915b8183106114a957505061147c9350820101388061146e565b85548884018501529485019487945091830191611491565b91505061147c94506020925060ff191682840152151560051b820101388061146e565b81601f820112156101385780359067ffffffffffffffff82116109925760405192611519601f8401601f19166020018561141c565b8284526020838301011161013857816000926020809301838601378301015290565b80548210156115535760005260206000200190600090565b634e487b7160e01b600052603260045260246000fd5b6000546001600160a01b0316330361157d57565b60405163118cdaa760e01b8152336004820152602490fd5b60001981146104c25760010190565b60058210156104065752565b9060058110156104065760ff80198354169116179055565b6002600154146115d9576002600155565b604051633ee5aeb560e01b8152600490fdfea2646970667358221220f2c30d4bfee6638c4a3b1093b5c6ea15e38a3e564ebb482ceae413fc5436bb4b64736f6c63430008140033",
  "linkReferences": {},
  "deployedLinkReferences": {}
}