{
  "_format": "hh-sol-artifact-1",
  "contractName": "VotingContract",
  "sourceName": "contracts/VotingContract.sol",
  "abi": [
    {
      "inputs": [
        {
          "internalType": "address",
          "name": "_contestFactory",
          "type": "address"
        }
      ],
      "stateMutability": "nonpayable",
      "type": "constructor"
    },
    {
      "inputs": [
        {
          "internalType": "address",
          "name": "owner",
          "type": "address"
        }
      ],
      "name": "OwnableInvalidOwner",
      "type": "error"
    },
    {
      "inputs": [
        {
          "internalType": "address",
          "name": "account",
          "type": "address"
        }
      ],
      "name": "OwnableUnauthorizedAccount",
      "type": "error"
    },
    {
      "inputs": [],
      "name": "ReentrancyGuardReentrantCall",
      "type": "error"
    },
    {
      "anonymous": false,
      "inputs": [
        {
          "indexed": true,
          "internalType": "address",
          "name": "previousOwner",
          "type": "address"
        },
        {
          "indexed": true,
          "internalType": "address",
          "name": "newOwner",
          "type": "address"
        }
      ],
      "name": "OwnershipTransferred",
      "type": "event"
    },
    {
      "anonymous": false,
      "inputs": [
        {
          "indexed": true,
          "internalType": "uint256",
          "name": "submissionId",
          "type": "uint256"
        },
        {
          "indexed": true,
          "internalType": "uint256",
          "name": "contestId",
          "type": "uint256"
        },
        {
          "indexed": true,
          "internalType": "address",
          "name": "submitter",
          "type": "address"
        },
        {
          "indexed": false,
          "internalType": "string",
          "name": "metadataURI",
          "type": "string"
        }
      ],
      "name": "SubmissionCreated",
      "type": "event"
    },
    {
      "anonymous": false,
      "inputs": [
        {
          "indexed": true,
          "internalType": "uint256",
          "name": "submissionId",
          "type": "uint256"
        },
        {
          "indexed": true,
          "internalType": "uint256",
          "name": "contestId",
          "type": "uint256"
        },
        {
          "indexed": true,
          "internalType": "address",
          "name": "voter",
          "type": "address"
        }
      ],
      "name": "VoteCast",
      "type": "event"
    },
    {
      "anonymous": false,
      "inputs": [
        {
          "indexed": true,
          "internalType": "uint256",
          "name": "submissionId",
          "type": "uint256"
        },
        {
          "indexed": true,
          "internalType": "uint256",
          "name": "contestId",
          "type": "uint256"
        },
        {
          "indexed": true,
          "internalType": "address",
          "name": "voter",
          "type": "address"
        }
      ],
      "name": "VoteRemoved",
      "type": "event"
    },
    {
      "inputs": [],
      "name": "contestFactory",
      "outputs": [
        {
          "internalType": "contract IContestFactory",
          "name": "",
          "type": "address"
        }
      ],
      "stateMutability": "view",
      "type": "function"
    },
    {
      "inputs": [
        {
          "internalType": "uint256",
          "name": "",
          "type": "uint256"
        },
        {
          "internalType": "uint256",
          "name": "",
          "type": "uint256"
        }
      ],
      "name": "contestSubmissions",
      "outputs": [
        {
          "internalType": "uint256",
          "name": "",
          "type": "uint256"
        }
      ],
      "stateMutability": "view",
      "type": "function"
    },
    {
      "inputs": [
        {
          "internalType": "uint256",
          "name": "_contestId",
          "type": "uint256"
        }
      ],
      "name": "getContestSubmissions",
      "outputs": [
        {
          "internalType": "uint256[]",
          "name": "",
          "type": "uint256[]"
        }
      ],
      "stateMutability": "view",
      "type": "function"
    },
    {
      "inputs": [
        {
          "internalType": "uint256",
          "name": "_submissionId",
          "type": "uint256"
        }
      ],
      "name": "getSubmission",
      "outputs": [
        {
          "components": [
            {
              "internalType": "uint256",
              "name": "id",
              "type": "uint256"
            },
            {
              "internalType": "uint256",
              "name": "contestId",
              "type": "uint256"
            },
            {
              "internalType": "address",
              "name": "submitter",
              "type": "address"
            },
            {
              "internalType": "string",
              "name": "metadataURI",
              "type": "string"
            },
            {
              "internalType": "uint256",
              "name": "voteCount",
              "type": "uint256"
            },
            {
              "internalType": "uint256",
              "name": "timestamp",
              "type": "uint256"
            },
            {
              "internalType": "bool",
              "name": "exists",
              "type": "bool"
            }
          ],
          "internalType": "struct VotingContract.Submission",
          "name": "",
          "type": "tuple"
        }
      ],
      "stateMutability": "view",
      "type": "function"
    },
    {
      "inputs": [
        {
          "internalType": "uint256",
          "name": "_submissionId",
          "type": "uint256"
        }
      ],
      "name": "getSubmissionWithVotes",
      "outputs": [
        {
          "components": [
            {
              "internalType": "uint256",
              "name": "id",
              "type": "uint256"
            },
            {
              "internalType": "uint256",
              "name": "contestId",
              "type": "uint256"
            },
            {
              "internalType": "address",
              "name": "submitter",
              "type": "address"
            },
            {
              "internalType": "string",
              "name": "metadataURI",
              "type": "string"
            },
            {
              "internalType": "uint256",
              "name": "voteCount",
              "type": "uint256"
            },
            {
              "internalType": "uint256",
              "name": "timestamp",
              "type": "uint256"
            },
            {
              "internalType": "bool",
              "name": "exists",
              "type": "bool"
            }
          ],
          "internalType": "struct VotingContract.Submission",
          "name": "submission",
          "type": "tuple"
        },
        {
          "internalType": "address[]",
          "name": "voters",
          "type": "address[]"
        }
      ],
      "stateMutability": "view",
      "type": "function"
    },
    {
      "inputs": [
        {
          "internalType": "uint256",
          "name": "_contestId",
          "type": "uint256"
        },
        {
          "internalType": "uint256",
          "name": "_limit",
          "type": "uint256"
        }
      ],
      "name": "getTopSubmissions",
      "outputs": [
        {
          "components": [
            {
              "internalType": "uint256",
              "name": "id",
              "type": "uint256"
            },
            {
              "internalType": "uint256",
              "name": "contestId",
              "type": "uint256"
            },
            {
              "internalType": "address",
              "name": "submitter",
              "type": "address"
            },
            {
              "internalType": "string",
              "name": "metadataURI",
              "type": "string"
            },
            {
              "internalType": "uint256",
              "name": "voteCount",
              "type": "uint256"
            },
            {
              "internalType": "uint256",
              "name": "timestamp",
              "type": "uint256"
            },
            {
              "internalType": "bool",
              "name": "exists",
              "type": "bool"
            }
          ],
          "internalType": "struct VotingContract.Submission[]",
          "name": "",
          "type": "tuple[]"
        }
      ],
      "stateMutability": "view",
      "type": "function"
    },
    {
      "inputs": [],
      "name": "getTotalSubmissions",
      "outputs": [
        {
          "internalType": "uint256",
          "name": "",
          "type": "uint256"
        }
      ],
      "stateMutability": "view",
      "type": "function"
    },
    {
      "inputs": [
        {
          "internalType": "uint256",
          "name": "_contestId",
          "type": "uint256"
        },
        {
          "internalType": "address",
          "name": "_user",
          "type": "address"
        }
      ],
      "name": "getUserSubmission",
      "outputs": [
        {
          "internalType": "uint256",
          "name": "",
          "type": "uint256"
        }
      ],
      "stateMutability": "view",
      "type": "function"
    },
    {
      "inputs": [
        {
          "internalType": "uint256",
          "name": "_submissionId",
          "type": "uint256"
        },
        {
          "internalType": "address",
          "name": "_user",
          "type": "address"
        }
      ],
      "name": "hasUserVoted",
      "outputs": [
        {
          "internalType": "bool",
          "name": "",
          "type": "bool"
        }
      ],
      "stateMutability": "view",
      "type": "function"
    },
    {
      "inputs": [
        {
          "internalType": "uint256",
          "name": "",
          "type": "uint256"
        },
        {
          "internalType": "address",
          "name": "",
          "type": "address"
        }
      ],
      "name": "hasVoted",
      "outputs": [
        {
          "internalType": "bool",
          "name": "",
          "type": "bool"
        }
      ],
      "stateMutability": "view",
      "type": "function"
    },
    {
      "inputs": [],
      "name": "owner",
      "outputs": [
        {
          "internalType": "address",
          "name": "",
          "type": "address"
        }
      ],
      "stateMutability": "view",
      "type": "function"
    },
    {
      "inputs": [
        {
          "internalType": "uint256",
          "name": "_submissionId",
          "type": "uint256"
        }
      ],
      "name": "removeVote",
      "outputs": [],
      "stateMutability": "nonpayable",
      "type": "function"
    },
    {
      "inputs": [],
      "name": "renounceOwnership",
      "outputs": [],
      "stateMutability": "nonpayable",
      "type": "function"
    },
    {
      "inputs": [
        {
          "internalType": "uint256",
          "name": "",
          "type": "uint256"
        },
        {
          "internalType": "uint256",
          "name": "",
          "type": "uint256"
        }
      ],
      "name": "submissionVoters",
      "outputs": [
        {
          "internalType": "address",
          "name": "",
          "type": "address"
        }
      ],
      "stateMutability": "view",
      "type": "function"
    },
    {
      "inputs": [
        {
          "internalType": "uint256",
          "name": "",
          "type": "uint256"
        }
      ],
      "name": "submissions",
      "outputs": [
        {
          "internalType": "uint256",
          "name": "id",
          "type": "uint256"
        },
        {
          "internalType": "uint256",
          "name": "contestId",
          "type": "uint256"
        },
        {
          "internalType": "address",
          "name": "submitter",
          "type": "address"
        },
        {
          "internalType": "string",
          "name": "metadataURI",
          "type": "string"
        },
        {
          "internalType": "uint256",
          "name": "voteCount",
          "type": "uint256"
        },
        {
          "internalType": "uint256",
          "name": "timestamp",
          "type": "uint256"
        },
        {
          "internalType": "bool",
          "name": "exists",
          "type": "bool"
        }
      ],
      "stateMutability": "view",
      "type": "function"
    },
    {
      "inputs": [
        {
          "internalType": "uint256",
          "name": "_contestId",
          "type": "uint256"
        },
        {
          "internalType": "string",
          "name": "_metadataURI",
          "type": "string"
        }
      ],
      "name": "submitEntry",
      "outputs": [
        {
          "internalType": "uint256",
          "name": "",
          "type": "uint256"
        }
      ],
      "stateMutability": "nonpayable",
      "type": "function"
    },
    {
      "inputs": [
        {
          "internalType": "address",
          "name": "newOwner",
          "type": "address"
        }
      ],
      "name": "transferOwnership",
      "outputs": [],
      "stateMutability": "nonpayable",
      "type": "function"
    },
    {
      "inputs": [
        {
          "internalType": "address",
          "name": "_newFactory",
          "type": "address"
        }
      ],
      "name": "updateContestFactory",
      "outputs": [],
      "stateMutability": "nonpayable",
      "type": "function"
    },
    {
      "inputs": [
        {
          "internalType": "uint256",
          "name": "",
          "type": "uint256"
        },
        {
          "internalType": "address",
          "name": "",
          "type": "address"
        }
      ],
      "name": "userSubmission",
      "outputs": [
        {
          "internalType": "uint256",
          "name": "",
          "type": "uint256"
        }
      ],
      "stateMutability": "view",
      "type": "function"
    },
    {
      "inputs": [
        {
          "internalType": "uint256",
          "name": "_submissionId",
          "type": "uint256"
        }
      ],
      "name": "vote",
      "outputs": [],
      "stateMutability": "nonpayable",
      "type": "function"
    }
  ],
  "bytecode": "0x6080346100ca57601f61172238819003918201601f19168301916001600160401b038311848410176100cf578084926020946040528339810103126100ca57516001600160a01b0390818116908190036100ca5733156100b15760005460018060a01b0319903382821617600055604051933391167f8be0079c531659141344cd1fd0a4f28419497f9722a3daafe3b4186f6b6457e0600080a360018055600254161760025561163c90816100e68239f35b604051631e4fbdf760e01b815260006004820152602490fd5b600080fd5b634e487b7160e01b600052604160045260246000fdfe6080604052600436101561001257600080fd5b6000803560e01c80630121b93f14610d565780631448c97014610cd85780633687f7bf146102f25780633e8686cc14610c8c5780633f68fde414610a0457806343859632146102a65780634c406c011461096457806354554d461461094657806356ce45b6146105395780636c811686146104ee578063715018a6146104945780638da5cb5b1461046d578063938de8c3146103f65780639c91cb9d146103cd578063ad73349e14610339578063d17bd67c146102f2578063dc296ae1146102a6578063e2555a73146101c6578063f2fde38b1461013b5763fadfa4dc146100f957600080fd5b3461013857610107366110d3565b9190815260056020526040812090815483101561013857602061012a84846110e9565b90546040519160031b1c8152f35b80fd5b503461013857602036600319011261013857610155610f9e565b61015d6111f7565b6001600160a01b039081169081156101ad57600054826001600160601b0360a01b821617600055167f8be0079c531659141344cd1fd0a4f28419497f9722a3daafe3b4186f6b6457e0600080a380f35b604051631e4fbdf760e01b815260048101849052602490fd5b50346101385760209081600319360112610138576101e261130f565b5060043581526004825260408120600883526102016040832091611347565b916040519384908084549687815201958694845281842090845b81811061028957505050610234826102499703836110b1565b8060405196879660408852604088019061100f565b928684038288015251928381520193925b82811061026957505050500390f35b83516001600160a01b03168552869550938101939281019260010161025a565b82546001600160a01b03168952978301976001928301920161021b565b50346101385760403660031901126101385760406102c2610fb9565b9160043581526007602052209060018060a01b0316600052602052602060ff604060002054166040519015158152f35b503461013857604036600319011261013857604061030e610fb9565b9160043581526006602052209060018060a01b03166000526020526020604060002054604051908152f35b503461013857602036600319011261013857600480358252602052604090208054600182015460028301549092906001600160a01b031661037c60038301611151565b916103b760048201549360ff60066005850154940154169360405197889788526020880152604087015260e0606087015260e0860190610fcf565b92608085015260a0840152151560c08301520390f35b50346101385780600319360112610138576002546040516001600160a01b039091168152602090f35b50346101385761040e610408366110d3565b90611427565b60405190602092838301848452825180915260408401948060408360051b870101940192955b8287106104415785850386f35b90919293828061045d600193603f198a8203018652885161100f565b9601920196019592919092610434565b5034610138578060031936011261013857546040516001600160a01b039091168152602090f35b50346101385780600319360112610138576104ad6111f7565b600080546001600160a01b0319811682556001600160a01b03167f8be0079c531659141344cd1fd0a4f28419497f9722a3daafe3b4186f6b6457e08280a380f35b5034610138576104fd366110d3565b9190815260086020526040812090815483101561013857602061052084846110e9565b905460405160039290921b1c6001600160a01b03168152f35b50346101385760403660031901126101385760243567ffffffffffffffff81116107f557366023820112156107f55780600401359067ffffffffffffffff8211610932578290604051926105976020601f19601f84011601856110b1565b80845236602482840101116107e6578060246020930183860137830101526105bd611248565b6004358252600660205260408220336000526020526040600020546108e357600354906105e982611223565b6003556040516105f881611095565b82815260043560208201523360408201528160608201528360808201524260a0820152600160c082015282845260046020526040842081518155602082015160018201556002810160018060a01b036040840151166001600160601b0360a01b825416179055606082015180519067ffffffffffffffff82116108cf576106826003840154611117565b601f811161088a575b50602090601f831160011461081857918060c094926006948a9261080d575b50508160011b916000199060031b1c19161760038201555b6080840151600482015560a0840151600582015501910151151560ff801983541691161790556004358352600560205260408320805490600160401b8210156107f95790610715916001820181556110e9565b81549060031b9084821b91600019901b1916179055600435835260066020526040832033600052602052816040600020558260018060a01b0360025416803b156107f55781906024604051809481936366d3680160e11b835260043560048401525af180156107ea576107d2575b6020838360405190838252827f9d9ec53e54f6385ec09428208c029bd27eb96263fc7b5da62db98ecc7d3f015c3393806107c36004359589830190610fcf565b0390a460018055604051908152f35b6107dc849161106b565b6107e65782610783565b8280fd5b6040513d86823e3d90fd5b5080fd5b634e487b7160e01b85526041600452602485fd5b0151905038806106aa565b906003840188526020882091885b601f198516811061087257509260c0949260019260069583601f19811610610859575b505050811b0160038201556106c2565b015160001960f88460031b161c19169055388080610849565b91926020600181928685015181550194019201610826565b60038401885260208820601f840160051c8101602085106108c8575b601f830160051c820181106108bc57505061068b565b600081556001016108a6565b50806108a6565b634e487b7160e01b87526041600452602487fd5b60405162461bcd60e51b815260206004820152602160248201527f416c7265616479207375626d697474656420746f207468697320636f6e7465736044820152601d60fa1b6064820152608490fd5b634e487b7160e01b83526041600452602483fd5b50346101385780600319360112610138576020600354604051908152f35b5034610138576020806003193601126107f5576004358252600581526040822060405192838383549182815201908193835284832090835b8181106109f057505050846109b29103856110b1565b60405193838594850191818652518092526040850193925b8281106109d957505050500390f35b8351855286955093810193928101926001016109ca565b82548452928601926001928301920161099c565b5034610138576020908160031936011261013857600435610a23611248565b808252600483526040822090610a3f60ff60068401541661126b565b808352600784526040832033600052845260ff6040600020541615610c535760019184838201549160018060a01b039081600254166040519384809263772744b560e01b825287600483015260249687915afa908115610c485760049291610aae918a91610c1b575b506112cf565b8588526007895260408820336000528952604060002060ff19815416905501908154918215610c08578697986008916000198095019055868a525260408820918689905b610b25575b898833888a7fc6d38efeed0d17048786612d20fac3647ee276a58b750899aecb7e74401175868580a4805580f35b835480821015610c0257610b3982866110e9565b905460039291831b1c85163314610b5b575050610b5590611223565b87610af2565b90969798508281969394959601908111610bef5790610b8f85610b81610bae94896110e9565b9054908a1b1c1691876110e9565b90919082549060031b9160018060a01b03809116831b921b1916179055565b8354908115610bdd57500192610bc484846110e9565b81939154921b1b19169055559082913880808080610af7565b634e487b7160e01b8a52603160045289fd5b634e487b7160e01b8b526011600452828bfd5b50610af7565b634e487b7160e01b885260116004528388fd5b610c3b91508b3d8d11610c41575b610c3381836110b1565b8101906112b7565b38610aa8565b503d610c29565b6040513d8a823e3d90fd5b60405162461bcd60e51b815260048101859052601160248201527012185d995b89dd081d9bdd1959081e595d607a1b6044820152606490fd5b503461013857602036600319011261013857610cc06040610cd492610caf61130f565b506004358152600460205220611347565b60405191829160208352602083019061100f565b0390f35b503461013857602036600319011261013857610cf2610f9e565b610cfa6111f7565b6001600160a01b03168015610d1f576001600160601b0360a01b600254161760025580f35b60405162461bcd60e51b815260206004820152600f60248201526e496e76616c6964206164647265737360881b6044820152606490fd5b5034610138576020806003193601126107f55760043590610d75611248565b8183526004815260408320610d9060ff60068301541661126b565b60018101549160018060a01b039160248284600254166040519283809263772744b560e01b82528960048301525afa8015610f9357610dd5918891610f7c57506112cf565b8486526007825260408620338752825260ff604087205416610f4757338360028301541614610f02579060046008928688526007835260408820338952835260408820600160ff1982541617905501610e2e8154611223565b90558486525260408420805490600160401b821015610eee57610e5c82610e7a9260018996950181556110e9565b81546001600160a01b0360039290921b91821b19163390911b179055565b60025416803b156107f5578190602460405180948193633cee798760e21b83528760048401525af180156107ea57610edb575b5033917f7fe1d4e6b34e228b5dc059fcdc037c71b216fb2417f47c171e505144a5e4f5fc8480a46001805580f35b610ee79093919361106b565b9138610ead565b634e487b7160e01b86526041600452602486fd5b60405162461bcd60e51b815260048101839052601e60248201527f43616e6e6f7420766f746520666f72206f776e207375626d697373696f6e00006044820152606490fd5b60405162461bcd60e51b815260048101839052600d60248201526c105b1c9958591e481d9bdd1959609a1b6044820152606490fd5b610c3b9150843d8611610c4157610c3381836110b1565b6040513d89823e3d90fd5b600435906001600160a01b0382168203610fb457565b600080fd5b602435906001600160a01b0382168203610fb457565b919082519283825260005b848110610ffb575050826000602080949584010152601f8019910116010190565b602081830181015184830182015201610fda565b90815181526020820151602082015260018060a01b03604083015116604082015260c08061104c606085015160e0606086015260e0850190610fcf565b936080810151608085015260a081015160a08501520151151591015290565b67ffffffffffffffff811161107f57604052565b634e487b7160e01b600052604160045260246000fd5b60e0810190811067ffffffffffffffff82111761107f57604052565b90601f8019910116810190811067ffffffffffffffff82111761107f57604052565b6040906003190112610fb4576004359060243590565b80548210156111015760005260206000200190600090565b634e487b7160e01b600052603260045260246000fd5b90600182811c92168015611147575b602083101461113157565b634e487b7160e01b600052602260045260246000fd5b91607f1691611126565b906040519182600082549261116584611117565b9081845260019485811690816000146111d45750600114611191575b505061118f925003836110b1565b565b9093915060005260209081600020936000915b8183106111bc57505061118f93508201013880611181565b855488840185015294850194879450918301916111a4565b91505061118f94506020925060ff191682840152151560051b8201013880611181565b6000546001600160a01b0316330361120b57565b60405163118cdaa760e01b8152336004820152602490fd5b60001981146112325760010190565b634e487b7160e01b600052601160045260246000fd5b600260015414611259576002600155565b604051633ee5aeb560e01b8152600490fd5b1561127257565b60405162461bcd60e51b815260206004820152601960248201527f5375626d697373696f6e20646f6573206e6f74206578697374000000000000006044820152606490fd5b90816020910312610fb457518015158103610fb45790565b156112d657565b60405162461bcd60e51b8152602060048201526011602482015270566f74696e67206e6f742061637469766560781b6044820152606490fd5b6040519061131c82611095565b8160c06000918281528260208201528260408201526060808201528260808201528260a08201520152565b9060405161135481611095565b60c060ff60068395805485526001810154602086015260018060a01b03600282015416604086015261138860038201611151565b606086015260048101546080860152600581015460a08601520154161515910152565b67ffffffffffffffff811161107f5760051b60200190565b906113cd826113ab565b6113da60405191826110b1565b82815280926113eb601f19916113ab565b019060005b8281106113fc57505050565b60209061140761130f565b828285010152016113f0565b80518210156111015760209160051b010190565b9060009182526020906005825260408084208151808286829454938481520190885286882092885b888282106115f057505050611466925003826110b1565b80519182156115cc57611478836113c3565b94865b8481106115925750505050835b8181106114ea5750808210156114e25750905b6114a4826113c3565b925b8281106114b35750505090565b806114c16114dd9284611413565b516114cc8287611413565b526114d78186611413565b50611223565b6114a6565b90509061149b565b6001810180821161157e575b82811061150c575061150790611223565b611488565b6115389060808061151d8389611413565b5101519061152b8589611413565b5101511061153d57611223565b6114f6565b6115478387611413565b516115528288611413565b5161155d8589611413565b526115688488611413565b506115738288611413565b526114d78187611413565b634e487b7160e01b86526011600452602486fd5b806115a06115c79286611413565b518952600483526115b2848a20611347565b6115bc828a611413565b526114d78189611413565b61147b565b805195948601935091505067ffffffffffffffff8211848310176109325752815290565b855484526001958601958795509301920161144f56fea2646970667358221220c9cc13248657ac041b4a10b7afe0d53307937fac69419f7b851b25cef86f6d4264736f6c63430008140033",
  "linkReferences": {},
  "deployedLinkReferences": {}
}