{
  "_format": "hh-sol-artifact-1",
  "contractName": "SimpleVoting",
  "sourceName": "contracts/SimpleVoting.sol",
  "abi": [
    {
      "inputs": [],
      "stateMutability": "nonpayable",
      "type": "constructor"
    },
    {
      "inputs": [
        {
          "internalType": "address",
          "name": "owner",
          "type": "address"
        }
      ],
      "name": "OwnableInvalidOwner",
      "type": "error"
    },
    {
      "inputs": [
        {
          "internalType": "address",
          "name": "account",
          "type": "address"
        }
      ],
      "name": "OwnableUnauthorizedAccount",
      "type": "error"
    },
    {
      "inputs": [],
      "name": "ReentrancyGuardReentrantCall",
      "type": "error"
    },
    {
      "anonymous": false,
      "inputs": [
        {
          "indexed": true,
          "internalType": "address",
          "name": "previousOwner",
          "type": "address"
        },
        {
          "indexed": true,
          "internalType": "address",
          "name": "newOwner",
          "type": "address"
        }
      ],
      "name": "OwnershipTransferred",
      "type": "event"
    },
    {
      "anonymous": false,
      "inputs": [
        {
          "indexed": true,
          "internalType": "uint256",
          "name": "submissionId",
          "type": "uint256"
        },
        {
          "indexed": true,
          "internalType": "uint256",
          "name": "contestId",
          "type": "uint256"
        },
        {
          "indexed": true,
          "internalType": "address",
          "name": "submitter",
          "type": "address"
        },
        {
          "indexed": false,
          "internalType": "string",
          "name": "metadataURI",
          "type": "string"
        }
      ],
      "name": "SubmissionCreated",
      "type": "event"
    },
    {
      "anonymous": false,
      "inputs": [
        {
          "indexed": true,
          "internalType": "uint256",
          "name": "submissionId",
          "type": "uint256"
        },
        {
          "indexed": true,
          "internalType": "uint256",
          "name": "contestId",
          "type": "uint256"
        },
        {
          "indexed": true,
          "internalType": "address",
          "name": "voter",
          "type": "address"
        }
      ],
      "name": "VoteCast",
      "type": "event"
    },
    {
      "anonymous": false,
      "inputs": [
        {
          "indexed": true,
          "internalType": "uint256",
          "name": "submissionId",
          "type": "uint256"
        },
        {
          "indexed": true,
          "internalType": "uint256",
          "name": "contestId",
          "type": "uint256"
        },
        {
          "indexed": true,
          "internalType": "address",
          "name": "voter",
          "type": "address"
        }
      ],
      "name": "VoteRemoved",
      "type": "event"
    },
    {
      "inputs": [
        {
          "internalType": "uint256",
          "name": "",
          "type": "uint256"
        },
        {
          "internalType": "uint256",
          "name": "",
          "type": "uint256"
        }
      ],
      "name": "contestSubmissions",
      "outputs": [
        {
          "internalType": "uint256",
          "name": "",
          "type": "uint256"
        }
      ],
      "stateMutability": "view",
      "type": "function"
    },
    {
      "inputs": [
        {
          "internalType": "uint256",
          "name": "_contestId",
          "type": "uint256"
        }
      ],
      "name": "getContestSubmissions",
      "outputs": [
        {
          "internalType": "uint256[]",
          "name": "",
          "type": "uint256[]"
        }
      ],
      "stateMutability": "view",
      "type": "function"
    },
    {
      "inputs": [
        {
          "internalType": "uint256",
          "name": "_submissionId",
          "type": "uint256"
        }
      ],
      "name": "getSubmission",
      "outputs": [
        {
          "components": [
            {
              "internalType": "uint256",
              "name": "id",
              "type": "uint256"
            },
            {
              "internalType": "uint256",
              "name": "contestId",
              "type": "uint256"
            },
            {
              "internalType": "address",
              "name": "submitter",
              "type": "address"
            },
            {
              "internalType": "string",
              "name": "metadataURI",
              "type": "string"
            },
            {
              "internalType": "uint256",
              "name": "voteCount",
              "type": "uint256"
            },
            {
              "internalType": "uint256",
              "name": "timestamp",
              "type": "uint256"
            },
            {
              "internalType": "bool",
              "name": "exists",
              "type": "bool"
            }
          ],
          "internalType": "struct SimpleVoting.Submission",
          "name": "",
          "type": "tuple"
        }
      ],
      "stateMutability": "view",
      "type": "function"
    },
    {
      "inputs": [],
      "name": "getTotalSubmissions",
      "outputs": [
        {
          "internalType": "uint256",
          "name": "",
          "type": "uint256"
        }
      ],
      "stateMutability": "view",
      "type": "function"
    },
    {
      "inputs": [
        {
          "internalType": "uint256",
          "name": "_contestId",
          "type": "uint256"
        },
        {
          "internalType": "address",
          "name": "_user",
          "type": "address"
        }
      ],
      "name": "getUserSubmission",
      "outputs": [
        {
          "internalType": "uint256",
          "name": "",
          "type": "uint256"
        }
      ],
      "stateMutability": "view",
      "type": "function"
    },
    {
      "inputs": [
        {
          "internalType": "uint256",
          "name": "_contestId",
          "type": "uint256"
        },
        {
          "internalType": "address",
          "name": "_user",
          "type": "address"
        }
      ],
      "name": "getUserVoteInContest",
      "outputs": [
        {
          "internalType": "uint256",
          "name": "",
          "type": "uint256"
        }
      ],
      "stateMutability": "view",
      "type": "function"
    },
    {
      "inputs": [
        {
          "internalType": "uint256",
          "name": "_submissionId",
          "type": "uint256"
        },
        {
          "internalType": "address",
          "name": "_user",
          "type": "address"
        }
      ],
      "name": "hasUserVoted",
      "outputs": [
        {
          "internalType": "bool",
          "name": "",
          "type": "bool"
        }
      ],
      "stateMutability": "view",
      "type": "function"
    },
    {
      "inputs": [
        {
          "internalType": "uint256",
          "name": "",
          "type": "uint256"
        },
        {
          "internalType": "address",
          "name": "",
          "type": "address"
        }
      ],
      "name": "hasVoted",
      "outputs": [
        {
          "internalType": "bool",
          "name": "",
          "type": "bool"
        }
      ],
      "stateMutability": "view",
      "type": "function"
    },
    {
      "inputs": [],
      "name": "owner",
      "outputs": [
        {
          "internalType": "address",
          "name": "",
          "type": "address"
        }
      ],
      "stateMutability": "view",
      "type": "function"
    },
    {
      "inputs": [
        {
          "internalType": "uint256",
          "name": "_submissionId",
          "type": "uint256"
        }
      ],
      "name": "removeVote",
      "outputs": [],
      "stateMutability": "nonpayable",
      "type": "function"
    },
    {
      "inputs": [],
      "name": "renounceOwnership",
      "outputs": [],
      "stateMutability": "nonpayable",
      "type": "function"
    },
    {
      "inputs": [
        {
          "internalType": "uint256",
          "name": "",
          "type": "uint256"
        },
        {
          "internalType": "uint256",
          "name": "",
          "type": "uint256"
        }
      ],
      "name": "submissionVoters",
      "outputs": [
        {
          "internalType": "address",
          "name": "",
          "type": "address"
        }
      ],
      "stateMutability": "view",
      "type": "function"
    },
    {
      "inputs": [
        {
          "internalType": "uint256",
          "name": "",
          "type": "uint256"
        }
      ],
      "name": "submissions",
      "outputs": [
        {
          "internalType": "uint256",
          "name": "id",
          "type": "uint256"
        },
        {
          "internalType": "uint256",
          "name": "contestId",
          "type": "uint256"
        },
        {
          "internalType": "address",
          "name": "submitter",
          "type": "address"
        },
        {
          "internalType": "string",
          "name": "metadataURI",
          "type": "string"
        },
        {
          "internalType": "uint256",
          "name": "voteCount",
          "type": "uint256"
        },
        {
          "internalType": "uint256",
          "name": "timestamp",
          "type": "uint256"
        },
        {
          "internalType": "bool",
          "name": "exists",
          "type": "bool"
        }
      ],
      "stateMutability": "view",
      "type": "function"
    },
    {
      "inputs": [
        {
          "internalType": "uint256",
          "name": "_contestId",
          "type": "uint256"
        },
        {
          "internalType": "string",
          "name": "_metadataURI",
          "type": "string"
        }
      ],
      "name": "submitEntry",
      "outputs": [
        {
          "internalType": "uint256",
          "name": "",
          "type": "uint256"
        }
      ],
      "stateMutability": "nonpayable",
      "type": "function"
    },
    {
      "inputs": [
        {
          "internalType": "address",
          "name": "newOwner",
          "type": "address"
        }
      ],
      "name": "transferOwnership",
      "outputs": [],
      "stateMutability": "nonpayable",
      "type": "function"
    },
    {
      "inputs": [
        {
          "internalType": "uint256",
          "name": "",
          "type": "uint256"
        },
        {
          "internalType": "address",
          "name": "",
          "type": "address"
        }
      ],
      "name": "userSubmission",
      "outputs": [
        {
          "internalType": "uint256",
          "name": "",
          "type": "uint256"
        }
      ],
      "stateMutability": "view",
      "type": "function"
    },
    {
      "inputs": [
        {
          "internalType": "uint256",
          "name": "",
          "type": "uint256"
        },
        {
          "internalType": "address",
          "name": "",
          "type": "address"
        }
      ],
      "name": "userVote",
      "outputs": [
        {
          "internalType": "uint256",
          "name": "",
          "type": "uint256"
        }
      ],
      "stateMutability": "view",
      "type": "function"
    },
    {
      "inputs": [
        {
          "internalType": "uint256",
          "name": "_submissionId",
          "type": "uint256"
        }
      ],
      "name": "vote",
      "outputs": [],
      "stateMutability": "nonpayable",
      "type": "function"
    }
  ],
  "bytecode": "0x6080806040523461008357331561006d5760008054336001600160a01b03198216811783556040519290916001600160a01b0316907f8be0079c531659141344cd1fd0a4f28419497f9722a3daafe3b4186f6b6457e09080a36001805560016002556110e390816100898239f35b631e4fbdf760e01b815260006004820152602490fd5b600080fdfe6080604052600436101561001257600080fd5b60003560e01c80630121b93f14610b465780633687f7bf1461024b5780633e8686cc14610a345780633f68fde41461084857806343859632146101fe5780634c406c01146107a257806354554d461461078457806356ce45b6146103f25780636c811686146103a8578063715018a61461034f5780638da5cb5b14610326578063ad73349e14610293578063d17bd67c1461024b578063dc296ae1146101fe578063dc37596d146101b6578063dfa63e6c146101b6578063f2fde38b146101265763fadfa4dc146100e257600080fd5b34610121576100f036610e8f565b906000526004602052604060002080548210156101215760209161011391610ea5565b90546040519160031b1c8152f35b600080fd5b34610121576020366003190112610121576004356001600160a01b038181169182900361012157610155610fb3565b811561019d57600054826bffffffffffffffffffffffff60a01b821617600055167f8be0079c531659141344cd1fd0a4f28419497f9722a3daafe3b4186f6b6457e0600080a3005b604051631e4fbdf760e01b815260006004820152602490fd5b34610121576040366003190112610121576101cf610dfb565b600435600052600860205260406000209060018060a01b03166000526020526020604060002054604051908152f35b3461012157604036600319011261012157610217610dfb565b600435600052600660205260406000209060018060a01b0316600052602052602060ff604060002054166040519015158152f35b3461012157604036600319011261012157610264610dfb565b600435600052600560205260406000209060018060a01b03166000526020526020604060002054604051908152f35b346101215760203660031901126101215760043560005260036020526040600020805460018201549160018060a01b036002820154166102d560038301610f0d565b9161031060048201549360ff60066005850154940154169360405197889788526020880152604087015260e0606087015260e0860190610e11565b92608085015260a0840152151560c08301520390f35b34610121576000366003190112610121576000546040516001600160a01b039091168152602090f35b3461012157600036600319011261012157610368610fb3565b600080546001600160a01b0319811682556001600160a01b03167f8be0079c531659141344cd1fd0a4f28419497f9722a3daafe3b4186f6b6457e08280a3005b34610121576103b636610e8f565b90600052600760205260406000208054821015610121576020916103d991610ea5565b905460405160039290921b1c6001600160a01b03168152f35b346101215760403660031901126101215760243567ffffffffffffffff8111610121573660238201121561012157806004013567ffffffffffffffff8111610658576040519161044c601f8301601f191660200184610e6d565b818352366024838301011161012157816000926024602093018386013783010152610475610fee565b6004356000526005602052604060002033600052602052604060002054610735576002546104a281610fdf565b6002556040516104b181610e51565b8181526004356020820152336040820152826060820152600060808201524260a0820152600160c0820152816000526003602052604060002081518155602082015160018201556002810160018060a01b036040840151166bffffffffffffffffffffffff60a01b825416179055606082015180519067ffffffffffffffff8211610658576105436003840154610ed3565b601f81116106ee575b50602090601f831160011461067957918060c0949260069460009261066e575b50508160011b916000199060031b1c19161760038201555b6080840151600482015560a0840151600582015501910151151560ff801983541691161790556004356000526004602052604060002091825492600160401b84101561065857836105dc916001602096018155610ea5565b81549060031b9084821b91600019901b19161790556004356000526005835260406000203360005283528160406000205560405190838252827f9d9ec53e54f6385ec09428208c029bd27eb96263fc7b5da62db98ecc7d3f015c3393806106496004359589830190610e11565b0390a460018055604051908152f35b634e487b7160e01b600052604160045260246000fd5b01519050888061056c565b906003840160005260206000209160005b601f19851681106106d657509260c0949260019260069583601f198116106106bd575b505050811b016003820155610584565b015160001960f88460031b161c191690558880806106ad565b9192602060018192868501518155019401920161068a565b600384016000526020600020601f840160051c81016020851061072e575b601f830160051c8201811061072257505061054c565b6000815560010161070c565b508061070c565b60405162461bcd60e51b815260206004820152602160248201527f416c7265616479207375626d697474656420746f207468697320636f6e7465736044820152601d60fa1b6064820152608490fd5b34610121576000366003190112610121576020600254604051908152f35b34610121576020806003193601126101215760043560005260048152604060002060405190818382549182815201908192600052846000209060005b868282106108345786866107f482880383610e6d565b604051928392818401908285525180915260408401929160005b82811061081d57505050500390f35b83518552869550938101939281019260010161080e565b8354855290930192600192830192016107de565b34610121576020806003193601126101215760043590610866610fee565b81600052600391828252604060002061088560ff600683015416611011565b8160005260068352604060002033600052835260ff60406000205416156109fb5760079360019485946004868501549486600052600683526040600020336000528352604060002060ff198154169055016108e0815461105d565b9055836000526008815260406000203360005281526000604081205584600052526040600020846000905b61093e575b50505033917fc6d38efeed0d17048786612d20fac3647ee276a58b750899aecb7e7440117586600080a48055005b8154808210156109f5576109528284610ea5565b90546001600160a01b039291861b1c8216331461097a57505061097490610fdf565b8561090b565b959650939491929160001981019081116109df576109d4946109cf936109a36109b09387610ea5565b9054911b1c169184610ea5565b90919082549060031b9160018060a01b03809116831b921b1916179055565b61106a565b908291848080610910565b634e487b7160e01b600052601160045260246000fd5b50610910565b60405162461bcd60e51b815260048101849052601160248201527012185d995b89dd081d9bdd1959081e595d607a1b6044820152606490fd5b346101215760208060031936011261012157600060c0604051610a5681610e51565b82815282848201528260408201526060808201528260808201528260a0820152015260043560005260038152604060002060405190610a9482610e51565b80548252600181015483830190815260028201546001600160a01b03908116604085019081529290610b2d90610acc60038401610f0d565b90606087019182526004840154956080880196875260ff600660058701549660a08b019788520154169560c089019615158752604051998a99818b5251908a0152516040890152511660608701525160e06080870152610100860190610e11565b925160a08501525160c084015251151560e08301520390f35b34610121576020806003193601126101215760043590610b64610fee565b81600052600391828252604060002092610b8460ff600686015416611011565b60028401546001600160a01b03939084163314610db75760019485948582015493846000526008845260406000203360005284526040600020549182151580610d95575b610c97575b505050836004929394955060005260068352604060002033600052835260406000208660ff1982541617905501610c048154610fdf565b905582600052600781526040600020805490600160401b8210156106585781610c349187610c5294018155610ea5565b81546001600160a01b0360039290921b91821b19163390911b179055565b816000526008815260406000209033600052528160406000205533917f7fe1d4e6b34e228b5dc059fcdc037c71b216fb2417f47c171e505144a5e4f5fc600080a48055005b8260005281855260046040600020600687526040600020336000528752604060002060ff19815416905501610ccc815461105d565b905582600052600785526040600020886000905b610d24575b50505050836004939495965033917fc6d38efeed0d17048786612d20fac3647ee276a58b750899aecb7e7440117586600080a485949392918780610bcd565b815480821015610d8f5783610d398385610ea5565b905490871b1c163314610d565750610d5090610fdf565b89610ce0565b96979899506000939192931987019687116109df576109b0610d82946109cf936109a360049a87610ea5565b8695949392888080610ce5565b50610ce5565b508260005260068552604060002033600052855260ff60406000205416610bc8565b6064906040519062461bcd60e51b82526004820152601e60248201527f43616e6e6f7420766f746520666f72206f776e207375626d697373696f6e00006044820152fd5b602435906001600160a01b038216820361012157565b919082519283825260005b848110610e3d575050826000602080949584010152601f8019910116010190565b602081830181015184830182015201610e1c565b60e0810190811067ffffffffffffffff82111761065857604052565b90601f8019910116810190811067ffffffffffffffff82111761065857604052565b6040906003190112610121576004359060243590565b8054821015610ebd5760005260206000200190600090565b634e487b7160e01b600052603260045260246000fd5b90600182811c92168015610f03575b6020831014610eed57565b634e487b7160e01b600052602260045260246000fd5b91607f1691610ee2565b9060405191826000825492610f2184610ed3565b908184526001948581169081600014610f905750600114610f4d575b5050610f4b92500383610e6d565b565b9093915060005260209081600020936000915b818310610f78575050610f4b93508201013880610f3d565b85548884018501529485019487945091830191610f60565b915050610f4b94506020925060ff191682840152151560051b8201013880610f3d565b6000546001600160a01b03163303610fc757565b60405163118cdaa760e01b8152336004820152602490fd5b60001981146109df5760010190565b600260015414610fff576002600155565b604051633ee5aeb560e01b8152600490fd5b1561101857565b60405162461bcd60e51b815260206004820152601960248201527f5375626d697373696f6e20646f6573206e6f74206578697374000000000000006044820152606490fd5b80156109df576000190190565b805480156110975760001901906110818282610ea5565b81549060018060a01b039060031b1b1916905555565b634e487b7160e01b600052603160045260246000fdfea26469706673582212208bbdafba70089dc5ab6b0910f4035f47c4d677d08aa291ad8ee34eba184842ee64736f6c63430008140033",
  "linkReferences": {},
  "deployedLinkReferences": {}
}