{
  "_format": "hh-sol-artifact-1",
  "contractName": "SimpleVoting",
  "sourceName": "contracts/SimpleVoting.sol",
  "abi": [
    {
      "inputs": [],
      "stateMutability": "nonpayable",
      "type": "constructor"
    },
    {
      "inputs": [
        {
          "internalType": "address",
          "name": "owner",
          "type": "address"
        }
      ],
      "name": "OwnableInvalidOwner",
      "type": "error"
    },
    {
      "inputs": [
        {
          "internalType": "address",
          "name": "account",
          "type": "address"
        }
      ],
      "name": "OwnableUnauthorizedAccount",
      "type": "error"
    },
    {
      "inputs": [],
      "name": "ReentrancyGuardReentrantCall",
      "type": "error"
    },
    {
      "anonymous": false,
      "inputs": [
        {
          "indexed": true,
          "internalType": "address",
          "name": "previousOwner",
          "type": "address"
        },
        {
          "indexed": true,
          "internalType": "address",
          "name": "newOwner",
          "type": "address"
        }
      ],
      "name": "OwnershipTransferred",
      "type": "event"
    },
    {
      "anonymous": false,
      "inputs": [
        {
          "indexed": true,
          "internalType": "bytes32",
          "name": "submissionId",
          "type": "bytes32"
        },
        {
          "indexed": true,
          "internalType": "uint256",
          "name": "contestId",
          "type": "uint256"
        },
        {
          "indexed": true,
          "internalType": "address",
          "name": "submitter",
          "type": "address"
        },
        {
          "indexed": false,
          "internalType": "string",
          "name": "metadataURI",
          "type": "string"
        }
      ],
      "name": "SubmissionCreated",
      "type": "event"
    },
    {
      "anonymous": false,
      "inputs": [
        {
          "indexed": true,
          "internalType": "bytes32",
          "name": "submissionId",
          "type": "bytes32"
        },
        {
          "indexed": true,
          "internalType": "uint256",
          "name": "contestId",
          "type": "uint256"
        },
        {
          "indexed": true,
          "internalType": "address",
          "name": "voter",
          "type": "address"
        }
      ],
      "name": "VoteCast",
      "type": "event"
    },
    {
      "anonymous": false,
      "inputs": [
        {
          "indexed": true,
          "internalType": "bytes32",
          "name": "submissionId",
          "type": "bytes32"
        },
        {
          "indexed": true,
          "internalType": "uint256",
          "name": "contestId",
          "type": "uint256"
        },
        {
          "indexed": true,
          "internalType": "address",
          "name": "voter",
          "type": "address"
        }
      ],
      "name": "VoteRemoved",
      "type": "event"
    },
    {
      "inputs": [
        {
          "internalType": "uint256",
          "name": "_contestId",
          "type": "uint256"
        },
        {
          "internalType": "address",
          "name": "_submitter",
          "type": "address"
        }
      ],
      "name": "computeSubmissionId",
      "outputs": [
        {
          "internalType": "bytes32",
          "name": "",
          "type": "bytes32"
        }
      ],
      "stateMutability": "pure",
      "type": "function"
    },
    {
      "inputs": [
        {
          "internalType": "uint256",
          "name": "",
          "type": "uint256"
        },
        {
          "internalType": "uint256",
          "name": "",
          "type": "uint256"
        }
      ],
      "name": "contestSubmissions",
      "outputs": [
        {
          "internalType": "bytes32",
          "name": "",
          "type": "bytes32"
        }
      ],
      "stateMutability": "view",
      "type": "function"
    },
    {
      "inputs": [
        {
          "internalType": "uint256",
          "name": "_contestId",
          "type": "uint256"
        }
      ],
      "name": "getContestSubmissions",
      "outputs": [
        {
          "internalType": "bytes32[]",
          "name": "",
          "type": "bytes32[]"
        }
      ],
      "stateMutability": "view",
      "type": "function"
    },
    {
      "inputs": [
        {
          "internalType": "bytes32",
          "name": "_submissionId",
          "type": "bytes32"
        }
      ],
      "name": "getSubmission",
      "outputs": [
        {
          "components": [
            {
              "internalType": "bytes32",
              "name": "id",
              "type": "bytes32"
            },
            {
              "internalType": "uint256",
              "name": "contestId",
              "type": "uint256"
            },
            {
              "internalType": "address",
              "name": "submitter",
              "type": "address"
            },
            {
              "internalType": "string",
              "name": "metadataURI",
              "type": "string"
            },
            {
              "internalType": "uint256",
              "name": "voteCount",
              "type": "uint256"
            },
            {
              "internalType": "uint256",
              "name": "timestamp",
              "type": "uint256"
            },
            {
              "internalType": "bool",
              "name": "exists",
              "type": "bool"
            }
          ],
          "internalType": "struct SimpleVoting.Submission",
          "name": "",
          "type": "tuple"
        }
      ],
      "stateMutability": "view",
      "type": "function"
    },
    {
      "inputs": [
        {
          "internalType": "uint256",
          "name": "_contestId",
          "type": "uint256"
        },
        {
          "internalType": "address",
          "name": "_user",
          "type": "address"
        }
      ],
      "name": "getUserSubmission",
      "outputs": [
        {
          "internalType": "bytes32",
          "name": "",
          "type": "bytes32"
        }
      ],
      "stateMutability": "view",
      "type": "function"
    },
    {
      "inputs": [
        {
          "internalType": "uint256",
          "name": "_contestId",
          "type": "uint256"
        },
        {
          "internalType": "address",
          "name": "_user",
          "type": "address"
        }
      ],
      "name": "getUserVoteInContest",
      "outputs": [
        {
          "internalType": "bytes32",
          "name": "",
          "type": "bytes32"
        }
      ],
      "stateMutability": "view",
      "type": "function"
    },
    {
      "inputs": [
        {
          "internalType": "bytes32",
          "name": "_submissionId",
          "type": "bytes32"
        },
        {
          "internalType": "address",
          "name": "_user",
          "type": "address"
        }
      ],
      "name": "hasUserVoted",
      "outputs": [
        {
          "internalType": "bool",
          "name": "",
          "type": "bool"
        }
      ],
      "stateMutability": "view",
      "type": "function"
    },
    {
      "inputs": [
        {
          "internalType": "bytes32",
          "name": "",
          "type": "bytes32"
        },
        {
          "internalType": "address",
          "name": "",
          "type": "address"
        }
      ],
      "name": "hasVoted",
      "outputs": [
        {
          "internalType": "bool",
          "name": "",
          "type": "bool"
        }
      ],
      "stateMutability": "view",
      "type": "function"
    },
    {
      "inputs": [],
      "name": "owner",
      "outputs": [
        {
          "internalType": "address",
          "name": "",
          "type": "address"
        }
      ],
      "stateMutability": "view",
      "type": "function"
    },
    {
      "inputs": [
        {
          "internalType": "bytes32",
          "name": "_submissionId",
          "type": "bytes32"
        }
      ],
      "name": "removeVote",
      "outputs": [],
      "stateMutability": "nonpayable",
      "type": "function"
    },
    {
      "inputs": [],
      "name": "renounceOwnership",
      "outputs": [],
      "stateMutability": "nonpayable",
      "type": "function"
    },
    {
      "inputs": [
        {
          "internalType": "bytes32",
          "name": "",
          "type": "bytes32"
        },
        {
          "internalType": "uint256",
          "name": "",
          "type": "uint256"
        }
      ],
      "name": "submissionVoters",
      "outputs": [
        {
          "internalType": "address",
          "name": "",
          "type": "address"
        }
      ],
      "stateMutability": "view",
      "type": "function"
    },
    {
      "inputs": [
        {
          "internalType": "bytes32",
          "name": "",
          "type": "bytes32"
        }
      ],
      "name": "submissions",
      "outputs": [
        {
          "internalType": "bytes32",
          "name": "id",
          "type": "bytes32"
        },
        {
          "internalType": "uint256",
          "name": "contestId",
          "type": "uint256"
        },
        {
          "internalType": "address",
          "name": "submitter",
          "type": "address"
        },
        {
          "internalType": "string",
          "name": "metadataURI",
          "type": "string"
        },
        {
          "internalType": "uint256",
          "name": "voteCount",
          "type": "uint256"
        },
        {
          "internalType": "uint256",
          "name": "timestamp",
          "type": "uint256"
        },
        {
          "internalType": "bool",
          "name": "exists",
          "type": "bool"
        }
      ],
      "stateMutability": "view",
      "type": "function"
    },
    {
      "inputs": [
        {
          "internalType": "uint256",
          "name": "_contestId",
          "type": "uint256"
        },
        {
          "internalType": "string",
          "name": "_metadataURI",
          "type": "string"
        }
      ],
      "name": "submitEntry",
      "outputs": [
        {
          "internalType": "bytes32",
          "name": "",
          "type": "bytes32"
        }
      ],
      "stateMutability": "nonpayable",
      "type": "function"
    },
    {
      "inputs": [
        {
          "internalType": "address",
          "name": "newOwner",
          "type": "address"
        }
      ],
      "name": "transferOwnership",
      "outputs": [],
      "stateMutability": "nonpayable",
      "type": "function"
    },
    {
      "inputs": [
        {
          "internalType": "uint256",
          "name": "",
          "type": "uint256"
        },
        {
          "internalType": "address",
          "name": "",
          "type": "address"
        }
      ],
      "name": "userSubmission",
      "outputs": [
        {
          "internalType": "bytes32",
          "name": "",
          "type": "bytes32"
        }
      ],
      "stateMutability": "view",
      "type": "function"
    },
    {
      "inputs": [
        {
          "internalType": "uint256",
          "name": "",
          "type": "uint256"
        },
        {
          "internalType": "address",
          "name": "",
          "type": "address"
        }
      ],
      "name": "userVote",
      "outputs": [
        {
          "internalType": "bytes32",
          "name": "",
          "type": "bytes32"
        }
      ],
      "stateMutability": "view",
      "type": "function"
    },
    {
      "inputs": [
        {
          "internalType": "bytes32",
          "name": "_submissionId",
          "type": "bytes32"
        }
      ],
      "name": "vote",
      "outputs": [],
      "stateMutability": "nonpayable",
      "type": "function"
    }
  ],
  "bytecode": "0x6080806040523461007e5733156100685760008054336001600160a01b03198216811783556040519290916001600160a01b0316907f8be0079c531659141344cd1fd0a4f28419497f9722a3daafe3b4186f6b6457e09080a36001805561114d90816100848239f35b631e4fbdf760e01b815260006004820152602490fd5b600080fdfe6080604052600436101561001257600080fd5b60003560e01c806324a4836114610cd45780633687f7bf146102a65780634bc34df514610c7b5780634c406c0114610bd557806356ce45b614610826578063715018a6146107cd578063756dd3a4146106bb5780638da5cb5b14610692578063a69beaba14610381578063aadc3b7214610211578063c5c9c0a2146102ee578063d17bd67c146102a6578063dc37596d1461025e578063dfa63e6c1461025e578063f25c583e14610211578063f2fde38b14610181578063f43499471461012f5763fadfa4dc146100e257600080fd5b3461012a57604036600319011261012a5760243560043560005260036020526040600020805482101561012a5760209161011b91610fef565b90549060031b1c604051908152f35b600080fd5b3461012a57604036600319011261012a5760243560043560005260066020526040600020805482101561012a5760209161016891610fef565b905460405160039290921b1c6001600160a01b03168152f35b3461012a57602036600319011261012a576004356001600160a01b038181169182900361012a576101b061101d565b81156101f857600054826bffffffffffffffffffffffff60a01b821617600055167f8be0079c531659141344cd1fd0a4f28419497f9722a3daafe3b4186f6b6457e0600080a3005b604051631e4fbdf760e01b815260006004820152602490fd5b3461012a57604036600319011261012a5761022a610e7b565b600435600052600560205260406000209060018060a01b0316600052602052602060ff604060002054166040519015158152f35b3461012a57604036600319011261012a57610277610e7b565b600435600052600760205260406000209060018060a01b03166000526020526020604060002054604051908152f35b3461012a57604036600319011261012a576102bf610e7b565b600435600052600460205260406000209060018060a01b03166000526020526020604060002054604051908152f35b3461012a57602036600319011261012a5760043560005260026020526040600020805460018201549160018060a01b0360028201541661033060038301610f49565b9161036b60048201549360ff60066005850154940154169360405197889788526020880152604087015260e0606087015260e0860190610ecf565b92608085015260a0840152151560c08301520390f35b3461012a5760208060031936011261012a5760043561039e611049565b80600052600282526040600020906103bc60ff60068401541661106c565b60028201546001600160a01b03908116331461064d576001938385809501549283600052600783526040600020336000528352604060002054908115158061062b575b6104e3575b5050836004929394955060005260058352604060002033600052835260406000208660ff198254161790550161043a81546110c5565b905582600052600681526040600020805490600160401b8210156104cd578161046a918761048894018155610fef565b81546001600160a01b0360039290921b91821b19163390911b179055565b816000526007815260406000209033600052528160406000205533917fd4c5c7fc81e7d9f03f54fab208e2f87ff01d711ba66f32541018082d77751405600080a48055005b634e487b7160e01b600052604160045260246000fd5b816000526002845260046040600020600586526040600020336000528652604060002060ff1981541690550161051981546110b8565b90558160005260068452604060002090876000905b610570575b505050836004939495965033917f54f12d5a1343ebbb37773b3eed82a7b190d43aca4992cfd3f56efd6b362184f5600080a4859493929187610404565b825480821015610625576105848285610fef565b9054600391821b1c841633146105a557505061059f906110c5565b8861052e565b91909697989950600093929319870196871161060f576105df610603946105fe936105d260049a87610fef565b9054911b1c169184610fef565b90919082549060031b9160018060a01b03809116831b921b1916179055565b6110d4565b86959493928880610533565b634e487b7160e01b600052601160045260246000fd5b50610533565b508160005260058452604060002033600052845260ff604060002054166103ff565b60405162461bcd60e51b815260048101859052601e60248201527f43616e6e6f7420766f746520666f72206f776e207375626d697373696f6e00006044820152606490fd5b3461012a57600036600319011261012a576000546040516001600160a01b039091168152602090f35b3461012a5760208060031936011261012a57600060c06040516106dd81610e91565b82815282848201528260408201526060808201528260808201528260a082015201526004356000526002815260406000206040519061071b82610e91565b80548252600181015483830190815260028201546001600160a01b039081166040850190815292906107b49061075360038401610f49565b90606087019182526004840154956080880196875260ff600660058701549660a08b019788520154169560c089019615158752604051998a99818b5251908a0152516040890152511660608701525160e06080870152610100860190610ecf565b925160a08501525160c084015251151560e08301520390f35b3461012a57600036600319011261012a576107e661101d565b600080546001600160a01b0319811682556001600160a01b03167f8be0079c531659141344cd1fd0a4f28419497f9722a3daafe3b4186f6b6457e08280a3005b3461012a57604036600319011261012a5760243567ffffffffffffffff811161012a573660238201121561012a57806004013567ffffffffffffffff81116104cd5760405191610880601f8301601f191660200184610ead565b818352366024838301011161012a578160009260246020930183860137830101526108a9611049565b6004356000526004602052604060002033600052602052604060002054610b865760408051600435602082019081523360601b6bffffffffffffffffffffffff19169282019290925261090981605481015b03601f198101835282610ead565b51902060405161091881610e91565b8181526004356020820152336040820152826060820152600060808201524260a0820152600160c0820152816000526002602052604060002081518155602082015160018201556002810160018060a01b036040840151166bffffffffffffffffffffffff60a01b825416179055606082015180519067ffffffffffffffff82116104cd576109aa6003840154610f0f565b601f8111610b3f575b50602090601f8311600114610aca57918060c09492600694600092610abf575b50508160011b916000199060031b1c19161760038201555b6080840151600482015560a0840151600582015501910151151560ff801983541691161790556004356000526003602052604060002091825492600160401b8410156104cd5783610a43916001602096018155610fef565b81549060031b9084821b91600019901b19161790556004356000526004835260406000203360005283528160406000205560405190838252827f3763f6545af225cd151004629a7926d782c5fe0731806f119267ff97c38ded06339380610ab06004359589830190610ecf565b0390a460018055604051908152f35b0151905088806109d3565b906003840160005260206000209160005b601f1985168110610b2757509260c0949260019260069583601f19811610610b0e575b505050811b0160038201556109eb565b015160001960f88460031b161c19169055888080610afe565b91926020600181928685015181550194019201610adb565b600384016000526020600020601f840160051c810160208510610b7f575b601f830160051c82018110610b735750506109b3565b60008155600101610b5d565b5080610b5d565b60405162461bcd60e51b815260206004820152602160248201527f416c7265616479207375626d697474656420746f207468697320636f6e7465736044820152601d60fa1b6064820152608490fd5b3461012a5760208060031936011261012a5760043560005260038152604060002060405190818382549182815201908192600052846000209060005b86828210610c67578686610c2782880383610ead565b604051928392818401908285525180915260408401929160005b828110610c5057505050500390f35b835185528695509381019392810192600101610c41565b835485529093019260019283019201610c11565b3461012a57604036600319011261012a576020610c96610e7b565b60405160043583820190815260609290921b6bffffffffffffffffffffffff19166020830152610cc981603484016108fb565b519020604051908152f35b3461012a5760208060031936011261012a5760043590610cf2611049565b8160005260028152604060002091610d1060ff60068501541661106c565b8060005260058252604060002033600052825260ff6040600020541615610e425760069260019384936004858401549385600052600583526040600020336000528352604060002060ff19815416905501610d6b81546110b8565b9055826000526007815260406000203360005281526000604081205583600052526040600020836000905b610dc8575b505033917f54f12d5a1343ebbb37773b3eed82a7b190d43aca4992cfd3f56efd6b362184f5600080a48055005b815480821015610e3c57610ddc8284610fef565b90546001600160a01b0392600392909190831b1c83163314610e0a57505050610e04906110c5565b84610d96565b90929194959650600019810190811161060f57610e32946105fe936105d26105df9387610fef565b9082918480610d9b565b50610d9b565b60405162461bcd60e51b815260048101839052601160248201527012185d995b89dd081d9bdd1959081e595d607a1b6044820152606490fd5b602435906001600160a01b038216820361012a57565b60e0810190811067ffffffffffffffff8211176104cd57604052565b90601f8019910116810190811067ffffffffffffffff8211176104cd57604052565b919082519283825260005b848110610efb575050826000602080949584010152601f8019910116010190565b602081830181015184830182015201610eda565b90600182811c92168015610f3f575b6020831014610f2957565b634e487b7160e01b600052602260045260246000fd5b91607f1691610f1e565b9060405191826000825492610f5d84610f0f565b908184526001948581169081600014610fcc5750600114610f89575b5050610f8792500383610ead565b565b9093915060005260209081600020936000915b818310610fb4575050610f8793508201013880610f79565b85548884018501529485019487945091830191610f9c565b915050610f8794506020925060ff191682840152151560051b8201013880610f79565b80548210156110075760005260206000200190600090565b634e487b7160e01b600052603260045260246000fd5b6000546001600160a01b0316330361103157565b60405163118cdaa760e01b8152336004820152602490fd5b60026001541461105a576002600155565b604051633ee5aeb560e01b8152600490fd5b1561107357565b60405162461bcd60e51b815260206004820152601960248201527f5375626d697373696f6e20646f6573206e6f74206578697374000000000000006044820152606490fd5b801561060f576000190190565b600019811461060f5760010190565b805480156111015760001901906110eb8282610fef565b81549060018060a01b039060031b1b1916905555565b634e487b7160e01b600052603160045260246000fdfea2646970667358221220123bcfe831101024cc5674465eabf6e2d43c82c36222007201c29c971a7d63ad64736f6c63430008140033",
  "linkReferences": {},
  "deployedLinkReferences": {}
}